{
	"contracts/DSD/SmartRegistryData.sol": {
		"SmartRegistryData": {
			"abi": [
				{
					"inputs": [],
					"payable": false,
					"stateMutability": "nonpayable",
					"type": "constructor"
				},
				{
					"constant": true,
					"inputs": [
						{
							"internalType": "uint256",
							"name": "",
							"type": "uint256"
						}
					],
					"name": "FunctinputOutputlist",
					"outputs": [
						{
							"internalType": "string",
							"name": "name",
							"type": "string"
						},
						{
							"internalType": "string",
							"name": "t",
							"type": "string"
						}
					],
					"payable": false,
					"stateMutability": "view",
					"type": "function"
				},
				{
					"constant": true,
					"inputs": [
						{
							"internalType": "string",
							"name": "",
							"type": "string"
						}
					],
					"name": "FunctinputOutputs",
					"outputs": [
						{
							"internalType": "string",
							"name": "name",
							"type": "string"
						},
						{
							"internalType": "string",
							"name": "t",
							"type": "string"
						}
					],
					"payable": false,
					"stateMutability": "view",
					"type": "function"
				},
				{
					"constant": true,
					"inputs": [
						{
							"internalType": "uint256",
							"name": "",
							"type": "uint256"
						}
					],
					"name": "eventOutputList",
					"outputs": [
						{
							"internalType": "string",
							"name": "name",
							"type": "string"
						},
						{
							"internalType": "string",
							"name": "t",
							"type": "string"
						},
						{
							"internalType": "bool",
							"name": "is_indexed",
							"type": "bool"
						}
					],
					"payable": false,
					"stateMutability": "view",
					"type": "function"
				},
				{
					"constant": true,
					"inputs": [
						{
							"internalType": "string",
							"name": "",
							"type": "string"
						}
					],
					"name": "eventOutputs",
					"outputs": [
						{
							"internalType": "string",
							"name": "name",
							"type": "string"
						},
						{
							"internalType": "string",
							"name": "t",
							"type": "string"
						},
						{
							"internalType": "bool",
							"name": "is_indexed",
							"type": "bool"
						}
					],
					"payable": false,
					"stateMutability": "view",
					"type": "function"
				},
				{
					"constant": true,
					"inputs": [
						{
							"internalType": "string",
							"name": "",
							"type": "string"
						}
					],
					"name": "events",
					"outputs": [
						{
							"internalType": "string",
							"name": "name",
							"type": "string"
						},
						{
							"internalType": "string",
							"name": "description",
							"type": "string"
						},
						{
							"internalType": "string",
							"name": "evnttype",
							"type": "string"
						}
					],
					"payable": false,
					"stateMutability": "view",
					"type": "function"
				},
				{
					"constant": true,
					"inputs": [
						{
							"internalType": "uint256",
							"name": "",
							"type": "uint256"
						}
					],
					"name": "eventsList",
					"outputs": [
						{
							"internalType": "string",
							"name": "name",
							"type": "string"
						},
						{
							"internalType": "string",
							"name": "description",
							"type": "string"
						},
						{
							"internalType": "string",
							"name": "evnttype",
							"type": "string"
						}
					],
					"payable": false,
					"stateMutability": "view",
					"type": "function"
				},
				{
					"constant": true,
					"inputs": [
						{
							"internalType": "string",
							"name": "",
							"type": "string"
						}
					],
					"name": "functions",
					"outputs": [
						{
							"internalType": "string",
							"name": "name",
							"type": "string"
						},
						{
							"internalType": "string",
							"name": "description",
							"type": "string"
						},
						{
							"internalType": "string",
							"name": "Functype",
							"type": "string"
						},
						{
							"internalType": "string",
							"name": "scope",
							"type": "string"
						}
					],
					"payable": false,
					"stateMutability": "view",
					"type": "function"
				},
				{
					"constant": true,
					"inputs": [
						{
							"internalType": "uint256",
							"name": "",
							"type": "uint256"
						}
					],
					"name": "functionsList",
					"outputs": [
						{
							"internalType": "string",
							"name": "name",
							"type": "string"
						},
						{
							"internalType": "string",
							"name": "description",
							"type": "string"
						},
						{
							"internalType": "string",
							"name": "Functype",
							"type": "string"
						},
						{
							"internalType": "string",
							"name": "scope",
							"type": "string"
						}
					],
					"payable": false,
					"stateMutability": "view",
					"type": "function"
				},
				{
					"constant": false,
					"inputs": [],
					"name": "getsrd",
					"outputs": [
						{
							"components": [
								{
									"internalType": "uint256",
									"name": "id",
									"type": "uint256"
								},
								{
									"components": [
										{
											"components": [
												{
													"internalType": "string",
													"name": "name",
													"type": "string"
												},
												{
													"internalType": "string",
													"name": "description",
													"type": "string"
												},
												{
													"internalType": "string",
													"name": "evnttype",
													"type": "string"
												},
												{
													"components": [
														{
															"internalType": "string",
															"name": "name",
															"type": "string"
														},
														{
															"internalType": "string",
															"name": "t",
															"type": "string"
														},
														{
															"internalType": "bool",
															"name": "is_indexed",
															"type": "bool"
														}
													],
													"internalType": "struct SmartRegistryData.eventOutput[]",
													"name": "eventOutputList",
													"type": "tuple[]"
												}
											],
											"internalType": "struct SmartRegistryData.eventContract[]",
											"name": "eventsList",
											"type": "tuple[]"
										},
										{
											"components": [
												{
													"internalType": "string",
													"name": "name",
													"type": "string"
												},
												{
													"internalType": "string",
													"name": "description",
													"type": "string"
												},
												{
													"internalType": "string",
													"name": "Functype",
													"type": "string"
												},
												{
													"internalType": "string",
													"name": "scope",
													"type": "string"
												},
												{
													"components": [
														{
															"internalType": "string",
															"name": "name",
															"type": "string"
														},
														{
															"internalType": "string",
															"name": "t",
															"type": "string"
														}
													],
													"internalType": "struct SmartRegistryData.FunctinputOutput[]",
													"name": "FunctinputOutputList",
													"type": "tuple[]"
												}
											],
											"internalType": "struct SmartRegistryData.funtionContract[]",
											"name": "functionsList",
											"type": "tuple[]"
										}
									],
									"internalType": "struct SmartRegistryData.OperationalPerspective",
									"name": "op",
									"type": "tuple"
								},
								{
									"components": [
										{
											"internalType": "string",
											"name": "typeP",
											"type": "string"
										},
										{
											"internalType": "string",
											"name": "name",
											"type": "string"
										},
										{
											"internalType": "string",
											"name": "currency",
											"type": "string"
										},
										{
											"internalType": "string",
											"name": "consenssus",
											"type": "string"
										},
										{
											"internalType": "string",
											"name": "metadaExchangeProtocl",
											"type": "string"
										},
										{
											"internalType": "address",
											"name": "Contractadd",
											"type": "address"
										}
									],
									"internalType": "struct SmartRegistryData.TechnicalPerspective",
									"name": "tp",
									"type": "tuple"
								},
								{
									"components": [
										{
											"internalType": "string",
											"name": "adress",
											"type": "string"
										},
										{
											"internalType": "string",
											"name": "creationDate",
											"type": "string"
										},
										{
											"internalType": "string",
											"name": "UpdateDate",
											"type": "string"
										},
										{
											"internalType": "string",
											"name": "typeB",
											"type": "string"
										},
										{
											"internalType": "string",
											"name": "category",
											"type": "string"
										},
										{
											"internalType": "string",
											"name": "abiB",
											"type": "string"
										},
										{
											"internalType": "string",
											"name": "bin",
											"type": "string"
										},
										{
											"internalType": "string",
											"name": "discription",
											"type": "string"
										},
										{
											"internalType": "string",
											"name": "usedCompiler",
											"type": "string"
										},
										{
											"internalType": "string",
											"name": "usedRessources",
											"type": "string"
										},
										{
											"internalType": "string",
											"name": "userInterface",
											"type": "string"
										},
										{
											"internalType": "string",
											"name": "FutureUserTupe",
											"type": "string"
										},
										{
											"internalType": "string",
											"name": "provideradress",
											"type": "string"
										},
										{
											"internalType": "string",
											"name": "consumerProfileadress",
											"type": "string"
										},
										{
											"components": [
												{
													"internalType": "string",
													"name": "latency",
													"type": "string"
												},
												{
													"internalType": "string",
													"name": "gazConsumation",
													"type": "string"
												},
												{
													"internalType": "string",
													"name": "token",
													"type": "string"
												},
												{
													"internalType": "string",
													"name": "price",
													"type": "string"
												},
												{
													"internalType": "string",
													"name": "signed",
													"type": "string"
												},
												{
													"internalType": "string",
													"name": "tested",
													"type": "string"
												},
												{
													"internalType": "string",
													"name": "deployed",
													"type": "string"
												},
												{
													"internalType": "string",
													"name": "legalname",
													"type": "string"
												},
												{
													"internalType": "string",
													"name": "legaltype",
													"type": "string"
												}
											],
											"internalType": "struct SmartRegistryData.qosCharacteristics",
											"name": "qoschara",
											"type": "tuple"
										}
									],
									"internalType": "struct SmartRegistryData.BusnissPerspective",
									"name": "bp",
									"type": "tuple"
								}
							],
							"internalType": "struct SmartRegistryData.SCDATA[]",
							"name": "",
							"type": "tuple[]"
						}
					],
					"payable": false,
					"stateMutability": "nonpayable",
					"type": "function"
				},
				{
					"constant": true,
					"inputs": [
						{
							"internalType": "uint256",
							"name": "",
							"type": "uint256"
						}
					],
					"name": "providers",
					"outputs": [
						{
							"internalType": "string",
							"name": "id",
							"type": "string"
						},
						{
							"internalType": "string",
							"name": "role",
							"type": "string"
						},
						{
							"internalType": "string",
							"name": "publicKey",
							"type": "string"
						}
					],
					"payable": false,
					"stateMutability": "view",
					"type": "function"
				}
			],
			"devdoc": {
				"methods": {}
			},
			"evm": {
				"assembly": "    /* \"contracts/DSD/SmartRegistryData.sol\":103:3042  contract SmartRegistryData{\r... */\n  mstore(0x40, 0x80)\n    /* \"contracts/DSD/SmartRegistryData.sol\":239:244  50000 */\n  0xc350\n    /* \"contracts/DSD/SmartRegistryData.sol\":214:244  uint descriptionNumber = 50000 */\n  0x00\n  sstore\n    /* \"contracts/DSD/SmartRegistryData.sol\":136:212  constructor () public{\r... */\n  callvalue\n    /* \"--CODEGEN--\":8:17   */\n  dup1\n    /* \"--CODEGEN--\":5:7   */\n  iszero\n  tag_1\n  jumpi\n    /* \"--CODEGEN--\":30:31   */\n  0x00\n    /* \"--CODEGEN--\":27:28   */\n  dup1\n    /* \"--CODEGEN--\":20:32   */\n  revert\n    /* \"--CODEGEN--\":5:7   */\ntag_1:\n    /* \"contracts/DSD/SmartRegistryData.sol\":136:212  constructor () public{\r... */\n  pop\n    /* \"contracts/DSD/SmartRegistryData.sol\":162:182  RoleAccessControl rs */\n  0x00\n    /* \"contracts/DSD/SmartRegistryData.sol\":185:208  new RoleAccessControl() */\n  mload(0x40)\n  tag_4\n  swap1\n  tag_5\n  jump\t// in\ntag_4:\n  mload(0x40)\n  dup1\n  swap2\n  sub\n  swap1\n  0x00\n  create\n  dup1\n  iszero\n    /* \"--CODEGEN--\":8:17   */\n  dup1\n    /* \"--CODEGEN--\":5:7   */\n  iszero\n  tag_6\n  jumpi\n    /* \"--CODEGEN--\":45:61   */\n  returndatasize\n    /* \"--CODEGEN--\":42:43   */\n  0x00\n    /* \"--CODEGEN--\":39:40   */\n  dup1\n    /* \"--CODEGEN--\":24:62   */\n  returndatacopy\n    /* \"--CODEGEN--\":77:93   */\n  returndatasize\n    /* \"--CODEGEN--\":74:75   */\n  0x00\n    /* \"--CODEGEN--\":67:94   */\n  revert\n    /* \"--CODEGEN--\":5:7   */\ntag_6:\n    /* \"contracts/DSD/SmartRegistryData.sol\":185:208  new RoleAccessControl() */\n  pop\n    /* \"contracts/DSD/SmartRegistryData.sol\":162:208  RoleAccessControl rs = new RoleAccessControl() */\n  swap1\n  pop\n    /* \"contracts/DSD/SmartRegistryData.sol\":136:212  constructor () public{\r... */\n  pop\n    /* \"contracts/DSD/SmartRegistryData.sol\":103:3042  contract SmartRegistryData{\r... */\n  jump(tag_7)\ntag_5:\n  dataSize(sub_1)\n  dup1\n  dataOffset(sub_1)\n  dup4\n  codecopy\n  add\n  swap1\n  jump\t// out\ntag_7:\n  dataSize(sub_0)\n  dup1\n  dataOffset(sub_0)\n  0x00\n  codecopy\n  0x00\n  return\nstop\n\nsub_0: assembly {\n        /* \"contracts/DSD/SmartRegistryData.sol\":103:3042  contract SmartRegistryData{\r... */\n      mstore(0x40, 0x80)\n      callvalue\n        /* \"--CODEGEN--\":8:17   */\n      dup1\n        /* \"--CODEGEN--\":5:7   */\n      iszero\n      tag_1\n      jumpi\n        /* \"--CODEGEN--\":30:31   */\n      0x00\n        /* \"--CODEGEN--\":27:28   */\n      dup1\n        /* \"--CODEGEN--\":20:32   */\n      revert\n        /* \"--CODEGEN--\":5:7   */\n    tag_1:\n        /* \"contracts/DSD/SmartRegistryData.sol\":103:3042  contract SmartRegistryData{\r... */\n      pop\n      jumpi(tag_2, lt(calldatasize, 0x04))\n      shr(0xe0, calldataload(0x00))\n      dup1\n      0x9673d6a3\n      gt\n      tag_13\n      jumpi\n      dup1\n      0x9673d6a3\n      eq\n      tag_8\n      jumpi\n      dup1\n      0xb536cbfa\n      eq\n      tag_9\n      jumpi\n      dup1\n      0xc17e7295\n      eq\n      tag_10\n      jumpi\n      dup1\n      0xcaa6cfc1\n      eq\n      tag_11\n      jumpi\n      dup1\n      0xf087c8eb\n      eq\n      tag_12\n      jumpi\n      jump(tag_2)\n    tag_13:\n      dup1\n      0x2e0cf740\n      eq\n      tag_3\n      jumpi\n      dup1\n      0x332bc3da\n      eq\n      tag_4\n      jumpi\n      dup1\n      0x50f3fc81\n      eq\n      tag_5\n      jumpi\n      dup1\n      0x60f5b692\n      eq\n      tag_6\n      jumpi\n      dup1\n      0x6614aa8e\n      eq\n      tag_7\n      jumpi\n    tag_2:\n      0x00\n      dup1\n      revert\n        /* \"contracts/DSD/SmartRegistryData.sol\":1606:1666  mapping(string => FunctinputOutput) public FunctinputOutputs */\n    tag_3:\n      tag_14\n      0x04\n      dup1\n      calldatasize\n      sub\n      tag_15\n      swap2\n      swap1\n      dup2\n      add\n      swap1\n      jump(tag_16)\n    tag_15:\n      tag_17\n      jump\t// in\n    tag_14:\n      mload(0x40)\n      tag_18\n      swap3\n      swap2\n      swap1\n      jump(tag_19)\n    tag_18:\n      mload(0x40)\n      dup1\n      swap2\n      sub\n      swap1\n      return\n        /* \"contracts/DSD/SmartRegistryData.sol\":1726:1762  eventOutput[] public eventOutputList */\n    tag_4:\n      tag_20\n      0x04\n      dup1\n      calldatasize\n      sub\n      tag_21\n      swap2\n      swap1\n      dup2\n      add\n      swap1\n      jump(tag_22)\n    tag_21:\n      tag_23\n      jump\t// in\n    tag_20:\n      mload(0x40)\n      tag_24\n      swap4\n      swap3\n      swap2\n      swap1\n      jump(tag_25)\n    tag_24:\n      mload(0x40)\n      dup1\n      swap2\n      sub\n      swap1\n      return\n        /* \"contracts/DSD/SmartRegistryData.sol\":376:418  mapping(uint => provider) public providers */\n    tag_5:\n      tag_26\n      0x04\n      dup1\n      calldatasize\n      sub\n      tag_27\n      swap2\n      swap1\n      dup2\n      add\n      swap1\n      jump(tag_22)\n    tag_27:\n      tag_28\n      jump\t// in\n    tag_26:\n      mload(0x40)\n      tag_29\n      swap4\n      swap3\n      swap2\n      swap1\n      jump(tag_30)\n    tag_29:\n      mload(0x40)\n      dup1\n      swap2\n      sub\n      swap1\n      return\n        /* \"contracts/DSD/SmartRegistryData.sol\":1673:1719  FunctinputOutput[] public FunctinputOutputlist */\n    tag_6:\n      tag_31\n      0x04\n      dup1\n      calldatasize\n      sub\n      tag_32\n      swap2\n      swap1\n      dup2\n      add\n      swap1\n      jump(tag_22)\n    tag_32:\n      tag_33\n      jump\t// in\n    tag_31:\n      mload(0x40)\n      tag_34\n      swap3\n      swap2\n      swap1\n      jump(tag_19)\n    tag_34:\n      mload(0x40)\n      dup1\n      swap2\n      sub\n      swap1\n      return\n        /* \"contracts/DSD/SmartRegistryData.sol\":2760:3039  function getsrd()public returns ( SCDATA[] memory){\r... */\n    tag_7:\n      tag_35\n      tag_36\n      jump\t// in\n    tag_35:\n      mload(0x40)\n      tag_37\n      swap2\n      swap1\n      jump(tag_38)\n    tag_37:\n      mload(0x40)\n      dup1\n      swap2\n      sub\n      swap1\n      return\n        /* \"contracts/DSD/SmartRegistryData.sol\":2111:2157  mapping(string => eventContract) public events */\n    tag_8:\n      tag_39\n      0x04\n      dup1\n      calldatasize\n      sub\n      tag_40\n      swap2\n      swap1\n      dup2\n      add\n      swap1\n      jump(tag_16)\n    tag_40:\n      tag_41\n      jump\t// in\n    tag_39:\n      mload(0x40)\n      tag_42\n      swap4\n      swap3\n      swap2\n      swap1\n      jump(tag_30)\n    tag_42:\n      mload(0x40)\n      dup1\n      swap2\n      sub\n      swap1\n      return\n        /* \"contracts/DSD/SmartRegistryData.sol\":1549:1599  mapping(string => eventOutput) public eventOutputs */\n    tag_9:\n      tag_43\n      0x04\n      dup1\n      calldatasize\n      sub\n      tag_44\n      swap2\n      swap1\n      dup2\n      add\n      swap1\n      jump(tag_16)\n    tag_44:\n      tag_45\n      jump\t// in\n    tag_43:\n      mload(0x40)\n      tag_46\n      swap4\n      swap3\n      swap2\n      swap1\n      jump(tag_25)\n    tag_46:\n      mload(0x40)\n      dup1\n      swap2\n      sub\n      swap1\n      return\n        /* \"contracts/DSD/SmartRegistryData.sol\":2164:2215  mapping(string => funtionContract) public functions */\n    tag_10:\n      tag_47\n      0x04\n      dup1\n      calldatasize\n      sub\n      tag_48\n      swap2\n      swap1\n      dup2\n      add\n      swap1\n      jump(tag_16)\n    tag_48:\n      tag_49\n      jump\t// in\n    tag_47:\n      mload(0x40)\n      tag_50\n      swap5\n      swap4\n      swap3\n      swap2\n      swap1\n      jump(tag_51)\n    tag_50:\n      mload(0x40)\n      dup1\n      swap2\n      sub\n      swap1\n      return\n        /* \"contracts/DSD/SmartRegistryData.sol\":2262:2300  funtionContract[] public functionsList */\n    tag_11:\n      tag_52\n      0x04\n      dup1\n      calldatasize\n      sub\n      tag_53\n      swap2\n      swap1\n      dup2\n      add\n      swap1\n      jump(tag_22)\n    tag_53:\n      tag_54\n      jump\t// in\n    tag_52:\n      mload(0x40)\n      tag_55\n      swap5\n      swap4\n      swap3\n      swap2\n      swap1\n      jump(tag_51)\n    tag_55:\n      mload(0x40)\n      dup1\n      swap2\n      sub\n      swap1\n      return\n        /* \"contracts/DSD/SmartRegistryData.sol\":2222:2255  eventContract[] public eventsList */\n    tag_12:\n      tag_56\n      0x04\n      dup1\n      calldatasize\n      sub\n      tag_57\n      swap2\n      swap1\n      dup2\n      add\n      swap1\n      jump(tag_22)\n    tag_57:\n      tag_58\n      jump\t// in\n    tag_56:\n      mload(0x40)\n      tag_59\n      swap4\n      swap3\n      swap2\n      swap1\n      jump(tag_30)\n    tag_59:\n      mload(0x40)\n      dup1\n      swap2\n      sub\n      swap1\n      return\n        /* \"contracts/DSD/SmartRegistryData.sol\":1606:1666  mapping(string => FunctinputOutput) public FunctinputOutputs */\n    tag_17:\n      0x03\n      dup2\n        /* \"--CODEGEN--\":28:35   */\n      dup1\n        /* \"--CODEGEN--\":22:36   */\n      mload\n        /* \"--CODEGEN--\":169:173   */\n      0x20\n        /* \"--CODEGEN--\":160:167   */\n      dup2\n        /* \"--CODEGEN--\":156:174   */\n      add\n        /* \"--CODEGEN--\":147:154   */\n      dup3\n        /* \"--CODEGEN--\":143:175   */\n      add\n        /* \"--CODEGEN--\":204:217   */\n      dup1\n        /* \"--CODEGEN--\":198:218   */\n      mload\n        /* \"--CODEGEN--\":246:254   */\n      dup5\n        /* \"--CODEGEN--\":231:244   */\n      dup3\n        /* \"--CODEGEN--\":224:255   */\n      mstore\n        /* \"--CODEGEN--\":316:320   */\n      0x20\n        /* \"--CODEGEN--\":307:314   */\n      dup4\n        /* \"--CODEGEN--\":303:321   */\n      add\n        /* \"--CODEGEN--\":296:300   */\n      0x20\n        /* \"--CODEGEN--\":287:294   */\n      dup6\n        /* \"--CODEGEN--\":283:301   */\n      add\n        /* \"--CODEGEN--\":273:322   */\n      keccak256\n        /* \"--CODEGEN--\":350:359   */\n      dup2\n        /* \"--CODEGEN--\":335:348   */\n      dup4\n        /* \"--CODEGEN--\":328:360   */\n      mstore\n        /* \"--CODEGEN--\":378:382   */\n      dup1\n        /* \"--CODEGEN--\":366:382   */\n      swap6\n      pop\n        /* \"--CODEGEN--\":0:388   */\n      pop\n      pop\n      pop\n      pop\n        /* \"contracts/DSD/SmartRegistryData.sol\":1606:1666  mapping(string => FunctinputOutput) public FunctinputOutputs */\n      pop\n      0x00\n      swap2\n      pop\n      swap1\n      pop\n      dup1\n      0x00\n      add\n      dup1\n      sload\n      0x01\n      dup2\n      0x01\n      and\n      iszero\n      0x0100\n      mul\n      sub\n      and\n      0x02\n      swap1\n      div\n      dup1\n      0x1f\n      add\n      0x20\n      dup1\n      swap2\n      div\n      mul\n      0x20\n      add\n      mload(0x40)\n      swap1\n      dup2\n      add\n      0x40\n      mstore\n      dup1\n      swap3\n      swap2\n      swap1\n      dup2\n      dup2\n      mstore\n      0x20\n      add\n      dup3\n      dup1\n      sload\n      0x01\n      dup2\n      0x01\n      and\n      iszero\n      0x0100\n      mul\n      sub\n      and\n      0x02\n      swap1\n      div\n      dup1\n      iszero\n      tag_60\n      jumpi\n      dup1\n      0x1f\n      lt\n      tag_61\n      jumpi\n      0x0100\n      dup1\n      dup4\n      sload\n      div\n      mul\n      dup4\n      mstore\n      swap2\n      0x20\n      add\n      swap2\n      jump(tag_60)\n    tag_61:\n      dup3\n      add\n      swap2\n      swap1\n      0x00\n      mstore\n      keccak256(0x00, 0x20)\n      swap1\n    tag_62:\n      dup2\n      sload\n      dup2\n      mstore\n      swap1\n      0x01\n      add\n      swap1\n      0x20\n      add\n      dup1\n      dup4\n      gt\n      tag_62\n      jumpi\n      dup3\n      swap1\n      sub\n      0x1f\n      and\n      dup3\n      add\n      swap2\n    tag_60:\n      pop\n      pop\n      pop\n      pop\n      pop\n      swap1\n      dup1\n      0x01\n      add\n      dup1\n      sload\n      0x01\n      dup2\n      0x01\n      and\n      iszero\n      0x0100\n      mul\n      sub\n      and\n      0x02\n      swap1\n      div\n      dup1\n      0x1f\n      add\n      0x20\n      dup1\n      swap2\n      div\n      mul\n      0x20\n      add\n      mload(0x40)\n      swap1\n      dup2\n      add\n      0x40\n      mstore\n      dup1\n      swap3\n      swap2\n      swap1\n      dup2\n      dup2\n      mstore\n      0x20\n      add\n      dup3\n      dup1\n      sload\n      0x01\n      dup2\n      0x01\n      and\n      iszero\n      0x0100\n      mul\n      sub\n      and\n      0x02\n      swap1\n      div\n      dup1\n      iszero\n      tag_63\n      jumpi\n      dup1\n      0x1f\n      lt\n      tag_64\n      jumpi\n      0x0100\n      dup1\n      dup4\n      sload\n      div\n      mul\n      dup4\n      mstore\n      swap2\n      0x20\n      add\n      swap2\n      jump(tag_63)\n    tag_64:\n      dup3\n      add\n      swap2\n      swap1\n      0x00\n      mstore\n      keccak256(0x00, 0x20)\n      swap1\n    tag_65:\n      dup2\n      sload\n      dup2\n      mstore\n      swap1\n      0x01\n      add\n      swap1\n      0x20\n      add\n      dup1\n      dup4\n      gt\n      tag_65\n      jumpi\n      dup3\n      swap1\n      sub\n      0x1f\n      and\n      dup3\n      add\n      swap2\n    tag_63:\n      pop\n      pop\n      pop\n      pop\n      pop\n      swap1\n      pop\n      dup3\n      jump\t// out\n        /* \"contracts/DSD/SmartRegistryData.sol\":1726:1762  eventOutput[] public eventOutputList */\n    tag_23:\n      0x05\n      dup2\n      dup2\n      sload\n      dup2\n      lt\n      tag_66\n      jumpi\n      invalid\n    tag_66:\n      swap1\n      0x00\n      mstore\n      keccak256(0x00, 0x20)\n      swap1\n      0x03\n      mul\n      add\n      0x00\n      swap2\n      pop\n      swap1\n      pop\n      dup1\n      0x00\n      add\n      dup1\n      sload\n      0x01\n      dup2\n      0x01\n      and\n      iszero\n      0x0100\n      mul\n      sub\n      and\n      0x02\n      swap1\n      div\n      dup1\n      0x1f\n      add\n      0x20\n      dup1\n      swap2\n      div\n      mul\n      0x20\n      add\n      mload(0x40)\n      swap1\n      dup2\n      add\n      0x40\n      mstore\n      dup1\n      swap3\n      swap2\n      swap1\n      dup2\n      dup2\n      mstore\n      0x20\n      add\n      dup3\n      dup1\n      sload\n      0x01\n      dup2\n      0x01\n      and\n      iszero\n      0x0100\n      mul\n      sub\n      and\n      0x02\n      swap1\n      div\n      dup1\n      iszero\n      tag_68\n      jumpi\n      dup1\n      0x1f\n      lt\n      tag_69\n      jumpi\n      0x0100\n      dup1\n      dup4\n      sload\n      div\n      mul\n      dup4\n      mstore\n      swap2\n      0x20\n      add\n      swap2\n      jump(tag_68)\n    tag_69:\n      dup3\n      add\n      swap2\n      swap1\n      0x00\n      mstore\n      keccak256(0x00, 0x20)\n      swap1\n    tag_70:\n      dup2\n      sload\n      dup2\n      mstore\n      swap1\n      0x01\n      add\n      swap1\n      0x20\n      add\n      dup1\n      dup4\n      gt\n      tag_70\n      jumpi\n      dup3\n      swap1\n      sub\n      0x1f\n      and\n      dup3\n      add\n      swap2\n    tag_68:\n      pop\n      pop\n      pop\n      pop\n      pop\n      swap1\n      dup1\n      0x01\n      add\n      dup1\n      sload\n      0x01\n      dup2\n      0x01\n      and\n      iszero\n      0x0100\n      mul\n      sub\n      and\n      0x02\n      swap1\n      div\n      dup1\n      0x1f\n      add\n      0x20\n      dup1\n      swap2\n      div\n      mul\n      0x20\n      add\n      mload(0x40)\n      swap1\n      dup2\n      add\n      0x40\n      mstore\n      dup1\n      swap3\n      swap2\n      swap1\n      dup2\n      dup2\n      mstore\n      0x20\n      add\n      dup3\n      dup1\n      sload\n      0x01\n      dup2\n      0x01\n      and\n      iszero\n      0x0100\n      mul\n      sub\n      and\n      0x02\n      swap1\n      div\n      dup1\n      iszero\n      tag_71\n      jumpi\n      dup1\n      0x1f\n      lt\n      tag_72\n      jumpi\n      0x0100\n      dup1\n      dup4\n      sload\n      div\n      mul\n      dup4\n      mstore\n      swap2\n      0x20\n      add\n      swap2\n      jump(tag_71)\n    tag_72:\n      dup3\n      add\n      swap2\n      swap1\n      0x00\n      mstore\n      keccak256(0x00, 0x20)\n      swap1\n    tag_73:\n      dup2\n      sload\n      dup2\n      mstore\n      swap1\n      0x01\n      add\n      swap1\n      0x20\n      add\n      dup1\n      dup4\n      gt\n      tag_73\n      jumpi\n      dup3\n      swap1\n      sub\n      0x1f\n      and\n      dup3\n      add\n      swap2\n    tag_71:\n      pop\n      pop\n      pop\n      pop\n      pop\n      swap1\n      dup1\n      0x02\n      add\n      0x00\n      swap1\n      sload\n      swap1\n      0x0100\n      exp\n      swap1\n      div\n      0xff\n      and\n      swap1\n      pop\n      dup4\n      jump\t// out\n        /* \"contracts/DSD/SmartRegistryData.sol\":376:418  mapping(uint => provider) public providers */\n    tag_28:\n      mstore(0x20, 0x01)\n      dup1\n      0x00\n      mstore\n      keccak256(0x00, 0x40)\n      0x00\n      swap2\n      pop\n      swap1\n      pop\n      dup1\n      0x00\n      add\n      dup1\n      sload\n      0x01\n      dup2\n      0x01\n      and\n      iszero\n      0x0100\n      mul\n      sub\n      and\n      0x02\n      swap1\n      div\n      dup1\n      0x1f\n      add\n      0x20\n      dup1\n      swap2\n      div\n      mul\n      0x20\n      add\n      mload(0x40)\n      swap1\n      dup2\n      add\n      0x40\n      mstore\n      dup1\n      swap3\n      swap2\n      swap1\n      dup2\n      dup2\n      mstore\n      0x20\n      add\n      dup3\n      dup1\n      sload\n      0x01\n      dup2\n      0x01\n      and\n      iszero\n      0x0100\n      mul\n      sub\n      and\n      0x02\n      swap1\n      div\n      dup1\n      iszero\n      tag_74\n      jumpi\n      dup1\n      0x1f\n      lt\n      tag_75\n      jumpi\n      0x0100\n      dup1\n      dup4\n      sload\n      div\n      mul\n      dup4\n      mstore\n      swap2\n      0x20\n      add\n      swap2\n      jump(tag_74)\n    tag_75:\n      dup3\n      add\n      swap2\n      swap1\n      0x00\n      mstore\n      keccak256(0x00, 0x20)\n      swap1\n    tag_76:\n      dup2\n      sload\n      dup2\n      mstore\n      swap1\n      0x01\n      add\n      swap1\n      0x20\n      add\n      dup1\n      dup4\n      gt\n      tag_76\n      jumpi\n      dup3\n      swap1\n      sub\n      0x1f\n      and\n      dup3\n      add\n      swap2\n    tag_74:\n      pop\n      pop\n      pop\n      pop\n      pop\n      swap1\n      dup1\n      0x01\n      add\n      dup1\n      sload\n      0x01\n      dup2\n      0x01\n      and\n      iszero\n      0x0100\n      mul\n      sub\n      and\n      0x02\n      swap1\n      div\n      dup1\n      0x1f\n      add\n      0x20\n      dup1\n      swap2\n      div\n      mul\n      0x20\n      add\n      mload(0x40)\n      swap1\n      dup2\n      add\n      0x40\n      mstore\n      dup1\n      swap3\n      swap2\n      swap1\n      dup2\n      dup2\n      mstore\n      0x20\n      add\n      dup3\n      dup1\n      sload\n      0x01\n      dup2\n      0x01\n      and\n      iszero\n      0x0100\n      mul\n      sub\n      and\n      0x02\n      swap1\n      div\n      dup1\n      iszero\n      tag_77\n      jumpi\n      dup1\n      0x1f\n      lt\n      tag_78\n      jumpi\n      0x0100\n      dup1\n      dup4\n      sload\n      div\n      mul\n      dup4\n      mstore\n      swap2\n      0x20\n      add\n      swap2\n      jump(tag_77)\n    tag_78:\n      dup3\n      add\n      swap2\n      swap1\n      0x00\n      mstore\n      keccak256(0x00, 0x20)\n      swap1\n    tag_79:\n      dup2\n      sload\n      dup2\n      mstore\n      swap1\n      0x01\n      add\n      swap1\n      0x20\n      add\n      dup1\n      dup4\n      gt\n      tag_79\n      jumpi\n      dup3\n      swap1\n      sub\n      0x1f\n      and\n      dup3\n      add\n      swap2\n    tag_77:\n      pop\n      pop\n      pop\n      pop\n      pop\n      swap1\n      dup1\n      0x02\n      add\n      dup1\n      sload\n      0x01\n      dup2\n      0x01\n      and\n      iszero\n      0x0100\n      mul\n      sub\n      and\n      0x02\n      swap1\n      div\n      dup1\n      0x1f\n      add\n      0x20\n      dup1\n      swap2\n      div\n      mul\n      0x20\n      add\n      mload(0x40)\n      swap1\n      dup2\n      add\n      0x40\n      mstore\n      dup1\n      swap3\n      swap2\n      swap1\n      dup2\n      dup2\n      mstore\n      0x20\n      add\n      dup3\n      dup1\n      sload\n      0x01\n      dup2\n      0x01\n      and\n      iszero\n      0x0100\n      mul\n      sub\n      and\n      0x02\n      swap1\n      div\n      dup1\n      iszero\n      tag_80\n      jumpi\n      dup1\n      0x1f\n      lt\n      tag_81\n      jumpi\n      0x0100\n      dup1\n      dup4\n      sload\n      div\n      mul\n      dup4\n      mstore\n      swap2\n      0x20\n      add\n      swap2\n      jump(tag_80)\n    tag_81:\n      dup3\n      add\n      swap2\n      swap1\n      0x00\n      mstore\n      keccak256(0x00, 0x20)\n      swap1\n    tag_82:\n      dup2\n      sload\n      dup2\n      mstore\n      swap1\n      0x01\n      add\n      swap1\n      0x20\n      add\n      dup1\n      dup4\n      gt\n      tag_82\n      jumpi\n      dup3\n      swap1\n      sub\n      0x1f\n      and\n      dup3\n      add\n      swap2\n    tag_80:\n      pop\n      pop\n      pop\n      pop\n      pop\n      swap1\n      pop\n      dup4\n      jump\t// out\n        /* \"contracts/DSD/SmartRegistryData.sol\":1673:1719  FunctinputOutput[] public FunctinputOutputlist */\n    tag_33:\n      0x04\n      dup2\n      dup2\n      sload\n      dup2\n      lt\n      tag_83\n      jumpi\n      invalid\n    tag_83:\n      swap1\n      0x00\n      mstore\n      keccak256(0x00, 0x20)\n      swap1\n      0x02\n      mul\n      add\n      0x00\n      swap2\n      pop\n      swap1\n      pop\n      dup1\n      0x00\n      add\n      dup1\n      sload\n      0x01\n      dup2\n      0x01\n      and\n      iszero\n      0x0100\n      mul\n      sub\n      and\n      0x02\n      swap1\n      div\n      dup1\n      0x1f\n      add\n      0x20\n      dup1\n      swap2\n      div\n      mul\n      0x20\n      add\n      mload(0x40)\n      swap1\n      dup2\n      add\n      0x40\n      mstore\n      dup1\n      swap3\n      swap2\n      swap1\n      dup2\n      dup2\n      mstore\n      0x20\n      add\n      dup3\n      dup1\n      sload\n      0x01\n      dup2\n      0x01\n      and\n      iszero\n      0x0100\n      mul\n      sub\n      and\n      0x02\n      swap1\n      div\n      dup1\n      iszero\n      tag_85\n      jumpi\n      dup1\n      0x1f\n      lt\n      tag_86\n      jumpi\n      0x0100\n      dup1\n      dup4\n      sload\n      div\n      mul\n      dup4\n      mstore\n      swap2\n      0x20\n      add\n      swap2\n      jump(tag_85)\n    tag_86:\n      dup3\n      add\n      swap2\n      swap1\n      0x00\n      mstore\n      keccak256(0x00, 0x20)\n      swap1\n    tag_87:\n      dup2\n      sload\n      dup2\n      mstore\n      swap1\n      0x01\n      add\n      swap1\n      0x20\n      add\n      dup1\n      dup4\n      gt\n      tag_87\n      jumpi\n      dup3\n      swap1\n      sub\n      0x1f\n      and\n      dup3\n      add\n      swap2\n    tag_85:\n      pop\n      pop\n      pop\n      pop\n      pop\n      swap1\n      dup1\n      0x01\n      add\n      dup1\n      sload\n      0x01\n      dup2\n      0x01\n      and\n      iszero\n      0x0100\n      mul\n      sub\n      and\n      0x02\n      swap1\n      div\n      dup1\n      0x1f\n      add\n      0x20\n      dup1\n      swap2\n      div\n      mul\n      0x20\n      add\n      mload(0x40)\n      swap1\n      dup2\n      add\n      0x40\n      mstore\n      dup1\n      swap3\n      swap2\n      swap1\n      dup2\n      dup2\n      mstore\n      0x20\n      add\n      dup3\n      dup1\n      sload\n      0x01\n      dup2\n      0x01\n      and\n      iszero\n      0x0100\n      mul\n      sub\n      and\n      0x02\n      swap1\n      div\n      dup1\n      iszero\n      tag_88\n      jumpi\n      dup1\n      0x1f\n      lt\n      tag_89\n      jumpi\n      0x0100\n      dup1\n      dup4\n      sload\n      div\n      mul\n      dup4\n      mstore\n      swap2\n      0x20\n      add\n      swap2\n      jump(tag_88)\n    tag_89:\n      dup3\n      add\n      swap2\n      swap1\n      0x00\n      mstore\n      keccak256(0x00, 0x20)\n      swap1\n    tag_90:\n      dup2\n      sload\n      dup2\n      mstore\n      swap1\n      0x01\n      add\n      swap1\n      0x20\n      add\n      dup1\n      dup4\n      gt\n      tag_90\n      jumpi\n      dup3\n      swap1\n      sub\n      0x1f\n      and\n      dup3\n      add\n      swap2\n    tag_88:\n      pop\n      pop\n      pop\n      pop\n      pop\n      swap1\n      pop\n      dup3\n      jump\t// out\n        /* \"contracts/DSD/SmartRegistryData.sol\":2760:3039  function getsrd()public returns ( SCDATA[] memory){\r... */\n    tag_36:\n        /* \"contracts/DSD/SmartRegistryData.sol\":2794:2809  SCDATA[] memory */\n      0x60\n        /* \"contracts/DSD/SmartRegistryData.sol\":2814:2820  uint i */\n      0x00\n        /* \"contracts/DSD/SmartRegistryData.sol\":2822:2823  0 */\n      dup1\n        /* \"contracts/DSD/SmartRegistryData.sol\":2814:2823  uint i =0 */\n      swap1\n      pop\n        /* \"contracts/DSD/SmartRegistryData.sol\":2827:2855  SCDATA[] memory descriptions */\n      0x60\n        /* \"contracts/DSD/SmartRegistryData.sol\":2871:2888  descriptionNumber */\n      sload(0x00)\n        /* \"contracts/DSD/SmartRegistryData.sol\":2858:2889  new SCDATA[](descriptionNumber) */\n      mload(0x40)\n      swap1\n      dup1\n      dup3\n      mstore\n      dup1\n      0x20\n      mul\n      0x20\n      add\n      dup3\n      add\n      0x40\n      mstore\n      dup1\n      iszero\n      tag_92\n      jumpi\n      dup2\n      0x20\n      add\n    tag_93:\n      tag_94\n      tag_95\n      jump\t// in\n    tag_94:\n      dup2\n      mstore\n      0x20\n      add\n      swap1\n      0x01\n      swap1\n      sub\n      swap1\n      dup2\n      tag_93\n      jumpi\n      swap1\n      pop\n    tag_92:\n      pop\n        /* \"contracts/DSD/SmartRegistryData.sol\":2827:2889  SCDATA[] memory descriptions = new SCDATA[](descriptionNumber) */\n      swap1\n      pop\n        /* \"contracts/DSD/SmartRegistryData.sol\":2896:3009  for (i; i<descriptionNumber; i++) {\r... */\n    tag_96:\n        /* \"contracts/DSD/SmartRegistryData.sol\":2906:2923  descriptionNumber */\n      sload(0x00)\n        /* \"contracts/DSD/SmartRegistryData.sol\":2904:2905  i */\n      dup3\n        /* \"contracts/DSD/SmartRegistryData.sol\":2904:2923  i<descriptionNumber */\n      lt\n        /* \"contracts/DSD/SmartRegistryData.sol\":2896:3009  for (i; i<descriptionNumber; i++) {\r... */\n      iszero\n      tag_97\n      jumpi\n        /* \"contracts/DSD/SmartRegistryData.sol\":2937:2958  SCDATA storage scdata */\n      0x00\n        /* \"contracts/DSD/SmartRegistryData.sol\":2961:2969  SCDdATAS */\n      0x0a\n        /* \"contracts/DSD/SmartRegistryData.sol\":2961:2972  SCDdATAS[i] */\n      0x00\n        /* \"contracts/DSD/SmartRegistryData.sol\":2970:2971  i */\n      dup5\n        /* \"contracts/DSD/SmartRegistryData.sol\":2961:2972  SCDdATAS[i] */\n      dup2\n      mstore\n      0x20\n      add\n      swap1\n      dup2\n      mstore\n      0x20\n      add\n      0x00\n      keccak256\n        /* \"contracts/DSD/SmartRegistryData.sol\":2937:2972  SCDATA storage scdata = SCDdATAS[i] */\n      swap1\n      pop\n        /* \"contracts/DSD/SmartRegistryData.sol\":2994:3000  scdata */\n      dup1\n        /* \"contracts/DSD/SmartRegistryData.sol\":2976:3000  descriptions[i] = scdata */\n      mload(0x40)\n      dup1\n      0x80\n      add\n      0x40\n      mstore\n      swap1\n      dup2\n      0x00\n      dup3\n      add\n      sload\n      dup2\n      mstore\n      0x20\n      add\n      0x01\n      dup3\n      add\n      mload(0x40)\n      dup1\n      0x40\n      add\n      0x40\n      mstore\n      swap1\n      dup2\n      0x00\n      dup3\n      add\n      dup1\n      sload\n      dup1\n      0x20\n      mul\n      0x20\n      add\n      mload(0x40)\n      swap1\n      dup2\n      add\n      0x40\n      mstore\n      dup1\n      swap3\n      swap2\n      swap1\n      dup2\n      dup2\n      mstore\n      0x20\n      add\n      0x00\n      swap1\n    tag_99:\n      dup3\n      dup3\n      lt\n      iszero\n      tag_100\n      jumpi\n      dup4\n      dup3\n      swap1\n      0x00\n      mstore\n      keccak256(0x00, 0x20)\n      swap1\n      0x04\n      mul\n      add\n      mload(0x40)\n      dup1\n      0x80\n      add\n      0x40\n      mstore\n      swap1\n      dup2\n      0x00\n      dup3\n      add\n      dup1\n      sload\n      0x01\n      dup2\n      0x01\n      and\n      iszero\n      0x0100\n      mul\n      sub\n      and\n      0x02\n      swap1\n      div\n      dup1\n      0x1f\n      add\n      0x20\n      dup1\n      swap2\n      div\n      mul\n      0x20\n      add\n      mload(0x40)\n      swap1\n      dup2\n      add\n      0x40\n      mstore\n      dup1\n      swap3\n      swap2\n      swap1\n      dup2\n      dup2\n      mstore\n      0x20\n      add\n      dup3\n      dup1\n      sload\n      0x01\n      dup2\n      0x01\n      and\n      iszero\n      0x0100\n      mul\n      sub\n      and\n      0x02\n      swap1\n      div\n      dup1\n      iszero\n      tag_102\n      jumpi\n      dup1\n      0x1f\n      lt\n      tag_103\n      jumpi\n      0x0100\n      dup1\n      dup4\n      sload\n      div\n      mul\n      dup4\n      mstore\n      swap2\n      0x20\n      add\n      swap2\n      jump(tag_102)\n    tag_103:\n      dup3\n      add\n      swap2\n      swap1\n      0x00\n      mstore\n      keccak256(0x00, 0x20)\n      swap1\n    tag_104:\n      dup2\n      sload\n      dup2\n      mstore\n      swap1\n      0x01\n      add\n      swap1\n      0x20\n      add\n      dup1\n      dup4\n      gt\n      tag_104\n      jumpi\n      dup3\n      swap1\n      sub\n      0x1f\n      and\n      dup3\n      add\n      swap2\n    tag_102:\n      pop\n      pop\n      pop\n      pop\n      pop\n      dup2\n      mstore\n      0x20\n      add\n      0x01\n      dup3\n      add\n      dup1\n      sload\n      0x01\n      dup2\n      0x01\n      and\n      iszero\n      0x0100\n      mul\n      sub\n      and\n      0x02\n      swap1\n      div\n      dup1\n      0x1f\n      add\n      0x20\n      dup1\n      swap2\n      div\n      mul\n      0x20\n      add\n      mload(0x40)\n      swap1\n      dup2\n      add\n      0x40\n      mstore\n      dup1\n      swap3\n      swap2\n      swap1\n      dup2\n      dup2\n      mstore\n      0x20\n      add\n      dup3\n      dup1\n      sload\n      0x01\n      dup2\n      0x01\n      and\n      iszero\n      0x0100\n      mul\n      sub\n      and\n      0x02\n      swap1\n      div\n      dup1\n      iszero\n      tag_105\n      jumpi\n      dup1\n      0x1f\n      lt\n      tag_106\n      jumpi\n      0x0100\n      dup1\n      dup4\n      sload\n      div\n      mul\n      dup4\n      mstore\n      swap2\n      0x20\n      add\n      swap2\n      jump(tag_105)\n    tag_106:\n      dup3\n      add\n      swap2\n      swap1\n      0x00\n      mstore\n      keccak256(0x00, 0x20)\n      swap1\n    tag_107:\n      dup2\n      sload\n      dup2\n      mstore\n      swap1\n      0x01\n      add\n      swap1\n      0x20\n      add\n      dup1\n      dup4\n      gt\n      tag_107\n      jumpi\n      dup3\n      swap1\n      sub\n      0x1f\n      and\n      dup3\n      add\n      swap2\n    tag_105:\n      pop\n      pop\n      pop\n      pop\n      pop\n      dup2\n      mstore\n      0x20\n      add\n      0x02\n      dup3\n      add\n      dup1\n      sload\n      0x01\n      dup2\n      0x01\n      and\n      iszero\n      0x0100\n      mul\n      sub\n      and\n      0x02\n      swap1\n      div\n      dup1\n      0x1f\n      add\n      0x20\n      dup1\n      swap2\n      div\n      mul\n      0x20\n      add\n      mload(0x40)\n      swap1\n      dup2\n      add\n      0x40\n      mstore\n      dup1\n      swap3\n      swap2\n      swap1\n      dup2\n      dup2\n      mstore\n      0x20\n      add\n      dup3\n      dup1\n      sload\n      0x01\n      dup2\n      0x01\n      and\n      iszero\n      0x0100\n      mul\n      sub\n      and\n      0x02\n      swap1\n      div\n      dup1\n      iszero\n      tag_108\n      jumpi\n      dup1\n      0x1f\n      lt\n      tag_109\n      jumpi\n      0x0100\n      dup1\n      dup4\n      sload\n      div\n      mul\n      dup4\n      mstore\n      swap2\n      0x20\n      add\n      swap2\n      jump(tag_108)\n    tag_109:\n      dup3\n      add\n      swap2\n      swap1\n      0x00\n      mstore\n      keccak256(0x00, 0x20)\n      swap1\n    tag_110:\n      dup2\n      sload\n      dup2\n      mstore\n      swap1\n      0x01\n      add\n      swap1\n      0x20\n      add\n      dup1\n      dup4\n      gt\n      tag_110\n      jumpi\n      dup3\n      swap1\n      sub\n      0x1f\n      and\n      dup3\n      add\n      swap2\n    tag_108:\n      pop\n      pop\n      pop\n      pop\n      pop\n      dup2\n      mstore\n      0x20\n      add\n      0x03\n      dup3\n      add\n      dup1\n      sload\n      dup1\n      0x20\n      mul\n      0x20\n      add\n      mload(0x40)\n      swap1\n      dup2\n      add\n      0x40\n      mstore\n      dup1\n      swap3\n      swap2\n      swap1\n      dup2\n      dup2\n      mstore\n      0x20\n      add\n      0x00\n      swap1\n    tag_111:\n      dup3\n      dup3\n      lt\n      iszero\n      tag_112\n      jumpi\n      dup4\n      dup3\n      swap1\n      0x00\n      mstore\n      keccak256(0x00, 0x20)\n      swap1\n      0x03\n      mul\n      add\n      mload(0x40)\n      dup1\n      0x60\n      add\n      0x40\n      mstore\n      swap1\n      dup2\n      0x00\n      dup3\n      add\n      dup1\n      sload\n      0x01\n      dup2\n      0x01\n      and\n      iszero\n      0x0100\n      mul\n      sub\n      and\n      0x02\n      swap1\n      div\n      dup1\n      0x1f\n      add\n      0x20\n      dup1\n      swap2\n      div\n      mul\n      0x20\n      add\n      mload(0x40)\n      swap1\n      dup2\n      add\n      0x40\n      mstore\n      dup1\n      swap3\n      swap2\n      swap1\n      dup2\n      dup2\n      mstore\n      0x20\n      add\n      dup3\n      dup1\n      sload\n      0x01\n      dup2\n      0x01\n      and\n      iszero\n      0x0100\n      mul\n      sub\n      and\n      0x02\n      swap1\n      div\n      dup1\n      iszero\n      tag_114\n      jumpi\n      dup1\n      0x1f\n      lt\n      tag_115\n      jumpi\n      0x0100\n      dup1\n      dup4\n      sload\n      div\n      mul\n      dup4\n      mstore\n      swap2\n      0x20\n      add\n      swap2\n      jump(tag_114)\n    tag_115:\n      dup3\n      add\n      swap2\n      swap1\n      0x00\n      mstore\n      keccak256(0x00, 0x20)\n      swap1\n    tag_116:\n      dup2\n      sload\n      dup2\n      mstore\n      swap1\n      0x01\n      add\n      swap1\n      0x20\n      add\n      dup1\n      dup4\n      gt\n      tag_116\n      jumpi\n      dup3\n      swap1\n      sub\n      0x1f\n      and\n      dup3\n      add\n      swap2\n    tag_114:\n      pop\n      pop\n      pop\n      pop\n      pop\n      dup2\n      mstore\n      0x20\n      add\n      0x01\n      dup3\n      add\n      dup1\n      sload\n      0x01\n      dup2\n      0x01\n      and\n      iszero\n      0x0100\n      mul\n      sub\n      and\n      0x02\n      swap1\n      div\n      dup1\n      0x1f\n      add\n      0x20\n      dup1\n      swap2\n      div\n      mul\n      0x20\n      add\n      mload(0x40)\n      swap1\n      dup2\n      add\n      0x40\n      mstore\n      dup1\n      swap3\n      swap2\n      swap1\n      dup2\n      dup2\n      mstore\n      0x20\n      add\n      dup3\n      dup1\n      sload\n      0x01\n      dup2\n      0x01\n      and\n      iszero\n      0x0100\n      mul\n      sub\n      and\n      0x02\n      swap1\n      div\n      dup1\n      iszero\n      tag_117\n      jumpi\n      dup1\n      0x1f\n      lt\n      tag_118\n      jumpi\n      0x0100\n      dup1\n      dup4\n      sload\n      div\n      mul\n      dup4\n      mstore\n      swap2\n      0x20\n      add\n      swap2\n      jump(tag_117)\n    tag_118:\n      dup3\n      add\n      swap2\n      swap1\n      0x00\n      mstore\n      keccak256(0x00, 0x20)\n      swap1\n    tag_119:\n      dup2\n      sload\n      dup2\n      mstore\n      swap1\n      0x01\n      add\n      swap1\n      0x20\n      add\n      dup1\n      dup4\n      gt\n      tag_119\n      jumpi\n      dup3\n      swap1\n      sub\n      0x1f\n      and\n      dup3\n      add\n      swap2\n    tag_117:\n      pop\n      pop\n      pop\n      pop\n      pop\n      dup2\n      mstore\n      0x20\n      add\n      0x02\n      dup3\n      add\n      0x00\n      swap1\n      sload\n      swap1\n      0x0100\n      exp\n      swap1\n      div\n      0xff\n      and\n      iszero\n      iszero\n      iszero\n      iszero\n      dup2\n      mstore\n      pop\n      pop\n      dup2\n      mstore\n      0x20\n      add\n      swap1\n      0x01\n      add\n      swap1\n      jump(tag_111)\n    tag_112:\n      pop\n      pop\n      pop\n      pop\n      dup2\n      mstore\n      pop\n      pop\n      dup2\n      mstore\n      0x20\n      add\n      swap1\n      0x01\n      add\n      swap1\n      jump(tag_99)\n    tag_100:\n      pop\n      pop\n      pop\n      pop\n      dup2\n      mstore\n      0x20\n      add\n      0x01\n      dup3\n      add\n      dup1\n      sload\n      dup1\n      0x20\n      mul\n      0x20\n      add\n      mload(0x40)\n      swap1\n      dup2\n      add\n      0x40\n      mstore\n      dup1\n      swap3\n      swap2\n      swap1\n      dup2\n      dup2\n      mstore\n      0x20\n      add\n      0x00\n      swap1\n    tag_120:\n      dup3\n      dup3\n      lt\n      iszero\n      tag_121\n      jumpi\n      dup4\n      dup3\n      swap1\n      0x00\n      mstore\n      keccak256(0x00, 0x20)\n      swap1\n      0x05\n      mul\n      add\n      mload(0x40)\n      dup1\n      0xa0\n      add\n      0x40\n      mstore\n      swap1\n      dup2\n      0x00\n      dup3\n      add\n      dup1\n      sload\n      0x01\n      dup2\n      0x01\n      and\n      iszero\n      0x0100\n      mul\n      sub\n      and\n      0x02\n      swap1\n      div\n      dup1\n      0x1f\n      add\n      0x20\n      dup1\n      swap2\n      div\n      mul\n      0x20\n      add\n      mload(0x40)\n      swap1\n      dup2\n      add\n      0x40\n      mstore\n      dup1\n      swap3\n      swap2\n      swap1\n      dup2\n      dup2\n      mstore\n      0x20\n      add\n      dup3\n      dup1\n      sload\n      0x01\n      dup2\n      0x01\n      and\n      iszero\n      0x0100\n      mul\n      sub\n      and\n      0x02\n      swap1\n      div\n      dup1\n      iszero\n      tag_123\n      jumpi\n      dup1\n      0x1f\n      lt\n      tag_124\n      jumpi\n      0x0100\n      dup1\n      dup4\n      sload\n      div\n      mul\n      dup4\n      mstore\n      swap2\n      0x20\n      add\n      swap2\n      jump(tag_123)\n    tag_124:\n      dup3\n      add\n      swap2\n      swap1\n      0x00\n      mstore\n      keccak256(0x00, 0x20)\n      swap1\n    tag_125:\n      dup2\n      sload\n      dup2\n      mstore\n      swap1\n      0x01\n      add\n      swap1\n      0x20\n      add\n      dup1\n      dup4\n      gt\n      tag_125\n      jumpi\n      dup3\n      swap1\n      sub\n      0x1f\n      and\n      dup3\n      add\n      swap2\n    tag_123:\n      pop\n      pop\n      pop\n      pop\n      pop\n      dup2\n      mstore\n      0x20\n      add\n      0x01\n      dup3\n      add\n      dup1\n      sload\n      0x01\n      dup2\n      0x01\n      and\n      iszero\n      0x0100\n      mul\n      sub\n      and\n      0x02\n      swap1\n      div\n      dup1\n      0x1f\n      add\n      0x20\n      dup1\n      swap2\n      div\n      mul\n      0x20\n      add\n      mload(0x40)\n      swap1\n      dup2\n      add\n      0x40\n      mstore\n      dup1\n      swap3\n      swap2\n      swap1\n      dup2\n      dup2\n      mstore\n      0x20\n      add\n      dup3\n      dup1\n      sload\n      0x01\n      dup2\n      0x01\n      and\n      iszero\n      0x0100\n      mul\n      sub\n      and\n      0x02\n      swap1\n      div\n      dup1\n      iszero\n      tag_126\n      jumpi\n      dup1\n      0x1f\n      lt\n      tag_127\n      jumpi\n      0x0100\n      dup1\n      dup4\n      sload\n      div\n      mul\n      dup4\n      mstore\n      swap2\n      0x20\n      add\n      swap2\n      jump(tag_126)\n    tag_127:\n      dup3\n      add\n      swap2\n      swap1\n      0x00\n      mstore\n      keccak256(0x00, 0x20)\n      swap1\n    tag_128:\n      dup2\n      sload\n      dup2\n      mstore\n      swap1\n      0x01\n      add\n      swap1\n      0x20\n      add\n      dup1\n      dup4\n      gt\n      tag_128\n      jumpi\n      dup3\n      swap1\n      sub\n      0x1f\n      and\n      dup3\n      add\n      swap2\n    tag_126:\n      pop\n      pop\n      pop\n      pop\n      pop\n      dup2\n      mstore\n      0x20\n      add\n      0x02\n      dup3\n      add\n      dup1\n      sload\n      0x01\n      dup2\n      0x01\n      and\n      iszero\n      0x0100\n      mul\n      sub\n      and\n      0x02\n      swap1\n      div\n      dup1\n      0x1f\n      add\n      0x20\n      dup1\n      swap2\n      div\n      mul\n      0x20\n      add\n      mload(0x40)\n      swap1\n      dup2\n      add\n      0x40\n      mstore\n      dup1\n      swap3\n      swap2\n      swap1\n      dup2\n      dup2\n      mstore\n      0x20\n      add\n      dup3\n      dup1\n      sload\n      0x01\n      dup2\n      0x01\n      and\n      iszero\n      0x0100\n      mul\n      sub\n      and\n      0x02\n      swap1\n      div\n      dup1\n      iszero\n      tag_129\n      jumpi\n      dup1\n      0x1f\n      lt\n      tag_130\n      jumpi\n      0x0100\n      dup1\n      dup4\n      sload\n      div\n      mul\n      dup4\n      mstore\n      swap2\n      0x20\n      add\n      swap2\n      jump(tag_129)\n    tag_130:\n      dup3\n      add\n      swap2\n      swap1\n      0x00\n      mstore\n      keccak256(0x00, 0x20)\n      swap1\n    tag_131:\n      dup2\n      sload\n      dup2\n      mstore\n      swap1\n      0x01\n      add\n      swap1\n      0x20\n      add\n      dup1\n      dup4\n      gt\n      tag_131\n      jumpi\n      dup3\n      swap1\n      sub\n      0x1f\n      and\n      dup3\n      add\n      swap2\n    tag_129:\n      pop\n      pop\n      pop\n      pop\n      pop\n      dup2\n      mstore\n      0x20\n      add\n      0x03\n      dup3\n      add\n      dup1\n      sload\n      0x01\n      dup2\n      0x01\n      and\n      iszero\n      0x0100\n      mul\n      sub\n      and\n      0x02\n      swap1\n      div\n      dup1\n      0x1f\n      add\n      0x20\n      dup1\n      swap2\n      div\n      mul\n      0x20\n      add\n      mload(0x40)\n      swap1\n      dup2\n      add\n      0x40\n      mstore\n      dup1\n      swap3\n      swap2\n      swap1\n      dup2\n      dup2\n      mstore\n      0x20\n      add\n      dup3\n      dup1\n      sload\n      0x01\n      dup2\n      0x01\n      and\n      iszero\n      0x0100\n      mul\n      sub\n      and\n      0x02\n      swap1\n      div\n      dup1\n      iszero\n      tag_132\n      jumpi\n      dup1\n      0x1f\n      lt\n      tag_133\n      jumpi\n      0x0100\n      dup1\n      dup4\n      sload\n      div\n      mul\n      dup4\n      mstore\n      swap2\n      0x20\n      add\n      swap2\n      jump(tag_132)\n    tag_133:\n      dup3\n      add\n      swap2\n      swap1\n      0x00\n      mstore\n      keccak256(0x00, 0x20)\n      swap1\n    tag_134:\n      dup2\n      sload\n      dup2\n      mstore\n      swap1\n      0x01\n      add\n      swap1\n      0x20\n      add\n      dup1\n      dup4\n      gt\n      tag_134\n      jumpi\n      dup3\n      swap1\n      sub\n      0x1f\n      and\n      dup3\n      add\n      swap2\n    tag_132:\n      pop\n      pop\n      pop\n      pop\n      pop\n      dup2\n      mstore\n      0x20\n      add\n      0x04\n      dup3\n      add\n      dup1\n      sload\n      dup1\n      0x20\n      mul\n      0x20\n      add\n      mload(0x40)\n      swap1\n      dup2\n      add\n      0x40\n      mstore\n      dup1\n      swap3\n      swap2\n      swap1\n      dup2\n      dup2\n      mstore\n      0x20\n      add\n      0x00\n      swap1\n    tag_135:\n      dup3\n      dup3\n      lt\n      iszero\n      tag_136\n      jumpi\n      dup4\n      dup3\n      swap1\n      0x00\n      mstore\n      keccak256(0x00, 0x20)\n      swap1\n      0x02\n      mul\n      add\n      mload(0x40)\n      dup1\n      0x40\n      add\n      0x40\n      mstore\n      swap1\n      dup2\n      0x00\n      dup3\n      add\n      dup1\n      sload\n      0x01\n      dup2\n      0x01\n      and\n      iszero\n      0x0100\n      mul\n      sub\n      and\n      0x02\n      swap1\n      div\n      dup1\n      0x1f\n      add\n      0x20\n      dup1\n      swap2\n      div\n      mul\n      0x20\n      add\n      mload(0x40)\n      swap1\n      dup2\n      add\n      0x40\n      mstore\n      dup1\n      swap3\n      swap2\n      swap1\n      dup2\n      dup2\n      mstore\n      0x20\n      add\n      dup3\n      dup1\n      sload\n      0x01\n      dup2\n      0x01\n      and\n      iszero\n      0x0100\n      mul\n      sub\n      and\n      0x02\n      swap1\n      div\n      dup1\n      iszero\n      tag_138\n      jumpi\n      dup1\n      0x1f\n      lt\n      tag_139\n      jumpi\n      0x0100\n      dup1\n      dup4\n      sload\n      div\n      mul\n      dup4\n      mstore\n      swap2\n      0x20\n      add\n      swap2\n      jump(tag_138)\n    tag_139:\n      dup3\n      add\n      swap2\n      swap1\n      0x00\n      mstore\n      keccak256(0x00, 0x20)\n      swap1\n    tag_140:\n      dup2\n      sload\n      dup2\n      mstore\n      swap1\n      0x01\n      add\n      swap1\n      0x20\n      add\n      dup1\n      dup4\n      gt\n      tag_140\n      jumpi\n      dup3\n      swap1\n      sub\n      0x1f\n      and\n      dup3\n      add\n      swap2\n    tag_138:\n      pop\n      pop\n      pop\n      pop\n      pop\n      dup2\n      mstore\n      0x20\n      add\n      0x01\n      dup3\n      add\n      dup1\n      sload\n      0x01\n      dup2\n      0x01\n      and\n      iszero\n      0x0100\n      mul\n      sub\n      and\n      0x02\n      swap1\n      div\n      dup1\n      0x1f\n      add\n      0x20\n      dup1\n      swap2\n      div\n      mul\n      0x20\n      add\n      mload(0x40)\n      swap1\n      dup2\n      add\n      0x40\n      mstore\n      dup1\n      swap3\n      swap2\n      swap1\n      dup2\n      dup2\n      mstore\n      0x20\n      add\n      dup3\n      dup1\n      sload\n      0x01\n      dup2\n      0x01\n      and\n      iszero\n      0x0100\n      mul\n      sub\n      and\n      0x02\n      swap1\n      div\n      dup1\n      iszero\n      tag_141\n      jumpi\n      dup1\n      0x1f\n      lt\n      tag_142\n      jumpi\n      0x0100\n      dup1\n      dup4\n      sload\n      div\n      mul\n      dup4\n      mstore\n      swap2\n      0x20\n      add\n      swap2\n      jump(tag_141)\n    tag_142:\n      dup3\n      add\n      swap2\n      swap1\n      0x00\n      mstore\n      keccak256(0x00, 0x20)\n      swap1\n    tag_143:\n      dup2\n      sload\n      dup2\n      mstore\n      swap1\n      0x01\n      add\n      swap1\n      0x20\n      add\n      dup1\n      dup4\n      gt\n      tag_143\n      jumpi\n      dup3\n      swap1\n      sub\n      0x1f\n      and\n      dup3\n      add\n      swap2\n    tag_141:\n      pop\n      pop\n      pop\n      pop\n      pop\n      dup2\n      mstore\n      pop\n      pop\n      dup2\n      mstore\n      0x20\n      add\n      swap1\n      0x01\n      add\n      swap1\n      jump(tag_135)\n    tag_136:\n      pop\n      pop\n      pop\n      pop\n      dup2\n      mstore\n      pop\n      pop\n      dup2\n      mstore\n      0x20\n      add\n      swap1\n      0x01\n      add\n      swap1\n      jump(tag_120)\n    tag_121:\n      pop\n      pop\n      pop\n      pop\n      dup2\n      mstore\n      pop\n      pop\n      dup2\n      mstore\n      0x20\n      add\n      0x03\n      dup3\n      add\n      mload(0x40)\n      dup1\n      0xc0\n      add\n      0x40\n      mstore\n      swap1\n      dup2\n      0x00\n      dup3\n      add\n      dup1\n      sload\n      0x01\n      dup2\n      0x01\n      and\n      iszero\n      0x0100\n      mul\n      sub\n      and\n      0x02\n      swap1\n      div\n      dup1\n      0x1f\n      add\n      0x20\n      dup1\n      swap2\n      div\n      mul\n      0x20\n      add\n      mload(0x40)\n      swap1\n      dup2\n      add\n      0x40\n      mstore\n      dup1\n      swap3\n      swap2\n      swap1\n      dup2\n      dup2\n      mstore\n      0x20\n      add\n      dup3\n      dup1\n      sload\n      0x01\n      dup2\n      0x01\n      and\n      iszero\n      0x0100\n      mul\n      sub\n      and\n      0x02\n      swap1\n      div\n      dup1\n      iszero\n      tag_144\n      jumpi\n      dup1\n      0x1f\n      lt\n      tag_145\n      jumpi\n      0x0100\n      dup1\n      dup4\n      sload\n      div\n      mul\n      dup4\n      mstore\n      swap2\n      0x20\n      add\n      swap2\n      jump(tag_144)\n    tag_145:\n      dup3\n      add\n      swap2\n      swap1\n      0x00\n      mstore\n      keccak256(0x00, 0x20)\n      swap1\n    tag_146:\n      dup2\n      sload\n      dup2\n      mstore\n      swap1\n      0x01\n      add\n      swap1\n      0x20\n      add\n      dup1\n      dup4\n      gt\n      tag_146\n      jumpi\n      dup3\n      swap1\n      sub\n      0x1f\n      and\n      dup3\n      add\n      swap2\n    tag_144:\n      pop\n      pop\n      pop\n      pop\n      pop\n      dup2\n      mstore\n      0x20\n      add\n      0x01\n      dup3\n      add\n      dup1\n      sload\n      0x01\n      dup2\n      0x01\n      and\n      iszero\n      0x0100\n      mul\n      sub\n      and\n      0x02\n      swap1\n      div\n      dup1\n      0x1f\n      add\n      0x20\n      dup1\n      swap2\n      div\n      mul\n      0x20\n      add\n      mload(0x40)\n      swap1\n      dup2\n      add\n      0x40\n      mstore\n      dup1\n      swap3\n      swap2\n      swap1\n      dup2\n      dup2\n      mstore\n      0x20\n      add\n      dup3\n      dup1\n      sload\n      0x01\n      dup2\n      0x01\n      and\n      iszero\n      0x0100\n      mul\n      sub\n      and\n      0x02\n      swap1\n      div\n      dup1\n      iszero\n      tag_147\n      jumpi\n      dup1\n      0x1f\n      lt\n      tag_148\n      jumpi\n      0x0100\n      dup1\n      dup4\n      sload\n      div\n      mul\n      dup4\n      mstore\n      swap2\n      0x20\n      add\n      swap2\n      jump(tag_147)\n    tag_148:\n      dup3\n      add\n      swap2\n      swap1\n      0x00\n      mstore\n      keccak256(0x00, 0x20)\n      swap1\n    tag_149:\n      dup2\n      sload\n      dup2\n      mstore\n      swap1\n      0x01\n      add\n      swap1\n      0x20\n      add\n      dup1\n      dup4\n      gt\n      tag_149\n      jumpi\n      dup3\n      swap1\n      sub\n      0x1f\n      and\n      dup3\n      add\n      swap2\n    tag_147:\n      pop\n      pop\n      pop\n      pop\n      pop\n      dup2\n      mstore\n      0x20\n      add\n      0x02\n      dup3\n      add\n      dup1\n      sload\n      0x01\n      dup2\n      0x01\n      and\n      iszero\n      0x0100\n      mul\n      sub\n      and\n      0x02\n      swap1\n      div\n      dup1\n      0x1f\n      add\n      0x20\n      dup1\n      swap2\n      div\n      mul\n      0x20\n      add\n      mload(0x40)\n      swap1\n      dup2\n      add\n      0x40\n      mstore\n      dup1\n      swap3\n      swap2\n      swap1\n      dup2\n      dup2\n      mstore\n      0x20\n      add\n      dup3\n      dup1\n      sload\n      0x01\n      dup2\n      0x01\n      and\n      iszero\n      0x0100\n      mul\n      sub\n      and\n      0x02\n      swap1\n      div\n      dup1\n      iszero\n      tag_150\n      jumpi\n      dup1\n      0x1f\n      lt\n      tag_151\n      jumpi\n      0x0100\n      dup1\n      dup4\n      sload\n      div\n      mul\n      dup4\n      mstore\n      swap2\n      0x20\n      add\n      swap2\n      jump(tag_150)\n    tag_151:\n      dup3\n      add\n      swap2\n      swap1\n      0x00\n      mstore\n      keccak256(0x00, 0x20)\n      swap1\n    tag_152:\n      dup2\n      sload\n      dup2\n      mstore\n      swap1\n      0x01\n      add\n      swap1\n      0x20\n      add\n      dup1\n      dup4\n      gt\n      tag_152\n      jumpi\n      dup3\n      swap1\n      sub\n      0x1f\n      and\n      dup3\n      add\n      swap2\n    tag_150:\n      pop\n      pop\n      pop\n      pop\n      pop\n      dup2\n      mstore\n      0x20\n      add\n      0x03\n      dup3\n      add\n      dup1\n      sload\n      0x01\n      dup2\n      0x01\n      and\n      iszero\n      0x0100\n      mul\n      sub\n      and\n      0x02\n      swap1\n      div\n      dup1\n      0x1f\n      add\n      0x20\n      dup1\n      swap2\n      div\n      mul\n      0x20\n      add\n      mload(0x40)\n      swap1\n      dup2\n      add\n      0x40\n      mstore\n      dup1\n      swap3\n      swap2\n      swap1\n      dup2\n      dup2\n      mstore\n      0x20\n      add\n      dup3\n      dup1\n      sload\n      0x01\n      dup2\n      0x01\n      and\n      iszero\n      0x0100\n      mul\n      sub\n      and\n      0x02\n      swap1\n      div\n      dup1\n      iszero\n      tag_153\n      jumpi\n      dup1\n      0x1f\n      lt\n      tag_154\n      jumpi\n      0x0100\n      dup1\n      dup4\n      sload\n      div\n      mul\n      dup4\n      mstore\n      swap2\n      0x20\n      add\n      swap2\n      jump(tag_153)\n    tag_154:\n      dup3\n      add\n      swap2\n      swap1\n      0x00\n      mstore\n      keccak256(0x00, 0x20)\n      swap1\n    tag_155:\n      dup2\n      sload\n      dup2\n      mstore\n      swap1\n      0x01\n      add\n      swap1\n      0x20\n      add\n      dup1\n      dup4\n      gt\n      tag_155\n      jumpi\n      dup3\n      swap1\n      sub\n      0x1f\n      and\n      dup3\n      add\n      swap2\n    tag_153:\n      pop\n      pop\n      pop\n      pop\n      pop\n      dup2\n      mstore\n      0x20\n      add\n      0x04\n      dup3\n      add\n      dup1\n      sload\n      0x01\n      dup2\n      0x01\n      and\n      iszero\n      0x0100\n      mul\n      sub\n      and\n      0x02\n      swap1\n      div\n      dup1\n      0x1f\n      add\n      0x20\n      dup1\n      swap2\n      div\n      mul\n      0x20\n      add\n      mload(0x40)\n      swap1\n      dup2\n      add\n      0x40\n      mstore\n      dup1\n      swap3\n      swap2\n      swap1\n      dup2\n      dup2\n      mstore\n      0x20\n      add\n      dup3\n      dup1\n      sload\n      0x01\n      dup2\n      0x01\n      and\n      iszero\n      0x0100\n      mul\n      sub\n      and\n      0x02\n      swap1\n      div\n      dup1\n      iszero\n      tag_156\n      jumpi\n      dup1\n      0x1f\n      lt\n      tag_157\n      jumpi\n      0x0100\n      dup1\n      dup4\n      sload\n      div\n      mul\n      dup4\n      mstore\n      swap2\n      0x20\n      add\n      swap2\n      jump(tag_156)\n    tag_157:\n      dup3\n      add\n      swap2\n      swap1\n      0x00\n      mstore\n      keccak256(0x00, 0x20)\n      swap1\n    tag_158:\n      dup2\n      sload\n      dup2\n      mstore\n      swap1\n      0x01\n      add\n      swap1\n      0x20\n      add\n      dup1\n      dup4\n      gt\n      tag_158\n      jumpi\n      dup3\n      swap1\n      sub\n      0x1f\n      and\n      dup3\n      add\n      swap2\n    tag_156:\n      pop\n      pop\n      pop\n      pop\n      pop\n      dup2\n      mstore\n      0x20\n      add\n      0x05\n      dup3\n      add\n      0x00\n      swap1\n      sload\n      swap1\n      0x0100\n      exp\n      swap1\n      div\n      0xffffffffffffffffffffffffffffffffffffffff\n      and\n      0xffffffffffffffffffffffffffffffffffffffff\n      and\n      0xffffffffffffffffffffffffffffffffffffffff\n      and\n      dup2\n      mstore\n      pop\n      pop\n      dup2\n      mstore\n      0x20\n      add\n      0x09\n      dup3\n      add\n      mload(0x40)\n      dup1\n      0x01e0\n      add\n      0x40\n      mstore\n      swap1\n      dup2\n      0x00\n      dup3\n      add\n      dup1\n      sload\n      0x01\n      dup2\n      0x01\n      and\n      iszero\n      0x0100\n      mul\n      sub\n      and\n      0x02\n      swap1\n      div\n      dup1\n      0x1f\n      add\n      0x20\n      dup1\n      swap2\n      div\n      mul\n      0x20\n      add\n      mload(0x40)\n      swap1\n      dup2\n      add\n      0x40\n      mstore\n      dup1\n      swap3\n      swap2\n      swap1\n      dup2\n      dup2\n      mstore\n      0x20\n      add\n      dup3\n      dup1\n      sload\n      0x01\n      dup2\n      0x01\n      and\n      iszero\n      0x0100\n      mul\n      sub\n      and\n      0x02\n      swap1\n      div\n      dup1\n      iszero\n      tag_159\n      jumpi\n      dup1\n      0x1f\n      lt\n      tag_160\n      jumpi\n      0x0100\n      dup1\n      dup4\n      sload\n      div\n      mul\n      dup4\n      mstore\n      swap2\n      0x20\n      add\n      swap2\n      jump(tag_159)\n    tag_160:\n      dup3\n      add\n      swap2\n      swap1\n      0x00\n      mstore\n      keccak256(0x00, 0x20)\n      swap1\n    tag_161:\n      dup2\n      sload\n      dup2\n      mstore\n      swap1\n      0x01\n      add\n      swap1\n      0x20\n      add\n      dup1\n      dup4\n      gt\n      tag_161\n      jumpi\n      dup3\n      swap1\n      sub\n      0x1f\n      and\n      dup3\n      add\n      swap2\n    tag_159:\n      pop\n      pop\n      pop\n      pop\n      pop\n      dup2\n      mstore\n      0x20\n      add\n      0x01\n      dup3\n      add\n      dup1\n      sload\n      0x01\n      dup2\n      0x01\n      and\n      iszero\n      0x0100\n      mul\n      sub\n      and\n      0x02\n      swap1\n      div\n      dup1\n      0x1f\n      add\n      0x20\n      dup1\n      swap2\n      div\n      mul\n      0x20\n      add\n      mload(0x40)\n      swap1\n      dup2\n      add\n      0x40\n      mstore\n      dup1\n      swap3\n      swap2\n      swap1\n      dup2\n      dup2\n      mstore\n      0x20\n      add\n      dup3\n      dup1\n      sload\n      0x01\n      dup2\n      0x01\n      and\n      iszero\n      0x0100\n      mul\n      sub\n      and\n      0x02\n      swap1\n      div\n      dup1\n      iszero\n      tag_162\n      jumpi\n      dup1\n      0x1f\n      lt\n      tag_163\n      jumpi\n      0x0100\n      dup1\n      dup4\n      sload\n      div\n      mul\n      dup4\n      mstore\n      swap2\n      0x20\n      add\n      swap2\n      jump(tag_162)\n    tag_163:\n      dup3\n      add\n      swap2\n      swap1\n      0x00\n      mstore\n      keccak256(0x00, 0x20)\n      swap1\n    tag_164:\n      dup2\n      sload\n      dup2\n      mstore\n      swap1\n      0x01\n      add\n      swap1\n      0x20\n      add\n      dup1\n      dup4\n      gt\n      tag_164\n      jumpi\n      dup3\n      swap1\n      sub\n      0x1f\n      and\n      dup3\n      add\n      swap2\n    tag_162:\n      pop\n      pop\n      pop\n      pop\n      pop\n      dup2\n      mstore\n      0x20\n      add\n      0x02\n      dup3\n      add\n      dup1\n      sload\n      0x01\n      dup2\n      0x01\n      and\n      iszero\n      0x0100\n      mul\n      sub\n      and\n      0x02\n      swap1\n      div\n      dup1\n      0x1f\n      add\n      0x20\n      dup1\n      swap2\n      div\n      mul\n      0x20\n      add\n      mload(0x40)\n      swap1\n      dup2\n      add\n      0x40\n      mstore\n      dup1\n      swap3\n      swap2\n      swap1\n      dup2\n      dup2\n      mstore\n      0x20\n      add\n      dup3\n      dup1\n      sload\n      0x01\n      dup2\n      0x01\n      and\n      iszero\n      0x0100\n      mul\n      sub\n      and\n      0x02\n      swap1\n      div\n      dup1\n      iszero\n      tag_165\n      jumpi\n      dup1\n      0x1f\n      lt\n      tag_166\n      jumpi\n      0x0100\n      dup1\n      dup4\n      sload\n      div\n      mul\n      dup4\n      mstore\n      swap2\n      0x20\n      add\n      swap2\n      jump(tag_165)\n    tag_166:\n      dup3\n      add\n      swap2\n      swap1\n      0x00\n      mstore\n      keccak256(0x00, 0x20)\n      swap1\n    tag_167:\n      dup2\n      sload\n      dup2\n      mstore\n      swap1\n      0x01\n      add\n      swap1\n      0x20\n      add\n      dup1\n      dup4\n      gt\n      tag_167\n      jumpi\n      dup3\n      swap1\n      sub\n      0x1f\n      and\n      dup3\n      add\n      swap2\n    tag_165:\n      pop\n      pop\n      pop\n      pop\n      pop\n      dup2\n      mstore\n      0x20\n      add\n      0x03\n      dup3\n      add\n      dup1\n      sload\n      0x01\n      dup2\n      0x01\n      and\n      iszero\n      0x0100\n      mul\n      sub\n      and\n      0x02\n      swap1\n      div\n      dup1\n      0x1f\n      add\n      0x20\n      dup1\n      swap2\n      div\n      mul\n      0x20\n      add\n      mload(0x40)\n      swap1\n      dup2\n      add\n      0x40\n      mstore\n      dup1\n      swap3\n      swap2\n      swap1\n      dup2\n      dup2\n      mstore\n      0x20\n      add\n      dup3\n      dup1\n      sload\n      0x01\n      dup2\n      0x01\n      and\n      iszero\n      0x0100\n      mul\n      sub\n      and\n      0x02\n      swap1\n      div\n      dup1\n      iszero\n      tag_168\n      jumpi\n      dup1\n      0x1f\n      lt\n      tag_169\n      jumpi\n      0x0100\n      dup1\n      dup4\n      sload\n      div\n      mul\n      dup4\n      mstore\n      swap2\n      0x20\n      add\n      swap2\n      jump(tag_168)\n    tag_169:\n      dup3\n      add\n      swap2\n      swap1\n      0x00\n      mstore\n      keccak256(0x00, 0x20)\n      swap1\n    tag_170:\n      dup2\n      sload\n      dup2\n      mstore\n      swap1\n      0x01\n      add\n      swap1\n      0x20\n      add\n      dup1\n      dup4\n      gt\n      tag_170\n      jumpi\n      dup3\n      swap1\n      sub\n      0x1f\n      and\n      dup3\n      add\n      swap2\n    tag_168:\n      pop\n      pop\n      pop\n      pop\n      pop\n      dup2\n      mstore\n      0x20\n      add\n      0x04\n      dup3\n      add\n      dup1\n      sload\n      0x01\n      dup2\n      0x01\n      and\n      iszero\n      0x0100\n      mul\n      sub\n      and\n      0x02\n      swap1\n      div\n      dup1\n      0x1f\n      add\n      0x20\n      dup1\n      swap2\n      div\n      mul\n      0x20\n      add\n      mload(0x40)\n      swap1\n      dup2\n      add\n      0x40\n      mstore\n      dup1\n      swap3\n      swap2\n      swap1\n      dup2\n      dup2\n      mstore\n      0x20\n      add\n      dup3\n      dup1\n      sload\n      0x01\n      dup2\n      0x01\n      and\n      iszero\n      0x0100\n      mul\n      sub\n      and\n      0x02\n      swap1\n      div\n      dup1\n      iszero\n      tag_171\n      jumpi\n      dup1\n      0x1f\n      lt\n      tag_172\n      jumpi\n      0x0100\n      dup1\n      dup4\n      sload\n      div\n      mul\n      dup4\n      mstore\n      swap2\n      0x20\n      add\n      swap2\n      jump(tag_171)\n    tag_172:\n      dup3\n      add\n      swap2\n      swap1\n      0x00\n      mstore\n      keccak256(0x00, 0x20)\n      swap1\n    tag_173:\n      dup2\n      sload\n      dup2\n      mstore\n      swap1\n      0x01\n      add\n      swap1\n      0x20\n      add\n      dup1\n      dup4\n      gt\n      tag_173\n      jumpi\n      dup3\n      swap1\n      sub\n      0x1f\n      and\n      dup3\n      add\n      swap2\n    tag_171:\n      pop\n      pop\n      pop\n      pop\n      pop\n      dup2\n      mstore\n      0x20\n      add\n      0x05\n      dup3\n      add\n      dup1\n      sload\n      0x01\n      dup2\n      0x01\n      and\n      iszero\n      0x0100\n      mul\n      sub\n      and\n      0x02\n      swap1\n      div\n      dup1\n      0x1f\n      add\n      0x20\n      dup1\n      swap2\n      div\n      mul\n      0x20\n      add\n      mload(0x40)\n      swap1\n      dup2\n      add\n      0x40\n      mstore\n      dup1\n      swap3\n      swap2\n      swap1\n      dup2\n      dup2\n      mstore\n      0x20\n      add\n      dup3\n      dup1\n      sload\n      0x01\n      dup2\n      0x01\n      and\n      iszero\n      0x0100\n      mul\n      sub\n      and\n      0x02\n      swap1\n      div\n      dup1\n      iszero\n      tag_174\n      jumpi\n      dup1\n      0x1f\n      lt\n      tag_175\n      jumpi\n      0x0100\n      dup1\n      dup4\n      sload\n      div\n      mul\n      dup4\n      mstore\n      swap2\n      0x20\n      add\n      swap2\n      jump(tag_174)\n    tag_175:\n      dup3\n      add\n      swap2\n      swap1\n      0x00\n      mstore\n      keccak256(0x00, 0x20)\n      swap1\n    tag_176:\n      dup2\n      sload\n      dup2\n      mstore\n      swap1\n      0x01\n      add\n      swap1\n      0x20\n      add\n      dup1\n      dup4\n      gt\n      tag_176\n      jumpi\n      dup3\n      swap1\n      sub\n      0x1f\n      and\n      dup3\n      add\n      swap2\n    tag_174:\n      pop\n      pop\n      pop\n      pop\n      pop\n      dup2\n      mstore\n      0x20\n      add\n      0x06\n      dup3\n      add\n      dup1\n      sload\n      0x01\n      dup2\n      0x01\n      and\n      iszero\n      0x0100\n      mul\n      sub\n      and\n      0x02\n      swap1\n      div\n      dup1\n      0x1f\n      add\n      0x20\n      dup1\n      swap2\n      div\n      mul\n      0x20\n      add\n      mload(0x40)\n      swap1\n      dup2\n      add\n      0x40\n      mstore\n      dup1\n      swap3\n      swap2\n      swap1\n      dup2\n      dup2\n      mstore\n      0x20\n      add\n      dup3\n      dup1\n      sload\n      0x01\n      dup2\n      0x01\n      and\n      iszero\n      0x0100\n      mul\n      sub\n      and\n      0x02\n      swap1\n      div\n      dup1\n      iszero\n      tag_177\n      jumpi\n      dup1\n      0x1f\n      lt\n      tag_178\n      jumpi\n      0x0100\n      dup1\n      dup4\n      sload\n      div\n      mul\n      dup4\n      mstore\n      swap2\n      0x20\n      add\n      swap2\n      jump(tag_177)\n    tag_178:\n      dup3\n      add\n      swap2\n      swap1\n      0x00\n      mstore\n      keccak256(0x00, 0x20)\n      swap1\n    tag_179:\n      dup2\n      sload\n      dup2\n      mstore\n      swap1\n      0x01\n      add\n      swap1\n      0x20\n      add\n      dup1\n      dup4\n      gt\n      tag_179\n      jumpi\n      dup3\n      swap1\n      sub\n      0x1f\n      and\n      dup3\n      add\n      swap2\n    tag_177:\n      pop\n      pop\n      pop\n      pop\n      pop\n      dup2\n      mstore\n      0x20\n      add\n      0x07\n      dup3\n      add\n      dup1\n      sload\n      0x01\n      dup2\n      0x01\n      and\n      iszero\n      0x0100\n      mul\n      sub\n      and\n      0x02\n      swap1\n      div\n      dup1\n      0x1f\n      add\n      0x20\n      dup1\n      swap2\n      div\n      mul\n      0x20\n      add\n      mload(0x40)\n      swap1\n      dup2\n      add\n      0x40\n      mstore\n      dup1\n      swap3\n      swap2\n      swap1\n      dup2\n      dup2\n      mstore\n      0x20\n      add\n      dup3\n      dup1\n      sload\n      0x01\n      dup2\n      0x01\n      and\n      iszero\n      0x0100\n      mul\n      sub\n      and\n      0x02\n      swap1\n      div\n      dup1\n      iszero\n      tag_180\n      jumpi\n      dup1\n      0x1f\n      lt\n      tag_181\n      jumpi\n      0x0100\n      dup1\n      dup4\n      sload\n      div\n      mul\n      dup4\n      mstore\n      swap2\n      0x20\n      add\n      swap2\n      jump(tag_180)\n    tag_181:\n      dup3\n      add\n      swap2\n      swap1\n      0x00\n      mstore\n      keccak256(0x00, 0x20)\n      swap1\n    tag_182:\n      dup2\n      sload\n      dup2\n      mstore\n      swap1\n      0x01\n      add\n      swap1\n      0x20\n      add\n      dup1\n      dup4\n      gt\n      tag_182\n      jumpi\n      dup3\n      swap1\n      sub\n      0x1f\n      and\n      dup3\n      add\n      swap2\n    tag_180:\n      pop\n      pop\n      pop\n      pop\n      pop\n      dup2\n      mstore\n      0x20\n      add\n      0x08\n      dup3\n      add\n      dup1\n      sload\n      0x01\n      dup2\n      0x01\n      and\n      iszero\n      0x0100\n      mul\n      sub\n      and\n      0x02\n      swap1\n      div\n      dup1\n      0x1f\n      add\n      0x20\n      dup1\n      swap2\n      div\n      mul\n      0x20\n      add\n      mload(0x40)\n      swap1\n      dup2\n      add\n      0x40\n      mstore\n      dup1\n      swap3\n      swap2\n      swap1\n      dup2\n      dup2\n      mstore\n      0x20\n      add\n      dup3\n      dup1\n      sload\n      0x01\n      dup2\n      0x01\n      and\n      iszero\n      0x0100\n      mul\n      sub\n      and\n      0x02\n      swap1\n      div\n      dup1\n      iszero\n      tag_183\n      jumpi\n      dup1\n      0x1f\n      lt\n      tag_184\n      jumpi\n      0x0100\n      dup1\n      dup4\n      sload\n      div\n      mul\n      dup4\n      mstore\n      swap2\n      0x20\n      add\n      swap2\n      jump(tag_183)\n    tag_184:\n      dup3\n      add\n      swap2\n      swap1\n      0x00\n      mstore\n      keccak256(0x00, 0x20)\n      swap1\n    tag_185:\n      dup2\n      sload\n      dup2\n      mstore\n      swap1\n      0x01\n      add\n      swap1\n      0x20\n      add\n      dup1\n      dup4\n      gt\n      tag_185\n      jumpi\n      dup3\n      swap1\n      sub\n      0x1f\n      and\n      dup3\n      add\n      swap2\n    tag_183:\n      pop\n      pop\n      pop\n      pop\n      pop\n      dup2\n      mstore\n      0x20\n      add\n      0x09\n      dup3\n      add\n      dup1\n      sload\n      0x01\n      dup2\n      0x01\n      and\n      iszero\n      0x0100\n      mul\n      sub\n      and\n      0x02\n      swap1\n      div\n      dup1\n      0x1f\n      add\n      0x20\n      dup1\n      swap2\n      div\n      mul\n      0x20\n      add\n      mload(0x40)\n      swap1\n      dup2\n      add\n      0x40\n      mstore\n      dup1\n      swap3\n      swap2\n      swap1\n      dup2\n      dup2\n      mstore\n      0x20\n      add\n      dup3\n      dup1\n      sload\n      0x01\n      dup2\n      0x01\n      and\n      iszero\n      0x0100\n      mul\n      sub\n      and\n      0x02\n      swap1\n      div\n      dup1\n      iszero\n      tag_186\n      jumpi\n      dup1\n      0x1f\n      lt\n      tag_187\n      jumpi\n      0x0100\n      dup1\n      dup4\n      sload\n      div\n      mul\n      dup4\n      mstore\n      swap2\n      0x20\n      add\n      swap2\n      jump(tag_186)\n    tag_187:\n      dup3\n      add\n      swap2\n      swap1\n      0x00\n      mstore\n      keccak256(0x00, 0x20)\n      swap1\n    tag_188:\n      dup2\n      sload\n      dup2\n      mstore\n      swap1\n      0x01\n      add\n      swap1\n      0x20\n      add\n      dup1\n      dup4\n      gt\n      tag_188\n      jumpi\n      dup3\n      swap1\n      sub\n      0x1f\n      and\n      dup3\n      add\n      swap2\n    tag_186:\n      pop\n      pop\n      pop\n      pop\n      pop\n      dup2\n      mstore\n      0x20\n      add\n      0x0a\n      dup3\n      add\n      dup1\n      sload\n      0x01\n      dup2\n      0x01\n      and\n      iszero\n      0x0100\n      mul\n      sub\n      and\n      0x02\n      swap1\n      div\n      dup1\n      0x1f\n      add\n      0x20\n      dup1\n      swap2\n      div\n      mul\n      0x20\n      add\n      mload(0x40)\n      swap1\n      dup2\n      add\n      0x40\n      mstore\n      dup1\n      swap3\n      swap2\n      swap1\n      dup2\n      dup2\n      mstore\n      0x20\n      add\n      dup3\n      dup1\n      sload\n      0x01\n      dup2\n      0x01\n      and\n      iszero\n      0x0100\n      mul\n      sub\n      and\n      0x02\n      swap1\n      div\n      dup1\n      iszero\n      tag_189\n      jumpi\n      dup1\n      0x1f\n      lt\n      tag_190\n      jumpi\n      0x0100\n      dup1\n      dup4\n      sload\n      div\n      mul\n      dup4\n      mstore\n      swap2\n      0x20\n      add\n      swap2\n      jump(tag_189)\n    tag_190:\n      dup3\n      add\n      swap2\n      swap1\n      0x00\n      mstore\n      keccak256(0x00, 0x20)\n      swap1\n    tag_191:\n      dup2\n      sload\n      dup2\n      mstore\n      swap1\n      0x01\n      add\n      swap1\n      0x20\n      add\n      dup1\n      dup4\n      gt\n      tag_191\n      jumpi\n      dup3\n      swap1\n      sub\n      0x1f\n      and\n      dup3\n      add\n      swap2\n    tag_189:\n      pop\n      pop\n      pop\n      pop\n      pop\n      dup2\n      mstore\n      0x20\n      add\n      0x0b\n      dup3\n      add\n      dup1\n      sload\n      0x01\n      dup2\n      0x01\n      and\n      iszero\n      0x0100\n      mul\n      sub\n      and\n      0x02\n      swap1\n      div\n      dup1\n      0x1f\n      add\n      0x20\n      dup1\n      swap2\n      div\n      mul\n      0x20\n      add\n      mload(0x40)\n      swap1\n      dup2\n      add\n      0x40\n      mstore\n      dup1\n      swap3\n      swap2\n      swap1\n      dup2\n      dup2\n      mstore\n      0x20\n      add\n      dup3\n      dup1\n      sload\n      0x01\n      dup2\n      0x01\n      and\n      iszero\n      0x0100\n      mul\n      sub\n      and\n      0x02\n      swap1\n      div\n      dup1\n      iszero\n      tag_192\n      jumpi\n      dup1\n      0x1f\n      lt\n      tag_193\n      jumpi\n      0x0100\n      dup1\n      dup4\n      sload\n      div\n      mul\n      dup4\n      mstore\n      swap2\n      0x20\n      add\n      swap2\n      jump(tag_192)\n    tag_193:\n      dup3\n      add\n      swap2\n      swap1\n      0x00\n      mstore\n      keccak256(0x00, 0x20)\n      swap1\n    tag_194:\n      dup2\n      sload\n      dup2\n      mstore\n      swap1\n      0x01\n      add\n      swap1\n      0x20\n      add\n      dup1\n      dup4\n      gt\n      tag_194\n      jumpi\n      dup3\n      swap1\n      sub\n      0x1f\n      and\n      dup3\n      add\n      swap2\n    tag_192:\n      pop\n      pop\n      pop\n      pop\n      pop\n      dup2\n      mstore\n      0x20\n      add\n      0x0c\n      dup3\n      add\n      dup1\n      sload\n      0x01\n      dup2\n      0x01\n      and\n      iszero\n      0x0100\n      mul\n      sub\n      and\n      0x02\n      swap1\n      div\n      dup1\n      0x1f\n      add\n      0x20\n      dup1\n      swap2\n      div\n      mul\n      0x20\n      add\n      mload(0x40)\n      swap1\n      dup2\n      add\n      0x40\n      mstore\n      dup1\n      swap3\n      swap2\n      swap1\n      dup2\n      dup2\n      mstore\n      0x20\n      add\n      dup3\n      dup1\n      sload\n      0x01\n      dup2\n      0x01\n      and\n      iszero\n      0x0100\n      mul\n      sub\n      and\n      0x02\n      swap1\n      div\n      dup1\n      iszero\n      tag_195\n      jumpi\n      dup1\n      0x1f\n      lt\n      tag_196\n      jumpi\n      0x0100\n      dup1\n      dup4\n      sload\n      div\n      mul\n      dup4\n      mstore\n      swap2\n      0x20\n      add\n      swap2\n      jump(tag_195)\n    tag_196:\n      dup3\n      add\n      swap2\n      swap1\n      0x00\n      mstore\n      keccak256(0x00, 0x20)\n      swap1\n    tag_197:\n      dup2\n      sload\n      dup2\n      mstore\n      swap1\n      0x01\n      add\n      swap1\n      0x20\n      add\n      dup1\n      dup4\n      gt\n      tag_197\n      jumpi\n      dup3\n      swap1\n      sub\n      0x1f\n      and\n      dup3\n      add\n      swap2\n    tag_195:\n      pop\n      pop\n      pop\n      pop\n      pop\n      dup2\n      mstore\n      0x20\n      add\n      0x0d\n      dup3\n      add\n      dup1\n      sload\n      0x01\n      dup2\n      0x01\n      and\n      iszero\n      0x0100\n      mul\n      sub\n      and\n      0x02\n      swap1\n      div\n      dup1\n      0x1f\n      add\n      0x20\n      dup1\n      swap2\n      div\n      mul\n      0x20\n      add\n      mload(0x40)\n      swap1\n      dup2\n      add\n      0x40\n      mstore\n      dup1\n      swap3\n      swap2\n      swap1\n      dup2\n      dup2\n      mstore\n      0x20\n      add\n      dup3\n      dup1\n      sload\n      0x01\n      dup2\n      0x01\n      and\n      iszero\n      0x0100\n      mul\n      sub\n      and\n      0x02\n      swap1\n      div\n      dup1\n      iszero\n      tag_198\n      jumpi\n      dup1\n      0x1f\n      lt\n      tag_199\n      jumpi\n      0x0100\n      dup1\n      dup4\n      sload\n      div\n      mul\n      dup4\n      mstore\n      swap2\n      0x20\n      add\n      swap2\n      jump(tag_198)\n    tag_199:\n      dup3\n      add\n      swap2\n      swap1\n      0x00\n      mstore\n      keccak256(0x00, 0x20)\n      swap1\n    tag_200:\n      dup2\n      sload\n      dup2\n      mstore\n      swap1\n      0x01\n      add\n      swap1\n      0x20\n      add\n      dup1\n      dup4\n      gt\n      tag_200\n      jumpi\n      dup3\n      swap1\n      sub\n      0x1f\n      and\n      dup3\n      add\n      swap2\n    tag_198:\n      pop\n      pop\n      pop\n      pop\n      pop\n      dup2\n      mstore\n      0x20\n      add\n      0x0e\n      dup3\n      add\n      mload(0x40)\n      dup1\n      0x0120\n      add\n      0x40\n      mstore\n      swap1\n      dup2\n      0x00\n      dup3\n      add\n      dup1\n      sload\n      0x01\n      dup2\n      0x01\n      and\n      iszero\n      0x0100\n      mul\n      sub\n      and\n      0x02\n      swap1\n      div\n      dup1\n      0x1f\n      add\n      0x20\n      dup1\n      swap2\n      div\n      mul\n      0x20\n      add\n      mload(0x40)\n      swap1\n      dup2\n      add\n      0x40\n      mstore\n      dup1\n      swap3\n      swap2\n      swap1\n      dup2\n      dup2\n      mstore\n      0x20\n      add\n      dup3\n      dup1\n      sload\n      0x01\n      dup2\n      0x01\n      and\n      iszero\n      0x0100\n      mul\n      sub\n      and\n      0x02\n      swap1\n      div\n      dup1\n      iszero\n      tag_201\n      jumpi\n      dup1\n      0x1f\n      lt\n      tag_202\n      jumpi\n      0x0100\n      dup1\n      dup4\n      sload\n      div\n      mul\n      dup4\n      mstore\n      swap2\n      0x20\n      add\n      swap2\n      jump(tag_201)\n    tag_202:\n      dup3\n      add\n      swap2\n      swap1\n      0x00\n      mstore\n      keccak256(0x00, 0x20)\n      swap1\n    tag_203:\n      dup2\n      sload\n      dup2\n      mstore\n      swap1\n      0x01\n      add\n      swap1\n      0x20\n      add\n      dup1\n      dup4\n      gt\n      tag_203\n      jumpi\n      dup3\n      swap1\n      sub\n      0x1f\n      and\n      dup3\n      add\n      swap2\n    tag_201:\n      pop\n      pop\n      pop\n      pop\n      pop\n      dup2\n      mstore\n      0x20\n      add\n      0x01\n      dup3\n      add\n      dup1\n      sload\n      0x01\n      dup2\n      0x01\n      and\n      iszero\n      0x0100\n      mul\n      sub\n      and\n      0x02\n      swap1\n      div\n      dup1\n      0x1f\n      add\n      0x20\n      dup1\n      swap2\n      div\n      mul\n      0x20\n      add\n      mload(0x40)\n      swap1\n      dup2\n      add\n      0x40\n      mstore\n      dup1\n      swap3\n      swap2\n      swap1\n      dup2\n      dup2\n      mstore\n      0x20\n      add\n      dup3\n      dup1\n      sload\n      0x01\n      dup2\n      0x01\n      and\n      iszero\n      0x0100\n      mul\n      sub\n      and\n      0x02\n      swap1\n      div\n      dup1\n      iszero\n      tag_204\n      jumpi\n      dup1\n      0x1f\n      lt\n      tag_205\n      jumpi\n      0x0100\n      dup1\n      dup4\n      sload\n      div\n      mul\n      dup4\n      mstore\n      swap2\n      0x20\n      add\n      swap2\n      jump(tag_204)\n    tag_205:\n      dup3\n      add\n      swap2\n      swap1\n      0x00\n      mstore\n      keccak256(0x00, 0x20)\n      swap1\n    tag_206:\n      dup2\n      sload\n      dup2\n      mstore\n      swap1\n      0x01\n      add\n      swap1\n      0x20\n      add\n      dup1\n      dup4\n      gt\n      tag_206\n      jumpi\n      dup3\n      swap1\n      sub\n      0x1f\n      and\n      dup3\n      add\n      swap2\n    tag_204:\n      pop\n      pop\n      pop\n      pop\n      pop\n      dup2\n      mstore\n      0x20\n      add\n      0x02\n      dup3\n      add\n      dup1\n      sload\n      0x01\n      dup2\n      0x01\n      and\n      iszero\n      0x0100\n      mul\n      sub\n      and\n      0x02\n      swap1\n      div\n      dup1\n      0x1f\n      add\n      0x20\n      dup1\n      swap2\n      div\n      mul\n      0x20\n      add\n      mload(0x40)\n      swap1\n      dup2\n      add\n      0x40\n      mstore\n      dup1\n      swap3\n      swap2\n      swap1\n      dup2\n      dup2\n      mstore\n      0x20\n      add\n      dup3\n      dup1\n      sload\n      0x01\n      dup2\n      0x01\n      and\n      iszero\n      0x0100\n      mul\n      sub\n      and\n      0x02\n      swap1\n      div\n      dup1\n      iszero\n      tag_207\n      jumpi\n      dup1\n      0x1f\n      lt\n      tag_208\n      jumpi\n      0x0100\n      dup1\n      dup4\n      sload\n      div\n      mul\n      dup4\n      mstore\n      swap2\n      0x20\n      add\n      swap2\n      jump(tag_207)\n    tag_208:\n      dup3\n      add\n      swap2\n      swap1\n      0x00\n      mstore\n      keccak256(0x00, 0x20)\n      swap1\n    tag_209:\n      dup2\n      sload\n      dup2\n      mstore\n      swap1\n      0x01\n      add\n      swap1\n      0x20\n      add\n      dup1\n      dup4\n      gt\n      tag_209\n      jumpi\n      dup3\n      swap1\n      sub\n      0x1f\n      and\n      dup3\n      add\n      swap2\n    tag_207:\n      pop\n      pop\n      pop\n      pop\n      pop\n      dup2\n      mstore\n      0x20\n      add\n      0x03\n      dup3\n      add\n      dup1\n      sload\n      0x01\n      dup2\n      0x01\n      and\n      iszero\n      0x0100\n      mul\n      sub\n      and\n      0x02\n      swap1\n      div\n      dup1\n      0x1f\n      add\n      0x20\n      dup1\n      swap2\n      div\n      mul\n      0x20\n      add\n      mload(0x40)\n      swap1\n      dup2\n      add\n      0x40\n      mstore\n      dup1\n      swap3\n      swap2\n      swap1\n      dup2\n      dup2\n      mstore\n      0x20\n      add\n      dup3\n      dup1\n      sload\n      0x01\n      dup2\n      0x01\n      and\n      iszero\n      0x0100\n      mul\n      sub\n      and\n      0x02\n      swap1\n      div\n      dup1\n      iszero\n      tag_210\n      jumpi\n      dup1\n      0x1f\n      lt\n      tag_211\n      jumpi\n      0x0100\n      dup1\n      dup4\n      sload\n      div\n      mul\n      dup4\n      mstore\n      swap2\n      0x20\n      add\n      swap2\n      jump(tag_210)\n    tag_211:\n      dup3\n      add\n      swap2\n      swap1\n      0x00\n      mstore\n      keccak256(0x00, 0x20)\n      swap1\n    tag_212:\n      dup2\n      sload\n      dup2\n      mstore\n      swap1\n      0x01\n      add\n      swap1\n      0x20\n      add\n      dup1\n      dup4\n      gt\n      tag_212\n      jumpi\n      dup3\n      swap1\n      sub\n      0x1f\n      and\n      dup3\n      add\n      swap2\n    tag_210:\n      pop\n      pop\n      pop\n      pop\n      pop\n      dup2\n      mstore\n      0x20\n      add\n      0x04\n      dup3\n      add\n      dup1\n      sload\n      0x01\n      dup2\n      0x01\n      and\n      iszero\n      0x0100\n      mul\n      sub\n      and\n      0x02\n      swap1\n      div\n      dup1\n      0x1f\n      add\n      0x20\n      dup1\n      swap2\n      div\n      mul\n      0x20\n      add\n      mload(0x40)\n      swap1\n      dup2\n      add\n      0x40\n      mstore\n      dup1\n      swap3\n      swap2\n      swap1\n      dup2\n      dup2\n      mstore\n      0x20\n      add\n      dup3\n      dup1\n      sload\n      0x01\n      dup2\n      0x01\n      and\n      iszero\n      0x0100\n      mul\n      sub\n      and\n      0x02\n      swap1\n      div\n      dup1\n      iszero\n      tag_213\n      jumpi\n      dup1\n      0x1f\n      lt\n      tag_214\n      jumpi\n      0x0100\n      dup1\n      dup4\n      sload\n      div\n      mul\n      dup4\n      mstore\n      swap2\n      0x20\n      add\n      swap2\n      jump(tag_213)\n    tag_214:\n      dup3\n      add\n      swap2\n      swap1\n      0x00\n      mstore\n      keccak256(0x00, 0x20)\n      swap1\n    tag_215:\n      dup2\n      sload\n      dup2\n      mstore\n      swap1\n      0x01\n      add\n      swap1\n      0x20\n      add\n      dup1\n      dup4\n      gt\n      tag_215\n      jumpi\n      dup3\n      swap1\n      sub\n      0x1f\n      and\n      dup3\n      add\n      swap2\n    tag_213:\n      pop\n      pop\n      pop\n      pop\n      pop\n      dup2\n      mstore\n      0x20\n      add\n      0x05\n      dup3\n      add\n      dup1\n      sload\n      0x01\n      dup2\n      0x01\n      and\n      iszero\n      0x0100\n      mul\n      sub\n      and\n      0x02\n      swap1\n      div\n      dup1\n      0x1f\n      add\n      0x20\n      dup1\n      swap2\n      div\n      mul\n      0x20\n      add\n      mload(0x40)\n      swap1\n      dup2\n      add\n      0x40\n      mstore\n      dup1\n      swap3\n      swap2\n      swap1\n      dup2\n      dup2\n      mstore\n      0x20\n      add\n      dup3\n      dup1\n      sload\n      0x01\n      dup2\n      0x01\n      and\n      iszero\n      0x0100\n      mul\n      sub\n      and\n      0x02\n      swap1\n      div\n      dup1\n      iszero\n      tag_216\n      jumpi\n      dup1\n      0x1f\n      lt\n      tag_217\n      jumpi\n      0x0100\n      dup1\n      dup4\n      sload\n      div\n      mul\n      dup4\n      mstore\n      swap2\n      0x20\n      add\n      swap2\n      jump(tag_216)\n    tag_217:\n      dup3\n      add\n      swap2\n      swap1\n      0x00\n      mstore\n      keccak256(0x00, 0x20)\n      swap1\n    tag_218:\n      dup2\n      sload\n      dup2\n      mstore\n      swap1\n      0x01\n      add\n      swap1\n      0x20\n      add\n      dup1\n      dup4\n      gt\n      tag_218\n      jumpi\n      dup3\n      swap1\n      sub\n      0x1f\n      and\n      dup3\n      add\n      swap2\n    tag_216:\n      pop\n      pop\n      pop\n      pop\n      pop\n      dup2\n      mstore\n      0x20\n      add\n      0x06\n      dup3\n      add\n      dup1\n      sload\n      0x01\n      dup2\n      0x01\n      and\n      iszero\n      0x0100\n      mul\n      sub\n      and\n      0x02\n      swap1\n      div\n      dup1\n      0x1f\n      add\n      0x20\n      dup1\n      swap2\n      div\n      mul\n      0x20\n      add\n      mload(0x40)\n      swap1\n      dup2\n      add\n      0x40\n      mstore\n      dup1\n      swap3\n      swap2\n      swap1\n      dup2\n      dup2\n      mstore\n      0x20\n      add\n      dup3\n      dup1\n      sload\n      0x01\n      dup2\n      0x01\n      and\n      iszero\n      0x0100\n      mul\n      sub\n      and\n      0x02\n      swap1\n      div\n      dup1\n      iszero\n      tag_219\n      jumpi\n      dup1\n      0x1f\n      lt\n      tag_220\n      jumpi\n      0x0100\n      dup1\n      dup4\n      sload\n      div\n      mul\n      dup4\n      mstore\n      swap2\n      0x20\n      add\n      swap2\n      jump(tag_219)\n    tag_220:\n      dup3\n      add\n      swap2\n      swap1\n      0x00\n      mstore\n      keccak256(0x00, 0x20)\n      swap1\n    tag_221:\n      dup2\n      sload\n      dup2\n      mstore\n      swap1\n      0x01\n      add\n      swap1\n      0x20\n      add\n      dup1\n      dup4\n      gt\n      tag_221\n      jumpi\n      dup3\n      swap1\n      sub\n      0x1f\n      and\n      dup3\n      add\n      swap2\n    tag_219:\n      pop\n      pop\n      pop\n      pop\n      pop\n      dup2\n      mstore\n      0x20\n      add\n      0x07\n      dup3\n      add\n      dup1\n      sload\n      0x01\n      dup2\n      0x01\n      and\n      iszero\n      0x0100\n      mul\n      sub\n      and\n      0x02\n      swap1\n      div\n      dup1\n      0x1f\n      add\n      0x20\n      dup1\n      swap2\n      div\n      mul\n      0x20\n      add\n      mload(0x40)\n      swap1\n      dup2\n      add\n      0x40\n      mstore\n      dup1\n      swap3\n      swap2\n      swap1\n      dup2\n      dup2\n      mstore\n      0x20\n      add\n      dup3\n      dup1\n      sload\n      0x01\n      dup2\n      0x01\n      and\n      iszero\n      0x0100\n      mul\n      sub\n      and\n      0x02\n      swap1\n      div\n      dup1\n      iszero\n      tag_222\n      jumpi\n      dup1\n      0x1f\n      lt\n      tag_223\n      jumpi\n      0x0100\n      dup1\n      dup4\n      sload\n      div\n      mul\n      dup4\n      mstore\n      swap2\n      0x20\n      add\n      swap2\n      jump(tag_222)\n    tag_223:\n      dup3\n      add\n      swap2\n      swap1\n      0x00\n      mstore\n      keccak256(0x00, 0x20)\n      swap1\n    tag_224:\n      dup2\n      sload\n      dup2\n      mstore\n      swap1\n      0x01\n      add\n      swap1\n      0x20\n      add\n      dup1\n      dup4\n      gt\n      tag_224\n      jumpi\n      dup3\n      swap1\n      sub\n      0x1f\n      and\n      dup3\n      add\n      swap2\n    tag_222:\n      pop\n      pop\n      pop\n      pop\n      pop\n      dup2\n      mstore\n      0x20\n      add\n      0x08\n      dup3\n      add\n      dup1\n      sload\n      0x01\n      dup2\n      0x01\n      and\n      iszero\n      0x0100\n      mul\n      sub\n      and\n      0x02\n      swap1\n      div\n      dup1\n      0x1f\n      add\n      0x20\n      dup1\n      swap2\n      div\n      mul\n      0x20\n      add\n      mload(0x40)\n      swap1\n      dup2\n      add\n      0x40\n      mstore\n      dup1\n      swap3\n      swap2\n      swap1\n      dup2\n      dup2\n      mstore\n      0x20\n      add\n      dup3\n      dup1\n      sload\n      0x01\n      dup2\n      0x01\n      and\n      iszero\n      0x0100\n      mul\n      sub\n      and\n      0x02\n      swap1\n      div\n      dup1\n      iszero\n      tag_225\n      jumpi\n      dup1\n      0x1f\n      lt\n      tag_226\n      jumpi\n      0x0100\n      dup1\n      dup4\n      sload\n      div\n      mul\n      dup4\n      mstore\n      swap2\n      0x20\n      add\n      swap2\n      jump(tag_225)\n    tag_226:\n      dup3\n      add\n      swap2\n      swap1\n      0x00\n      mstore\n      keccak256(0x00, 0x20)\n      swap1\n    tag_227:\n      dup2\n      sload\n      dup2\n      mstore\n      swap1\n      0x01\n      add\n      swap1\n      0x20\n      add\n      dup1\n      dup4\n      gt\n      tag_227\n      jumpi\n      dup3\n      swap1\n      sub\n      0x1f\n      and\n      dup3\n      add\n      swap2\n    tag_225:\n      pop\n      pop\n      pop\n      pop\n      pop\n      dup2\n      mstore\n      pop\n      pop\n      dup2\n      mstore\n      pop\n      pop\n      dup2\n      mstore\n      pop\n      pop\n        /* \"contracts/DSD/SmartRegistryData.sol\":2976:2988  descriptions */\n      dup3\n        /* \"contracts/DSD/SmartRegistryData.sol\":2989:2990  i */\n      dup5\n        /* \"contracts/DSD/SmartRegistryData.sol\":2976:2991  descriptions[i] */\n      dup2\n      mload\n      dup2\n      lt\n      tag_228\n      jumpi\n      invalid\n    tag_228:\n      0x20\n      mul\n      0x20\n      add\n      add\n        /* \"contracts/DSD/SmartRegistryData.sol\":2976:3000  descriptions[i] = scdata */\n      dup2\n      swap1\n      mstore\n      pop\n        /* \"contracts/DSD/SmartRegistryData.sol\":2896:3009  for (i; i<descriptionNumber; i++) {\r... */\n      pop\n        /* \"contracts/DSD/SmartRegistryData.sol\":2925:2928  i++ */\n      dup2\n      dup1\n      0x01\n      add\n      swap3\n      pop\n      pop\n        /* \"contracts/DSD/SmartRegistryData.sol\":2896:3009  for (i; i<descriptionNumber; i++) {\r... */\n      jump(tag_96)\n    tag_97:\n        /* \"contracts/DSD/SmartRegistryData.sol\":3023:3035  descriptions */\n      dup1\n        /* \"contracts/DSD/SmartRegistryData.sol\":3015:3035  return  descriptions */\n      swap3\n      pop\n      pop\n      pop\n        /* \"contracts/DSD/SmartRegistryData.sol\":2760:3039  function getsrd()public returns ( SCDATA[] memory){\r... */\n      swap1\n      jump\t// out\n        /* \"contracts/DSD/SmartRegistryData.sol\":2111:2157  mapping(string => eventContract) public events */\n    tag_41:\n      0x06\n      dup2\n        /* \"--CODEGEN--\":28:35   */\n      dup1\n        /* \"--CODEGEN--\":22:36   */\n      mload\n        /* \"--CODEGEN--\":169:173   */\n      0x20\n        /* \"--CODEGEN--\":160:167   */\n      dup2\n        /* \"--CODEGEN--\":156:174   */\n      add\n        /* \"--CODEGEN--\":147:154   */\n      dup3\n        /* \"--CODEGEN--\":143:175   */\n      add\n        /* \"--CODEGEN--\":204:217   */\n      dup1\n        /* \"--CODEGEN--\":198:218   */\n      mload\n        /* \"--CODEGEN--\":246:254   */\n      dup5\n        /* \"--CODEGEN--\":231:244   */\n      dup3\n        /* \"--CODEGEN--\":224:255   */\n      mstore\n        /* \"--CODEGEN--\":316:320   */\n      0x20\n        /* \"--CODEGEN--\":307:314   */\n      dup4\n        /* \"--CODEGEN--\":303:321   */\n      add\n        /* \"--CODEGEN--\":296:300   */\n      0x20\n        /* \"--CODEGEN--\":287:294   */\n      dup6\n        /* \"--CODEGEN--\":283:301   */\n      add\n        /* \"--CODEGEN--\":273:322   */\n      keccak256\n        /* \"--CODEGEN--\":350:359   */\n      dup2\n        /* \"--CODEGEN--\":335:348   */\n      dup4\n        /* \"--CODEGEN--\":328:360   */\n      mstore\n        /* \"--CODEGEN--\":378:382   */\n      dup1\n        /* \"--CODEGEN--\":366:382   */\n      swap6\n      pop\n        /* \"--CODEGEN--\":0:388   */\n      pop\n      pop\n      pop\n      pop\n        /* \"contracts/DSD/SmartRegistryData.sol\":2111:2157  mapping(string => eventContract) public events */\n      pop\n      0x00\n      swap2\n      pop\n      swap1\n      pop\n      dup1\n      0x00\n      add\n      dup1\n      sload\n      0x01\n      dup2\n      0x01\n      and\n      iszero\n      0x0100\n      mul\n      sub\n      and\n      0x02\n      swap1\n      div\n      dup1\n      0x1f\n      add\n      0x20\n      dup1\n      swap2\n      div\n      mul\n      0x20\n      add\n      mload(0x40)\n      swap1\n      dup2\n      add\n      0x40\n      mstore\n      dup1\n      swap3\n      swap2\n      swap1\n      dup2\n      dup2\n      mstore\n      0x20\n      add\n      dup3\n      dup1\n      sload\n      0x01\n      dup2\n      0x01\n      and\n      iszero\n      0x0100\n      mul\n      sub\n      and\n      0x02\n      swap1\n      div\n      dup1\n      iszero\n      tag_229\n      jumpi\n      dup1\n      0x1f\n      lt\n      tag_230\n      jumpi\n      0x0100\n      dup1\n      dup4\n      sload\n      div\n      mul\n      dup4\n      mstore\n      swap2\n      0x20\n      add\n      swap2\n      jump(tag_229)\n    tag_230:\n      dup3\n      add\n      swap2\n      swap1\n      0x00\n      mstore\n      keccak256(0x00, 0x20)\n      swap1\n    tag_231:\n      dup2\n      sload\n      dup2\n      mstore\n      swap1\n      0x01\n      add\n      swap1\n      0x20\n      add\n      dup1\n      dup4\n      gt\n      tag_231\n      jumpi\n      dup3\n      swap1\n      sub\n      0x1f\n      and\n      dup3\n      add\n      swap2\n    tag_229:\n      pop\n      pop\n      pop\n      pop\n      pop\n      swap1\n      dup1\n      0x01\n      add\n      dup1\n      sload\n      0x01\n      dup2\n      0x01\n      and\n      iszero\n      0x0100\n      mul\n      sub\n      and\n      0x02\n      swap1\n      div\n      dup1\n      0x1f\n      add\n      0x20\n      dup1\n      swap2\n      div\n      mul\n      0x20\n      add\n      mload(0x40)\n      swap1\n      dup2\n      add\n      0x40\n      mstore\n      dup1\n      swap3\n      swap2\n      swap1\n      dup2\n      dup2\n      mstore\n      0x20\n      add\n      dup3\n      dup1\n      sload\n      0x01\n      dup2\n      0x01\n      and\n      iszero\n      0x0100\n      mul\n      sub\n      and\n      0x02\n      swap1\n      div\n      dup1\n      iszero\n      tag_232\n      jumpi\n      dup1\n      0x1f\n      lt\n      tag_233\n      jumpi\n      0x0100\n      dup1\n      dup4\n      sload\n      div\n      mul\n      dup4\n      mstore\n      swap2\n      0x20\n      add\n      swap2\n      jump(tag_232)\n    tag_233:\n      dup3\n      add\n      swap2\n      swap1\n      0x00\n      mstore\n      keccak256(0x00, 0x20)\n      swap1\n    tag_234:\n      dup2\n      sload\n      dup2\n      mstore\n      swap1\n      0x01\n      add\n      swap1\n      0x20\n      add\n      dup1\n      dup4\n      gt\n      tag_234\n      jumpi\n      dup3\n      swap1\n      sub\n      0x1f\n      and\n      dup3\n      add\n      swap2\n    tag_232:\n      pop\n      pop\n      pop\n      pop\n      pop\n      swap1\n      dup1\n      0x02\n      add\n      dup1\n      sload\n      0x01\n      dup2\n      0x01\n      and\n      iszero\n      0x0100\n      mul\n      sub\n      and\n      0x02\n      swap1\n      div\n      dup1\n      0x1f\n      add\n      0x20\n      dup1\n      swap2\n      div\n      mul\n      0x20\n      add\n      mload(0x40)\n      swap1\n      dup2\n      add\n      0x40\n      mstore\n      dup1\n      swap3\n      swap2\n      swap1\n      dup2\n      dup2\n      mstore\n      0x20\n      add\n      dup3\n      dup1\n      sload\n      0x01\n      dup2\n      0x01\n      and\n      iszero\n      0x0100\n      mul\n      sub\n      and\n      0x02\n      swap1\n      div\n      dup1\n      iszero\n      tag_235\n      jumpi\n      dup1\n      0x1f\n      lt\n      tag_236\n      jumpi\n      0x0100\n      dup1\n      dup4\n      sload\n      div\n      mul\n      dup4\n      mstore\n      swap2\n      0x20\n      add\n      swap2\n      jump(tag_235)\n    tag_236:\n      dup3\n      add\n      swap2\n      swap1\n      0x00\n      mstore\n      keccak256(0x00, 0x20)\n      swap1\n    tag_237:\n      dup2\n      sload\n      dup2\n      mstore\n      swap1\n      0x01\n      add\n      swap1\n      0x20\n      add\n      dup1\n      dup4\n      gt\n      tag_237\n      jumpi\n      dup3\n      swap1\n      sub\n      0x1f\n      and\n      dup3\n      add\n      swap2\n    tag_235:\n      pop\n      pop\n      pop\n      pop\n      pop\n      swap1\n      pop\n      dup4\n      jump\t// out\n        /* \"contracts/DSD/SmartRegistryData.sol\":1549:1599  mapping(string => eventOutput) public eventOutputs */\n    tag_45:\n      0x02\n      dup2\n        /* \"--CODEGEN--\":28:35   */\n      dup1\n        /* \"--CODEGEN--\":22:36   */\n      mload\n        /* \"--CODEGEN--\":169:173   */\n      0x20\n        /* \"--CODEGEN--\":160:167   */\n      dup2\n        /* \"--CODEGEN--\":156:174   */\n      add\n        /* \"--CODEGEN--\":147:154   */\n      dup3\n        /* \"--CODEGEN--\":143:175   */\n      add\n        /* \"--CODEGEN--\":204:217   */\n      dup1\n        /* \"--CODEGEN--\":198:218   */\n      mload\n        /* \"--CODEGEN--\":246:254   */\n      dup5\n        /* \"--CODEGEN--\":231:244   */\n      dup3\n        /* \"--CODEGEN--\":224:255   */\n      mstore\n        /* \"--CODEGEN--\":316:320   */\n      0x20\n        /* \"--CODEGEN--\":307:314   */\n      dup4\n        /* \"--CODEGEN--\":303:321   */\n      add\n        /* \"--CODEGEN--\":296:300   */\n      0x20\n        /* \"--CODEGEN--\":287:294   */\n      dup6\n        /* \"--CODEGEN--\":283:301   */\n      add\n        /* \"--CODEGEN--\":273:322   */\n      keccak256\n        /* \"--CODEGEN--\":350:359   */\n      dup2\n        /* \"--CODEGEN--\":335:348   */\n      dup4\n        /* \"--CODEGEN--\":328:360   */\n      mstore\n        /* \"--CODEGEN--\":378:382   */\n      dup1\n        /* \"--CODEGEN--\":366:382   */\n      swap6\n      pop\n        /* \"--CODEGEN--\":0:388   */\n      pop\n      pop\n      pop\n      pop\n        /* \"contracts/DSD/SmartRegistryData.sol\":1549:1599  mapping(string => eventOutput) public eventOutputs */\n      pop\n      0x00\n      swap2\n      pop\n      swap1\n      pop\n      dup1\n      0x00\n      add\n      dup1\n      sload\n      0x01\n      dup2\n      0x01\n      and\n      iszero\n      0x0100\n      mul\n      sub\n      and\n      0x02\n      swap1\n      div\n      dup1\n      0x1f\n      add\n      0x20\n      dup1\n      swap2\n      div\n      mul\n      0x20\n      add\n      mload(0x40)\n      swap1\n      dup2\n      add\n      0x40\n      mstore\n      dup1\n      swap3\n      swap2\n      swap1\n      dup2\n      dup2\n      mstore\n      0x20\n      add\n      dup3\n      dup1\n      sload\n      0x01\n      dup2\n      0x01\n      and\n      iszero\n      0x0100\n      mul\n      sub\n      and\n      0x02\n      swap1\n      div\n      dup1\n      iszero\n      tag_238\n      jumpi\n      dup1\n      0x1f\n      lt\n      tag_239\n      jumpi\n      0x0100\n      dup1\n      dup4\n      sload\n      div\n      mul\n      dup4\n      mstore\n      swap2\n      0x20\n      add\n      swap2\n      jump(tag_238)\n    tag_239:\n      dup3\n      add\n      swap2\n      swap1\n      0x00\n      mstore\n      keccak256(0x00, 0x20)\n      swap1\n    tag_240:\n      dup2\n      sload\n      dup2\n      mstore\n      swap1\n      0x01\n      add\n      swap1\n      0x20\n      add\n      dup1\n      dup4\n      gt\n      tag_240\n      jumpi\n      dup3\n      swap1\n      sub\n      0x1f\n      and\n      dup3\n      add\n      swap2\n    tag_238:\n      pop\n      pop\n      pop\n      pop\n      pop\n      swap1\n      dup1\n      0x01\n      add\n      dup1\n      sload\n      0x01\n      dup2\n      0x01\n      and\n      iszero\n      0x0100\n      mul\n      sub\n      and\n      0x02\n      swap1\n      div\n      dup1\n      0x1f\n      add\n      0x20\n      dup1\n      swap2\n      div\n      mul\n      0x20\n      add\n      mload(0x40)\n      swap1\n      dup2\n      add\n      0x40\n      mstore\n      dup1\n      swap3\n      swap2\n      swap1\n      dup2\n      dup2\n      mstore\n      0x20\n      add\n      dup3\n      dup1\n      sload\n      0x01\n      dup2\n      0x01\n      and\n      iszero\n      0x0100\n      mul\n      sub\n      and\n      0x02\n      swap1\n      div\n      dup1\n      iszero\n      tag_241\n      jumpi\n      dup1\n      0x1f\n      lt\n      tag_242\n      jumpi\n      0x0100\n      dup1\n      dup4\n      sload\n      div\n      mul\n      dup4\n      mstore\n      swap2\n      0x20\n      add\n      swap2\n      jump(tag_241)\n    tag_242:\n      dup3\n      add\n      swap2\n      swap1\n      0x00\n      mstore\n      keccak256(0x00, 0x20)\n      swap1\n    tag_243:\n      dup2\n      sload\n      dup2\n      mstore\n      swap1\n      0x01\n      add\n      swap1\n      0x20\n      add\n      dup1\n      dup4\n      gt\n      tag_243\n      jumpi\n      dup3\n      swap1\n      sub\n      0x1f\n      and\n      dup3\n      add\n      swap2\n    tag_241:\n      pop\n      pop\n      pop\n      pop\n      pop\n      swap1\n      dup1\n      0x02\n      add\n      0x00\n      swap1\n      sload\n      swap1\n      0x0100\n      exp\n      swap1\n      div\n      0xff\n      and\n      swap1\n      pop\n      dup4\n      jump\t// out\n        /* \"contracts/DSD/SmartRegistryData.sol\":2164:2215  mapping(string => funtionContract) public functions */\n    tag_49:\n      0x07\n      dup2\n        /* \"--CODEGEN--\":28:35   */\n      dup1\n        /* \"--CODEGEN--\":22:36   */\n      mload\n        /* \"--CODEGEN--\":169:173   */\n      0x20\n        /* \"--CODEGEN--\":160:167   */\n      dup2\n        /* \"--CODEGEN--\":156:174   */\n      add\n        /* \"--CODEGEN--\":147:154   */\n      dup3\n        /* \"--CODEGEN--\":143:175   */\n      add\n        /* \"--CODEGEN--\":204:217   */\n      dup1\n        /* \"--CODEGEN--\":198:218   */\n      mload\n        /* \"--CODEGEN--\":246:254   */\n      dup5\n        /* \"--CODEGEN--\":231:244   */\n      dup3\n        /* \"--CODEGEN--\":224:255   */\n      mstore\n        /* \"--CODEGEN--\":316:320   */\n      0x20\n        /* \"--CODEGEN--\":307:314   */\n      dup4\n        /* \"--CODEGEN--\":303:321   */\n      add\n        /* \"--CODEGEN--\":296:300   */\n      0x20\n        /* \"--CODEGEN--\":287:294   */\n      dup6\n        /* \"--CODEGEN--\":283:301   */\n      add\n        /* \"--CODEGEN--\":273:322   */\n      keccak256\n        /* \"--CODEGEN--\":350:359   */\n      dup2\n        /* \"--CODEGEN--\":335:348   */\n      dup4\n        /* \"--CODEGEN--\":328:360   */\n      mstore\n        /* \"--CODEGEN--\":378:382   */\n      dup1\n        /* \"--CODEGEN--\":366:382   */\n      swap6\n      pop\n        /* \"--CODEGEN--\":0:388   */\n      pop\n      pop\n      pop\n      pop\n        /* \"contracts/DSD/SmartRegistryData.sol\":2164:2215  mapping(string => funtionContract) public functions */\n      pop\n      0x00\n      swap2\n      pop\n      swap1\n      pop\n      dup1\n      0x00\n      add\n      dup1\n      sload\n      0x01\n      dup2\n      0x01\n      and\n      iszero\n      0x0100\n      mul\n      sub\n      and\n      0x02\n      swap1\n      div\n      dup1\n      0x1f\n      add\n      0x20\n      dup1\n      swap2\n      div\n      mul\n      0x20\n      add\n      mload(0x40)\n      swap1\n      dup2\n      add\n      0x40\n      mstore\n      dup1\n      swap3\n      swap2\n      swap1\n      dup2\n      dup2\n      mstore\n      0x20\n      add\n      dup3\n      dup1\n      sload\n      0x01\n      dup2\n      0x01\n      and\n      iszero\n      0x0100\n      mul\n      sub\n      and\n      0x02\n      swap1\n      div\n      dup1\n      iszero\n      tag_244\n      jumpi\n      dup1\n      0x1f\n      lt\n      tag_245\n      jumpi\n      0x0100\n      dup1\n      dup4\n      sload\n      div\n      mul\n      dup4\n      mstore\n      swap2\n      0x20\n      add\n      swap2\n      jump(tag_244)\n    tag_245:\n      dup3\n      add\n      swap2\n      swap1\n      0x00\n      mstore\n      keccak256(0x00, 0x20)\n      swap1\n    tag_246:\n      dup2\n      sload\n      dup2\n      mstore\n      swap1\n      0x01\n      add\n      swap1\n      0x20\n      add\n      dup1\n      dup4\n      gt\n      tag_246\n      jumpi\n      dup3\n      swap1\n      sub\n      0x1f\n      and\n      dup3\n      add\n      swap2\n    tag_244:\n      pop\n      pop\n      pop\n      pop\n      pop\n      swap1\n      dup1\n      0x01\n      add\n      dup1\n      sload\n      0x01\n      dup2\n      0x01\n      and\n      iszero\n      0x0100\n      mul\n      sub\n      and\n      0x02\n      swap1\n      div\n      dup1\n      0x1f\n      add\n      0x20\n      dup1\n      swap2\n      div\n      mul\n      0x20\n      add\n      mload(0x40)\n      swap1\n      dup2\n      add\n      0x40\n      mstore\n      dup1\n      swap3\n      swap2\n      swap1\n      dup2\n      dup2\n      mstore\n      0x20\n      add\n      dup3\n      dup1\n      sload\n      0x01\n      dup2\n      0x01\n      and\n      iszero\n      0x0100\n      mul\n      sub\n      and\n      0x02\n      swap1\n      div\n      dup1\n      iszero\n      tag_247\n      jumpi\n      dup1\n      0x1f\n      lt\n      tag_248\n      jumpi\n      0x0100\n      dup1\n      dup4\n      sload\n      div\n      mul\n      dup4\n      mstore\n      swap2\n      0x20\n      add\n      swap2\n      jump(tag_247)\n    tag_248:\n      dup3\n      add\n      swap2\n      swap1\n      0x00\n      mstore\n      keccak256(0x00, 0x20)\n      swap1\n    tag_249:\n      dup2\n      sload\n      dup2\n      mstore\n      swap1\n      0x01\n      add\n      swap1\n      0x20\n      add\n      dup1\n      dup4\n      gt\n      tag_249\n      jumpi\n      dup3\n      swap1\n      sub\n      0x1f\n      and\n      dup3\n      add\n      swap2\n    tag_247:\n      pop\n      pop\n      pop\n      pop\n      pop\n      swap1\n      dup1\n      0x02\n      add\n      dup1\n      sload\n      0x01\n      dup2\n      0x01\n      and\n      iszero\n      0x0100\n      mul\n      sub\n      and\n      0x02\n      swap1\n      div\n      dup1\n      0x1f\n      add\n      0x20\n      dup1\n      swap2\n      div\n      mul\n      0x20\n      add\n      mload(0x40)\n      swap1\n      dup2\n      add\n      0x40\n      mstore\n      dup1\n      swap3\n      swap2\n      swap1\n      dup2\n      dup2\n      mstore\n      0x20\n      add\n      dup3\n      dup1\n      sload\n      0x01\n      dup2\n      0x01\n      and\n      iszero\n      0x0100\n      mul\n      sub\n      and\n      0x02\n      swap1\n      div\n      dup1\n      iszero\n      tag_250\n      jumpi\n      dup1\n      0x1f\n      lt\n      tag_251\n      jumpi\n      0x0100\n      dup1\n      dup4\n      sload\n      div\n      mul\n      dup4\n      mstore\n      swap2\n      0x20\n      add\n      swap2\n      jump(tag_250)\n    tag_251:\n      dup3\n      add\n      swap2\n      swap1\n      0x00\n      mstore\n      keccak256(0x00, 0x20)\n      swap1\n    tag_252:\n      dup2\n      sload\n      dup2\n      mstore\n      swap1\n      0x01\n      add\n      swap1\n      0x20\n      add\n      dup1\n      dup4\n      gt\n      tag_252\n      jumpi\n      dup3\n      swap1\n      sub\n      0x1f\n      and\n      dup3\n      add\n      swap2\n    tag_250:\n      pop\n      pop\n      pop\n      pop\n      pop\n      swap1\n      dup1\n      0x03\n      add\n      dup1\n      sload\n      0x01\n      dup2\n      0x01\n      and\n      iszero\n      0x0100\n      mul\n      sub\n      and\n      0x02\n      swap1\n      div\n      dup1\n      0x1f\n      add\n      0x20\n      dup1\n      swap2\n      div\n      mul\n      0x20\n      add\n      mload(0x40)\n      swap1\n      dup2\n      add\n      0x40\n      mstore\n      dup1\n      swap3\n      swap2\n      swap1\n      dup2\n      dup2\n      mstore\n      0x20\n      add\n      dup3\n      dup1\n      sload\n      0x01\n      dup2\n      0x01\n      and\n      iszero\n      0x0100\n      mul\n      sub\n      and\n      0x02\n      swap1\n      div\n      dup1\n      iszero\n      tag_253\n      jumpi\n      dup1\n      0x1f\n      lt\n      tag_254\n      jumpi\n      0x0100\n      dup1\n      dup4\n      sload\n      div\n      mul\n      dup4\n      mstore\n      swap2\n      0x20\n      add\n      swap2\n      jump(tag_253)\n    tag_254:\n      dup3\n      add\n      swap2\n      swap1\n      0x00\n      mstore\n      keccak256(0x00, 0x20)\n      swap1\n    tag_255:\n      dup2\n      sload\n      dup2\n      mstore\n      swap1\n      0x01\n      add\n      swap1\n      0x20\n      add\n      dup1\n      dup4\n      gt\n      tag_255\n      jumpi\n      dup3\n      swap1\n      sub\n      0x1f\n      and\n      dup3\n      add\n      swap2\n    tag_253:\n      pop\n      pop\n      pop\n      pop\n      pop\n      swap1\n      pop\n      dup5\n      jump\t// out\n        /* \"contracts/DSD/SmartRegistryData.sol\":2262:2300  funtionContract[] public functionsList */\n    tag_54:\n      0x09\n      dup2\n      dup2\n      sload\n      dup2\n      lt\n      tag_256\n      jumpi\n      invalid\n    tag_256:\n      swap1\n      0x00\n      mstore\n      keccak256(0x00, 0x20)\n      swap1\n      0x05\n      mul\n      add\n      0x00\n      swap2\n      pop\n      swap1\n      pop\n      dup1\n      0x00\n      add\n      dup1\n      sload\n      0x01\n      dup2\n      0x01\n      and\n      iszero\n      0x0100\n      mul\n      sub\n      and\n      0x02\n      swap1\n      div\n      dup1\n      0x1f\n      add\n      0x20\n      dup1\n      swap2\n      div\n      mul\n      0x20\n      add\n      mload(0x40)\n      swap1\n      dup2\n      add\n      0x40\n      mstore\n      dup1\n      swap3\n      swap2\n      swap1\n      dup2\n      dup2\n      mstore\n      0x20\n      add\n      dup3\n      dup1\n      sload\n      0x01\n      dup2\n      0x01\n      and\n      iszero\n      0x0100\n      mul\n      sub\n      and\n      0x02\n      swap1\n      div\n      dup1\n      iszero\n      tag_258\n      jumpi\n      dup1\n      0x1f\n      lt\n      tag_259\n      jumpi\n      0x0100\n      dup1\n      dup4\n      sload\n      div\n      mul\n      dup4\n      mstore\n      swap2\n      0x20\n      add\n      swap2\n      jump(tag_258)\n    tag_259:\n      dup3\n      add\n      swap2\n      swap1\n      0x00\n      mstore\n      keccak256(0x00, 0x20)\n      swap1\n    tag_260:\n      dup2\n      sload\n      dup2\n      mstore\n      swap1\n      0x01\n      add\n      swap1\n      0x20\n      add\n      dup1\n      dup4\n      gt\n      tag_260\n      jumpi\n      dup3\n      swap1\n      sub\n      0x1f\n      and\n      dup3\n      add\n      swap2\n    tag_258:\n      pop\n      pop\n      pop\n      pop\n      pop\n      swap1\n      dup1\n      0x01\n      add\n      dup1\n      sload\n      0x01\n      dup2\n      0x01\n      and\n      iszero\n      0x0100\n      mul\n      sub\n      and\n      0x02\n      swap1\n      div\n      dup1\n      0x1f\n      add\n      0x20\n      dup1\n      swap2\n      div\n      mul\n      0x20\n      add\n      mload(0x40)\n      swap1\n      dup2\n      add\n      0x40\n      mstore\n      dup1\n      swap3\n      swap2\n      swap1\n      dup2\n      dup2\n      mstore\n      0x20\n      add\n      dup3\n      dup1\n      sload\n      0x01\n      dup2\n      0x01\n      and\n      iszero\n      0x0100\n      mul\n      sub\n      and\n      0x02\n      swap1\n      div\n      dup1\n      iszero\n      tag_261\n      jumpi\n      dup1\n      0x1f\n      lt\n      tag_262\n      jumpi\n      0x0100\n      dup1\n      dup4\n      sload\n      div\n      mul\n      dup4\n      mstore\n      swap2\n      0x20\n      add\n      swap2\n      jump(tag_261)\n    tag_262:\n      dup3\n      add\n      swap2\n      swap1\n      0x00\n      mstore\n      keccak256(0x00, 0x20)\n      swap1\n    tag_263:\n      dup2\n      sload\n      dup2\n      mstore\n      swap1\n      0x01\n      add\n      swap1\n      0x20\n      add\n      dup1\n      dup4\n      gt\n      tag_263\n      jumpi\n      dup3\n      swap1\n      sub\n      0x1f\n      and\n      dup3\n      add\n      swap2\n    tag_261:\n      pop\n      pop\n      pop\n      pop\n      pop\n      swap1\n      dup1\n      0x02\n      add\n      dup1\n      sload\n      0x01\n      dup2\n      0x01\n      and\n      iszero\n      0x0100\n      mul\n      sub\n      and\n      0x02\n      swap1\n      div\n      dup1\n      0x1f\n      add\n      0x20\n      dup1\n      swap2\n      div\n      mul\n      0x20\n      add\n      mload(0x40)\n      swap1\n      dup2\n      add\n      0x40\n      mstore\n      dup1\n      swap3\n      swap2\n      swap1\n      dup2\n      dup2\n      mstore\n      0x20\n      add\n      dup3\n      dup1\n      sload\n      0x01\n      dup2\n      0x01\n      and\n      iszero\n      0x0100\n      mul\n      sub\n      and\n      0x02\n      swap1\n      div\n      dup1\n      iszero\n      tag_264\n      jumpi\n      dup1\n      0x1f\n      lt\n      tag_265\n      jumpi\n      0x0100\n      dup1\n      dup4\n      sload\n      div\n      mul\n      dup4\n      mstore\n      swap2\n      0x20\n      add\n      swap2\n      jump(tag_264)\n    tag_265:\n      dup3\n      add\n      swap2\n      swap1\n      0x00\n      mstore\n      keccak256(0x00, 0x20)\n      swap1\n    tag_266:\n      dup2\n      sload\n      dup2\n      mstore\n      swap1\n      0x01\n      add\n      swap1\n      0x20\n      add\n      dup1\n      dup4\n      gt\n      tag_266\n      jumpi\n      dup3\n      swap1\n      sub\n      0x1f\n      and\n      dup3\n      add\n      swap2\n    tag_264:\n      pop\n      pop\n      pop\n      pop\n      pop\n      swap1\n      dup1\n      0x03\n      add\n      dup1\n      sload\n      0x01\n      dup2\n      0x01\n      and\n      iszero\n      0x0100\n      mul\n      sub\n      and\n      0x02\n      swap1\n      div\n      dup1\n      0x1f\n      add\n      0x20\n      dup1\n      swap2\n      div\n      mul\n      0x20\n      add\n      mload(0x40)\n      swap1\n      dup2\n      add\n      0x40\n      mstore\n      dup1\n      swap3\n      swap2\n      swap1\n      dup2\n      dup2\n      mstore\n      0x20\n      add\n      dup3\n      dup1\n      sload\n      0x01\n      dup2\n      0x01\n      and\n      iszero\n      0x0100\n      mul\n      sub\n      and\n      0x02\n      swap1\n      div\n      dup1\n      iszero\n      tag_267\n      jumpi\n      dup1\n      0x1f\n      lt\n      tag_268\n      jumpi\n      0x0100\n      dup1\n      dup4\n      sload\n      div\n      mul\n      dup4\n      mstore\n      swap2\n      0x20\n      add\n      swap2\n      jump(tag_267)\n    tag_268:\n      dup3\n      add\n      swap2\n      swap1\n      0x00\n      mstore\n      keccak256(0x00, 0x20)\n      swap1\n    tag_269:\n      dup2\n      sload\n      dup2\n      mstore\n      swap1\n      0x01\n      add\n      swap1\n      0x20\n      add\n      dup1\n      dup4\n      gt\n      tag_269\n      jumpi\n      dup3\n      swap1\n      sub\n      0x1f\n      and\n      dup3\n      add\n      swap2\n    tag_267:\n      pop\n      pop\n      pop\n      pop\n      pop\n      swap1\n      pop\n      dup5\n      jump\t// out\n        /* \"contracts/DSD/SmartRegistryData.sol\":2222:2255  eventContract[] public eventsList */\n    tag_58:\n      0x08\n      dup2\n      dup2\n      sload\n      dup2\n      lt\n      tag_270\n      jumpi\n      invalid\n    tag_270:\n      swap1\n      0x00\n      mstore\n      keccak256(0x00, 0x20)\n      swap1\n      0x04\n      mul\n      add\n      0x00\n      swap2\n      pop\n      swap1\n      pop\n      dup1\n      0x00\n      add\n      dup1\n      sload\n      0x01\n      dup2\n      0x01\n      and\n      iszero\n      0x0100\n      mul\n      sub\n      and\n      0x02\n      swap1\n      div\n      dup1\n      0x1f\n      add\n      0x20\n      dup1\n      swap2\n      div\n      mul\n      0x20\n      add\n      mload(0x40)\n      swap1\n      dup2\n      add\n      0x40\n      mstore\n      dup1\n      swap3\n      swap2\n      swap1\n      dup2\n      dup2\n      mstore\n      0x20\n      add\n      dup3\n      dup1\n      sload\n      0x01\n      dup2\n      0x01\n      and\n      iszero\n      0x0100\n      mul\n      sub\n      and\n      0x02\n      swap1\n      div\n      dup1\n      iszero\n      tag_272\n      jumpi\n      dup1\n      0x1f\n      lt\n      tag_273\n      jumpi\n      0x0100\n      dup1\n      dup4\n      sload\n      div\n      mul\n      dup4\n      mstore\n      swap2\n      0x20\n      add\n      swap2\n      jump(tag_272)\n    tag_273:\n      dup3\n      add\n      swap2\n      swap1\n      0x00\n      mstore\n      keccak256(0x00, 0x20)\n      swap1\n    tag_274:\n      dup2\n      sload\n      dup2\n      mstore\n      swap1\n      0x01\n      add\n      swap1\n      0x20\n      add\n      dup1\n      dup4\n      gt\n      tag_274\n      jumpi\n      dup3\n      swap1\n      sub\n      0x1f\n      and\n      dup3\n      add\n      swap2\n    tag_272:\n      pop\n      pop\n      pop\n      pop\n      pop\n      swap1\n      dup1\n      0x01\n      add\n      dup1\n      sload\n      0x01\n      dup2\n      0x01\n      and\n      iszero\n      0x0100\n      mul\n      sub\n      and\n      0x02\n      swap1\n      div\n      dup1\n      0x1f\n      add\n      0x20\n      dup1\n      swap2\n      div\n      mul\n      0x20\n      add\n      mload(0x40)\n      swap1\n      dup2\n      add\n      0x40\n      mstore\n      dup1\n      swap3\n      swap2\n      swap1\n      dup2\n      dup2\n      mstore\n      0x20\n      add\n      dup3\n      dup1\n      sload\n      0x01\n      dup2\n      0x01\n      and\n      iszero\n      0x0100\n      mul\n      sub\n      and\n      0x02\n      swap1\n      div\n      dup1\n      iszero\n      tag_275\n      jumpi\n      dup1\n      0x1f\n      lt\n      tag_276\n      jumpi\n      0x0100\n      dup1\n      dup4\n      sload\n      div\n      mul\n      dup4\n      mstore\n      swap2\n      0x20\n      add\n      swap2\n      jump(tag_275)\n    tag_276:\n      dup3\n      add\n      swap2\n      swap1\n      0x00\n      mstore\n      keccak256(0x00, 0x20)\n      swap1\n    tag_277:\n      dup2\n      sload\n      dup2\n      mstore\n      swap1\n      0x01\n      add\n      swap1\n      0x20\n      add\n      dup1\n      dup4\n      gt\n      tag_277\n      jumpi\n      dup3\n      swap1\n      sub\n      0x1f\n      and\n      dup3\n      add\n      swap2\n    tag_275:\n      pop\n      pop\n      pop\n      pop\n      pop\n      swap1\n      dup1\n      0x02\n      add\n      dup1\n      sload\n      0x01\n      dup2\n      0x01\n      and\n      iszero\n      0x0100\n      mul\n      sub\n      and\n      0x02\n      swap1\n      div\n      dup1\n      0x1f\n      add\n      0x20\n      dup1\n      swap2\n      div\n      mul\n      0x20\n      add\n      mload(0x40)\n      swap1\n      dup2\n      add\n      0x40\n      mstore\n      dup1\n      swap3\n      swap2\n      swap1\n      dup2\n      dup2\n      mstore\n      0x20\n      add\n      dup3\n      dup1\n      sload\n      0x01\n      dup2\n      0x01\n      and\n      iszero\n      0x0100\n      mul\n      sub\n      and\n      0x02\n      swap1\n      div\n      dup1\n      iszero\n      tag_278\n      jumpi\n      dup1\n      0x1f\n      lt\n      tag_279\n      jumpi\n      0x0100\n      dup1\n      dup4\n      sload\n      div\n      mul\n      dup4\n      mstore\n      swap2\n      0x20\n      add\n      swap2\n      jump(tag_278)\n    tag_279:\n      dup3\n      add\n      swap2\n      swap1\n      0x00\n      mstore\n      keccak256(0x00, 0x20)\n      swap1\n    tag_280:\n      dup2\n      sload\n      dup2\n      mstore\n      swap1\n      0x01\n      add\n      swap1\n      0x20\n      add\n      dup1\n      dup4\n      gt\n      tag_280\n      jumpi\n      dup3\n      swap1\n      sub\n      0x1f\n      and\n      dup3\n      add\n      swap2\n    tag_278:\n      pop\n      pop\n      pop\n      pop\n      pop\n      swap1\n      pop\n      dup4\n      jump\t// out\n        /* \"contracts/DSD/SmartRegistryData.sol\":103:3042  contract SmartRegistryData{\r... */\n    tag_95:\n      mload(0x40)\n      dup1\n      0x80\n      add\n      0x40\n      mstore\n      dup1\n      0x00\n      dup2\n      mstore\n      0x20\n      add\n      tag_281\n      tag_282\n      jump\t// in\n    tag_281:\n      dup2\n      mstore\n      0x20\n      add\n      tag_283\n      tag_284\n      jump\t// in\n    tag_283:\n      dup2\n      mstore\n      0x20\n      add\n      tag_285\n      tag_286\n      jump\t// in\n    tag_285:\n      dup2\n      mstore\n      pop\n      swap1\n      jump\t// out\n    tag_282:\n      mload(0x40)\n      dup1\n      0x40\n      add\n      0x40\n      mstore\n      dup1\n      0x60\n      dup2\n      mstore\n      0x20\n      add\n      0x60\n      dup2\n      mstore\n      pop\n      swap1\n      jump\t// out\n    tag_284:\n      mload(0x40)\n      dup1\n      0xc0\n      add\n      0x40\n      mstore\n      dup1\n      0x60\n      dup2\n      mstore\n      0x20\n      add\n      0x60\n      dup2\n      mstore\n      0x20\n      add\n      0x60\n      dup2\n      mstore\n      0x20\n      add\n      0x60\n      dup2\n      mstore\n      0x20\n      add\n      0x60\n      dup2\n      mstore\n      0x20\n      add\n      and(0xffffffffffffffffffffffffffffffffffffffff, 0x00)\n      dup2\n      mstore\n      pop\n      swap1\n      jump\t// out\n    tag_286:\n      mload(0x40)\n      dup1\n      0x01e0\n      add\n      0x40\n      mstore\n      dup1\n      0x60\n      dup2\n      mstore\n      0x20\n      add\n      0x60\n      dup2\n      mstore\n      0x20\n      add\n      0x60\n      dup2\n      mstore\n      0x20\n      add\n      0x60\n      dup2\n      mstore\n      0x20\n      add\n      0x60\n      dup2\n      mstore\n      0x20\n      add\n      0x60\n      dup2\n      mstore\n      0x20\n      add\n      0x60\n      dup2\n      mstore\n      0x20\n      add\n      0x60\n      dup2\n      mstore\n      0x20\n      add\n      0x60\n      dup2\n      mstore\n      0x20\n      add\n      0x60\n      dup2\n      mstore\n      0x20\n      add\n      0x60\n      dup2\n      mstore\n      0x20\n      add\n      0x60\n      dup2\n      mstore\n      0x20\n      add\n      0x60\n      dup2\n      mstore\n      0x20\n      add\n      0x60\n      dup2\n      mstore\n      0x20\n      add\n      tag_287\n      tag_288\n      jump\t// in\n    tag_287:\n      dup2\n      mstore\n      pop\n      swap1\n      jump\t// out\n    tag_288:\n      mload(0x40)\n      dup1\n      0x0120\n      add\n      0x40\n      mstore\n      dup1\n      0x60\n      dup2\n      mstore\n      0x20\n      add\n      0x60\n      dup2\n      mstore\n      0x20\n      add\n      0x60\n      dup2\n      mstore\n      0x20\n      add\n      0x60\n      dup2\n      mstore\n      0x20\n      add\n      0x60\n      dup2\n      mstore\n      0x20\n      add\n      0x60\n      dup2\n      mstore\n      0x20\n      add\n      0x60\n      dup2\n      mstore\n      0x20\n      add\n      0x60\n      dup2\n      mstore\n      0x20\n      add\n      0x60\n      dup2\n      mstore\n      pop\n      swap1\n      jump\t// out\n        /* \"--CODEGEN--\":6:440   */\n    tag_290:\n      0x00\n        /* \"--CODEGEN--\":104:107   */\n      dup3\n        /* \"--CODEGEN--\":97:101   */\n      0x1f\n        /* \"--CODEGEN--\":89:95   */\n      dup4\n        /* \"--CODEGEN--\":85:102   */\n      add\n        /* \"--CODEGEN--\":81:108   */\n      slt\n        /* \"--CODEGEN--\":71:73   */\n      tag_291\n      jumpi\n        /* \"--CODEGEN--\":122:123   */\n      0x00\n        /* \"--CODEGEN--\":119:120   */\n      dup1\n        /* \"--CODEGEN--\":112:124   */\n      revert\n        /* \"--CODEGEN--\":71:73   */\n    tag_291:\n        /* \"--CODEGEN--\":159:165   */\n      dup2\n        /* \"--CODEGEN--\":146:166   */\n      calldataload\n        /* \"--CODEGEN--\":181:242   */\n      tag_292\n        /* \"--CODEGEN--\":196:241   */\n      tag_293\n        /* \"--CODEGEN--\":234:240   */\n      dup3\n        /* \"--CODEGEN--\":196:241   */\n      jump(tag_294)\n    tag_293:\n        /* \"--CODEGEN--\":181:242   */\n      jump(tag_295)\n    tag_292:\n        /* \"--CODEGEN--\":172:242   */\n      swap2\n      pop\n        /* \"--CODEGEN--\":262:268   */\n      dup1\n        /* \"--CODEGEN--\":255:260   */\n      dup3\n        /* \"--CODEGEN--\":248:269   */\n      mstore\n        /* \"--CODEGEN--\":298:302   */\n      0x20\n        /* \"--CODEGEN--\":290:296   */\n      dup4\n        /* \"--CODEGEN--\":286:303   */\n      add\n        /* \"--CODEGEN--\":331:335   */\n      0x20\n        /* \"--CODEGEN--\":324:329   */\n      dup4\n        /* \"--CODEGEN--\":320:336   */\n      add\n        /* \"--CODEGEN--\":366:369   */\n      dup6\n        /* \"--CODEGEN--\":357:363   */\n      dup4\n        /* \"--CODEGEN--\":352:355   */\n      dup4\n        /* \"--CODEGEN--\":348:364   */\n      add\n        /* \"--CODEGEN--\":345:370   */\n      gt\n        /* \"--CODEGEN--\":342:344   */\n      iszero\n      tag_296\n      jumpi\n        /* \"--CODEGEN--\":383:384   */\n      0x00\n        /* \"--CODEGEN--\":380:381   */\n      dup1\n        /* \"--CODEGEN--\":373:385   */\n      revert\n        /* \"--CODEGEN--\":342:344   */\n    tag_296:\n        /* \"--CODEGEN--\":393:434   */\n      tag_297\n        /* \"--CODEGEN--\":427:433   */\n      dup4\n        /* \"--CODEGEN--\":422:425   */\n      dup3\n        /* \"--CODEGEN--\":417:420   */\n      dup5\n        /* \"--CODEGEN--\":393:434   */\n      jump(tag_298)\n    tag_297:\n        /* \"--CODEGEN--\":64:440   */\n      pop\n      pop\n      pop\n      swap3\n      swap2\n      pop\n      pop\n      jump\n        /* \"--CODEGEN--\":448:578   */\n    tag_299:\n      0x00\n        /* \"--CODEGEN--\":528:534   */\n      dup2\n        /* \"--CODEGEN--\":515:535   */\n      calldataload\n        /* \"--CODEGEN--\":506:535   */\n      swap1\n      pop\n        /* \"--CODEGEN--\":540:573   */\n      tag_300\n        /* \"--CODEGEN--\":567:572   */\n      dup2\n        /* \"--CODEGEN--\":540:573   */\n      jump(tag_301)\n    tag_300:\n        /* \"--CODEGEN--\":500:578   */\n      swap3\n      swap2\n      pop\n      pop\n      jump\n        /* \"--CODEGEN--\":585:924   */\n    tag_16:\n      0x00\n        /* \"--CODEGEN--\":695:697   */\n      0x20\n        /* \"--CODEGEN--\":683:692   */\n      dup3\n        /* \"--CODEGEN--\":674:681   */\n      dup5\n        /* \"--CODEGEN--\":670:693   */\n      sub\n        /* \"--CODEGEN--\":666:698   */\n      slt\n        /* \"--CODEGEN--\":663:665   */\n      iszero\n      tag_302\n      jumpi\n        /* \"--CODEGEN--\":711:712   */\n      0x00\n        /* \"--CODEGEN--\":708:709   */\n      dup1\n        /* \"--CODEGEN--\":701:713   */\n      revert\n        /* \"--CODEGEN--\":663:665   */\n    tag_302:\n        /* \"--CODEGEN--\":774:775   */\n      0x00\n        /* \"--CODEGEN--\":763:772   */\n      dup3\n        /* \"--CODEGEN--\":759:776   */\n      add\n        /* \"--CODEGEN--\":746:777   */\n      calldataload\n        /* \"--CODEGEN--\":797:815   */\n      0xffffffffffffffff\n        /* \"--CODEGEN--\":789:795   */\n      dup2\n        /* \"--CODEGEN--\":786:816   */\n      gt\n        /* \"--CODEGEN--\":783:785   */\n      iszero\n      tag_303\n      jumpi\n        /* \"--CODEGEN--\":829:830   */\n      0x00\n        /* \"--CODEGEN--\":826:827   */\n      dup1\n        /* \"--CODEGEN--\":819:831   */\n      revert\n        /* \"--CODEGEN--\":783:785   */\n    tag_303:\n        /* \"--CODEGEN--\":849:908   */\n      tag_304\n        /* \"--CODEGEN--\":900:907   */\n      dup5\n        /* \"--CODEGEN--\":891:897   */\n      dup3\n        /* \"--CODEGEN--\":880:889   */\n      dup6\n        /* \"--CODEGEN--\":876:898   */\n      add\n        /* \"--CODEGEN--\":849:908   */\n      jump(tag_290)\n    tag_304:\n        /* \"--CODEGEN--\":839:908   */\n      swap2\n      pop\n        /* \"--CODEGEN--\":725:914   */\n      pop\n        /* \"--CODEGEN--\":657:924   */\n      swap3\n      swap2\n      pop\n      pop\n      jump\n        /* \"--CODEGEN--\":931:1172   */\n    tag_22:\n      0x00\n        /* \"--CODEGEN--\":1035:1037   */\n      0x20\n        /* \"--CODEGEN--\":1023:1032   */\n      dup3\n        /* \"--CODEGEN--\":1014:1021   */\n      dup5\n        /* \"--CODEGEN--\":1010:1033   */\n      sub\n        /* \"--CODEGEN--\":1006:1038   */\n      slt\n        /* \"--CODEGEN--\":1003:1005   */\n      iszero\n      tag_305\n      jumpi\n        /* \"--CODEGEN--\":1051:1052   */\n      0x00\n        /* \"--CODEGEN--\":1048:1049   */\n      dup1\n        /* \"--CODEGEN--\":1041:1053   */\n      revert\n        /* \"--CODEGEN--\":1003:1005   */\n    tag_305:\n        /* \"--CODEGEN--\":1086:1087   */\n      0x00\n        /* \"--CODEGEN--\":1103:1156   */\n      tag_306\n        /* \"--CODEGEN--\":1148:1155   */\n      dup5\n        /* \"--CODEGEN--\":1139:1145   */\n      dup3\n        /* \"--CODEGEN--\":1128:1137   */\n      dup6\n        /* \"--CODEGEN--\":1124:1146   */\n      add\n        /* \"--CODEGEN--\":1103:1156   */\n      jump(tag_299)\n    tag_306:\n        /* \"--CODEGEN--\":1093:1156   */\n      swap2\n      pop\n        /* \"--CODEGEN--\":1065:1162   */\n      pop\n        /* \"--CODEGEN--\":997:1172   */\n      swap3\n      swap2\n      pop\n      pop\n      jump\n        /* \"--CODEGEN--\":1180:1453   */\n    tag_307:\n      0x00\n        /* \"--CODEGEN--\":1339:1447   */\n      tag_308\n        /* \"--CODEGEN--\":1443:1446   */\n      dup4\n        /* \"--CODEGEN--\":1435:1441   */\n      dup4\n        /* \"--CODEGEN--\":1339:1447   */\n      jump(tag_309)\n    tag_308:\n        /* \"--CODEGEN--\":1325:1447   */\n      swap1\n      pop\n        /* \"--CODEGEN--\":1318:1453   */\n      swap3\n      swap2\n      pop\n      pop\n      jump\n        /* \"--CODEGEN--\":1462:1695   */\n    tag_310:\n      0x00\n        /* \"--CODEGEN--\":1601:1689   */\n      tag_311\n        /* \"--CODEGEN--\":1685:1688   */\n      dup4\n        /* \"--CODEGEN--\":1677:1683   */\n      dup4\n        /* \"--CODEGEN--\":1601:1689   */\n      jump(tag_312)\n    tag_311:\n        /* \"--CODEGEN--\":1587:1689   */\n      swap1\n      pop\n        /* \"--CODEGEN--\":1580:1695   */\n      swap3\n      swap2\n      pop\n      pop\n      jump\n        /* \"--CODEGEN--\":1704:1965   */\n    tag_313:\n      0x00\n        /* \"--CODEGEN--\":1857:1959   */\n      tag_314\n        /* \"--CODEGEN--\":1955:1958   */\n      dup4\n        /* \"--CODEGEN--\":1947:1953   */\n      dup4\n        /* \"--CODEGEN--\":1857:1959   */\n      jump(tag_315)\n    tag_314:\n        /* \"--CODEGEN--\":1843:1959   */\n      swap1\n      pop\n        /* \"--CODEGEN--\":1836:1965   */\n      swap3\n      swap2\n      pop\n      pop\n      jump\n        /* \"--CODEGEN--\":1974:2227   */\n    tag_316:\n      0x00\n        /* \"--CODEGEN--\":2123:2221   */\n      tag_317\n        /* \"--CODEGEN--\":2217:2220   */\n      dup4\n        /* \"--CODEGEN--\":2209:2215   */\n      dup4\n        /* \"--CODEGEN--\":2123:2221   */\n      jump(tag_318)\n    tag_317:\n        /* \"--CODEGEN--\":2109:2221   */\n      swap1\n      pop\n        /* \"--CODEGEN--\":2102:2227   */\n      swap3\n      swap2\n      pop\n      pop\n      jump\n        /* \"--CODEGEN--\":2236:2505   */\n    tag_319:\n      0x00\n        /* \"--CODEGEN--\":2393:2499   */\n      tag_320\n        /* \"--CODEGEN--\":2495:2498   */\n      dup4\n        /* \"--CODEGEN--\":2487:2493   */\n      dup4\n        /* \"--CODEGEN--\":2393:2499   */\n      jump(tag_321)\n    tag_320:\n        /* \"--CODEGEN--\":2379:2499   */\n      swap1\n      pop\n        /* \"--CODEGEN--\":2372:2505   */\n      swap3\n      swap2\n      pop\n      pop\n      jump\n        /* \"--CODEGEN--\":2513:2616   */\n    tag_322:\n        /* \"--CODEGEN--\":2586:2610   */\n      tag_323\n        /* \"--CODEGEN--\":2604:2609   */\n      dup2\n        /* \"--CODEGEN--\":2586:2610   */\n      jump(tag_324)\n    tag_323:\n        /* \"--CODEGEN--\":2581:2584   */\n      dup3\n        /* \"--CODEGEN--\":2574:2611   */\n      mstore\n        /* \"--CODEGEN--\":2568:2616   */\n      pop\n      pop\n      jump\n        /* \"--CODEGEN--\":2722:3766   */\n    tag_325:\n      0x00\n        /* \"--CODEGEN--\":2911:2990   */\n      tag_326\n        /* \"--CODEGEN--\":2984:2989   */\n      dup3\n        /* \"--CODEGEN--\":2911:2990   */\n      jump(tag_327)\n    tag_326:\n        /* \"--CODEGEN--\":3003:3108   */\n      tag_328\n        /* \"--CODEGEN--\":3101:3107   */\n      dup2\n        /* \"--CODEGEN--\":3096:3099   */\n      dup6\n        /* \"--CODEGEN--\":3003:3108   */\n      jump(tag_329)\n    tag_328:\n        /* \"--CODEGEN--\":2996:3108   */\n      swap4\n      pop\n        /* \"--CODEGEN--\":3131:3134   */\n      dup4\n        /* \"--CODEGEN--\":3173:3177   */\n      0x20\n        /* \"--CODEGEN--\":3165:3171   */\n      dup3\n        /* \"--CODEGEN--\":3161:3178   */\n      mul\n        /* \"--CODEGEN--\":3156:3159   */\n      dup6\n        /* \"--CODEGEN--\":3152:3179   */\n      add\n        /* \"--CODEGEN--\":3200:3281   */\n      tag_330\n        /* \"--CODEGEN--\":3275:3280   */\n      dup6\n        /* \"--CODEGEN--\":3200:3281   */\n      jump(tag_331)\n    tag_330:\n        /* \"--CODEGEN--\":3301:3308   */\n      dup1\n        /* \"--CODEGEN--\":3329:3330   */\n      0x00\n        /* \"--CODEGEN--\":3314:3727   */\n    tag_332:\n        /* \"--CODEGEN--\":3339:3345   */\n      dup6\n        /* \"--CODEGEN--\":3336:3337   */\n      dup2\n        /* \"--CODEGEN--\":3333:3346   */\n      lt\n        /* \"--CODEGEN--\":3314:3727   */\n      iszero\n      tag_334\n      jumpi\n        /* \"--CODEGEN--\":3401:3410   */\n      dup5\n        /* \"--CODEGEN--\":3395:3399   */\n      dup5\n        /* \"--CODEGEN--\":3391:3411   */\n      sub\n        /* \"--CODEGEN--\":3386:3389   */\n      dup10\n        /* \"--CODEGEN--\":3379:3412   */\n      mstore\n        /* \"--CODEGEN--\":3446:3452   */\n      dup2\n        /* \"--CODEGEN--\":3440:3453   */\n      mload\n        /* \"--CODEGEN--\":3468:3590   */\n      tag_335\n        /* \"--CODEGEN--\":3585:3589   */\n      dup6\n        /* \"--CODEGEN--\":3570:3583   */\n      dup3\n        /* \"--CODEGEN--\":3468:3590   */\n      jump(tag_307)\n    tag_335:\n        /* \"--CODEGEN--\":3460:3590   */\n      swap5\n      pop\n        /* \"--CODEGEN--\":3607:3692   */\n      tag_336\n        /* \"--CODEGEN--\":3685:3691   */\n      dup4\n        /* \"--CODEGEN--\":3607:3692   */\n      jump(tag_337)\n    tag_336:\n        /* \"--CODEGEN--\":3597:3692   */\n      swap3\n      pop\n        /* \"--CODEGEN--\":3715:3719   */\n      0x20\n        /* \"--CODEGEN--\":3710:3713   */\n      dup11\n        /* \"--CODEGEN--\":3706:3720   */\n      add\n        /* \"--CODEGEN--\":3699:3720   */\n      swap10\n      pop\n        /* \"--CODEGEN--\":3371:3727   */\n      pop\n        /* \"--CODEGEN--\":3361:3362   */\n      0x01\n        /* \"--CODEGEN--\":3358:3359   */\n      dup2\n        /* \"--CODEGEN--\":3354:3363   */\n      add\n        /* \"--CODEGEN--\":3349:3363   */\n      swap1\n      pop\n        /* \"--CODEGEN--\":3314:3727   */\n      jump(tag_332)\n    tag_334:\n        /* \"--CODEGEN--\":3318:3332   */\n      pop\n        /* \"--CODEGEN--\":3740:3744   */\n      dup3\n        /* \"--CODEGEN--\":3733:3744   */\n      swap8\n      pop\n        /* \"--CODEGEN--\":3757:3760   */\n      dup8\n        /* \"--CODEGEN--\":3750:3760   */\n      swap6\n      pop\n        /* \"--CODEGEN--\":2890:3766   */\n      pop\n      pop\n      pop\n      pop\n      pop\n      swap3\n      swap2\n      pop\n      pop\n      jump\n        /* \"--CODEGEN--\":3853:4853   */\n    tag_338:\n      0x00\n        /* \"--CODEGEN--\":4036:4109   */\n      tag_339\n        /* \"--CODEGEN--\":4103:4108   */\n      dup3\n        /* \"--CODEGEN--\":4036:4109   */\n      jump(tag_340)\n    tag_339:\n        /* \"--CODEGEN--\":4122:4227   */\n      tag_341\n        /* \"--CODEGEN--\":4220:4226   */\n      dup2\n        /* \"--CODEGEN--\":4215:4218   */\n      dup6\n        /* \"--CODEGEN--\":4122:4227   */\n      jump(tag_342)\n    tag_341:\n        /* \"--CODEGEN--\":4115:4227   */\n      swap4\n      pop\n        /* \"--CODEGEN--\":4250:4253   */\n      dup4\n        /* \"--CODEGEN--\":4292:4296   */\n      0x20\n        /* \"--CODEGEN--\":4284:4290   */\n      dup3\n        /* \"--CODEGEN--\":4280:4297   */\n      mul\n        /* \"--CODEGEN--\":4275:4278   */\n      dup6\n        /* \"--CODEGEN--\":4271:4298   */\n      add\n        /* \"--CODEGEN--\":4319:4394   */\n      tag_343\n        /* \"--CODEGEN--\":4388:4393   */\n      dup6\n        /* \"--CODEGEN--\":4319:4394   */\n      jump(tag_344)\n    tag_343:\n        /* \"--CODEGEN--\":4414:4421   */\n      dup1\n        /* \"--CODEGEN--\":4442:4443   */\n      0x00\n        /* \"--CODEGEN--\":4427:4814   */\n    tag_345:\n        /* \"--CODEGEN--\":4452:4458   */\n      dup6\n        /* \"--CODEGEN--\":4449:4450   */\n      dup2\n        /* \"--CODEGEN--\":4446:4459   */\n      lt\n        /* \"--CODEGEN--\":4427:4814   */\n      iszero\n      tag_347\n      jumpi\n        /* \"--CODEGEN--\":4514:4523   */\n      dup5\n        /* \"--CODEGEN--\":4508:4512   */\n      dup5\n        /* \"--CODEGEN--\":4504:4524   */\n      sub\n        /* \"--CODEGEN--\":4499:4502   */\n      dup10\n        /* \"--CODEGEN--\":4492:4525   */\n      mstore\n        /* \"--CODEGEN--\":4559:4565   */\n      dup2\n        /* \"--CODEGEN--\":4553:4566   */\n      mload\n        /* \"--CODEGEN--\":4581:4683   */\n      tag_348\n        /* \"--CODEGEN--\":4678:4682   */\n      dup6\n        /* \"--CODEGEN--\":4663:4676   */\n      dup3\n        /* \"--CODEGEN--\":4581:4683   */\n      jump(tag_310)\n    tag_348:\n        /* \"--CODEGEN--\":4573:4683   */\n      swap5\n      pop\n        /* \"--CODEGEN--\":4700:4779   */\n      tag_349\n        /* \"--CODEGEN--\":4772:4778   */\n      dup4\n        /* \"--CODEGEN--\":4700:4779   */\n      jump(tag_350)\n    tag_349:\n        /* \"--CODEGEN--\":4690:4779   */\n      swap3\n      pop\n        /* \"--CODEGEN--\":4802:4806   */\n      0x20\n        /* \"--CODEGEN--\":4797:4800   */\n      dup11\n        /* \"--CODEGEN--\":4793:4807   */\n      add\n        /* \"--CODEGEN--\":4786:4807   */\n      swap10\n      pop\n        /* \"--CODEGEN--\":4484:4814   */\n      pop\n        /* \"--CODEGEN--\":4474:4475   */\n      0x01\n        /* \"--CODEGEN--\":4471:4472   */\n      dup2\n        /* \"--CODEGEN--\":4467:4476   */\n      add\n        /* \"--CODEGEN--\":4462:4476   */\n      swap1\n      pop\n        /* \"--CODEGEN--\":4427:4814   */\n      jump(tag_345)\n    tag_347:\n        /* \"--CODEGEN--\":4431:4445   */\n      pop\n        /* \"--CODEGEN--\":4827:4831   */\n      dup3\n        /* \"--CODEGEN--\":4820:4831   */\n      swap8\n      pop\n        /* \"--CODEGEN--\":4844:4847   */\n      dup8\n        /* \"--CODEGEN--\":4837:4847   */\n      swap6\n      pop\n        /* \"--CODEGEN--\":4015:4853   */\n      pop\n      pop\n      pop\n      pop\n      pop\n      swap3\n      swap2\n      pop\n      pop\n      jump\n        /* \"--CODEGEN--\":4954:5974   */\n    tag_351:\n      0x00\n        /* \"--CODEGEN--\":5137:5213   */\n      tag_352\n        /* \"--CODEGEN--\":5207:5212   */\n      dup3\n        /* \"--CODEGEN--\":5137:5213   */\n      jump(tag_353)\n    tag_352:\n        /* \"--CODEGEN--\":5226:5328   */\n      tag_354\n        /* \"--CODEGEN--\":5321:5327   */\n      dup2\n        /* \"--CODEGEN--\":5316:5319   */\n      dup6\n        /* \"--CODEGEN--\":5226:5328   */\n      jump(tag_355)\n    tag_354:\n        /* \"--CODEGEN--\":5219:5328   */\n      swap4\n      pop\n        /* \"--CODEGEN--\":5351:5354   */\n      dup4\n        /* \"--CODEGEN--\":5393:5397   */\n      0x20\n        /* \"--CODEGEN--\":5385:5391   */\n      dup3\n        /* \"--CODEGEN--\":5381:5398   */\n      mul\n        /* \"--CODEGEN--\":5376:5379   */\n      dup6\n        /* \"--CODEGEN--\":5372:5399   */\n      add\n        /* \"--CODEGEN--\":5420:5498   */\n      tag_356\n        /* \"--CODEGEN--\":5492:5497   */\n      dup6\n        /* \"--CODEGEN--\":5420:5498   */\n      jump(tag_357)\n    tag_356:\n        /* \"--CODEGEN--\":5518:5525   */\n      dup1\n        /* \"--CODEGEN--\":5546:5547   */\n      0x00\n        /* \"--CODEGEN--\":5531:5935   */\n    tag_358:\n        /* \"--CODEGEN--\":5556:5562   */\n      dup6\n        /* \"--CODEGEN--\":5553:5554   */\n      dup2\n        /* \"--CODEGEN--\":5550:5563   */\n      lt\n        /* \"--CODEGEN--\":5531:5935   */\n      iszero\n      tag_360\n      jumpi\n        /* \"--CODEGEN--\":5618:5627   */\n      dup5\n        /* \"--CODEGEN--\":5612:5616   */\n      dup5\n        /* \"--CODEGEN--\":5608:5628   */\n      sub\n        /* \"--CODEGEN--\":5603:5606   */\n      dup10\n        /* \"--CODEGEN--\":5596:5629   */\n      mstore\n        /* \"--CODEGEN--\":5663:5669   */\n      dup2\n        /* \"--CODEGEN--\":5657:5670   */\n      mload\n        /* \"--CODEGEN--\":5685:5801   */\n      tag_361\n        /* \"--CODEGEN--\":5796:5800   */\n      dup6\n        /* \"--CODEGEN--\":5781:5794   */\n      dup3\n        /* \"--CODEGEN--\":5685:5801   */\n      jump(tag_313)\n    tag_361:\n        /* \"--CODEGEN--\":5677:5801   */\n      swap5\n      pop\n        /* \"--CODEGEN--\":5818:5900   */\n      tag_362\n        /* \"--CODEGEN--\":5893:5899   */\n      dup4\n        /* \"--CODEGEN--\":5818:5900   */\n      jump(tag_363)\n    tag_362:\n        /* \"--CODEGEN--\":5808:5900   */\n      swap3\n      pop\n        /* \"--CODEGEN--\":5923:5927   */\n      0x20\n        /* \"--CODEGEN--\":5918:5921   */\n      dup11\n        /* \"--CODEGEN--\":5914:5928   */\n      add\n        /* \"--CODEGEN--\":5907:5928   */\n      swap10\n      pop\n        /* \"--CODEGEN--\":5588:5935   */\n      pop\n        /* \"--CODEGEN--\":5578:5579   */\n      0x01\n        /* \"--CODEGEN--\":5575:5576   */\n      dup2\n        /* \"--CODEGEN--\":5571:5580   */\n      add\n        /* \"--CODEGEN--\":5566:5580   */\n      swap1\n      pop\n        /* \"--CODEGEN--\":5531:5935   */\n      jump(tag_358)\n    tag_360:\n        /* \"--CODEGEN--\":5535:5549   */\n      pop\n        /* \"--CODEGEN--\":5948:5952   */\n      dup3\n        /* \"--CODEGEN--\":5941:5952   */\n      swap8\n      pop\n        /* \"--CODEGEN--\":5965:5968   */\n      dup8\n        /* \"--CODEGEN--\":5958:5968   */\n      swap6\n      pop\n        /* \"--CODEGEN--\":5116:5974   */\n      pop\n      pop\n      pop\n      pop\n      pop\n      swap3\n      swap2\n      pop\n      pop\n      jump\n        /* \"--CODEGEN--\":6071:7075   */\n    tag_364:\n      0x00\n        /* \"--CODEGEN--\":6250:6324   */\n      tag_365\n        /* \"--CODEGEN--\":6318:6323   */\n      dup3\n        /* \"--CODEGEN--\":6250:6324   */\n      jump(tag_366)\n    tag_365:\n        /* \"--CODEGEN--\":6337:6437   */\n      tag_367\n        /* \"--CODEGEN--\":6430:6436   */\n      dup2\n        /* \"--CODEGEN--\":6425:6428   */\n      dup6\n        /* \"--CODEGEN--\":6337:6437   */\n      jump(tag_368)\n    tag_367:\n        /* \"--CODEGEN--\":6330:6437   */\n      swap4\n      pop\n        /* \"--CODEGEN--\":6460:6463   */\n      dup4\n        /* \"--CODEGEN--\":6502:6506   */\n      0x20\n        /* \"--CODEGEN--\":6494:6500   */\n      dup3\n        /* \"--CODEGEN--\":6490:6507   */\n      mul\n        /* \"--CODEGEN--\":6485:6488   */\n      dup6\n        /* \"--CODEGEN--\":6481:6508   */\n      add\n        /* \"--CODEGEN--\":6529:6605   */\n      tag_369\n        /* \"--CODEGEN--\":6599:6604   */\n      dup6\n        /* \"--CODEGEN--\":6529:6605   */\n      jump(tag_370)\n    tag_369:\n        /* \"--CODEGEN--\":6625:6632   */\n      dup1\n        /* \"--CODEGEN--\":6653:6654   */\n      0x00\n        /* \"--CODEGEN--\":6638:7036   */\n    tag_371:\n        /* \"--CODEGEN--\":6663:6669   */\n      dup6\n        /* \"--CODEGEN--\":6660:6661   */\n      dup2\n        /* \"--CODEGEN--\":6657:6670   */\n      lt\n        /* \"--CODEGEN--\":6638:7036   */\n      iszero\n      tag_373\n      jumpi\n        /* \"--CODEGEN--\":6725:6734   */\n      dup5\n        /* \"--CODEGEN--\":6719:6723   */\n      dup5\n        /* \"--CODEGEN--\":6715:6735   */\n      sub\n        /* \"--CODEGEN--\":6710:6713   */\n      dup10\n        /* \"--CODEGEN--\":6703:6736   */\n      mstore\n        /* \"--CODEGEN--\":6770:6776   */\n      dup2\n        /* \"--CODEGEN--\":6764:6777   */\n      mload\n        /* \"--CODEGEN--\":6792:6904   */\n      tag_374\n        /* \"--CODEGEN--\":6899:6903   */\n      dup6\n        /* \"--CODEGEN--\":6884:6897   */\n      dup3\n        /* \"--CODEGEN--\":6792:6904   */\n      jump(tag_316)\n    tag_374:\n        /* \"--CODEGEN--\":6784:6904   */\n      swap5\n      pop\n        /* \"--CODEGEN--\":6921:7001   */\n      tag_375\n        /* \"--CODEGEN--\":6994:7000   */\n      dup4\n        /* \"--CODEGEN--\":6921:7001   */\n      jump(tag_376)\n    tag_375:\n        /* \"--CODEGEN--\":6911:7001   */\n      swap3\n      pop\n        /* \"--CODEGEN--\":7024:7028   */\n      0x20\n        /* \"--CODEGEN--\":7019:7022   */\n      dup11\n        /* \"--CODEGEN--\":7015:7029   */\n      add\n        /* \"--CODEGEN--\":7008:7029   */\n      swap10\n      pop\n        /* \"--CODEGEN--\":6695:7036   */\n      pop\n        /* \"--CODEGEN--\":6685:6686   */\n      0x01\n        /* \"--CODEGEN--\":6682:6683   */\n      dup2\n        /* \"--CODEGEN--\":6678:6687   */\n      add\n        /* \"--CODEGEN--\":6673:6687   */\n      swap1\n      pop\n        /* \"--CODEGEN--\":6638:7036   */\n      jump(tag_371)\n    tag_373:\n        /* \"--CODEGEN--\":6642:6656   */\n      pop\n        /* \"--CODEGEN--\":7049:7053   */\n      dup3\n        /* \"--CODEGEN--\":7042:7053   */\n      swap8\n      pop\n        /* \"--CODEGEN--\":7066:7069   */\n      dup8\n        /* \"--CODEGEN--\":7059:7069   */\n      swap6\n      pop\n        /* \"--CODEGEN--\":6229:7075   */\n      pop\n      pop\n      pop\n      pop\n      pop\n      swap3\n      swap2\n      pop\n      pop\n      jump\n        /* \"--CODEGEN--\":7180:8216   */\n    tag_377:\n      0x00\n        /* \"--CODEGEN--\":7367:7445   */\n      tag_378\n        /* \"--CODEGEN--\":7439:7444   */\n      dup3\n        /* \"--CODEGEN--\":7367:7445   */\n      jump(tag_379)\n    tag_378:\n        /* \"--CODEGEN--\":7458:7562   */\n      tag_380\n        /* \"--CODEGEN--\":7555:7561   */\n      dup2\n        /* \"--CODEGEN--\":7550:7553   */\n      dup6\n        /* \"--CODEGEN--\":7458:7562   */\n      jump(tag_381)\n    tag_380:\n        /* \"--CODEGEN--\":7451:7562   */\n      swap4\n      pop\n        /* \"--CODEGEN--\":7585:7588   */\n      dup4\n        /* \"--CODEGEN--\":7627:7631   */\n      0x20\n        /* \"--CODEGEN--\":7619:7625   */\n      dup3\n        /* \"--CODEGEN--\":7615:7632   */\n      mul\n        /* \"--CODEGEN--\":7610:7613   */\n      dup6\n        /* \"--CODEGEN--\":7606:7633   */\n      add\n        /* \"--CODEGEN--\":7654:7734   */\n      tag_382\n        /* \"--CODEGEN--\":7728:7733   */\n      dup6\n        /* \"--CODEGEN--\":7654:7734   */\n      jump(tag_383)\n    tag_382:\n        /* \"--CODEGEN--\":7754:7761   */\n      dup1\n        /* \"--CODEGEN--\":7782:7783   */\n      0x00\n        /* \"--CODEGEN--\":7767:8177   */\n    tag_384:\n        /* \"--CODEGEN--\":7792:7798   */\n      dup6\n        /* \"--CODEGEN--\":7789:7790   */\n      dup2\n        /* \"--CODEGEN--\":7786:7799   */\n      lt\n        /* \"--CODEGEN--\":7767:8177   */\n      iszero\n      tag_386\n      jumpi\n        /* \"--CODEGEN--\":7854:7863   */\n      dup5\n        /* \"--CODEGEN--\":7848:7852   */\n      dup5\n        /* \"--CODEGEN--\":7844:7864   */\n      sub\n        /* \"--CODEGEN--\":7839:7842   */\n      dup10\n        /* \"--CODEGEN--\":7832:7865   */\n      mstore\n        /* \"--CODEGEN--\":7899:7905   */\n      dup2\n        /* \"--CODEGEN--\":7893:7906   */\n      mload\n        /* \"--CODEGEN--\":7921:8041   */\n      tag_387\n        /* \"--CODEGEN--\":8036:8040   */\n      dup6\n        /* \"--CODEGEN--\":8021:8034   */\n      dup3\n        /* \"--CODEGEN--\":7921:8041   */\n      jump(tag_319)\n    tag_387:\n        /* \"--CODEGEN--\":7913:8041   */\n      swap5\n      pop\n        /* \"--CODEGEN--\":8058:8142   */\n      tag_388\n        /* \"--CODEGEN--\":8135:8141   */\n      dup4\n        /* \"--CODEGEN--\":8058:8142   */\n      jump(tag_389)\n    tag_388:\n        /* \"--CODEGEN--\":8048:8142   */\n      swap3\n      pop\n        /* \"--CODEGEN--\":8165:8169   */\n      0x20\n        /* \"--CODEGEN--\":8160:8163   */\n      dup11\n        /* \"--CODEGEN--\":8156:8170   */\n      add\n        /* \"--CODEGEN--\":8149:8170   */\n      swap10\n      pop\n        /* \"--CODEGEN--\":7824:8177   */\n      pop\n        /* \"--CODEGEN--\":7814:7815   */\n      0x01\n        /* \"--CODEGEN--\":7811:7812   */\n      dup2\n        /* \"--CODEGEN--\":7807:7816   */\n      add\n        /* \"--CODEGEN--\":7802:7816   */\n      swap1\n      pop\n        /* \"--CODEGEN--\":7767:8177   */\n      jump(tag_384)\n    tag_386:\n        /* \"--CODEGEN--\":7771:7785   */\n      pop\n        /* \"--CODEGEN--\":8190:8194   */\n      dup3\n        /* \"--CODEGEN--\":8183:8194   */\n      swap8\n      pop\n        /* \"--CODEGEN--\":8207:8210   */\n      dup8\n        /* \"--CODEGEN--\":8200:8210   */\n      swap6\n      pop\n        /* \"--CODEGEN--\":7346:8216   */\n      pop\n      pop\n      pop\n      pop\n      pop\n      swap3\n      swap2\n      pop\n      pop\n      jump\n        /* \"--CODEGEN--\":8224:8318   */\n    tag_390:\n        /* \"--CODEGEN--\":8291:8312   */\n      tag_391\n        /* \"--CODEGEN--\":8306:8311   */\n      dup2\n        /* \"--CODEGEN--\":8291:8312   */\n      jump(tag_392)\n    tag_391:\n        /* \"--CODEGEN--\":8286:8289   */\n      dup3\n        /* \"--CODEGEN--\":8279:8313   */\n      mstore\n        /* \"--CODEGEN--\":8273:8318   */\n      pop\n      pop\n      jump\n        /* \"--CODEGEN--\":8325:8429   */\n    tag_393:\n        /* \"--CODEGEN--\":8402:8423   */\n      tag_394\n        /* \"--CODEGEN--\":8417:8422   */\n      dup2\n        /* \"--CODEGEN--\":8402:8423   */\n      jump(tag_392)\n    tag_394:\n        /* \"--CODEGEN--\":8397:8400   */\n      dup3\n        /* \"--CODEGEN--\":8390:8424   */\n      mstore\n        /* \"--CODEGEN--\":8384:8429   */\n      pop\n      pop\n      jump\n        /* \"--CODEGEN--\":8436:8755   */\n    tag_395:\n      0x00\n        /* \"--CODEGEN--\":8534:8569   */\n      tag_396\n        /* \"--CODEGEN--\":8563:8568   */\n      dup3\n        /* \"--CODEGEN--\":8534:8569   */\n      jump(tag_397)\n    tag_396:\n        /* \"--CODEGEN--\":8581:8642   */\n      tag_398\n        /* \"--CODEGEN--\":8635:8641   */\n      dup2\n        /* \"--CODEGEN--\":8630:8633   */\n      dup6\n        /* \"--CODEGEN--\":8581:8642   */\n      jump(tag_399)\n    tag_398:\n        /* \"--CODEGEN--\":8574:8642   */\n      swap4\n      pop\n        /* \"--CODEGEN--\":8647:8699   */\n      tag_400\n        /* \"--CODEGEN--\":8692:8698   */\n      dup2\n        /* \"--CODEGEN--\":8687:8690   */\n      dup6\n        /* \"--CODEGEN--\":8680:8684   */\n      0x20\n        /* \"--CODEGEN--\":8673:8678   */\n      dup7\n        /* \"--CODEGEN--\":8669:8685   */\n      add\n        /* \"--CODEGEN--\":8647:8699   */\n      jump(tag_401)\n    tag_400:\n        /* \"--CODEGEN--\":8720:8749   */\n      tag_402\n        /* \"--CODEGEN--\":8742:8748   */\n      dup2\n        /* \"--CODEGEN--\":8720:8749   */\n      jump(tag_403)\n    tag_402:\n        /* \"--CODEGEN--\":8715:8718   */\n      dup5\n        /* \"--CODEGEN--\":8711:8750   */\n      add\n        /* \"--CODEGEN--\":8704:8750   */\n      swap2\n      pop\n        /* \"--CODEGEN--\":8514:8755   */\n      pop\n      swap3\n      swap2\n      pop\n      pop\n      jump\n        /* \"--CODEGEN--\":8762:9101   */\n    tag_404:\n      0x00\n        /* \"--CODEGEN--\":8870:8905   */\n      tag_405\n        /* \"--CODEGEN--\":8899:8904   */\n      dup3\n        /* \"--CODEGEN--\":8870:8905   */\n      jump(tag_397)\n    tag_405:\n        /* \"--CODEGEN--\":8917:8988   */\n      tag_406\n        /* \"--CODEGEN--\":8981:8987   */\n      dup2\n        /* \"--CODEGEN--\":8976:8979   */\n      dup6\n        /* \"--CODEGEN--\":8917:8988   */\n      jump(tag_407)\n    tag_406:\n        /* \"--CODEGEN--\":8910:8988   */\n      swap4\n      pop\n        /* \"--CODEGEN--\":8993:9045   */\n      tag_408\n        /* \"--CODEGEN--\":9038:9044   */\n      dup2\n        /* \"--CODEGEN--\":9033:9036   */\n      dup6\n        /* \"--CODEGEN--\":9026:9030   */\n      0x20\n        /* \"--CODEGEN--\":9019:9024   */\n      dup7\n        /* \"--CODEGEN--\":9015:9031   */\n      add\n        /* \"--CODEGEN--\":8993:9045   */\n      jump(tag_401)\n    tag_408:\n        /* \"--CODEGEN--\":9066:9095   */\n      tag_409\n        /* \"--CODEGEN--\":9088:9094   */\n      dup2\n        /* \"--CODEGEN--\":9066:9095   */\n      jump(tag_403)\n    tag_409:\n        /* \"--CODEGEN--\":9061:9064   */\n      dup5\n        /* \"--CODEGEN--\":9057:9096   */\n      add\n        /* \"--CODEGEN--\":9050:9096   */\n      swap2\n      pop\n        /* \"--CODEGEN--\":8850:9101   */\n      pop\n      swap3\n      swap2\n      pop\n      pop\n      jump\n        /* \"--CODEGEN--\":9205:12959   */\n    tag_410:\n      0x00\n        /* \"--CODEGEN--\":9360:9366   */\n      0x01e0\n        /* \"--CODEGEN--\":9355:9358   */\n      dup4\n        /* \"--CODEGEN--\":9351:9367   */\n      add\n        /* \"--CODEGEN--\":9447:9451   */\n      0x00\n        /* \"--CODEGEN--\":9440:9445   */\n      dup4\n        /* \"--CODEGEN--\":9436:9452   */\n      add\n        /* \"--CODEGEN--\":9430:9453   */\n      mload\n        /* \"--CODEGEN--\":9499:9502   */\n      dup5\n        /* \"--CODEGEN--\":9493:9497   */\n      dup3\n        /* \"--CODEGEN--\":9489:9503   */\n      sub\n        /* \"--CODEGEN--\":9482:9486   */\n      0x00\n        /* \"--CODEGEN--\":9477:9480   */\n      dup7\n        /* \"--CODEGEN--\":9473:9487   */\n      add\n        /* \"--CODEGEN--\":9466:9504   */\n      mstore\n        /* \"--CODEGEN--\":9519:9588   */\n      tag_411\n        /* \"--CODEGEN--\":9583:9587   */\n      dup3\n        /* \"--CODEGEN--\":9569:9581   */\n      dup3\n        /* \"--CODEGEN--\":9519:9588   */\n      jump(tag_395)\n    tag_411:\n        /* \"--CODEGEN--\":9511:9588   */\n      swap2\n      pop\n        /* \"--CODEGEN--\":9382:9600   */\n      pop\n        /* \"--CODEGEN--\":9681:9685   */\n      0x20\n        /* \"--CODEGEN--\":9674:9679   */\n      dup4\n        /* \"--CODEGEN--\":9670:9686   */\n      add\n        /* \"--CODEGEN--\":9664:9687   */\n      mload\n        /* \"--CODEGEN--\":9733:9736   */\n      dup5\n        /* \"--CODEGEN--\":9727:9731   */\n      dup3\n        /* \"--CODEGEN--\":9723:9737   */\n      sub\n        /* \"--CODEGEN--\":9716:9720   */\n      0x20\n        /* \"--CODEGEN--\":9711:9714   */\n      dup7\n        /* \"--CODEGEN--\":9707:9721   */\n      add\n        /* \"--CODEGEN--\":9700:9738   */\n      mstore\n        /* \"--CODEGEN--\":9753:9822   */\n      tag_412\n        /* \"--CODEGEN--\":9817:9821   */\n      dup3\n        /* \"--CODEGEN--\":9803:9815   */\n      dup3\n        /* \"--CODEGEN--\":9753:9822   */\n      jump(tag_395)\n    tag_412:\n        /* \"--CODEGEN--\":9745:9822   */\n      swap2\n      pop\n        /* \"--CODEGEN--\":9610:9834   */\n      pop\n        /* \"--CODEGEN--\":9913:9917   */\n      0x40\n        /* \"--CODEGEN--\":9906:9911   */\n      dup4\n        /* \"--CODEGEN--\":9902:9918   */\n      add\n        /* \"--CODEGEN--\":9896:9919   */\n      mload\n        /* \"--CODEGEN--\":9965:9968   */\n      dup5\n        /* \"--CODEGEN--\":9959:9963   */\n      dup3\n        /* \"--CODEGEN--\":9955:9969   */\n      sub\n        /* \"--CODEGEN--\":9948:9952   */\n      0x40\n        /* \"--CODEGEN--\":9943:9946   */\n      dup7\n        /* \"--CODEGEN--\":9939:9953   */\n      add\n        /* \"--CODEGEN--\":9932:9970   */\n      mstore\n        /* \"--CODEGEN--\":9985:10054   */\n      tag_413\n        /* \"--CODEGEN--\":10049:10053   */\n      dup3\n        /* \"--CODEGEN--\":10035:10047   */\n      dup3\n        /* \"--CODEGEN--\":9985:10054   */\n      jump(tag_395)\n    tag_413:\n        /* \"--CODEGEN--\":9977:10054   */\n      swap2\n      pop\n        /* \"--CODEGEN--\":9844:10066   */\n      pop\n        /* \"--CODEGEN--\":10140:10144   */\n      0x60\n        /* \"--CODEGEN--\":10133:10138   */\n      dup4\n        /* \"--CODEGEN--\":10129:10145   */\n      add\n        /* \"--CODEGEN--\":10123:10146   */\n      mload\n        /* \"--CODEGEN--\":10192:10195   */\n      dup5\n        /* \"--CODEGEN--\":10186:10190   */\n      dup3\n        /* \"--CODEGEN--\":10182:10196   */\n      sub\n        /* \"--CODEGEN--\":10175:10179   */\n      0x60\n        /* \"--CODEGEN--\":10170:10173   */\n      dup7\n        /* \"--CODEGEN--\":10166:10180   */\n      add\n        /* \"--CODEGEN--\":10159:10197   */\n      mstore\n        /* \"--CODEGEN--\":10212:10281   */\n      tag_414\n        /* \"--CODEGEN--\":10276:10280   */\n      dup3\n        /* \"--CODEGEN--\":10262:10274   */\n      dup3\n        /* \"--CODEGEN--\":10212:10281   */\n      jump(tag_395)\n    tag_414:\n        /* \"--CODEGEN--\":10204:10281   */\n      swap2\n      pop\n        /* \"--CODEGEN--\":10076:10293   */\n      pop\n        /* \"--CODEGEN--\":10370:10374   */\n      0x80\n        /* \"--CODEGEN--\":10363:10368   */\n      dup4\n        /* \"--CODEGEN--\":10359:10375   */\n      add\n        /* \"--CODEGEN--\":10353:10376   */\n      mload\n        /* \"--CODEGEN--\":10422:10425   */\n      dup5\n        /* \"--CODEGEN--\":10416:10420   */\n      dup3\n        /* \"--CODEGEN--\":10412:10426   */\n      sub\n        /* \"--CODEGEN--\":10405:10409   */\n      0x80\n        /* \"--CODEGEN--\":10400:10403   */\n      dup7\n        /* \"--CODEGEN--\":10396:10410   */\n      add\n        /* \"--CODEGEN--\":10389:10427   */\n      mstore\n        /* \"--CODEGEN--\":10442:10511   */\n      tag_415\n        /* \"--CODEGEN--\":10506:10510   */\n      dup3\n        /* \"--CODEGEN--\":10492:10504   */\n      dup3\n        /* \"--CODEGEN--\":10442:10511   */\n      jump(tag_395)\n    tag_415:\n        /* \"--CODEGEN--\":10434:10511   */\n      swap2\n      pop\n        /* \"--CODEGEN--\":10303:10523   */\n      pop\n        /* \"--CODEGEN--\":10596:10600   */\n      0xa0\n        /* \"--CODEGEN--\":10589:10594   */\n      dup4\n        /* \"--CODEGEN--\":10585:10601   */\n      add\n        /* \"--CODEGEN--\":10579:10602   */\n      mload\n        /* \"--CODEGEN--\":10648:10651   */\n      dup5\n        /* \"--CODEGEN--\":10642:10646   */\n      dup3\n        /* \"--CODEGEN--\":10638:10652   */\n      sub\n        /* \"--CODEGEN--\":10631:10635   */\n      0xa0\n        /* \"--CODEGEN--\":10626:10629   */\n      dup7\n        /* \"--CODEGEN--\":10622:10636   */\n      add\n        /* \"--CODEGEN--\":10615:10653   */\n      mstore\n        /* \"--CODEGEN--\":10668:10737   */\n      tag_416\n        /* \"--CODEGEN--\":10732:10736   */\n      dup3\n        /* \"--CODEGEN--\":10718:10730   */\n      dup3\n        /* \"--CODEGEN--\":10668:10737   */\n      jump(tag_395)\n    tag_416:\n        /* \"--CODEGEN--\":10660:10737   */\n      swap2\n      pop\n        /* \"--CODEGEN--\":10533:10749   */\n      pop\n        /* \"--CODEGEN--\":10821:10825   */\n      0xc0\n        /* \"--CODEGEN--\":10814:10819   */\n      dup4\n        /* \"--CODEGEN--\":10810:10826   */\n      add\n        /* \"--CODEGEN--\":10804:10827   */\n      mload\n        /* \"--CODEGEN--\":10873:10876   */\n      dup5\n        /* \"--CODEGEN--\":10867:10871   */\n      dup3\n        /* \"--CODEGEN--\":10863:10877   */\n      sub\n        /* \"--CODEGEN--\":10856:10860   */\n      0xc0\n        /* \"--CODEGEN--\":10851:10854   */\n      dup7\n        /* \"--CODEGEN--\":10847:10861   */\n      add\n        /* \"--CODEGEN--\":10840:10878   */\n      mstore\n        /* \"--CODEGEN--\":10893:10962   */\n      tag_417\n        /* \"--CODEGEN--\":10957:10961   */\n      dup3\n        /* \"--CODEGEN--\":10943:10955   */\n      dup3\n        /* \"--CODEGEN--\":10893:10962   */\n      jump(tag_395)\n    tag_417:\n        /* \"--CODEGEN--\":10885:10962   */\n      swap2\n      pop\n        /* \"--CODEGEN--\":10759:10974   */\n      pop\n        /* \"--CODEGEN--\":11054:11058   */\n      0xe0\n        /* \"--CODEGEN--\":11047:11052   */\n      dup4\n        /* \"--CODEGEN--\":11043:11059   */\n      add\n        /* \"--CODEGEN--\":11037:11060   */\n      mload\n        /* \"--CODEGEN--\":11106:11109   */\n      dup5\n        /* \"--CODEGEN--\":11100:11104   */\n      dup3\n        /* \"--CODEGEN--\":11096:11110   */\n      sub\n        /* \"--CODEGEN--\":11089:11093   */\n      0xe0\n        /* \"--CODEGEN--\":11084:11087   */\n      dup7\n        /* \"--CODEGEN--\":11080:11094   */\n      add\n        /* \"--CODEGEN--\":11073:11111   */\n      mstore\n        /* \"--CODEGEN--\":11126:11195   */\n      tag_418\n        /* \"--CODEGEN--\":11190:11194   */\n      dup3\n        /* \"--CODEGEN--\":11176:11188   */\n      dup3\n        /* \"--CODEGEN--\":11126:11195   */\n      jump(tag_395)\n    tag_418:\n        /* \"--CODEGEN--\":11118:11195   */\n      swap2\n      pop\n        /* \"--CODEGEN--\":10984:11207   */\n      pop\n        /* \"--CODEGEN--\":11288:11294   */\n      0x0100\n        /* \"--CODEGEN--\":11281:11286   */\n      dup4\n        /* \"--CODEGEN--\":11277:11295   */\n      add\n        /* \"--CODEGEN--\":11271:11296   */\n      mload\n        /* \"--CODEGEN--\":11344:11347   */\n      dup5\n        /* \"--CODEGEN--\":11338:11342   */\n      dup3\n        /* \"--CODEGEN--\":11334:11348   */\n      sub\n        /* \"--CODEGEN--\":11325:11331   */\n      0x0100\n        /* \"--CODEGEN--\":11320:11323   */\n      dup7\n        /* \"--CODEGEN--\":11316:11332   */\n      add\n        /* \"--CODEGEN--\":11309:11349   */\n      mstore\n        /* \"--CODEGEN--\":11364:11433   */\n      tag_419\n        /* \"--CODEGEN--\":11428:11432   */\n      dup3\n        /* \"--CODEGEN--\":11414:11426   */\n      dup3\n        /* \"--CODEGEN--\":11364:11433   */\n      jump(tag_395)\n    tag_419:\n        /* \"--CODEGEN--\":11356:11433   */\n      swap2\n      pop\n        /* \"--CODEGEN--\":11217:11445   */\n      pop\n        /* \"--CODEGEN--\":11528:11534   */\n      0x0120\n        /* \"--CODEGEN--\":11521:11526   */\n      dup4\n        /* \"--CODEGEN--\":11517:11535   */\n      add\n        /* \"--CODEGEN--\":11511:11536   */\n      mload\n        /* \"--CODEGEN--\":11584:11587   */\n      dup5\n        /* \"--CODEGEN--\":11578:11582   */\n      dup3\n        /* \"--CODEGEN--\":11574:11588   */\n      sub\n        /* \"--CODEGEN--\":11565:11571   */\n      0x0120\n        /* \"--CODEGEN--\":11560:11563   */\n      dup7\n        /* \"--CODEGEN--\":11556:11572   */\n      add\n        /* \"--CODEGEN--\":11549:11589   */\n      mstore\n        /* \"--CODEGEN--\":11604:11673   */\n      tag_420\n        /* \"--CODEGEN--\":11668:11672   */\n      dup3\n        /* \"--CODEGEN--\":11654:11666   */\n      dup3\n        /* \"--CODEGEN--\":11604:11673   */\n      jump(tag_395)\n    tag_420:\n        /* \"--CODEGEN--\":11596:11673   */\n      swap2\n      pop\n        /* \"--CODEGEN--\":11455:11685   */\n      pop\n        /* \"--CODEGEN--\":11767:11773   */\n      0x0140\n        /* \"--CODEGEN--\":11760:11765   */\n      dup4\n        /* \"--CODEGEN--\":11756:11774   */\n      add\n        /* \"--CODEGEN--\":11750:11775   */\n      mload\n        /* \"--CODEGEN--\":11823:11826   */\n      dup5\n        /* \"--CODEGEN--\":11817:11821   */\n      dup3\n        /* \"--CODEGEN--\":11813:11827   */\n      sub\n        /* \"--CODEGEN--\":11804:11810   */\n      0x0140\n        /* \"--CODEGEN--\":11799:11802   */\n      dup7\n        /* \"--CODEGEN--\":11795:11811   */\n      add\n        /* \"--CODEGEN--\":11788:11828   */\n      mstore\n        /* \"--CODEGEN--\":11843:11912   */\n      tag_421\n        /* \"--CODEGEN--\":11907:11911   */\n      dup3\n        /* \"--CODEGEN--\":11893:11905   */\n      dup3\n        /* \"--CODEGEN--\":11843:11912   */\n      jump(tag_395)\n    tag_421:\n        /* \"--CODEGEN--\":11835:11912   */\n      swap2\n      pop\n        /* \"--CODEGEN--\":11695:11924   */\n      pop\n        /* \"--CODEGEN--\":12007:12013   */\n      0x0160\n        /* \"--CODEGEN--\":12000:12005   */\n      dup4\n        /* \"--CODEGEN--\":11996:12014   */\n      add\n        /* \"--CODEGEN--\":11990:12015   */\n      mload\n        /* \"--CODEGEN--\":12063:12066   */\n      dup5\n        /* \"--CODEGEN--\":12057:12061   */\n      dup3\n        /* \"--CODEGEN--\":12053:12067   */\n      sub\n        /* \"--CODEGEN--\":12044:12050   */\n      0x0160\n        /* \"--CODEGEN--\":12039:12042   */\n      dup7\n        /* \"--CODEGEN--\":12035:12051   */\n      add\n        /* \"--CODEGEN--\":12028:12068   */\n      mstore\n        /* \"--CODEGEN--\":12083:12152   */\n      tag_422\n        /* \"--CODEGEN--\":12147:12151   */\n      dup3\n        /* \"--CODEGEN--\":12133:12145   */\n      dup3\n        /* \"--CODEGEN--\":12083:12152   */\n      jump(tag_395)\n    tag_422:\n        /* \"--CODEGEN--\":12075:12152   */\n      swap2\n      pop\n        /* \"--CODEGEN--\":11934:12164   */\n      pop\n        /* \"--CODEGEN--\":12247:12253   */\n      0x0180\n        /* \"--CODEGEN--\":12240:12245   */\n      dup4\n        /* \"--CODEGEN--\":12236:12254   */\n      add\n        /* \"--CODEGEN--\":12230:12255   */\n      mload\n        /* \"--CODEGEN--\":12303:12306   */\n      dup5\n        /* \"--CODEGEN--\":12297:12301   */\n      dup3\n        /* \"--CODEGEN--\":12293:12307   */\n      sub\n        /* \"--CODEGEN--\":12284:12290   */\n      0x0180\n        /* \"--CODEGEN--\":12279:12282   */\n      dup7\n        /* \"--CODEGEN--\":12275:12291   */\n      add\n        /* \"--CODEGEN--\":12268:12308   */\n      mstore\n        /* \"--CODEGEN--\":12323:12392   */\n      tag_423\n        /* \"--CODEGEN--\":12387:12391   */\n      dup3\n        /* \"--CODEGEN--\":12373:12385   */\n      dup3\n        /* \"--CODEGEN--\":12323:12392   */\n      jump(tag_395)\n    tag_423:\n        /* \"--CODEGEN--\":12315:12392   */\n      swap2\n      pop\n        /* \"--CODEGEN--\":12174:12404   */\n      pop\n        /* \"--CODEGEN--\":12494:12500   */\n      0x01a0\n        /* \"--CODEGEN--\":12487:12492   */\n      dup4\n        /* \"--CODEGEN--\":12483:12501   */\n      add\n        /* \"--CODEGEN--\":12477:12502   */\n      mload\n        /* \"--CODEGEN--\":12550:12553   */\n      dup5\n        /* \"--CODEGEN--\":12544:12548   */\n      dup3\n        /* \"--CODEGEN--\":12540:12554   */\n      sub\n        /* \"--CODEGEN--\":12531:12537   */\n      0x01a0\n        /* \"--CODEGEN--\":12526:12529   */\n      dup7\n        /* \"--CODEGEN--\":12522:12538   */\n      add\n        /* \"--CODEGEN--\":12515:12555   */\n      mstore\n        /* \"--CODEGEN--\":12570:12639   */\n      tag_424\n        /* \"--CODEGEN--\":12634:12638   */\n      dup3\n        /* \"--CODEGEN--\":12620:12632   */\n      dup3\n        /* \"--CODEGEN--\":12570:12639   */\n      jump(tag_395)\n    tag_424:\n        /* \"--CODEGEN--\":12562:12639   */\n      swap2\n      pop\n        /* \"--CODEGEN--\":12414:12651   */\n      pop\n        /* \"--CODEGEN--\":12728:12734   */\n      0x01c0\n        /* \"--CODEGEN--\":12721:12726   */\n      dup4\n        /* \"--CODEGEN--\":12717:12735   */\n      add\n        /* \"--CODEGEN--\":12711:12736   */\n      mload\n        /* \"--CODEGEN--\":12784:12787   */\n      dup5\n        /* \"--CODEGEN--\":12778:12782   */\n      dup3\n        /* \"--CODEGEN--\":12774:12788   */\n      sub\n        /* \"--CODEGEN--\":12765:12771   */\n      0x01c0\n        /* \"--CODEGEN--\":12760:12763   */\n      dup7\n        /* \"--CODEGEN--\":12756:12772   */\n      add\n        /* \"--CODEGEN--\":12749:12789   */\n      mstore\n        /* \"--CODEGEN--\":12804:12921   */\n      tag_425\n        /* \"--CODEGEN--\":12916:12920   */\n      dup3\n        /* \"--CODEGEN--\":12902:12914   */\n      dup3\n        /* \"--CODEGEN--\":12804:12921   */\n      jump(tag_426)\n    tag_425:\n        /* \"--CODEGEN--\":12796:12921   */\n      swap2\n      pop\n        /* \"--CODEGEN--\":12661:12933   */\n      pop\n        /* \"--CODEGEN--\":12950:12954   */\n      dup1\n        /* \"--CODEGEN--\":12943:12954   */\n      swap2\n      pop\n        /* \"--CODEGEN--\":9333:12959   */\n      pop\n      swap3\n      swap2\n      pop\n      pop\n      jump\n        /* \"--CODEGEN--\":13059:13697   */\n    tag_309:\n      0x00\n        /* \"--CODEGEN--\":13212:13216   */\n      0x40\n        /* \"--CODEGEN--\":13207:13210   */\n      dup4\n        /* \"--CODEGEN--\":13203:13217   */\n      add\n        /* \"--CODEGEN--\":13295:13299   */\n      0x00\n        /* \"--CODEGEN--\":13288:13293   */\n      dup4\n        /* \"--CODEGEN--\":13284:13300   */\n      add\n        /* \"--CODEGEN--\":13278:13301   */\n      mload\n        /* \"--CODEGEN--\":13347:13350   */\n      dup5\n        /* \"--CODEGEN--\":13341:13345   */\n      dup3\n        /* \"--CODEGEN--\":13337:13351   */\n      sub\n        /* \"--CODEGEN--\":13330:13334   */\n      0x00\n        /* \"--CODEGEN--\":13325:13328   */\n      dup7\n        /* \"--CODEGEN--\":13321:13335   */\n      add\n        /* \"--CODEGEN--\":13314:13352   */\n      mstore\n        /* \"--CODEGEN--\":13367:13436   */\n      tag_427\n        /* \"--CODEGEN--\":13431:13435   */\n      dup3\n        /* \"--CODEGEN--\":13417:13429   */\n      dup3\n        /* \"--CODEGEN--\":13367:13436   */\n      jump(tag_395)\n    tag_427:\n        /* \"--CODEGEN--\":13359:13436   */\n      swap2\n      pop\n        /* \"--CODEGEN--\":13232:13448   */\n      pop\n        /* \"--CODEGEN--\":13518:13522   */\n      0x20\n        /* \"--CODEGEN--\":13511:13516   */\n      dup4\n        /* \"--CODEGEN--\":13507:13523   */\n      add\n        /* \"--CODEGEN--\":13501:13524   */\n      mload\n        /* \"--CODEGEN--\":13570:13573   */\n      dup5\n        /* \"--CODEGEN--\":13564:13568   */\n      dup3\n        /* \"--CODEGEN--\":13560:13574   */\n      sub\n        /* \"--CODEGEN--\":13553:13557   */\n      0x20\n        /* \"--CODEGEN--\":13548:13551   */\n      dup7\n        /* \"--CODEGEN--\":13544:13558   */\n      add\n        /* \"--CODEGEN--\":13537:13575   */\n      mstore\n        /* \"--CODEGEN--\":13590:13659   */\n      tag_428\n        /* \"--CODEGEN--\":13654:13658   */\n      dup3\n        /* \"--CODEGEN--\":13640:13652   */\n      dup3\n        /* \"--CODEGEN--\":13590:13659   */\n      jump(tag_395)\n    tag_428:\n        /* \"--CODEGEN--\":13582:13659   */\n      swap2\n      pop\n        /* \"--CODEGEN--\":13458:13671   */\n      pop\n        /* \"--CODEGEN--\":13688:13692   */\n      dup1\n        /* \"--CODEGEN--\":13681:13692   */\n      swap2\n      pop\n        /* \"--CODEGEN--\":13185:13697   */\n      pop\n      swap3\n      swap2\n      pop\n      pop\n      jump\n        /* \"--CODEGEN--\":13809:14645   */\n    tag_429:\n      0x00\n        /* \"--CODEGEN--\":13974:13978   */\n      0x40\n        /* \"--CODEGEN--\":13969:13972   */\n      dup4\n        /* \"--CODEGEN--\":13965:13979   */\n      add\n        /* \"--CODEGEN--\":14063:14067   */\n      0x00\n        /* \"--CODEGEN--\":14056:14061   */\n      dup4\n        /* \"--CODEGEN--\":14052:14068   */\n      add\n        /* \"--CODEGEN--\":14046:14069   */\n      mload\n        /* \"--CODEGEN--\":14115:14118   */\n      dup5\n        /* \"--CODEGEN--\":14109:14113   */\n      dup3\n        /* \"--CODEGEN--\":14105:14119   */\n      sub\n        /* \"--CODEGEN--\":14098:14102   */\n      0x00\n        /* \"--CODEGEN--\":14093:14096   */\n      dup7\n        /* \"--CODEGEN--\":14089:14103   */\n      add\n        /* \"--CODEGEN--\":14082:14120   */\n      mstore\n        /* \"--CODEGEN--\":14135:14286   */\n      tag_430\n        /* \"--CODEGEN--\":14281:14285   */\n      dup3\n        /* \"--CODEGEN--\":14267:14279   */\n      dup3\n        /* \"--CODEGEN--\":14135:14286   */\n      jump(tag_351)\n    tag_430:\n        /* \"--CODEGEN--\":14127:14286   */\n      swap2\n      pop\n        /* \"--CODEGEN--\":13994:14298   */\n      pop\n        /* \"--CODEGEN--\":14380:14384   */\n      0x20\n        /* \"--CODEGEN--\":14373:14378   */\n      dup4\n        /* \"--CODEGEN--\":14369:14385   */\n      add\n        /* \"--CODEGEN--\":14363:14386   */\n      mload\n        /* \"--CODEGEN--\":14432:14435   */\n      dup5\n        /* \"--CODEGEN--\":14426:14430   */\n      dup3\n        /* \"--CODEGEN--\":14422:14436   */\n      sub\n        /* \"--CODEGEN--\":14415:14419   */\n      0x20\n        /* \"--CODEGEN--\":14410:14413   */\n      dup7\n        /* \"--CODEGEN--\":14406:14420   */\n      add\n        /* \"--CODEGEN--\":14399:14437   */\n      mstore\n        /* \"--CODEGEN--\":14452:14607   */\n      tag_431\n        /* \"--CODEGEN--\":14602:14606   */\n      dup3\n        /* \"--CODEGEN--\":14588:14600   */\n      dup3\n        /* \"--CODEGEN--\":14452:14607   */\n      jump(tag_377)\n    tag_431:\n        /* \"--CODEGEN--\":14444:14607   */\n      swap2\n      pop\n        /* \"--CODEGEN--\":14308:14619   */\n      pop\n        /* \"--CODEGEN--\":14636:14640   */\n      dup1\n        /* \"--CODEGEN--\":14629:14640   */\n      swap2\n      pop\n        /* \"--CODEGEN--\":13947:14645   */\n      pop\n      swap3\n      swap2\n      pop\n      pop\n      jump\n        /* \"--CODEGEN--\":14725:15878   */\n    tag_312:\n      0x00\n        /* \"--CODEGEN--\":14858:14862   */\n      0x80\n        /* \"--CODEGEN--\":14853:14856   */\n      dup4\n        /* \"--CODEGEN--\":14849:14863   */\n      add\n        /* \"--CODEGEN--\":14939:14943   */\n      0x00\n        /* \"--CODEGEN--\":14932:14937   */\n      dup4\n        /* \"--CODEGEN--\":14928:14944   */\n      add\n        /* \"--CODEGEN--\":14922:14945   */\n      mload\n        /* \"--CODEGEN--\":14951:15014   */\n      tag_432\n        /* \"--CODEGEN--\":15008:15012   */\n      0x00\n        /* \"--CODEGEN--\":15003:15006   */\n      dup7\n        /* \"--CODEGEN--\":14999:15013   */\n      add\n        /* \"--CODEGEN--\":14985:14997   */\n      dup3\n        /* \"--CODEGEN--\":14951:15014   */\n      jump(tag_433)\n    tag_432:\n        /* \"--CODEGEN--\":14878:15020   */\n      pop\n        /* \"--CODEGEN--\":15091:15095   */\n      0x20\n        /* \"--CODEGEN--\":15084:15089   */\n      dup4\n        /* \"--CODEGEN--\":15080:15096   */\n      add\n        /* \"--CODEGEN--\":15074:15097   */\n      mload\n        /* \"--CODEGEN--\":15143:15146   */\n      dup5\n        /* \"--CODEGEN--\":15137:15141   */\n      dup3\n        /* \"--CODEGEN--\":15133:15147   */\n      sub\n        /* \"--CODEGEN--\":15126:15130   */\n      0x20\n        /* \"--CODEGEN--\":15121:15124   */\n      dup7\n        /* \"--CODEGEN--\":15117:15131   */\n      add\n        /* \"--CODEGEN--\":15110:15148   */\n      mstore\n        /* \"--CODEGEN--\":15163:15290   */\n      tag_434\n        /* \"--CODEGEN--\":15285:15289   */\n      dup3\n        /* \"--CODEGEN--\":15271:15283   */\n      dup3\n        /* \"--CODEGEN--\":15163:15290   */\n      jump(tag_429)\n    tag_434:\n        /* \"--CODEGEN--\":15155:15290   */\n      swap2\n      pop\n        /* \"--CODEGEN--\":15030:15302   */\n      pop\n        /* \"--CODEGEN--\":15373:15377   */\n      0x40\n        /* \"--CODEGEN--\":15366:15371   */\n      dup4\n        /* \"--CODEGEN--\":15362:15378   */\n      add\n        /* \"--CODEGEN--\":15356:15379   */\n      mload\n        /* \"--CODEGEN--\":15425:15428   */\n      dup5\n        /* \"--CODEGEN--\":15419:15423   */\n      dup3\n        /* \"--CODEGEN--\":15415:15429   */\n      sub\n        /* \"--CODEGEN--\":15408:15412   */\n      0x40\n        /* \"--CODEGEN--\":15403:15406   */\n      dup7\n        /* \"--CODEGEN--\":15399:15413   */\n      add\n        /* \"--CODEGEN--\":15392:15430   */\n      mstore\n        /* \"--CODEGEN--\":15445:15568   */\n      tag_435\n        /* \"--CODEGEN--\":15563:15567   */\n      dup3\n        /* \"--CODEGEN--\":15549:15561   */\n      dup3\n        /* \"--CODEGEN--\":15445:15568   */\n      jump(tag_436)\n    tag_435:\n        /* \"--CODEGEN--\":15437:15568   */\n      swap2\n      pop\n        /* \"--CODEGEN--\":15312:15580   */\n      pop\n        /* \"--CODEGEN--\":15651:15655   */\n      0x60\n        /* \"--CODEGEN--\":15644:15649   */\n      dup4\n        /* \"--CODEGEN--\":15640:15656   */\n      add\n        /* \"--CODEGEN--\":15634:15657   */\n      mload\n        /* \"--CODEGEN--\":15703:15706   */\n      dup5\n        /* \"--CODEGEN--\":15697:15701   */\n      dup3\n        /* \"--CODEGEN--\":15693:15707   */\n      sub\n        /* \"--CODEGEN--\":15686:15690   */\n      0x60\n        /* \"--CODEGEN--\":15681:15684   */\n      dup7\n        /* \"--CODEGEN--\":15677:15691   */\n      add\n        /* \"--CODEGEN--\":15670:15708   */\n      mstore\n        /* \"--CODEGEN--\":15723:15840   */\n      tag_437\n        /* \"--CODEGEN--\":15835:15839   */\n      dup3\n        /* \"--CODEGEN--\":15821:15833   */\n      dup3\n        /* \"--CODEGEN--\":15723:15840   */\n      jump(tag_410)\n    tag_437:\n        /* \"--CODEGEN--\":15715:15840   */\n      swap2\n      pop\n        /* \"--CODEGEN--\":15590:15852   */\n      pop\n        /* \"--CODEGEN--\":15869:15873   */\n      dup1\n        /* \"--CODEGEN--\":15862:15873   */\n      swap2\n      pop\n        /* \"--CODEGEN--\":14831:15878   */\n      pop\n      swap3\n      swap2\n      pop\n      pop\n      jump\n        /* \"--CODEGEN--\":15986:17502   */\n    tag_436:\n      0x00\n        /* \"--CODEGEN--\":16147:16151   */\n      0xc0\n        /* \"--CODEGEN--\":16142:16145   */\n      dup4\n        /* \"--CODEGEN--\":16138:16152   */\n      add\n        /* \"--CODEGEN--\":16231:16235   */\n      0x00\n        /* \"--CODEGEN--\":16224:16229   */\n      dup4\n        /* \"--CODEGEN--\":16220:16236   */\n      add\n        /* \"--CODEGEN--\":16214:16237   */\n      mload\n        /* \"--CODEGEN--\":16283:16286   */\n      dup5\n        /* \"--CODEGEN--\":16277:16281   */\n      dup3\n        /* \"--CODEGEN--\":16273:16287   */\n      sub\n        /* \"--CODEGEN--\":16266:16270   */\n      0x00\n        /* \"--CODEGEN--\":16261:16264   */\n      dup7\n        /* \"--CODEGEN--\":16257:16271   */\n      add\n        /* \"--CODEGEN--\":16250:16288   */\n      mstore\n        /* \"--CODEGEN--\":16303:16372   */\n      tag_438\n        /* \"--CODEGEN--\":16367:16371   */\n      dup3\n        /* \"--CODEGEN--\":16353:16365   */\n      dup3\n        /* \"--CODEGEN--\":16303:16372   */\n      jump(tag_395)\n    tag_438:\n        /* \"--CODEGEN--\":16295:16372   */\n      swap2\n      pop\n        /* \"--CODEGEN--\":16167:16384   */\n      pop\n        /* \"--CODEGEN--\":16457:16461   */\n      0x20\n        /* \"--CODEGEN--\":16450:16455   */\n      dup4\n        /* \"--CODEGEN--\":16446:16462   */\n      add\n        /* \"--CODEGEN--\":16440:16463   */\n      mload\n        /* \"--CODEGEN--\":16509:16512   */\n      dup5\n        /* \"--CODEGEN--\":16503:16507   */\n      dup3\n        /* \"--CODEGEN--\":16499:16513   */\n      sub\n        /* \"--CODEGEN--\":16492:16496   */\n      0x20\n        /* \"--CODEGEN--\":16487:16490   */\n      dup7\n        /* \"--CODEGEN--\":16483:16497   */\n      add\n        /* \"--CODEGEN--\":16476:16514   */\n      mstore\n        /* \"--CODEGEN--\":16529:16598   */\n      tag_439\n        /* \"--CODEGEN--\":16593:16597   */\n      dup3\n        /* \"--CODEGEN--\":16579:16591   */\n      dup3\n        /* \"--CODEGEN--\":16529:16598   */\n      jump(tag_395)\n    tag_439:\n        /* \"--CODEGEN--\":16521:16598   */\n      swap2\n      pop\n        /* \"--CODEGEN--\":16394:16610   */\n      pop\n        /* \"--CODEGEN--\":16687:16691   */\n      0x40\n        /* \"--CODEGEN--\":16680:16685   */\n      dup4\n        /* \"--CODEGEN--\":16676:16692   */\n      add\n        /* \"--CODEGEN--\":16670:16693   */\n      mload\n        /* \"--CODEGEN--\":16739:16742   */\n      dup5\n        /* \"--CODEGEN--\":16733:16737   */\n      dup3\n        /* \"--CODEGEN--\":16729:16743   */\n      sub\n        /* \"--CODEGEN--\":16722:16726   */\n      0x40\n        /* \"--CODEGEN--\":16717:16720   */\n      dup7\n        /* \"--CODEGEN--\":16713:16727   */\n      add\n        /* \"--CODEGEN--\":16706:16744   */\n      mstore\n        /* \"--CODEGEN--\":16759:16828   */\n      tag_440\n        /* \"--CODEGEN--\":16823:16827   */\n      dup3\n        /* \"--CODEGEN--\":16809:16821   */\n      dup3\n        /* \"--CODEGEN--\":16759:16828   */\n      jump(tag_395)\n    tag_440:\n        /* \"--CODEGEN--\":16751:16828   */\n      swap2\n      pop\n        /* \"--CODEGEN--\":16620:16840   */\n      pop\n        /* \"--CODEGEN--\":16919:16923   */\n      0x60\n        /* \"--CODEGEN--\":16912:16917   */\n      dup4\n        /* \"--CODEGEN--\":16908:16924   */\n      add\n        /* \"--CODEGEN--\":16902:16925   */\n      mload\n        /* \"--CODEGEN--\":16971:16974   */\n      dup5\n        /* \"--CODEGEN--\":16965:16969   */\n      dup3\n        /* \"--CODEGEN--\":16961:16975   */\n      sub\n        /* \"--CODEGEN--\":16954:16958   */\n      0x60\n        /* \"--CODEGEN--\":16949:16952   */\n      dup7\n        /* \"--CODEGEN--\":16945:16959   */\n      add\n        /* \"--CODEGEN--\":16938:16976   */\n      mstore\n        /* \"--CODEGEN--\":16991:17060   */\n      tag_441\n        /* \"--CODEGEN--\":17055:17059   */\n      dup3\n        /* \"--CODEGEN--\":17041:17053   */\n      dup3\n        /* \"--CODEGEN--\":16991:17060   */\n      jump(tag_395)\n    tag_441:\n        /* \"--CODEGEN--\":16983:17060   */\n      swap2\n      pop\n        /* \"--CODEGEN--\":16850:17072   */\n      pop\n        /* \"--CODEGEN--\":17162:17166   */\n      0x80\n        /* \"--CODEGEN--\":17155:17160   */\n      dup4\n        /* \"--CODEGEN--\":17151:17167   */\n      add\n        /* \"--CODEGEN--\":17145:17168   */\n      mload\n        /* \"--CODEGEN--\":17214:17217   */\n      dup5\n        /* \"--CODEGEN--\":17208:17212   */\n      dup3\n        /* \"--CODEGEN--\":17204:17218   */\n      sub\n        /* \"--CODEGEN--\":17197:17201   */\n      0x80\n        /* \"--CODEGEN--\":17192:17195   */\n      dup7\n        /* \"--CODEGEN--\":17188:17202   */\n      add\n        /* \"--CODEGEN--\":17181:17219   */\n      mstore\n        /* \"--CODEGEN--\":17234:17303   */\n      tag_442\n        /* \"--CODEGEN--\":17298:17302   */\n      dup3\n        /* \"--CODEGEN--\":17284:17296   */\n      dup3\n        /* \"--CODEGEN--\":17234:17303   */\n      jump(tag_395)\n    tag_442:\n        /* \"--CODEGEN--\":17226:17303   */\n      swap2\n      pop\n        /* \"--CODEGEN--\":17082:17315   */\n      pop\n        /* \"--CODEGEN--\":17395:17399   */\n      0xa0\n        /* \"--CODEGEN--\":17388:17393   */\n      dup4\n        /* \"--CODEGEN--\":17384:17400   */\n      add\n        /* \"--CODEGEN--\":17378:17401   */\n      mload\n        /* \"--CODEGEN--\":17407:17470   */\n      tag_443\n        /* \"--CODEGEN--\":17464:17468   */\n      0xa0\n        /* \"--CODEGEN--\":17459:17462   */\n      dup7\n        /* \"--CODEGEN--\":17455:17469   */\n      add\n        /* \"--CODEGEN--\":17441:17453   */\n      dup3\n        /* \"--CODEGEN--\":17407:17470   */\n      jump(tag_322)\n    tag_443:\n        /* \"--CODEGEN--\":17325:17476   */\n      pop\n        /* \"--CODEGEN--\":17493:17497   */\n      dup1\n        /* \"--CODEGEN--\":17486:17497   */\n      swap2\n      pop\n        /* \"--CODEGEN--\":16120:17502   */\n      pop\n      swap3\n      swap2\n      pop\n      pop\n      jump\n        /* \"--CODEGEN--\":17596:18783   */\n    tag_315:\n      0x00\n        /* \"--CODEGEN--\":17743:17747   */\n      0x80\n        /* \"--CODEGEN--\":17738:17741   */\n      dup4\n        /* \"--CODEGEN--\":17734:17748   */\n      add\n        /* \"--CODEGEN--\":17826:17830   */\n      0x00\n        /* \"--CODEGEN--\":17819:17824   */\n      dup4\n        /* \"--CODEGEN--\":17815:17831   */\n      add\n        /* \"--CODEGEN--\":17809:17832   */\n      mload\n        /* \"--CODEGEN--\":17878:17881   */\n      dup5\n        /* \"--CODEGEN--\":17872:17876   */\n      dup3\n        /* \"--CODEGEN--\":17868:17882   */\n      sub\n        /* \"--CODEGEN--\":17861:17865   */\n      0x00\n        /* \"--CODEGEN--\":17856:17859   */\n      dup7\n        /* \"--CODEGEN--\":17852:17866   */\n      add\n        /* \"--CODEGEN--\":17845:17883   */\n      mstore\n        /* \"--CODEGEN--\":17898:17967   */\n      tag_444\n        /* \"--CODEGEN--\":17962:17966   */\n      dup3\n        /* \"--CODEGEN--\":17948:17960   */\n      dup3\n        /* \"--CODEGEN--\":17898:17967   */\n      jump(tag_395)\n    tag_444:\n        /* \"--CODEGEN--\":17890:17967   */\n      swap2\n      pop\n        /* \"--CODEGEN--\":17763:17979   */\n      pop\n        /* \"--CODEGEN--\":18059:18063   */\n      0x20\n        /* \"--CODEGEN--\":18052:18057   */\n      dup4\n        /* \"--CODEGEN--\":18048:18064   */\n      add\n        /* \"--CODEGEN--\":18042:18065   */\n      mload\n        /* \"--CODEGEN--\":18111:18114   */\n      dup5\n        /* \"--CODEGEN--\":18105:18109   */\n      dup3\n        /* \"--CODEGEN--\":18101:18115   */\n      sub\n        /* \"--CODEGEN--\":18094:18098   */\n      0x20\n        /* \"--CODEGEN--\":18089:18092   */\n      dup7\n        /* \"--CODEGEN--\":18085:18099   */\n      add\n        /* \"--CODEGEN--\":18078:18116   */\n      mstore\n        /* \"--CODEGEN--\":18131:18200   */\n      tag_445\n        /* \"--CODEGEN--\":18195:18199   */\n      dup3\n        /* \"--CODEGEN--\":18181:18193   */\n      dup3\n        /* \"--CODEGEN--\":18131:18200   */\n      jump(tag_395)\n    tag_445:\n        /* \"--CODEGEN--\":18123:18200   */\n      swap2\n      pop\n        /* \"--CODEGEN--\":17989:18212   */\n      pop\n        /* \"--CODEGEN--\":18289:18293   */\n      0x40\n        /* \"--CODEGEN--\":18282:18287   */\n      dup4\n        /* \"--CODEGEN--\":18278:18294   */\n      add\n        /* \"--CODEGEN--\":18272:18295   */\n      mload\n        /* \"--CODEGEN--\":18341:18344   */\n      dup5\n        /* \"--CODEGEN--\":18335:18339   */\n      dup3\n        /* \"--CODEGEN--\":18331:18345   */\n      sub\n        /* \"--CODEGEN--\":18324:18328   */\n      0x40\n        /* \"--CODEGEN--\":18319:18322   */\n      dup7\n        /* \"--CODEGEN--\":18315:18329   */\n      add\n        /* \"--CODEGEN--\":18308:18346   */\n      mstore\n        /* \"--CODEGEN--\":18361:18430   */\n      tag_446\n        /* \"--CODEGEN--\":18425:18429   */\n      dup3\n        /* \"--CODEGEN--\":18411:18423   */\n      dup3\n        /* \"--CODEGEN--\":18361:18430   */\n      jump(tag_395)\n    tag_446:\n        /* \"--CODEGEN--\":18353:18430   */\n      swap2\n      pop\n        /* \"--CODEGEN--\":18222:18442   */\n      pop\n        /* \"--CODEGEN--\":18526:18530   */\n      0x60\n        /* \"--CODEGEN--\":18519:18524   */\n      dup4\n        /* \"--CODEGEN--\":18515:18531   */\n      add\n        /* \"--CODEGEN--\":18509:18532   */\n      mload\n        /* \"--CODEGEN--\":18578:18581   */\n      dup5\n        /* \"--CODEGEN--\":18572:18576   */\n      dup3\n        /* \"--CODEGEN--\":18568:18582   */\n      sub\n        /* \"--CODEGEN--\":18561:18565   */\n      0x60\n        /* \"--CODEGEN--\":18556:18559   */\n      dup7\n        /* \"--CODEGEN--\":18552:18566   */\n      add\n        /* \"--CODEGEN--\":18545:18583   */\n      mstore\n        /* \"--CODEGEN--\":18598:18745   */\n      tag_447\n        /* \"--CODEGEN--\":18740:18744   */\n      dup3\n        /* \"--CODEGEN--\":18726:18738   */\n      dup3\n        /* \"--CODEGEN--\":18598:18745   */\n      jump(tag_364)\n    tag_447:\n        /* \"--CODEGEN--\":18590:18745   */\n      swap2\n      pop\n        /* \"--CODEGEN--\":18452:18757   */\n      pop\n        /* \"--CODEGEN--\":18774:18778   */\n      dup1\n        /* \"--CODEGEN--\":18767:18778   */\n      swap2\n      pop\n        /* \"--CODEGEN--\":17716:18783   */\n      pop\n      swap3\n      swap2\n      pop\n      pop\n      jump\n        /* \"--CODEGEN--\":18873:19655   */\n    tag_318:\n      0x00\n        /* \"--CODEGEN--\":19016:19020   */\n      0x60\n        /* \"--CODEGEN--\":19011:19014   */\n      dup4\n        /* \"--CODEGEN--\":19007:19021   */\n      add\n        /* \"--CODEGEN--\":19099:19103   */\n      0x00\n        /* \"--CODEGEN--\":19092:19097   */\n      dup4\n        /* \"--CODEGEN--\":19088:19104   */\n      add\n        /* \"--CODEGEN--\":19082:19105   */\n      mload\n        /* \"--CODEGEN--\":19151:19154   */\n      dup5\n        /* \"--CODEGEN--\":19145:19149   */\n      dup3\n        /* \"--CODEGEN--\":19141:19155   */\n      sub\n        /* \"--CODEGEN--\":19134:19138   */\n      0x00\n        /* \"--CODEGEN--\":19129:19132   */\n      dup7\n        /* \"--CODEGEN--\":19125:19139   */\n      add\n        /* \"--CODEGEN--\":19118:19156   */\n      mstore\n        /* \"--CODEGEN--\":19171:19240   */\n      tag_448\n        /* \"--CODEGEN--\":19235:19239   */\n      dup3\n        /* \"--CODEGEN--\":19221:19233   */\n      dup3\n        /* \"--CODEGEN--\":19171:19240   */\n      jump(tag_395)\n    tag_448:\n        /* \"--CODEGEN--\":19163:19240   */\n      swap2\n      pop\n        /* \"--CODEGEN--\":19036:19252   */\n      pop\n        /* \"--CODEGEN--\":19322:19326   */\n      0x20\n        /* \"--CODEGEN--\":19315:19320   */\n      dup4\n        /* \"--CODEGEN--\":19311:19327   */\n      add\n        /* \"--CODEGEN--\":19305:19328   */\n      mload\n        /* \"--CODEGEN--\":19374:19377   */\n      dup5\n        /* \"--CODEGEN--\":19368:19372   */\n      dup3\n        /* \"--CODEGEN--\":19364:19378   */\n      sub\n        /* \"--CODEGEN--\":19357:19361   */\n      0x20\n        /* \"--CODEGEN--\":19352:19355   */\n      dup7\n        /* \"--CODEGEN--\":19348:19362   */\n      add\n        /* \"--CODEGEN--\":19341:19379   */\n      mstore\n        /* \"--CODEGEN--\":19394:19463   */\n      tag_449\n        /* \"--CODEGEN--\":19458:19462   */\n      dup3\n        /* \"--CODEGEN--\":19444:19456   */\n      dup3\n        /* \"--CODEGEN--\":19394:19463   */\n      jump(tag_395)\n    tag_449:\n        /* \"--CODEGEN--\":19386:19463   */\n      swap2\n      pop\n        /* \"--CODEGEN--\":19262:19475   */\n      pop\n        /* \"--CODEGEN--\":19554:19558   */\n      0x40\n        /* \"--CODEGEN--\":19547:19552   */\n      dup4\n        /* \"--CODEGEN--\":19543:19559   */\n      add\n        /* \"--CODEGEN--\":19537:19560   */\n      mload\n        /* \"--CODEGEN--\":19566:19623   */\n      tag_450\n        /* \"--CODEGEN--\":19617:19621   */\n      0x40\n        /* \"--CODEGEN--\":19612:19615   */\n      dup7\n        /* \"--CODEGEN--\":19608:19622   */\n      add\n        /* \"--CODEGEN--\":19594:19606   */\n      dup3\n        /* \"--CODEGEN--\":19566:19623   */\n      jump(tag_390)\n    tag_450:\n        /* \"--CODEGEN--\":19485:19629   */\n      pop\n        /* \"--CODEGEN--\":19646:19650   */\n      dup1\n        /* \"--CODEGEN--\":19639:19650   */\n      swap2\n      pop\n        /* \"--CODEGEN--\":18989:19655   */\n      pop\n      swap3\n      swap2\n      pop\n      pop\n      jump\n        /* \"--CODEGEN--\":19753:21186   */\n    tag_321:\n      0x00\n        /* \"--CODEGEN--\":19904:19908   */\n      0xa0\n        /* \"--CODEGEN--\":19899:19902   */\n      dup4\n        /* \"--CODEGEN--\":19895:19909   */\n      add\n        /* \"--CODEGEN--\":19987:19991   */\n      0x00\n        /* \"--CODEGEN--\":19980:19985   */\n      dup4\n        /* \"--CODEGEN--\":19976:19992   */\n      add\n        /* \"--CODEGEN--\":19970:19993   */\n      mload\n        /* \"--CODEGEN--\":20039:20042   */\n      dup5\n        /* \"--CODEGEN--\":20033:20037   */\n      dup3\n        /* \"--CODEGEN--\":20029:20043   */\n      sub\n        /* \"--CODEGEN--\":20022:20026   */\n      0x00\n        /* \"--CODEGEN--\":20017:20020   */\n      dup7\n        /* \"--CODEGEN--\":20013:20027   */\n      add\n        /* \"--CODEGEN--\":20006:20044   */\n      mstore\n        /* \"--CODEGEN--\":20059:20128   */\n      tag_451\n        /* \"--CODEGEN--\":20123:20127   */\n      dup3\n        /* \"--CODEGEN--\":20109:20121   */\n      dup3\n        /* \"--CODEGEN--\":20059:20128   */\n      jump(tag_395)\n    tag_451:\n        /* \"--CODEGEN--\":20051:20128   */\n      swap2\n      pop\n        /* \"--CODEGEN--\":19924:20140   */\n      pop\n        /* \"--CODEGEN--\":20220:20224   */\n      0x20\n        /* \"--CODEGEN--\":20213:20218   */\n      dup4\n        /* \"--CODEGEN--\":20209:20225   */\n      add\n        /* \"--CODEGEN--\":20203:20226   */\n      mload\n        /* \"--CODEGEN--\":20272:20275   */\n      dup5\n        /* \"--CODEGEN--\":20266:20270   */\n      dup3\n        /* \"--CODEGEN--\":20262:20276   */\n      sub\n        /* \"--CODEGEN--\":20255:20259   */\n      0x20\n        /* \"--CODEGEN--\":20250:20253   */\n      dup7\n        /* \"--CODEGEN--\":20246:20260   */\n      add\n        /* \"--CODEGEN--\":20239:20277   */\n      mstore\n        /* \"--CODEGEN--\":20292:20361   */\n      tag_452\n        /* \"--CODEGEN--\":20356:20360   */\n      dup3\n        /* \"--CODEGEN--\":20342:20354   */\n      dup3\n        /* \"--CODEGEN--\":20292:20361   */\n      jump(tag_395)\n    tag_452:\n        /* \"--CODEGEN--\":20284:20361   */\n      swap2\n      pop\n        /* \"--CODEGEN--\":20150:20373   */\n      pop\n        /* \"--CODEGEN--\":20450:20454   */\n      0x40\n        /* \"--CODEGEN--\":20443:20448   */\n      dup4\n        /* \"--CODEGEN--\":20439:20455   */\n      add\n        /* \"--CODEGEN--\":20433:20456   */\n      mload\n        /* \"--CODEGEN--\":20502:20505   */\n      dup5\n        /* \"--CODEGEN--\":20496:20500   */\n      dup3\n        /* \"--CODEGEN--\":20492:20506   */\n      sub\n        /* \"--CODEGEN--\":20485:20489   */\n      0x40\n        /* \"--CODEGEN--\":20480:20483   */\n      dup7\n        /* \"--CODEGEN--\":20476:20490   */\n      add\n        /* \"--CODEGEN--\":20469:20507   */\n      mstore\n        /* \"--CODEGEN--\":20522:20591   */\n      tag_453\n        /* \"--CODEGEN--\":20586:20590   */\n      dup3\n        /* \"--CODEGEN--\":20572:20584   */\n      dup3\n        /* \"--CODEGEN--\":20522:20591   */\n      jump(tag_395)\n    tag_453:\n        /* \"--CODEGEN--\":20514:20591   */\n      swap2\n      pop\n        /* \"--CODEGEN--\":20383:20603   */\n      pop\n        /* \"--CODEGEN--\":20677:20681   */\n      0x60\n        /* \"--CODEGEN--\":20670:20675   */\n      dup4\n        /* \"--CODEGEN--\":20666:20682   */\n      add\n        /* \"--CODEGEN--\":20660:20683   */\n      mload\n        /* \"--CODEGEN--\":20729:20732   */\n      dup5\n        /* \"--CODEGEN--\":20723:20727   */\n      dup3\n        /* \"--CODEGEN--\":20719:20733   */\n      sub\n        /* \"--CODEGEN--\":20712:20716   */\n      0x60\n        /* \"--CODEGEN--\":20707:20710   */\n      dup7\n        /* \"--CODEGEN--\":20703:20717   */\n      add\n        /* \"--CODEGEN--\":20696:20734   */\n      mstore\n        /* \"--CODEGEN--\":20749:20818   */\n      tag_454\n        /* \"--CODEGEN--\":20813:20817   */\n      dup3\n        /* \"--CODEGEN--\":20799:20811   */\n      dup3\n        /* \"--CODEGEN--\":20749:20818   */\n      jump(tag_395)\n    tag_454:\n        /* \"--CODEGEN--\":20741:20818   */\n      swap2\n      pop\n        /* \"--CODEGEN--\":20613:20830   */\n      pop\n        /* \"--CODEGEN--\":20919:20923   */\n      0x80\n        /* \"--CODEGEN--\":20912:20917   */\n      dup4\n        /* \"--CODEGEN--\":20908:20924   */\n      add\n        /* \"--CODEGEN--\":20902:20925   */\n      mload\n        /* \"--CODEGEN--\":20971:20974   */\n      dup5\n        /* \"--CODEGEN--\":20965:20969   */\n      dup3\n        /* \"--CODEGEN--\":20961:20975   */\n      sub\n        /* \"--CODEGEN--\":20954:20958   */\n      0x80\n        /* \"--CODEGEN--\":20949:20952   */\n      dup7\n        /* \"--CODEGEN--\":20945:20959   */\n      add\n        /* \"--CODEGEN--\":20938:20976   */\n      mstore\n        /* \"--CODEGEN--\":20991:21148   */\n      tag_455\n        /* \"--CODEGEN--\":21143:21147   */\n      dup3\n        /* \"--CODEGEN--\":21129:21141   */\n      dup3\n        /* \"--CODEGEN--\":20991:21148   */\n      jump(tag_325)\n    tag_455:\n        /* \"--CODEGEN--\":20983:21148   */\n      swap2\n      pop\n        /* \"--CODEGEN--\":20840:21160   */\n      pop\n        /* \"--CODEGEN--\":21177:21181   */\n      dup1\n        /* \"--CODEGEN--\":21170:21181   */\n      swap2\n      pop\n        /* \"--CODEGEN--\":19877:21186   */\n      pop\n      swap3\n      swap2\n      pop\n      pop\n      jump\n        /* \"--CODEGEN--\":21290:23554   */\n    tag_426:\n      0x00\n        /* \"--CODEGEN--\":21445:21451   */\n      0x0120\n        /* \"--CODEGEN--\":21440:21443   */\n      dup4\n        /* \"--CODEGEN--\":21436:21452   */\n      add\n        /* \"--CODEGEN--\":21533:21537   */\n      0x00\n        /* \"--CODEGEN--\":21526:21531   */\n      dup4\n        /* \"--CODEGEN--\":21522:21538   */\n      add\n        /* \"--CODEGEN--\":21516:21539   */\n      mload\n        /* \"--CODEGEN--\":21585:21588   */\n      dup5\n        /* \"--CODEGEN--\":21579:21583   */\n      dup3\n        /* \"--CODEGEN--\":21575:21589   */\n      sub\n        /* \"--CODEGEN--\":21568:21572   */\n      0x00\n        /* \"--CODEGEN--\":21563:21566   */\n      dup7\n        /* \"--CODEGEN--\":21559:21573   */\n      add\n        /* \"--CODEGEN--\":21552:21590   */\n      mstore\n        /* \"--CODEGEN--\":21605:21674   */\n      tag_456\n        /* \"--CODEGEN--\":21669:21673   */\n      dup3\n        /* \"--CODEGEN--\":21655:21667   */\n      dup3\n        /* \"--CODEGEN--\":21605:21674   */\n      jump(tag_395)\n    tag_456:\n        /* \"--CODEGEN--\":21597:21674   */\n      swap2\n      pop\n        /* \"--CODEGEN--\":21467:21686   */\n      pop\n        /* \"--CODEGEN--\":21769:21773   */\n      0x20\n        /* \"--CODEGEN--\":21762:21767   */\n      dup4\n        /* \"--CODEGEN--\":21758:21774   */\n      add\n        /* \"--CODEGEN--\":21752:21775   */\n      mload\n        /* \"--CODEGEN--\":21821:21824   */\n      dup5\n        /* \"--CODEGEN--\":21815:21819   */\n      dup3\n        /* \"--CODEGEN--\":21811:21825   */\n      sub\n        /* \"--CODEGEN--\":21804:21808   */\n      0x20\n        /* \"--CODEGEN--\":21799:21802   */\n      dup7\n        /* \"--CODEGEN--\":21795:21809   */\n      add\n        /* \"--CODEGEN--\":21788:21826   */\n      mstore\n        /* \"--CODEGEN--\":21841:21910   */\n      tag_457\n        /* \"--CODEGEN--\":21905:21909   */\n      dup3\n        /* \"--CODEGEN--\":21891:21903   */\n      dup3\n        /* \"--CODEGEN--\":21841:21910   */\n      jump(tag_395)\n    tag_457:\n        /* \"--CODEGEN--\":21833:21910   */\n      swap2\n      pop\n        /* \"--CODEGEN--\":21696:21922   */\n      pop\n        /* \"--CODEGEN--\":21996:22000   */\n      0x40\n        /* \"--CODEGEN--\":21989:21994   */\n      dup4\n        /* \"--CODEGEN--\":21985:22001   */\n      add\n        /* \"--CODEGEN--\":21979:22002   */\n      mload\n        /* \"--CODEGEN--\":22048:22051   */\n      dup5\n        /* \"--CODEGEN--\":22042:22046   */\n      dup3\n        /* \"--CODEGEN--\":22038:22052   */\n      sub\n        /* \"--CODEGEN--\":22031:22035   */\n      0x40\n        /* \"--CODEGEN--\":22026:22029   */\n      dup7\n        /* \"--CODEGEN--\":22022:22036   */\n      add\n        /* \"--CODEGEN--\":22015:22053   */\n      mstore\n        /* \"--CODEGEN--\":22068:22137   */\n      tag_458\n        /* \"--CODEGEN--\":22132:22136   */\n      dup3\n        /* \"--CODEGEN--\":22118:22130   */\n      dup3\n        /* \"--CODEGEN--\":22068:22137   */\n      jump(tag_395)\n    tag_458:\n        /* \"--CODEGEN--\":22060:22137   */\n      swap2\n      pop\n        /* \"--CODEGEN--\":21932:22149   */\n      pop\n        /* \"--CODEGEN--\":22223:22227   */\n      0x60\n        /* \"--CODEGEN--\":22216:22221   */\n      dup4\n        /* \"--CODEGEN--\":22212:22228   */\n      add\n        /* \"--CODEGEN--\":22206:22229   */\n      mload\n        /* \"--CODEGEN--\":22275:22278   */\n      dup5\n        /* \"--CODEGEN--\":22269:22273   */\n      dup3\n        /* \"--CODEGEN--\":22265:22279   */\n      sub\n        /* \"--CODEGEN--\":22258:22262   */\n      0x60\n        /* \"--CODEGEN--\":22253:22256   */\n      dup7\n        /* \"--CODEGEN--\":22249:22263   */\n      add\n        /* \"--CODEGEN--\":22242:22280   */\n      mstore\n        /* \"--CODEGEN--\":22295:22364   */\n      tag_459\n        /* \"--CODEGEN--\":22359:22363   */\n      dup3\n        /* \"--CODEGEN--\":22345:22357   */\n      dup3\n        /* \"--CODEGEN--\":22295:22364   */\n      jump(tag_395)\n    tag_459:\n        /* \"--CODEGEN--\":22287:22364   */\n      swap2\n      pop\n        /* \"--CODEGEN--\":22159:22376   */\n      pop\n        /* \"--CODEGEN--\":22451:22455   */\n      0x80\n        /* \"--CODEGEN--\":22444:22449   */\n      dup4\n        /* \"--CODEGEN--\":22440:22456   */\n      add\n        /* \"--CODEGEN--\":22434:22457   */\n      mload\n        /* \"--CODEGEN--\":22503:22506   */\n      dup5\n        /* \"--CODEGEN--\":22497:22501   */\n      dup3\n        /* \"--CODEGEN--\":22493:22507   */\n      sub\n        /* \"--CODEGEN--\":22486:22490   */\n      0x80\n        /* \"--CODEGEN--\":22481:22484   */\n      dup7\n        /* \"--CODEGEN--\":22477:22491   */\n      add\n        /* \"--CODEGEN--\":22470:22508   */\n      mstore\n        /* \"--CODEGEN--\":22523:22592   */\n      tag_460\n        /* \"--CODEGEN--\":22587:22591   */\n      dup3\n        /* \"--CODEGEN--\":22573:22585   */\n      dup3\n        /* \"--CODEGEN--\":22523:22592   */\n      jump(tag_395)\n    tag_460:\n        /* \"--CODEGEN--\":22515:22592   */\n      swap2\n      pop\n        /* \"--CODEGEN--\":22386:22604   */\n      pop\n        /* \"--CODEGEN--\":22679:22683   */\n      0xa0\n        /* \"--CODEGEN--\":22672:22677   */\n      dup4\n        /* \"--CODEGEN--\":22668:22684   */\n      add\n        /* \"--CODEGEN--\":22662:22685   */\n      mload\n        /* \"--CODEGEN--\":22731:22734   */\n      dup5\n        /* \"--CODEGEN--\":22725:22729   */\n      dup3\n        /* \"--CODEGEN--\":22721:22735   */\n      sub\n        /* \"--CODEGEN--\":22714:22718   */\n      0xa0\n        /* \"--CODEGEN--\":22709:22712   */\n      dup7\n        /* \"--CODEGEN--\":22705:22719   */\n      add\n        /* \"--CODEGEN--\":22698:22736   */\n      mstore\n        /* \"--CODEGEN--\":22751:22820   */\n      tag_461\n        /* \"--CODEGEN--\":22815:22819   */\n      dup3\n        /* \"--CODEGEN--\":22801:22813   */\n      dup3\n        /* \"--CODEGEN--\":22751:22820   */\n      jump(tag_395)\n    tag_461:\n        /* \"--CODEGEN--\":22743:22820   */\n      swap2\n      pop\n        /* \"--CODEGEN--\":22614:22832   */\n      pop\n        /* \"--CODEGEN--\":22909:22913   */\n      0xc0\n        /* \"--CODEGEN--\":22902:22907   */\n      dup4\n        /* \"--CODEGEN--\":22898:22914   */\n      add\n        /* \"--CODEGEN--\":22892:22915   */\n      mload\n        /* \"--CODEGEN--\":22961:22964   */\n      dup5\n        /* \"--CODEGEN--\":22955:22959   */\n      dup3\n        /* \"--CODEGEN--\":22951:22965   */\n      sub\n        /* \"--CODEGEN--\":22944:22948   */\n      0xc0\n        /* \"--CODEGEN--\":22939:22942   */\n      dup7\n        /* \"--CODEGEN--\":22935:22949   */\n      add\n        /* \"--CODEGEN--\":22928:22966   */\n      mstore\n        /* \"--CODEGEN--\":22981:23050   */\n      tag_462\n        /* \"--CODEGEN--\":23045:23049   */\n      dup3\n        /* \"--CODEGEN--\":23031:23043   */\n      dup3\n        /* \"--CODEGEN--\":22981:23050   */\n      jump(tag_395)\n    tag_462:\n        /* \"--CODEGEN--\":22973:23050   */\n      swap2\n      pop\n        /* \"--CODEGEN--\":22842:23062   */\n      pop\n        /* \"--CODEGEN--\":23140:23144   */\n      0xe0\n        /* \"--CODEGEN--\":23133:23138   */\n      dup4\n        /* \"--CODEGEN--\":23129:23145   */\n      add\n        /* \"--CODEGEN--\":23123:23146   */\n      mload\n        /* \"--CODEGEN--\":23192:23195   */\n      dup5\n        /* \"--CODEGEN--\":23186:23190   */\n      dup3\n        /* \"--CODEGEN--\":23182:23196   */\n      sub\n        /* \"--CODEGEN--\":23175:23179   */\n      0xe0\n        /* \"--CODEGEN--\":23170:23173   */\n      dup7\n        /* \"--CODEGEN--\":23166:23180   */\n      add\n        /* \"--CODEGEN--\":23159:23197   */\n      mstore\n        /* \"--CODEGEN--\":23212:23281   */\n      tag_463\n        /* \"--CODEGEN--\":23276:23280   */\n      dup3\n        /* \"--CODEGEN--\":23262:23274   */\n      dup3\n        /* \"--CODEGEN--\":23212:23281   */\n      jump(tag_395)\n    tag_463:\n        /* \"--CODEGEN--\":23204:23281   */\n      swap2\n      pop\n        /* \"--CODEGEN--\":23072:23293   */\n      pop\n        /* \"--CODEGEN--\":23371:23377   */\n      0x0100\n        /* \"--CODEGEN--\":23364:23369   */\n      dup4\n        /* \"--CODEGEN--\":23360:23378   */\n      add\n        /* \"--CODEGEN--\":23354:23379   */\n      mload\n        /* \"--CODEGEN--\":23427:23430   */\n      dup5\n        /* \"--CODEGEN--\":23421:23425   */\n      dup3\n        /* \"--CODEGEN--\":23417:23431   */\n      sub\n        /* \"--CODEGEN--\":23408:23414   */\n      0x0100\n        /* \"--CODEGEN--\":23403:23406   */\n      dup7\n        /* \"--CODEGEN--\":23399:23415   */\n      add\n        /* \"--CODEGEN--\":23392:23432   */\n      mstore\n        /* \"--CODEGEN--\":23447:23516   */\n      tag_464\n        /* \"--CODEGEN--\":23511:23515   */\n      dup3\n        /* \"--CODEGEN--\":23497:23509   */\n      dup3\n        /* \"--CODEGEN--\":23447:23516   */\n      jump(tag_395)\n    tag_464:\n        /* \"--CODEGEN--\":23439:23516   */\n      swap2\n      pop\n        /* \"--CODEGEN--\":23303:23528   */\n      pop\n        /* \"--CODEGEN--\":23545:23549   */\n      dup1\n        /* \"--CODEGEN--\":23538:23549   */\n      swap2\n      pop\n        /* \"--CODEGEN--\":21418:23554   */\n      pop\n      swap3\n      swap2\n      pop\n      pop\n      jump\n        /* \"--CODEGEN--\":23561:23664   */\n    tag_433:\n        /* \"--CODEGEN--\":23634:23658   */\n      tag_465\n        /* \"--CODEGEN--\":23652:23657   */\n      dup2\n        /* \"--CODEGEN--\":23634:23658   */\n      jump(tag_466)\n    tag_465:\n        /* \"--CODEGEN--\":23629:23632   */\n      dup3\n        /* \"--CODEGEN--\":23622:23659   */\n      mstore\n        /* \"--CODEGEN--\":23616:23664   */\n      pop\n      pop\n      jump\n        /* \"--CODEGEN--\":23671:24108   */\n    tag_38:\n      0x00\n        /* \"--CODEGEN--\":23877:23879   */\n      0x20\n        /* \"--CODEGEN--\":23866:23875   */\n      dup3\n        /* \"--CODEGEN--\":23862:23880   */\n      add\n        /* \"--CODEGEN--\":23854:23880   */\n      swap1\n      pop\n        /* \"--CODEGEN--\":23927:23936   */\n      dup2\n        /* \"--CODEGEN--\":23921:23925   */\n      dup2\n        /* \"--CODEGEN--\":23917:23937   */\n      sub\n        /* \"--CODEGEN--\":23913:23914   */\n      0x00\n        /* \"--CODEGEN--\":23902:23911   */\n      dup4\n        /* \"--CODEGEN--\":23898:23915   */\n      add\n        /* \"--CODEGEN--\":23891:23938   */\n      mstore\n        /* \"--CODEGEN--\":23952:24098   */\n      tag_467\n        /* \"--CODEGEN--\":24093:24097   */\n      dup2\n        /* \"--CODEGEN--\":24084:24090   */\n      dup5\n        /* \"--CODEGEN--\":23952:24098   */\n      jump(tag_338)\n    tag_467:\n        /* \"--CODEGEN--\":23944:24098   */\n      swap1\n      pop\n        /* \"--CODEGEN--\":23848:24108   */\n      swap3\n      swap2\n      pop\n      pop\n      jump\n        /* \"--CODEGEN--\":24115:24599   */\n    tag_19:\n      0x00\n        /* \"--CODEGEN--\":24293:24295   */\n      0x40\n        /* \"--CODEGEN--\":24282:24291   */\n      dup3\n        /* \"--CODEGEN--\":24278:24296   */\n      add\n        /* \"--CODEGEN--\":24270:24296   */\n      swap1\n      pop\n        /* \"--CODEGEN--\":24343:24352   */\n      dup2\n        /* \"--CODEGEN--\":24337:24341   */\n      dup2\n        /* \"--CODEGEN--\":24333:24353   */\n      sub\n        /* \"--CODEGEN--\":24329:24330   */\n      0x00\n        /* \"--CODEGEN--\":24318:24327   */\n      dup4\n        /* \"--CODEGEN--\":24314:24331   */\n      add\n        /* \"--CODEGEN--\":24307:24354   */\n      mstore\n        /* \"--CODEGEN--\":24368:24442   */\n      tag_468\n        /* \"--CODEGEN--\":24437:24441   */\n      dup2\n        /* \"--CODEGEN--\":24428:24434   */\n      dup6\n        /* \"--CODEGEN--\":24368:24442   */\n      jump(tag_404)\n    tag_468:\n        /* \"--CODEGEN--\":24360:24442   */\n      swap1\n      pop\n        /* \"--CODEGEN--\":24490:24499   */\n      dup2\n        /* \"--CODEGEN--\":24484:24488   */\n      dup2\n        /* \"--CODEGEN--\":24480:24500   */\n      sub\n        /* \"--CODEGEN--\":24475:24477   */\n      0x20\n        /* \"--CODEGEN--\":24464:24473   */\n      dup4\n        /* \"--CODEGEN--\":24460:24478   */\n      add\n        /* \"--CODEGEN--\":24453:24501   */\n      mstore\n        /* \"--CODEGEN--\":24515:24589   */\n      tag_469\n        /* \"--CODEGEN--\":24584:24588   */\n      dup2\n        /* \"--CODEGEN--\":24575:24581   */\n      dup5\n        /* \"--CODEGEN--\":24515:24589   */\n      jump(tag_404)\n    tag_469:\n        /* \"--CODEGEN--\":24507:24589   */\n      swap1\n      pop\n        /* \"--CODEGEN--\":24264:24599   */\n      swap4\n      swap3\n      pop\n      pop\n      pop\n      jump\n        /* \"--CODEGEN--\":24606:25189   */\n    tag_25:\n      0x00\n        /* \"--CODEGEN--\":24806:24808   */\n      0x60\n        /* \"--CODEGEN--\":24795:24804   */\n      dup3\n        /* \"--CODEGEN--\":24791:24809   */\n      add\n        /* \"--CODEGEN--\":24783:24809   */\n      swap1\n      pop\n        /* \"--CODEGEN--\":24856:24865   */\n      dup2\n        /* \"--CODEGEN--\":24850:24854   */\n      dup2\n        /* \"--CODEGEN--\":24846:24866   */\n      sub\n        /* \"--CODEGEN--\":24842:24843   */\n      0x00\n        /* \"--CODEGEN--\":24831:24840   */\n      dup4\n        /* \"--CODEGEN--\":24827:24844   */\n      add\n        /* \"--CODEGEN--\":24820:24867   */\n      mstore\n        /* \"--CODEGEN--\":24881:24955   */\n      tag_470\n        /* \"--CODEGEN--\":24950:24954   */\n      dup2\n        /* \"--CODEGEN--\":24941:24947   */\n      dup7\n        /* \"--CODEGEN--\":24881:24955   */\n      jump(tag_404)\n    tag_470:\n        /* \"--CODEGEN--\":24873:24955   */\n      swap1\n      pop\n        /* \"--CODEGEN--\":25003:25012   */\n      dup2\n        /* \"--CODEGEN--\":24997:25001   */\n      dup2\n        /* \"--CODEGEN--\":24993:25013   */\n      sub\n        /* \"--CODEGEN--\":24988:24990   */\n      0x20\n        /* \"--CODEGEN--\":24977:24986   */\n      dup4\n        /* \"--CODEGEN--\":24973:24991   */\n      add\n        /* \"--CODEGEN--\":24966:25014   */\n      mstore\n        /* \"--CODEGEN--\":25028:25102   */\n      tag_471\n        /* \"--CODEGEN--\":25097:25101   */\n      dup2\n        /* \"--CODEGEN--\":25088:25094   */\n      dup6\n        /* \"--CODEGEN--\":25028:25102   */\n      jump(tag_404)\n    tag_471:\n        /* \"--CODEGEN--\":25020:25102   */\n      swap1\n      pop\n        /* \"--CODEGEN--\":25113:25179   */\n      tag_472\n        /* \"--CODEGEN--\":25175:25177   */\n      0x40\n        /* \"--CODEGEN--\":25164:25173   */\n      dup4\n        /* \"--CODEGEN--\":25160:25178   */\n      add\n        /* \"--CODEGEN--\":25151:25157   */\n      dup5\n        /* \"--CODEGEN--\":25113:25179   */\n      jump(tag_393)\n    tag_472:\n        /* \"--CODEGEN--\":24777:25189   */\n      swap5\n      swap4\n      pop\n      pop\n      pop\n      pop\n      jump\n        /* \"--CODEGEN--\":25196:25871   */\n    tag_30:\n      0x00\n        /* \"--CODEGEN--\":25418:25420   */\n      0x60\n        /* \"--CODEGEN--\":25407:25416   */\n      dup3\n        /* \"--CODEGEN--\":25403:25421   */\n      add\n        /* \"--CODEGEN--\":25395:25421   */\n      swap1\n      pop\n        /* \"--CODEGEN--\":25468:25477   */\n      dup2\n        /* \"--CODEGEN--\":25462:25466   */\n      dup2\n        /* \"--CODEGEN--\":25458:25478   */\n      sub\n        /* \"--CODEGEN--\":25454:25455   */\n      0x00\n        /* \"--CODEGEN--\":25443:25452   */\n      dup4\n        /* \"--CODEGEN--\":25439:25456   */\n      add\n        /* \"--CODEGEN--\":25432:25479   */\n      mstore\n        /* \"--CODEGEN--\":25493:25567   */\n      tag_473\n        /* \"--CODEGEN--\":25562:25566   */\n      dup2\n        /* \"--CODEGEN--\":25553:25559   */\n      dup7\n        /* \"--CODEGEN--\":25493:25567   */\n      jump(tag_404)\n    tag_473:\n        /* \"--CODEGEN--\":25485:25567   */\n      swap1\n      pop\n        /* \"--CODEGEN--\":25615:25624   */\n      dup2\n        /* \"--CODEGEN--\":25609:25613   */\n      dup2\n        /* \"--CODEGEN--\":25605:25625   */\n      sub\n        /* \"--CODEGEN--\":25600:25602   */\n      0x20\n        /* \"--CODEGEN--\":25589:25598   */\n      dup4\n        /* \"--CODEGEN--\":25585:25603   */\n      add\n        /* \"--CODEGEN--\":25578:25626   */\n      mstore\n        /* \"--CODEGEN--\":25640:25714   */\n      tag_474\n        /* \"--CODEGEN--\":25709:25713   */\n      dup2\n        /* \"--CODEGEN--\":25700:25706   */\n      dup6\n        /* \"--CODEGEN--\":25640:25714   */\n      jump(tag_404)\n    tag_474:\n        /* \"--CODEGEN--\":25632:25714   */\n      swap1\n      pop\n        /* \"--CODEGEN--\":25762:25771   */\n      dup2\n        /* \"--CODEGEN--\":25756:25760   */\n      dup2\n        /* \"--CODEGEN--\":25752:25772   */\n      sub\n        /* \"--CODEGEN--\":25747:25749   */\n      0x40\n        /* \"--CODEGEN--\":25736:25745   */\n      dup4\n        /* \"--CODEGEN--\":25732:25750   */\n      add\n        /* \"--CODEGEN--\":25725:25773   */\n      mstore\n        /* \"--CODEGEN--\":25787:25861   */\n      tag_475\n        /* \"--CODEGEN--\":25856:25860   */\n      dup2\n        /* \"--CODEGEN--\":25847:25853   */\n      dup5\n        /* \"--CODEGEN--\":25787:25861   */\n      jump(tag_404)\n    tag_475:\n        /* \"--CODEGEN--\":25779:25861   */\n      swap1\n      pop\n        /* \"--CODEGEN--\":25389:25871   */\n      swap5\n      swap4\n      pop\n      pop\n      pop\n      pop\n      jump\n        /* \"--CODEGEN--\":25878:26745   */\n    tag_51:\n      0x00\n        /* \"--CODEGEN--\":26144:26147   */\n      0x80\n        /* \"--CODEGEN--\":26133:26142   */\n      dup3\n        /* \"--CODEGEN--\":26129:26148   */\n      add\n        /* \"--CODEGEN--\":26121:26148   */\n      swap1\n      pop\n        /* \"--CODEGEN--\":26195:26204   */\n      dup2\n        /* \"--CODEGEN--\":26189:26193   */\n      dup2\n        /* \"--CODEGEN--\":26185:26205   */\n      sub\n        /* \"--CODEGEN--\":26181:26182   */\n      0x00\n        /* \"--CODEGEN--\":26170:26179   */\n      dup4\n        /* \"--CODEGEN--\":26166:26183   */\n      add\n        /* \"--CODEGEN--\":26159:26206   */\n      mstore\n        /* \"--CODEGEN--\":26220:26294   */\n      tag_476\n        /* \"--CODEGEN--\":26289:26293   */\n      dup2\n        /* \"--CODEGEN--\":26280:26286   */\n      dup8\n        /* \"--CODEGEN--\":26220:26294   */\n      jump(tag_404)\n    tag_476:\n        /* \"--CODEGEN--\":26212:26294   */\n      swap1\n      pop\n        /* \"--CODEGEN--\":26342:26351   */\n      dup2\n        /* \"--CODEGEN--\":26336:26340   */\n      dup2\n        /* \"--CODEGEN--\":26332:26352   */\n      sub\n        /* \"--CODEGEN--\":26327:26329   */\n      0x20\n        /* \"--CODEGEN--\":26316:26325   */\n      dup4\n        /* \"--CODEGEN--\":26312:26330   */\n      add\n        /* \"--CODEGEN--\":26305:26353   */\n      mstore\n        /* \"--CODEGEN--\":26367:26441   */\n      tag_477\n        /* \"--CODEGEN--\":26436:26440   */\n      dup2\n        /* \"--CODEGEN--\":26427:26433   */\n      dup7\n        /* \"--CODEGEN--\":26367:26441   */\n      jump(tag_404)\n    tag_477:\n        /* \"--CODEGEN--\":26359:26441   */\n      swap1\n      pop\n        /* \"--CODEGEN--\":26489:26498   */\n      dup2\n        /* \"--CODEGEN--\":26483:26487   */\n      dup2\n        /* \"--CODEGEN--\":26479:26499   */\n      sub\n        /* \"--CODEGEN--\":26474:26476   */\n      0x40\n        /* \"--CODEGEN--\":26463:26472   */\n      dup4\n        /* \"--CODEGEN--\":26459:26477   */\n      add\n        /* \"--CODEGEN--\":26452:26500   */\n      mstore\n        /* \"--CODEGEN--\":26514:26588   */\n      tag_478\n        /* \"--CODEGEN--\":26583:26587   */\n      dup2\n        /* \"--CODEGEN--\":26574:26580   */\n      dup6\n        /* \"--CODEGEN--\":26514:26588   */\n      jump(tag_404)\n    tag_478:\n        /* \"--CODEGEN--\":26506:26588   */\n      swap1\n      pop\n        /* \"--CODEGEN--\":26636:26645   */\n      dup2\n        /* \"--CODEGEN--\":26630:26634   */\n      dup2\n        /* \"--CODEGEN--\":26626:26646   */\n      sub\n        /* \"--CODEGEN--\":26621:26623   */\n      0x60\n        /* \"--CODEGEN--\":26610:26619   */\n      dup4\n        /* \"--CODEGEN--\":26606:26624   */\n      add\n        /* \"--CODEGEN--\":26599:26647   */\n      mstore\n        /* \"--CODEGEN--\":26661:26735   */\n      tag_479\n        /* \"--CODEGEN--\":26730:26734   */\n      dup2\n        /* \"--CODEGEN--\":26721:26727   */\n      dup5\n        /* \"--CODEGEN--\":26661:26735   */\n      jump(tag_404)\n    tag_479:\n        /* \"--CODEGEN--\":26653:26735   */\n      swap1\n      pop\n        /* \"--CODEGEN--\":26115:26745   */\n      swap6\n      swap5\n      pop\n      pop\n      pop\n      pop\n      pop\n      jump\n        /* \"--CODEGEN--\":26752:27008   */\n    tag_295:\n      0x00\n        /* \"--CODEGEN--\":26814:26816   */\n      0x40\n        /* \"--CODEGEN--\":26808:26817   */\n      mload\n        /* \"--CODEGEN--\":26798:26817   */\n      swap1\n      pop\n        /* \"--CODEGEN--\":26852:26856   */\n      dup2\n        /* \"--CODEGEN--\":26844:26850   */\n      dup2\n        /* \"--CODEGEN--\":26840:26857   */\n      add\n        /* \"--CODEGEN--\":26951:26957   */\n      dup2\n        /* \"--CODEGEN--\":26939:26949   */\n      dup2\n        /* \"--CODEGEN--\":26936:26958   */\n      lt\n        /* \"--CODEGEN--\":26915:26933   */\n      0xffffffffffffffff\n        /* \"--CODEGEN--\":26903:26913   */\n      dup3\n        /* \"--CODEGEN--\":26900:26934   */\n      gt\n        /* \"--CODEGEN--\":26897:26959   */\n      or\n        /* \"--CODEGEN--\":26894:26896   */\n      iszero\n      tag_480\n      jumpi\n        /* \"--CODEGEN--\":26972:26973   */\n      0x00\n        /* \"--CODEGEN--\":26969:26970   */\n      dup1\n        /* \"--CODEGEN--\":26962:26974   */\n      revert\n        /* \"--CODEGEN--\":26894:26896   */\n    tag_480:\n        /* \"--CODEGEN--\":26992:27002   */\n      dup1\n        /* \"--CODEGEN--\":26988:26990   */\n      0x40\n        /* \"--CODEGEN--\":26981:27003   */\n      mstore\n        /* \"--CODEGEN--\":26792:27008   */\n      pop\n      swap2\n      swap1\n      pop\n      jump\n        /* \"--CODEGEN--\":27015:27333   */\n    tag_294:\n      0x00\n        /* \"--CODEGEN--\":27155:27173   */\n      0xffffffffffffffff\n        /* \"--CODEGEN--\":27147:27153   */\n      dup3\n        /* \"--CODEGEN--\":27144:27174   */\n      gt\n        /* \"--CODEGEN--\":27141:27143   */\n      iszero\n      tag_481\n      jumpi\n        /* \"--CODEGEN--\":27187:27188   */\n      0x00\n        /* \"--CODEGEN--\":27184:27185   */\n      dup1\n        /* \"--CODEGEN--\":27177:27189   */\n      revert\n        /* \"--CODEGEN--\":27141:27143   */\n    tag_481:\n        /* \"--CODEGEN--\":27254:27258   */\n      0x1f\n        /* \"--CODEGEN--\":27250:27259   */\n      not\n        /* \"--CODEGEN--\":27243:27247   */\n      0x1f\n        /* \"--CODEGEN--\":27235:27241   */\n      dup4\n        /* \"--CODEGEN--\":27231:27248   */\n      add\n        /* \"--CODEGEN--\":27227:27260   */\n      and\n        /* \"--CODEGEN--\":27219:27260   */\n      swap1\n      pop\n        /* \"--CODEGEN--\":27318:27322   */\n      0x20\n        /* \"--CODEGEN--\":27312:27316   */\n      dup2\n        /* \"--CODEGEN--\":27308:27323   */\n      add\n        /* \"--CODEGEN--\":27300:27323   */\n      swap1\n      pop\n        /* \"--CODEGEN--\":27078:27333   */\n      swap2\n      swap1\n      pop\n      jump\n        /* \"--CODEGEN--\":27340:27516   */\n    tag_331:\n      0x00\n        /* \"--CODEGEN--\":27451:27454   */\n      dup2\n        /* \"--CODEGEN--\":27443:27454   */\n      swap1\n      pop\n        /* \"--CODEGEN--\":27489:27493   */\n      0x20\n        /* \"--CODEGEN--\":27484:27487   */\n      dup3\n        /* \"--CODEGEN--\":27480:27494   */\n      add\n        /* \"--CODEGEN--\":27472:27494   */\n      swap1\n      pop\n        /* \"--CODEGEN--\":27437:27516   */\n      swap2\n      swap1\n      pop\n      jump\n        /* \"--CODEGEN--\":27523:27693   */\n    tag_344:\n      0x00\n        /* \"--CODEGEN--\":27628:27631   */\n      dup2\n        /* \"--CODEGEN--\":27620:27631   */\n      swap1\n      pop\n        /* \"--CODEGEN--\":27666:27670   */\n      0x20\n        /* \"--CODEGEN--\":27661:27664   */\n      dup3\n        /* \"--CODEGEN--\":27657:27671   */\n      add\n        /* \"--CODEGEN--\":27649:27671   */\n      swap1\n      pop\n        /* \"--CODEGEN--\":27614:27693   */\n      swap2\n      swap1\n      pop\n      jump\n        /* \"--CODEGEN--\":27700:27873   */\n    tag_357:\n      0x00\n        /* \"--CODEGEN--\":27808:27811   */\n      dup2\n        /* \"--CODEGEN--\":27800:27811   */\n      swap1\n      pop\n        /* \"--CODEGEN--\":27846:27850   */\n      0x20\n        /* \"--CODEGEN--\":27841:27844   */\n      dup3\n        /* \"--CODEGEN--\":27837:27851   */\n      add\n        /* \"--CODEGEN--\":27829:27851   */\n      swap1\n      pop\n        /* \"--CODEGEN--\":27794:27873   */\n      swap2\n      swap1\n      pop\n      jump\n        /* \"--CODEGEN--\":27880:28051   */\n    tag_370:\n      0x00\n        /* \"--CODEGEN--\":27986:27989   */\n      dup2\n        /* \"--CODEGEN--\":27978:27989   */\n      swap1\n      pop\n        /* \"--CODEGEN--\":28024:28028   */\n      0x20\n        /* \"--CODEGEN--\":28019:28022   */\n      dup3\n        /* \"--CODEGEN--\":28015:28029   */\n      add\n        /* \"--CODEGEN--\":28007:28029   */\n      swap1\n      pop\n        /* \"--CODEGEN--\":27972:28051   */\n      swap2\n      swap1\n      pop\n      jump\n        /* \"--CODEGEN--\":28058:28233   */\n    tag_383:\n      0x00\n        /* \"--CODEGEN--\":28168:28171   */\n      dup2\n        /* \"--CODEGEN--\":28160:28171   */\n      swap1\n      pop\n        /* \"--CODEGEN--\":28206:28210   */\n      0x20\n        /* \"--CODEGEN--\":28201:28204   */\n      dup3\n        /* \"--CODEGEN--\":28197:28211   */\n      add\n        /* \"--CODEGEN--\":28189:28211   */\n      swap1\n      pop\n        /* \"--CODEGEN--\":28154:28233   */\n      swap2\n      swap1\n      pop\n      jump\n        /* \"--CODEGEN--\":28240:28402   */\n    tag_327:\n      0x00\n        /* \"--CODEGEN--\":28374:28379   */\n      dup2\n        /* \"--CODEGEN--\":28368:28380   */\n      mload\n        /* \"--CODEGEN--\":28358:28380   */\n      swap1\n      pop\n        /* \"--CODEGEN--\":28339:28402   */\n      swap2\n      swap1\n      pop\n      jump\n        /* \"--CODEGEN--\":28409:28565   */\n    tag_340:\n      0x00\n        /* \"--CODEGEN--\":28537:28542   */\n      dup2\n        /* \"--CODEGEN--\":28531:28543   */\n      mload\n        /* \"--CODEGEN--\":28521:28543   */\n      swap1\n      pop\n        /* \"--CODEGEN--\":28502:28565   */\n      swap2\n      swap1\n      pop\n      jump\n        /* \"--CODEGEN--\":28572:28731   */\n    tag_353:\n      0x00\n        /* \"--CODEGEN--\":28703:28708   */\n      dup2\n        /* \"--CODEGEN--\":28697:28709   */\n      mload\n        /* \"--CODEGEN--\":28687:28709   */\n      swap1\n      pop\n        /* \"--CODEGEN--\":28668:28731   */\n      swap2\n      swap1\n      pop\n      jump\n        /* \"--CODEGEN--\":28738:28895   */\n    tag_366:\n      0x00\n        /* \"--CODEGEN--\":28867:28872   */\n      dup2\n        /* \"--CODEGEN--\":28861:28873   */\n      mload\n        /* \"--CODEGEN--\":28851:28873   */\n      swap1\n      pop\n        /* \"--CODEGEN--\":28832:28895   */\n      swap2\n      swap1\n      pop\n      jump\n        /* \"--CODEGEN--\":28902:29063   */\n    tag_379:\n      0x00\n        /* \"--CODEGEN--\":29035:29040   */\n      dup2\n        /* \"--CODEGEN--\":29029:29041   */\n      mload\n        /* \"--CODEGEN--\":29019:29041   */\n      swap1\n      pop\n        /* \"--CODEGEN--\":29000:29063   */\n      swap2\n      swap1\n      pop\n      jump\n        /* \"--CODEGEN--\":29070:29188   */\n    tag_397:\n      0x00\n        /* \"--CODEGEN--\":29160:29165   */\n      dup2\n        /* \"--CODEGEN--\":29154:29166   */\n      mload\n        /* \"--CODEGEN--\":29144:29166   */\n      swap1\n      pop\n        /* \"--CODEGEN--\":29125:29188   */\n      swap2\n      swap1\n      pop\n      jump\n        /* \"--CODEGEN--\":29195:29328   */\n    tag_337:\n      0x00\n        /* \"--CODEGEN--\":29318:29322   */\n      0x20\n        /* \"--CODEGEN--\":29313:29316   */\n      dup3\n        /* \"--CODEGEN--\":29309:29323   */\n      add\n        /* \"--CODEGEN--\":29301:29323   */\n      swap1\n      pop\n        /* \"--CODEGEN--\":29295:29328   */\n      swap2\n      swap1\n      pop\n      jump\n        /* \"--CODEGEN--\":29335:29462   */\n    tag_350:\n      0x00\n        /* \"--CODEGEN--\":29452:29456   */\n      0x20\n        /* \"--CODEGEN--\":29447:29450   */\n      dup3\n        /* \"--CODEGEN--\":29443:29457   */\n      add\n        /* \"--CODEGEN--\":29435:29457   */\n      swap1\n      pop\n        /* \"--CODEGEN--\":29429:29462   */\n      swap2\n      swap1\n      pop\n      jump\n        /* \"--CODEGEN--\":29469:29599   */\n    tag_363:\n      0x00\n        /* \"--CODEGEN--\":29589:29593   */\n      0x20\n        /* \"--CODEGEN--\":29584:29587   */\n      dup3\n        /* \"--CODEGEN--\":29580:29594   */\n      add\n        /* \"--CODEGEN--\":29572:29594   */\n      swap1\n      pop\n        /* \"--CODEGEN--\":29566:29599   */\n      swap2\n      swap1\n      pop\n      jump\n        /* \"--CODEGEN--\":29606:29734   */\n    tag_376:\n      0x00\n        /* \"--CODEGEN--\":29724:29728   */\n      0x20\n        /* \"--CODEGEN--\":29719:29722   */\n      dup3\n        /* \"--CODEGEN--\":29715:29729   */\n      add\n        /* \"--CODEGEN--\":29707:29729   */\n      swap1\n      pop\n        /* \"--CODEGEN--\":29701:29734   */\n      swap2\n      swap1\n      pop\n      jump\n        /* \"--CODEGEN--\":29741:29873   */\n    tag_389:\n      0x00\n        /* \"--CODEGEN--\":29863:29867   */\n      0x20\n        /* \"--CODEGEN--\":29858:29861   */\n      dup3\n        /* \"--CODEGEN--\":29854:29868   */\n      add\n        /* \"--CODEGEN--\":29846:29868   */\n      swap1\n      pop\n        /* \"--CODEGEN--\":29840:29873   */\n      swap2\n      swap1\n      pop\n      jump\n        /* \"--CODEGEN--\":29881:30078   */\n    tag_329:\n      0x00\n        /* \"--CODEGEN--\":30030:30036   */\n      dup3\n        /* \"--CODEGEN--\":30025:30028   */\n      dup3\n        /* \"--CODEGEN--\":30018:30037   */\n      mstore\n        /* \"--CODEGEN--\":30067:30071   */\n      0x20\n        /* \"--CODEGEN--\":30062:30065   */\n      dup3\n        /* \"--CODEGEN--\":30058:30072   */\n      add\n        /* \"--CODEGEN--\":30043:30072   */\n      swap1\n      pop\n        /* \"--CODEGEN--\":30011:30078   */\n      swap3\n      swap2\n      pop\n      pop\n      jump\n        /* \"--CODEGEN--\":30087:30284   */\n    tag_342:\n      0x00\n        /* \"--CODEGEN--\":30236:30242   */\n      dup3\n        /* \"--CODEGEN--\":30231:30234   */\n      dup3\n        /* \"--CODEGEN--\":30224:30243   */\n      mstore\n        /* \"--CODEGEN--\":30273:30277   */\n      0x20\n        /* \"--CODEGEN--\":30268:30271   */\n      dup3\n        /* \"--CODEGEN--\":30264:30278   */\n      add\n        /* \"--CODEGEN--\":30249:30278   */\n      swap1\n      pop\n        /* \"--CODEGEN--\":30217:30284   */\n      swap3\n      swap2\n      pop\n      pop\n      jump\n        /* \"--CODEGEN--\":30293:30487   */\n    tag_355:\n      0x00\n        /* \"--CODEGEN--\":30439:30445   */\n      dup3\n        /* \"--CODEGEN--\":30434:30437   */\n      dup3\n        /* \"--CODEGEN--\":30427:30446   */\n      mstore\n        /* \"--CODEGEN--\":30476:30480   */\n      0x20\n        /* \"--CODEGEN--\":30471:30474   */\n      dup3\n        /* \"--CODEGEN--\":30467:30481   */\n      add\n        /* \"--CODEGEN--\":30452:30481   */\n      swap1\n      pop\n        /* \"--CODEGEN--\":30420:30487   */\n      swap3\n      swap2\n      pop\n      pop\n      jump\n        /* \"--CODEGEN--\":30496:30688   */\n    tag_368:\n      0x00\n        /* \"--CODEGEN--\":30640:30646   */\n      dup3\n        /* \"--CODEGEN--\":30635:30638   */\n      dup3\n        /* \"--CODEGEN--\":30628:30647   */\n      mstore\n        /* \"--CODEGEN--\":30677:30681   */\n      0x20\n        /* \"--CODEGEN--\":30672:30675   */\n      dup3\n        /* \"--CODEGEN--\":30668:30682   */\n      add\n        /* \"--CODEGEN--\":30653:30682   */\n      swap1\n      pop\n        /* \"--CODEGEN--\":30621:30688   */\n      swap3\n      swap2\n      pop\n      pop\n      jump\n        /* \"--CODEGEN--\":30697:30893   */\n    tag_381:\n      0x00\n        /* \"--CODEGEN--\":30845:30851   */\n      dup3\n        /* \"--CODEGEN--\":30840:30843   */\n      dup3\n        /* \"--CODEGEN--\":30833:30852   */\n      mstore\n        /* \"--CODEGEN--\":30882:30886   */\n      0x20\n        /* \"--CODEGEN--\":30877:30880   */\n      dup3\n        /* \"--CODEGEN--\":30873:30887   */\n      add\n        /* \"--CODEGEN--\":30858:30887   */\n      swap1\n      pop\n        /* \"--CODEGEN--\":30826:30893   */\n      swap3\n      swap2\n      pop\n      pop\n      jump\n        /* \"--CODEGEN--\":30902:31055   */\n    tag_399:\n      0x00\n        /* \"--CODEGEN--\":31007:31013   */\n      dup3\n        /* \"--CODEGEN--\":31002:31005   */\n      dup3\n        /* \"--CODEGEN--\":30995:31014   */\n      mstore\n        /* \"--CODEGEN--\":31044:31048   */\n      0x20\n        /* \"--CODEGEN--\":31039:31042   */\n      dup3\n        /* \"--CODEGEN--\":31035:31049   */\n      add\n        /* \"--CODEGEN--\":31020:31049   */\n      swap1\n      pop\n        /* \"--CODEGEN--\":30988:31055   */\n      swap3\n      swap2\n      pop\n      pop\n      jump\n        /* \"--CODEGEN--\":31064:31227   */\n    tag_407:\n      0x00\n        /* \"--CODEGEN--\":31179:31185   */\n      dup3\n        /* \"--CODEGEN--\":31174:31177   */\n      dup3\n        /* \"--CODEGEN--\":31167:31186   */\n      mstore\n        /* \"--CODEGEN--\":31216:31220   */\n      0x20\n        /* \"--CODEGEN--\":31211:31214   */\n      dup3\n        /* \"--CODEGEN--\":31207:31221   */\n      add\n        /* \"--CODEGEN--\":31192:31221   */\n      swap1\n      pop\n        /* \"--CODEGEN--\":31160:31227   */\n      swap3\n      swap2\n      pop\n      pop\n      jump\n        /* \"--CODEGEN--\":31235:31326   */\n    tag_324:\n      0x00\n        /* \"--CODEGEN--\":31297:31321   */\n      tag_482\n        /* \"--CODEGEN--\":31315:31320   */\n      dup3\n        /* \"--CODEGEN--\":31297:31321   */\n      jump(tag_483)\n    tag_482:\n        /* \"--CODEGEN--\":31286:31321   */\n      swap1\n      pop\n        /* \"--CODEGEN--\":31280:31326   */\n      swap2\n      swap1\n      pop\n      jump\n        /* \"--CODEGEN--\":31333:31418   */\n    tag_392:\n      0x00\n        /* \"--CODEGEN--\":31406:31411   */\n      dup2\n        /* \"--CODEGEN--\":31399:31412   */\n      iszero\n        /* \"--CODEGEN--\":31392:31413   */\n      iszero\n        /* \"--CODEGEN--\":31381:31413   */\n      swap1\n      pop\n        /* \"--CODEGEN--\":31375:31418   */\n      swap2\n      swap1\n      pop\n      jump\n        /* \"--CODEGEN--\":31425:31546   */\n    tag_483:\n      0x00\n        /* \"--CODEGEN--\":31498:31540   */\n      0xffffffffffffffffffffffffffffffffffffffff\n        /* \"--CODEGEN--\":31491:31496   */\n      dup3\n        /* \"--CODEGEN--\":31487:31541   */\n      and\n        /* \"--CODEGEN--\":31476:31541   */\n      swap1\n      pop\n        /* \"--CODEGEN--\":31470:31546   */\n      swap2\n      swap1\n      pop\n      jump\n        /* \"--CODEGEN--\":31553:31625   */\n    tag_466:\n      0x00\n        /* \"--CODEGEN--\":31615:31620   */\n      dup2\n        /* \"--CODEGEN--\":31604:31620   */\n      swap1\n      pop\n        /* \"--CODEGEN--\":31598:31625   */\n      swap2\n      swap1\n      pop\n      jump\n        /* \"--CODEGEN--\":31633:31778   */\n    tag_298:\n        /* \"--CODEGEN--\":31714:31720   */\n      dup3\n        /* \"--CODEGEN--\":31709:31712   */\n      dup2\n        /* \"--CODEGEN--\":31704:31707   */\n      dup4\n        /* \"--CODEGEN--\":31691:31721   */\n      calldatacopy\n        /* \"--CODEGEN--\":31770:31771   */\n      0x00\n        /* \"--CODEGEN--\":31761:31767   */\n      dup4\n        /* \"--CODEGEN--\":31756:31759   */\n      dup4\n        /* \"--CODEGEN--\":31752:31768   */\n      add\n        /* \"--CODEGEN--\":31745:31772   */\n      mstore\n        /* \"--CODEGEN--\":31684:31778   */\n      pop\n      pop\n      pop\n      jump\n        /* \"--CODEGEN--\":31787:32055   */\n    tag_401:\n        /* \"--CODEGEN--\":31852:31853   */\n      0x00\n        /* \"--CODEGEN--\":31859:31960   */\n    tag_484:\n        /* \"--CODEGEN--\":31873:31879   */\n      dup4\n        /* \"--CODEGEN--\":31870:31871   */\n      dup2\n        /* \"--CODEGEN--\":31867:31880   */\n      lt\n        /* \"--CODEGEN--\":31859:31960   */\n      iszero\n      tag_486\n      jumpi\n        /* \"--CODEGEN--\":31949:31950   */\n      dup1\n        /* \"--CODEGEN--\":31944:31947   */\n      dup3\n        /* \"--CODEGEN--\":31940:31951   */\n      add\n        /* \"--CODEGEN--\":31934:31952   */\n      mload\n        /* \"--CODEGEN--\":31930:31931   */\n      dup2\n        /* \"--CODEGEN--\":31925:31928   */\n      dup5\n        /* \"--CODEGEN--\":31921:31932   */\n      add\n        /* \"--CODEGEN--\":31914:31953   */\n      mstore\n        /* \"--CODEGEN--\":31895:31897   */\n      0x20\n        /* \"--CODEGEN--\":31892:31893   */\n      dup2\n        /* \"--CODEGEN--\":31888:31898   */\n      add\n        /* \"--CODEGEN--\":31883:31898   */\n      swap1\n      pop\n        /* \"--CODEGEN--\":31859:31960   */\n      jump(tag_484)\n    tag_486:\n        /* \"--CODEGEN--\":31975:31981   */\n      dup4\n        /* \"--CODEGEN--\":31972:31973   */\n      dup2\n        /* \"--CODEGEN--\":31969:31982   */\n      gt\n        /* \"--CODEGEN--\":31966:31968   */\n      iszero\n      tag_487\n      jumpi\n        /* \"--CODEGEN--\":32040:32041   */\n      0x00\n        /* \"--CODEGEN--\":32031:32037   */\n      dup5\n        /* \"--CODEGEN--\":32026:32029   */\n      dup5\n        /* \"--CODEGEN--\":32022:32038   */\n      add\n        /* \"--CODEGEN--\":32015:32042   */\n      mstore\n        /* \"--CODEGEN--\":31966:31968   */\n    tag_487:\n        /* \"--CODEGEN--\":31836:32055   */\n      pop\n      pop\n      pop\n      pop\n      jump\n        /* \"--CODEGEN--\":32063:32160   */\n    tag_403:\n      0x00\n        /* \"--CODEGEN--\":32151:32153   */\n      0x1f\n        /* \"--CODEGEN--\":32147:32154   */\n      not\n        /* \"--CODEGEN--\":32142:32144   */\n      0x1f\n        /* \"--CODEGEN--\":32135:32140   */\n      dup4\n        /* \"--CODEGEN--\":32131:32145   */\n      add\n        /* \"--CODEGEN--\":32127:32155   */\n      and\n        /* \"--CODEGEN--\":32117:32155   */\n      swap1\n      pop\n        /* \"--CODEGEN--\":32111:32160   */\n      swap2\n      swap1\n      pop\n      jump\n        /* \"--CODEGEN--\":32168:32285   */\n    tag_301:\n        /* \"--CODEGEN--\":32237:32261   */\n      tag_488\n        /* \"--CODEGEN--\":32255:32260   */\n      dup2\n        /* \"--CODEGEN--\":32237:32261   */\n      jump(tag_466)\n    tag_488:\n        /* \"--CODEGEN--\":32230:32235   */\n      dup2\n        /* \"--CODEGEN--\":32227:32262   */\n      eq\n        /* \"--CODEGEN--\":32217:32219   */\n      tag_489\n      jumpi\n        /* \"--CODEGEN--\":32276:32277   */\n      0x00\n        /* \"--CODEGEN--\":32273:32274   */\n      dup1\n        /* \"--CODEGEN--\":32266:32278   */\n      revert\n        /* \"--CODEGEN--\":32217:32219   */\n    tag_489:\n        /* \"--CODEGEN--\":32211:32285   */\n      pop\n      jump\n\n    auxdata: 0xa365627a7a723158206d2adef8fce60ca010fc875f8730b9381d97eb262e28151cd9dd2b150feccc466c6578706572696d656e74616cf564736f6c63430005100040\n}\n\nsub_1: assembly {\n        /* \"contracts/DSD/RoleAccessControl.sol\":59:233  contract RoleAccessControl{\r... */\n      mstore(0x40, 0x80)\n      callvalue\n        /* \"--CODEGEN--\":8:17   */\n      dup1\n        /* \"--CODEGEN--\":5:7   */\n      iszero\n      tag_1\n      jumpi\n        /* \"--CODEGEN--\":30:31   */\n      0x00\n        /* \"--CODEGEN--\":27:28   */\n      dup1\n        /* \"--CODEGEN--\":20:32   */\n      revert\n        /* \"--CODEGEN--\":5:7   */\n    tag_1:\n        /* \"contracts/DSD/RoleAccessControl.sol\":59:233  contract RoleAccessControl{\r... */\n      pop\n      dataSize(sub_0)\n      dup1\n      dataOffset(sub_0)\n      0x00\n      codecopy\n      0x00\n      return\n    stop\n\n    sub_0: assembly {\n            /* \"contracts/DSD/RoleAccessControl.sol\":59:233  contract RoleAccessControl{\r... */\n          mstore(0x40, 0x80)\n          0x00\n          dup1\n          revert\n\n        auxdata: 0xa265627a7a72315820d9c2aa864e6128c16d7bd4c0bad9936e99dce67b3c08ad7a4eacbf90e8d10a3664736f6c63430005100032\n    }\n}\n",
				"bytecode": {
					"linkReferences": {},
					"object": "608060405261c3506000553480156200001757600080fd5b50600060405162000028906200004f565b604051809103906000f08015801562000045573d6000803e3d6000fd5b509050506200005c565b605b8062003e9b83390190565b613e2f806200006c6000396000f3fe608060405234801561001057600080fd5b506004361061009e5760003560e01c80639673d6a3116100665780639673d6a314610187578063b536cbfa146101b9578063c17e7295146101eb578063caa6cfc11461021e578063f087c8eb146102515761009e565b80632e0cf740146100a3578063332bc3da146100d457806350f3fc811461010657806360f5b692146101385780636614aa8e14610169575b600080fd5b6100bd60048036036100b891908101906130e6565b610283565b6040516100cb929190613a6e565b60405180910390f35b6100ee60048036036100e99190810190613127565b6103ed565b6040516100fd93929190613aa5565b60405180910390f35b610120600480360361011b9190810190613127565b610561565b60405161012f93929190613aea565b60405180910390f35b610152600480360361014d9190810190613127565b610753565b604051610160929190613a6e565b60405180910390f35b6101716108b4565b60405161017e9190613a4c565b60405180910390f35b6101a1600480360361019c91908101906130e6565b61244e565b6040516101b093929190613aea565b60405180910390f35b6101d360048036036101ce91908101906130e6565b612656565b6040516101e293929190613aa5565b60405180910390f35b610205600480360361020091908101906130e6565b6127d3565b6040516102159493929190613b36565b60405180910390f35b61023860048036036102339190810190613127565b612a79565b6040516102489493929190613b36565b60405180910390f35b61026b60048036036102669190810190613127565b612d16565b60405161027a93929190613aea565b60405180910390f35b600381805160208101820180518482526020830160208501208183528095505050505050600091509050806000018054600181600116156101000203166002900480601f0160208091040260200160405190810160405280929190818152602001828054600181600116156101000203166002900480156103455780601f1061031a57610100808354040283529160200191610345565b820191906000526020600020905b81548152906001019060200180831161032857829003601f168201915b505050505090806001018054600181600116156101000203166002900480601f0160208091040260200160405190810160405280929190818152602001828054600181600116156101000203166002900480156103e35780601f106103b8576101008083540402835291602001916103e3565b820191906000526020600020905b8154815290600101906020018083116103c657829003601f168201915b5050505050905082565b600581815481106103fa57fe5b9060005260206000209060030201600091509050806000018054600181600116156101000203166002900480601f0160208091040260200160405190810160405280929190818152602001828054600181600116156101000203166002900480156104a65780601f1061047b576101008083540402835291602001916104a6565b820191906000526020600020905b81548152906001019060200180831161048957829003601f168201915b505050505090806001018054600181600116156101000203166002900480601f0160208091040260200160405190810160405280929190818152602001828054600181600116156101000203166002900480156105445780601f1061051957610100808354040283529160200191610544565b820191906000526020600020905b81548152906001019060200180831161052757829003601f168201915b5050505050908060020160009054906101000a900460ff16905083565b6001602052806000526040600020600091509050806000018054600181600116156101000203166002900480601f01602080910402602001604051908101604052809291908181526020018280546001816001161561010002031660029004801561060d5780601f106105e25761010080835404028352916020019161060d565b820191906000526020600020905b8154815290600101906020018083116105f057829003601f168201915b505050505090806001018054600181600116156101000203166002900480601f0160208091040260200160405190810160405280929190818152602001828054600181600116156101000203166002900480156106ab5780601f10610680576101008083540402835291602001916106ab565b820191906000526020600020905b81548152906001019060200180831161068e57829003601f168201915b505050505090806002018054600181600116156101000203166002900480601f0160208091040260200160405190810160405280929190818152602001828054600181600116156101000203166002900480156107495780601f1061071e57610100808354040283529160200191610749565b820191906000526020600020905b81548152906001019060200180831161072c57829003601f168201915b5050505050905083565b6004818154811061076057fe5b9060005260206000209060020201600091509050806000018054600181600116156101000203166002900480601f01602080910402602001604051908101604052809291908181526020018280546001816001161561010002031660029004801561080c5780601f106107e15761010080835404028352916020019161080c565b820191906000526020600020905b8154815290600101906020018083116107ef57829003601f168201915b505050505090806001018054600181600116156101000203166002900480601f0160208091040260200160405190810160405280929190818152602001828054600181600116156101000203166002900480156108aa5780601f1061087f576101008083540402835291602001916108aa565b820191906000526020600020905b81548152906001019060200180831161088d57829003601f168201915b5050505050905082565b6060600080905060606000546040519080825280602002602001820160405280156108f957816020015b6108e6612f15565b8152602001906001900390816108de5790505b5090505b600054821015612446576000600a6000848152602001908152602001600020905080604051806080016040529081600082015481526020016001820160405180604001604052908160008201805480602002602001604051908101604052809291908181526020016000905b82821015610d3f5783829060005260206000209060040201604051806080016040529081600082018054600181600116156101000203166002900480601f016020809104026020016040519081016040528092919081815260200182805460018160011615610100020316600290048015610a255780601f106109fa57610100808354040283529160200191610a25565b820191906000526020600020905b815481529060010190602001808311610a0857829003601f168201915b50505050508152602001600182018054600181600116156101000203166002900480601f016020809104026020016040519081016040528092919081815260200182805460018160011615610100020316600290048015610ac75780601f10610a9c57610100808354040283529160200191610ac7565b820191906000526020600020905b815481529060010190602001808311610aaa57829003601f168201915b50505050508152602001600282018054600181600116156101000203166002900480601f016020809104026020016040519081016040528092919081815260200182805460018160011615610100020316600290048015610b695780601f10610b3e57610100808354040283529160200191610b69565b820191906000526020600020905b815481529060010190602001808311610b4c57829003601f168201915b5050505050815260200160038201805480602002602001604051908101604052809291908181526020016000905b82821015610d285783829060005260206000209060030201604051806060016040529081600082018054600181600116156101000203166002900480601f016020809104026020016040519081016040528092919081815260200182805460018160011615610100020316600290048015610c535780601f10610c2857610100808354040283529160200191610c53565b820191906000526020600020905b815481529060010190602001808311610c3657829003601f168201915b50505050508152602001600182018054600181600116156101000203166002900480601f016020809104026020016040519081016040528092919081815260200182805460018160011615610100020316600290048015610cf55780601f10610cca57610100808354040283529160200191610cf5565b820191906000526020600020905b815481529060010190602001808311610cd857829003601f168201915b505050505081526020016002820160009054906101000a900460ff16151515158152505081526020019060010190610b97565b505050508152505081526020019060010190610969565b50505050815260200160018201805480602002602001604051908101604052809291908181526020016000905b828210156111c957838290600052602060002090600502016040518060a0016040529081600082018054600181600116156101000203166002900480601f016020809104026020016040519081016040528092919081815260200182805460018160011615610100020316600290048015610e285780601f10610dfd57610100808354040283529160200191610e28565b820191906000526020600020905b815481529060010190602001808311610e0b57829003601f168201915b50505050508152602001600182018054600181600116156101000203166002900480601f016020809104026020016040519081016040528092919081815260200182805460018160011615610100020316600290048015610eca5780601f10610e9f57610100808354040283529160200191610eca565b820191906000526020600020905b815481529060010190602001808311610ead57829003601f168201915b50505050508152602001600282018054600181600116156101000203166002900480601f016020809104026020016040519081016040528092919081815260200182805460018160011615610100020316600290048015610f6c5780601f10610f4157610100808354040283529160200191610f6c565b820191906000526020600020905b815481529060010190602001808311610f4f57829003601f168201915b50505050508152602001600382018054600181600116156101000203166002900480601f01602080910402602001604051908101604052809291908181526020018280546001816001161561010002031660029004801561100e5780601f10610fe35761010080835404028352916020019161100e565b820191906000526020600020905b815481529060010190602001808311610ff157829003601f168201915b5050505050815260200160048201805480602002602001604051908101604052809291908181526020016000905b828210156111b25783829060005260206000209060020201604051806040016040529081600082018054600181600116156101000203166002900480601f0160208091040260200160405190810160405280929190818152602001828054600181600116156101000203166002900480156110f85780601f106110cd576101008083540402835291602001916110f8565b820191906000526020600020905b8154815290600101906020018083116110db57829003601f168201915b50505050508152602001600182018054600181600116156101000203166002900480601f01602080910402602001604051908101604052809291908181526020018280546001816001161561010002031660029004801561119a5780601f1061116f5761010080835404028352916020019161119a565b820191906000526020600020905b81548152906001019060200180831161117d57829003601f168201915b5050505050815250508152602001906001019061103c565b505050508152505081526020019060010190610d6c565b50505050815250508152602001600382016040518060c0016040529081600082018054600181600116156101000203166002900480601f01602080910402602001604051908101604052809291908181526020018280546001816001161561010002031660029004801561127e5780601f106112535761010080835404028352916020019161127e565b820191906000526020600020905b81548152906001019060200180831161126157829003601f168201915b50505050508152602001600182018054600181600116156101000203166002900480601f0160208091040260200160405190810160405280929190818152602001828054600181600116156101000203166002900480156113205780601f106112f557610100808354040283529160200191611320565b820191906000526020600020905b81548152906001019060200180831161130357829003601f168201915b50505050508152602001600282018054600181600116156101000203166002900480601f0160208091040260200160405190810160405280929190818152602001828054600181600116156101000203166002900480156113c25780601f10611397576101008083540402835291602001916113c2565b820191906000526020600020905b8154815290600101906020018083116113a557829003601f168201915b50505050508152602001600382018054600181600116156101000203166002900480601f0160208091040260200160405190810160405280929190818152602001828054600181600116156101000203166002900480156114645780601f1061143957610100808354040283529160200191611464565b820191906000526020600020905b81548152906001019060200180831161144757829003601f168201915b50505050508152602001600482018054600181600116156101000203166002900480601f0160208091040260200160405190810160405280929190818152602001828054600181600116156101000203166002900480156115065780601f106114db57610100808354040283529160200191611506565b820191906000526020600020905b8154815290600101906020018083116114e957829003601f168201915b505050505081526020016005820160009054906101000a900473ffffffffffffffffffffffffffffffffffffffff1673ffffffffffffffffffffffffffffffffffffffff1673ffffffffffffffffffffffffffffffffffffffff1681525050815260200160098201604051806101e0016040529081600082018054600181600116156101000203166002900480601f0160208091040260200160405190810160405280929190818152602001828054600181600116156101000203166002900480156116135780601f106115e857610100808354040283529160200191611613565b820191906000526020600020905b8154815290600101906020018083116115f657829003601f168201915b50505050508152602001600182018054600181600116156101000203166002900480601f0160208091040260200160405190810160405280929190818152602001828054600181600116156101000203166002900480156116b55780601f1061168a576101008083540402835291602001916116b5565b820191906000526020600020905b81548152906001019060200180831161169857829003601f168201915b50505050508152602001600282018054600181600116156101000203166002900480601f0160208091040260200160405190810160405280929190818152602001828054600181600116156101000203166002900480156117575780601f1061172c57610100808354040283529160200191611757565b820191906000526020600020905b81548152906001019060200180831161173a57829003601f168201915b50505050508152602001600382018054600181600116156101000203166002900480601f0160208091040260200160405190810160405280929190818152602001828054600181600116156101000203166002900480156117f95780601f106117ce576101008083540402835291602001916117f9565b820191906000526020600020905b8154815290600101906020018083116117dc57829003601f168201915b50505050508152602001600482018054600181600116156101000203166002900480601f01602080910402602001604051908101604052809291908181526020018280546001816001161561010002031660029004801561189b5780601f106118705761010080835404028352916020019161189b565b820191906000526020600020905b81548152906001019060200180831161187e57829003601f168201915b50505050508152602001600582018054600181600116156101000203166002900480601f01602080910402602001604051908101604052809291908181526020018280546001816001161561010002031660029004801561193d5780601f106119125761010080835404028352916020019161193d565b820191906000526020600020905b81548152906001019060200180831161192057829003601f168201915b50505050508152602001600682018054600181600116156101000203166002900480601f0160208091040260200160405190810160405280929190818152602001828054600181600116156101000203166002900480156119df5780601f106119b4576101008083540402835291602001916119df565b820191906000526020600020905b8154815290600101906020018083116119c257829003601f168201915b50505050508152602001600782018054600181600116156101000203166002900480601f016020809104026020016040519081016040528092919081815260200182805460018160011615610100020316600290048015611a815780601f10611a5657610100808354040283529160200191611a81565b820191906000526020600020905b815481529060010190602001808311611a6457829003601f168201915b50505050508152602001600882018054600181600116156101000203166002900480601f016020809104026020016040519081016040528092919081815260200182805460018160011615610100020316600290048015611b235780601f10611af857610100808354040283529160200191611b23565b820191906000526020600020905b815481529060010190602001808311611b0657829003601f168201915b50505050508152602001600982018054600181600116156101000203166002900480601f016020809104026020016040519081016040528092919081815260200182805460018160011615610100020316600290048015611bc55780601f10611b9a57610100808354040283529160200191611bc5565b820191906000526020600020905b815481529060010190602001808311611ba857829003601f168201915b50505050508152602001600a82018054600181600116156101000203166002900480601f016020809104026020016040519081016040528092919081815260200182805460018160011615610100020316600290048015611c675780601f10611c3c57610100808354040283529160200191611c67565b820191906000526020600020905b815481529060010190602001808311611c4a57829003601f168201915b50505050508152602001600b82018054600181600116156101000203166002900480601f016020809104026020016040519081016040528092919081815260200182805460018160011615610100020316600290048015611d095780601f10611cde57610100808354040283529160200191611d09565b820191906000526020600020905b815481529060010190602001808311611cec57829003601f168201915b50505050508152602001600c82018054600181600116156101000203166002900480601f016020809104026020016040519081016040528092919081815260200182805460018160011615610100020316600290048015611dab5780601f10611d8057610100808354040283529160200191611dab565b820191906000526020600020905b815481529060010190602001808311611d8e57829003601f168201915b50505050508152602001600d82018054600181600116156101000203166002900480601f016020809104026020016040519081016040528092919081815260200182805460018160011615610100020316600290048015611e4d5780601f10611e2257610100808354040283529160200191611e4d565b820191906000526020600020905b815481529060010190602001808311611e3057829003601f168201915b50505050508152602001600e820160405180610120016040529081600082018054600181600116156101000203166002900480601f016020809104026020016040519081016040528092919081815260200182805460018160011615610100020316600290048015611f005780601f10611ed557610100808354040283529160200191611f00565b820191906000526020600020905b815481529060010190602001808311611ee357829003601f168201915b50505050508152602001600182018054600181600116156101000203166002900480601f016020809104026020016040519081016040528092919081815260200182805460018160011615610100020316600290048015611fa25780601f10611f7757610100808354040283529160200191611fa2565b820191906000526020600020905b815481529060010190602001808311611f8557829003601f168201915b50505050508152602001600282018054600181600116156101000203166002900480601f0160208091040260200160405190810160405280929190818152602001828054600181600116156101000203166002900480156120445780601f1061201957610100808354040283529160200191612044565b820191906000526020600020905b81548152906001019060200180831161202757829003601f168201915b50505050508152602001600382018054600181600116156101000203166002900480601f0160208091040260200160405190810160405280929190818152602001828054600181600116156101000203166002900480156120e65780601f106120bb576101008083540402835291602001916120e6565b820191906000526020600020905b8154815290600101906020018083116120c957829003601f168201915b50505050508152602001600482018054600181600116156101000203166002900480601f0160208091040260200160405190810160405280929190818152602001828054600181600116156101000203166002900480156121885780601f1061215d57610100808354040283529160200191612188565b820191906000526020600020905b81548152906001019060200180831161216b57829003601f168201915b50505050508152602001600582018054600181600116156101000203166002900480601f01602080910402602001604051908101604052809291908181526020018280546001816001161561010002031660029004801561222a5780601f106121ff5761010080835404028352916020019161222a565b820191906000526020600020905b81548152906001019060200180831161220d57829003601f168201915b50505050508152602001600682018054600181600116156101000203166002900480601f0160208091040260200160405190810160405280929190818152602001828054600181600116156101000203166002900480156122cc5780601f106122a1576101008083540402835291602001916122cc565b820191906000526020600020905b8154815290600101906020018083116122af57829003601f168201915b50505050508152602001600782018054600181600116156101000203166002900480601f01602080910402602001604051908101604052809291908181526020018280546001816001161561010002031660029004801561236e5780601f106123435761010080835404028352916020019161236e565b820191906000526020600020905b81548152906001019060200180831161235157829003601f168201915b50505050508152602001600882018054600181600116156101000203166002900480601f0160208091040260200160405190810160405280929190818152602001828054600181600116156101000203166002900480156124105780601f106123e557610100808354040283529160200191612410565b820191906000526020600020905b8154815290600101906020018083116123f357829003601f168201915b505050505081525050815250508152505082848151811061242d57fe5b60200260200101819052505081806001019250506108fd565b809250505090565b600681805160208101820180518482526020830160208501208183528095505050505050600091509050806000018054600181600116156101000203166002900480601f0160208091040260200160405190810160405280929190818152602001828054600181600116156101000203166002900480156125105780601f106124e557610100808354040283529160200191612510565b820191906000526020600020905b8154815290600101906020018083116124f357829003601f168201915b505050505090806001018054600181600116156101000203166002900480601f0160208091040260200160405190810160405280929190818152602001828054600181600116156101000203166002900480156125ae5780601f10612583576101008083540402835291602001916125ae565b820191906000526020600020905b81548152906001019060200180831161259157829003601f168201915b505050505090806002018054600181600116156101000203166002900480601f01602080910402602001604051908101604052809291908181526020018280546001816001161561010002031660029004801561264c5780601f106126215761010080835404028352916020019161264c565b820191906000526020600020905b81548152906001019060200180831161262f57829003601f168201915b5050505050905083565b600281805160208101820180518482526020830160208501208183528095505050505050600091509050806000018054600181600116156101000203166002900480601f0160208091040260200160405190810160405280929190818152602001828054600181600116156101000203166002900480156127185780601f106126ed57610100808354040283529160200191612718565b820191906000526020600020905b8154815290600101906020018083116126fb57829003601f168201915b505050505090806001018054600181600116156101000203166002900480601f0160208091040260200160405190810160405280929190818152602001828054600181600116156101000203166002900480156127b65780601f1061278b576101008083540402835291602001916127b6565b820191906000526020600020905b81548152906001019060200180831161279957829003601f168201915b5050505050908060020160009054906101000a900460ff16905083565b600781805160208101820180518482526020830160208501208183528095505050505050600091509050806000018054600181600116156101000203166002900480601f0160208091040260200160405190810160405280929190818152602001828054600181600116156101000203166002900480156128955780601f1061286a57610100808354040283529160200191612895565b820191906000526020600020905b81548152906001019060200180831161287857829003601f168201915b505050505090806001018054600181600116156101000203166002900480601f0160208091040260200160405190810160405280929190818152602001828054600181600116156101000203166002900480156129335780601f1061290857610100808354040283529160200191612933565b820191906000526020600020905b81548152906001019060200180831161291657829003601f168201915b505050505090806002018054600181600116156101000203166002900480601f0160208091040260200160405190810160405280929190818152602001828054600181600116156101000203166002900480156129d15780601f106129a6576101008083540402835291602001916129d1565b820191906000526020600020905b8154815290600101906020018083116129b457829003601f168201915b505050505090806003018054600181600116156101000203166002900480601f016020809104026020016040519081016040528092919081815260200182805460018160011615610100020316600290048015612a6f5780601f10612a4457610100808354040283529160200191612a6f565b820191906000526020600020905b815481529060010190602001808311612a5257829003601f168201915b5050505050905084565b60098181548110612a8657fe5b9060005260206000209060050201600091509050806000018054600181600116156101000203166002900480601f016020809104026020016040519081016040528092919081815260200182805460018160011615610100020316600290048015612b325780601f10612b0757610100808354040283529160200191612b32565b820191906000526020600020905b815481529060010190602001808311612b1557829003601f168201915b505050505090806001018054600181600116156101000203166002900480601f016020809104026020016040519081016040528092919081815260200182805460018160011615610100020316600290048015612bd05780601f10612ba557610100808354040283529160200191612bd0565b820191906000526020600020905b815481529060010190602001808311612bb357829003601f168201915b505050505090806002018054600181600116156101000203166002900480601f016020809104026020016040519081016040528092919081815260200182805460018160011615610100020316600290048015612c6e5780601f10612c4357610100808354040283529160200191612c6e565b820191906000526020600020905b815481529060010190602001808311612c5157829003601f168201915b505050505090806003018054600181600116156101000203166002900480601f016020809104026020016040519081016040528092919081815260200182805460018160011615610100020316600290048015612d0c5780601f10612ce157610100808354040283529160200191612d0c565b820191906000526020600020905b815481529060010190602001808311612cef57829003601f168201915b5050505050905084565b60088181548110612d2357fe5b9060005260206000209060040201600091509050806000018054600181600116156101000203166002900480601f016020809104026020016040519081016040528092919081815260200182805460018160011615610100020316600290048015612dcf5780601f10612da457610100808354040283529160200191612dcf565b820191906000526020600020905b815481529060010190602001808311612db257829003601f168201915b505050505090806001018054600181600116156101000203166002900480601f016020809104026020016040519081016040528092919081815260200182805460018160011615610100020316600290048015612e6d5780601f10612e4257610100808354040283529160200191612e6d565b820191906000526020600020905b815481529060010190602001808311612e5057829003601f168201915b505050505090806002018054600181600116156101000203166002900480601f016020809104026020016040519081016040528092919081815260200182805460018160011615610100020316600290048015612f0b5780601f10612ee057610100808354040283529160200191612f0b565b820191906000526020600020905b815481529060010190602001808311612eee57829003601f168201915b5050505050905083565b604051806080016040528060008152602001612f2f612f4f565b8152602001612f3c612f69565b8152602001612f49612fb5565b81525090565b604051806040016040528060608152602001606081525090565b6040518060c001604052806060815260200160608152602001606081526020016060815260200160608152602001600073ffffffffffffffffffffffffffffffffffffffff1681525090565b604051806101e00160405280606081526020016060815260200160608152602001606081526020016060815260200160608152602001606081526020016060815260200160608152602001606081526020016060815260200160608152602001606081526020016060815260200161302b613031565b81525090565b6040518061012001604052806060815260200160608152602001606081526020016060815260200160608152602001606081526020016060815260200160608152602001606081525090565b600082601f83011261308e57600080fd5b81356130a161309c82613bc4565b613b97565b915080825260208301602083018583830111156130bd57600080fd5b6130c8838284613d82565b50505092915050565b6000813590506130e081613dd5565b92915050565b6000602082840312156130f857600080fd5b600082013567ffffffffffffffff81111561311257600080fd5b61311e8482850161307d565b91505092915050565b60006020828403121561313957600080fd5b6000613147848285016130d1565b91505092915050565b600061315c8383613641565b905092915050565b600061317083836136c9565b905092915050565b600061318483836137df565b905092915050565b60006131988383613857565b905092915050565b60006131ac83836138ae565b905092915050565b6131bd81613d3a565b82525050565b60006131ce82613c40565b6131d88185613cc3565b9350836020820285016131ea85613bf0565b8060005b8581101561322657848403895281516132078582613150565b945061321283613c82565b925060208a019950506001810190506131ee565b50829750879550505050505092915050565b600061324382613c4b565b61324d8185613cd4565b93508360208202850161325f85613c00565b8060005b8581101561329b578484038952815161327c8582613164565b945061328783613c8f565b925060208a01995050600181019050613263565b50829750879550505050505092915050565b60006132b882613c56565b6132c28185613ce5565b9350836020820285016132d485613c10565b8060005b8581101561331057848403895281516132f18582613178565b94506132fc83613c9c565b925060208a019950506001810190506132d8565b50829750879550505050505092915050565b600061332d82613c61565b6133378185613cf6565b93508360208202850161334985613c20565b8060005b858110156133855784840389528151613366858261318c565b945061337183613ca9565b925060208a0199505060018101905061334d565b50829750879550505050505092915050565b60006133a282613c6c565b6133ac8185613d07565b9350836020820285016133be85613c30565b8060005b858110156133fa57848403895281516133db85826131a0565b94506133e683613cb6565b925060208a019950506001810190506133c2565b50829750879550505050505092915050565b61341581613d4c565b82525050565b61342481613d4c565b82525050565b600061343582613c77565b61343f8185613d18565b935061344f818560208601613d91565b61345881613dc4565b840191505092915050565b600061346e82613c77565b6134788185613d29565b9350613488818560208601613d91565b61349181613dc4565b840191505092915050565b60006101e08301600083015184820360008601526134ba828261342a565b915050602083015184820360208601526134d4828261342a565b915050604083015184820360408601526134ee828261342a565b91505060608301518482036060860152613508828261342a565b91505060808301518482036080860152613522828261342a565b91505060a083015184820360a086015261353c828261342a565b91505060c083015184820360c0860152613556828261342a565b91505060e083015184820360e0860152613570828261342a565b91505061010083015184820361010086015261358c828261342a565b9150506101208301518482036101208601526135a8828261342a565b9150506101408301518482036101408601526135c4828261342a565b9150506101608301518482036101608601526135e0828261342a565b9150506101808301518482036101808601526135fc828261342a565b9150506101a08301518482036101a0860152613618828261342a565b9150506101c08301518482036101c08601526136348282613940565b9150508091505092915050565b6000604083016000830151848203600086015261365e828261342a565b91505060208301518482036020860152613678828261342a565b9150508091505092915050565b600060408301600083015184820360008601526136a282826132ad565b915050602083015184820360208601526136bc8282613397565b9150508091505092915050565b60006080830160008301516136e16000860182613a3d565b50602083015184820360208601526136f98282613685565b91505060408301518482036040860152613713828261373a565b9150506060830151848203606086015261372d828261349c565b9150508091505092915050565b600060c0830160008301518482036000860152613757828261342a565b91505060208301518482036020860152613771828261342a565b9150506040830151848203604086015261378b828261342a565b915050606083015184820360608601526137a5828261342a565b915050608083015184820360808601526137bf828261342a565b91505060a08301516137d460a08601826131b4565b508091505092915050565b600060808301600083015184820360008601526137fc828261342a565b91505060208301518482036020860152613816828261342a565b91505060408301518482036040860152613830828261342a565b9150506060830151848203606086015261384a8282613322565b9150508091505092915050565b60006060830160008301518482036000860152613874828261342a565b9150506020830151848203602086015261388e828261342a565b91505060408301516138a3604086018261340c565b508091505092915050565b600060a08301600083015184820360008601526138cb828261342a565b915050602083015184820360208601526138e5828261342a565b915050604083015184820360408601526138ff828261342a565b91505060608301518482036060860152613919828261342a565b9150506080830151848203608086015261393382826131c3565b9150508091505092915050565b600061012083016000830151848203600086015261395e828261342a565b91505060208301518482036020860152613978828261342a565b91505060408301518482036040860152613992828261342a565b915050606083015184820360608601526139ac828261342a565b915050608083015184820360808601526139c6828261342a565b91505060a083015184820360a08601526139e0828261342a565b91505060c083015184820360c08601526139fa828261342a565b91505060e083015184820360e0860152613a14828261342a565b915050610100830151848203610100860152613a30828261342a565b9150508091505092915050565b613a4681613d78565b82525050565b60006020820190508181036000830152613a668184613238565b905092915050565b60006040820190508181036000830152613a888185613463565b90508181036020830152613a9c8184613463565b90509392505050565b60006060820190508181036000830152613abf8186613463565b90508181036020830152613ad38185613463565b9050613ae2604083018461341b565b949350505050565b60006060820190508181036000830152613b048186613463565b90508181036020830152613b188185613463565b90508181036040830152613b2c8184613463565b9050949350505050565b60006080820190508181036000830152613b508187613463565b90508181036020830152613b648186613463565b90508181036040830152613b788185613463565b90508181036060830152613b8c8184613463565b905095945050505050565b6000604051905081810181811067ffffffffffffffff82111715613bba57600080fd5b8060405250919050565b600067ffffffffffffffff821115613bdb57600080fd5b601f19601f8301169050602081019050919050565b6000819050602082019050919050565b6000819050602082019050919050565b6000819050602082019050919050565b6000819050602082019050919050565b6000819050602082019050919050565b600081519050919050565b600081519050919050565b600081519050919050565b600081519050919050565b600081519050919050565b600081519050919050565b6000602082019050919050565b6000602082019050919050565b6000602082019050919050565b6000602082019050919050565b6000602082019050919050565b600082825260208201905092915050565b600082825260208201905092915050565b600082825260208201905092915050565b600082825260208201905092915050565b600082825260208201905092915050565b600082825260208201905092915050565b600082825260208201905092915050565b6000613d4582613d58565b9050919050565b60008115159050919050565b600073ffffffffffffffffffffffffffffffffffffffff82169050919050565b6000819050919050565b82818337600083830152505050565b60005b83811015613daf578082015181840152602081019050613d94565b83811115613dbe576000848401525b50505050565b6000601f19601f8301169050919050565b613dde81613d78565b8114613de957600080fd5b5056fea365627a7a723158206d2adef8fce60ca010fc875f8730b9381d97eb262e28151cd9dd2b150feccc466c6578706572696d656e74616cf564736f6c634300051000406080604052348015600f57600080fd5b50603e80601d6000396000f3fe6080604052600080fdfea265627a7a72315820d9c2aa864e6128c16d7bd4c0bad9936e99dce67b3c08ad7a4eacbf90e8d10a3664736f6c63430005100032",
					"opcodes": "PUSH1 0x80 PUSH1 0x40 MSTORE PUSH2 0xC350 PUSH1 0x0 SSTORE CALLVALUE DUP1 ISZERO PUSH3 0x17 JUMPI PUSH1 0x0 DUP1 REVERT JUMPDEST POP PUSH1 0x0 PUSH1 0x40 MLOAD PUSH3 0x28 SWAP1 PUSH3 0x4F JUMP JUMPDEST PUSH1 0x40 MLOAD DUP1 SWAP2 SUB SWAP1 PUSH1 0x0 CREATE DUP1 ISZERO DUP1 ISZERO PUSH3 0x45 JUMPI RETURNDATASIZE PUSH1 0x0 DUP1 RETURNDATACOPY RETURNDATASIZE PUSH1 0x0 REVERT JUMPDEST POP SWAP1 POP POP PUSH3 0x5C JUMP JUMPDEST PUSH1 0x5B DUP1 PUSH3 0x3E9B DUP4 CODECOPY ADD SWAP1 JUMP JUMPDEST PUSH2 0x3E2F DUP1 PUSH3 0x6C PUSH1 0x0 CODECOPY PUSH1 0x0 RETURN INVALID PUSH1 0x80 PUSH1 0x40 MSTORE CALLVALUE DUP1 ISZERO PUSH2 0x10 JUMPI PUSH1 0x0 DUP1 REVERT JUMPDEST POP PUSH1 0x4 CALLDATASIZE LT PUSH2 0x9E JUMPI PUSH1 0x0 CALLDATALOAD PUSH1 0xE0 SHR DUP1 PUSH4 0x9673D6A3 GT PUSH2 0x66 JUMPI DUP1 PUSH4 0x9673D6A3 EQ PUSH2 0x187 JUMPI DUP1 PUSH4 0xB536CBFA EQ PUSH2 0x1B9 JUMPI DUP1 PUSH4 0xC17E7295 EQ PUSH2 0x1EB JUMPI DUP1 PUSH4 0xCAA6CFC1 EQ PUSH2 0x21E JUMPI DUP1 PUSH4 0xF087C8EB EQ PUSH2 0x251 JUMPI PUSH2 0x9E JUMP JUMPDEST DUP1 PUSH4 0x2E0CF740 EQ PUSH2 0xA3 JUMPI DUP1 PUSH4 0x332BC3DA EQ PUSH2 0xD4 JUMPI DUP1 PUSH4 0x50F3FC81 EQ PUSH2 0x106 JUMPI DUP1 PUSH4 0x60F5B692 EQ PUSH2 0x138 JUMPI DUP1 PUSH4 0x6614AA8E EQ PUSH2 0x169 JUMPI JUMPDEST PUSH1 0x0 DUP1 REVERT JUMPDEST PUSH2 0xBD PUSH1 0x4 DUP1 CALLDATASIZE SUB PUSH2 0xB8 SWAP2 SWAP1 DUP2 ADD SWAP1 PUSH2 0x30E6 JUMP JUMPDEST PUSH2 0x283 JUMP JUMPDEST PUSH1 0x40 MLOAD PUSH2 0xCB SWAP3 SWAP2 SWAP1 PUSH2 0x3A6E JUMP JUMPDEST PUSH1 0x40 MLOAD DUP1 SWAP2 SUB SWAP1 RETURN JUMPDEST PUSH2 0xEE PUSH1 0x4 DUP1 CALLDATASIZE SUB PUSH2 0xE9 SWAP2 SWAP1 DUP2 ADD SWAP1 PUSH2 0x3127 JUMP JUMPDEST PUSH2 0x3ED JUMP JUMPDEST PUSH1 0x40 MLOAD PUSH2 0xFD SWAP4 SWAP3 SWAP2 SWAP1 PUSH2 0x3AA5 JUMP JUMPDEST PUSH1 0x40 MLOAD DUP1 SWAP2 SUB SWAP1 RETURN JUMPDEST PUSH2 0x120 PUSH1 0x4 DUP1 CALLDATASIZE SUB PUSH2 0x11B SWAP2 SWAP1 DUP2 ADD SWAP1 PUSH2 0x3127 JUMP JUMPDEST PUSH2 0x561 JUMP JUMPDEST PUSH1 0x40 MLOAD PUSH2 0x12F SWAP4 SWAP3 SWAP2 SWAP1 PUSH2 0x3AEA JUMP JUMPDEST PUSH1 0x40 MLOAD DUP1 SWAP2 SUB SWAP1 RETURN JUMPDEST PUSH2 0x152 PUSH1 0x4 DUP1 CALLDATASIZE SUB PUSH2 0x14D SWAP2 SWAP1 DUP2 ADD SWAP1 PUSH2 0x3127 JUMP JUMPDEST PUSH2 0x753 JUMP JUMPDEST PUSH1 0x40 MLOAD PUSH2 0x160 SWAP3 SWAP2 SWAP1 PUSH2 0x3A6E JUMP JUMPDEST PUSH1 0x40 MLOAD DUP1 SWAP2 SUB SWAP1 RETURN JUMPDEST PUSH2 0x171 PUSH2 0x8B4 JUMP JUMPDEST PUSH1 0x40 MLOAD PUSH2 0x17E SWAP2 SWAP1 PUSH2 0x3A4C JUMP JUMPDEST PUSH1 0x40 MLOAD DUP1 SWAP2 SUB SWAP1 RETURN JUMPDEST PUSH2 0x1A1 PUSH1 0x4 DUP1 CALLDATASIZE SUB PUSH2 0x19C SWAP2 SWAP1 DUP2 ADD SWAP1 PUSH2 0x30E6 JUMP JUMPDEST PUSH2 0x244E JUMP JUMPDEST PUSH1 0x40 MLOAD PUSH2 0x1B0 SWAP4 SWAP3 SWAP2 SWAP1 PUSH2 0x3AEA JUMP JUMPDEST PUSH1 0x40 MLOAD DUP1 SWAP2 SUB SWAP1 RETURN JUMPDEST PUSH2 0x1D3 PUSH1 0x4 DUP1 CALLDATASIZE SUB PUSH2 0x1CE SWAP2 SWAP1 DUP2 ADD SWAP1 PUSH2 0x30E6 JUMP JUMPDEST PUSH2 0x2656 JUMP JUMPDEST PUSH1 0x40 MLOAD PUSH2 0x1E2 SWAP4 SWAP3 SWAP2 SWAP1 PUSH2 0x3AA5 JUMP JUMPDEST PUSH1 0x40 MLOAD DUP1 SWAP2 SUB SWAP1 RETURN JUMPDEST PUSH2 0x205 PUSH1 0x4 DUP1 CALLDATASIZE SUB PUSH2 0x200 SWAP2 SWAP1 DUP2 ADD SWAP1 PUSH2 0x30E6 JUMP JUMPDEST PUSH2 0x27D3 JUMP JUMPDEST PUSH1 0x40 MLOAD PUSH2 0x215 SWAP5 SWAP4 SWAP3 SWAP2 SWAP1 PUSH2 0x3B36 JUMP JUMPDEST PUSH1 0x40 MLOAD DUP1 SWAP2 SUB SWAP1 RETURN JUMPDEST PUSH2 0x238 PUSH1 0x4 DUP1 CALLDATASIZE SUB PUSH2 0x233 SWAP2 SWAP1 DUP2 ADD SWAP1 PUSH2 0x3127 JUMP JUMPDEST PUSH2 0x2A79 JUMP JUMPDEST PUSH1 0x40 MLOAD PUSH2 0x248 SWAP5 SWAP4 SWAP3 SWAP2 SWAP1 PUSH2 0x3B36 JUMP JUMPDEST PUSH1 0x40 MLOAD DUP1 SWAP2 SUB SWAP1 RETURN JUMPDEST PUSH2 0x26B PUSH1 0x4 DUP1 CALLDATASIZE SUB PUSH2 0x266 SWAP2 SWAP1 DUP2 ADD SWAP1 PUSH2 0x3127 JUMP JUMPDEST PUSH2 0x2D16 JUMP JUMPDEST PUSH1 0x40 MLOAD PUSH2 0x27A SWAP4 SWAP3 SWAP2 SWAP1 PUSH2 0x3AEA JUMP JUMPDEST PUSH1 0x40 MLOAD DUP1 SWAP2 SUB SWAP1 RETURN JUMPDEST PUSH1 0x3 DUP2 DUP1 MLOAD PUSH1 0x20 DUP2 ADD DUP3 ADD DUP1 MLOAD DUP5 DUP3 MSTORE PUSH1 0x20 DUP4 ADD PUSH1 0x20 DUP6 ADD KECCAK256 DUP2 DUP4 MSTORE DUP1 SWAP6 POP POP POP POP POP POP PUSH1 0x0 SWAP2 POP SWAP1 POP DUP1 PUSH1 0x0 ADD DUP1 SLOAD PUSH1 0x1 DUP2 PUSH1 0x1 AND ISZERO PUSH2 0x100 MUL SUB AND PUSH1 0x2 SWAP1 DIV DUP1 PUSH1 0x1F ADD PUSH1 0x20 DUP1 SWAP2 DIV MUL PUSH1 0x20 ADD PUSH1 0x40 MLOAD SWAP1 DUP2 ADD PUSH1 0x40 MSTORE DUP1 SWAP3 SWAP2 SWAP1 DUP2 DUP2 MSTORE PUSH1 0x20 ADD DUP3 DUP1 SLOAD PUSH1 0x1 DUP2 PUSH1 0x1 AND ISZERO PUSH2 0x100 MUL SUB AND PUSH1 0x2 SWAP1 DIV DUP1 ISZERO PUSH2 0x345 JUMPI DUP1 PUSH1 0x1F LT PUSH2 0x31A JUMPI PUSH2 0x100 DUP1 DUP4 SLOAD DIV MUL DUP4 MSTORE SWAP2 PUSH1 0x20 ADD SWAP2 PUSH2 0x345 JUMP JUMPDEST DUP3 ADD SWAP2 SWAP1 PUSH1 0x0 MSTORE PUSH1 0x20 PUSH1 0x0 KECCAK256 SWAP1 JUMPDEST DUP2 SLOAD DUP2 MSTORE SWAP1 PUSH1 0x1 ADD SWAP1 PUSH1 0x20 ADD DUP1 DUP4 GT PUSH2 0x328 JUMPI DUP3 SWAP1 SUB PUSH1 0x1F AND DUP3 ADD SWAP2 JUMPDEST POP POP POP POP POP SWAP1 DUP1 PUSH1 0x1 ADD DUP1 SLOAD PUSH1 0x1 DUP2 PUSH1 0x1 AND ISZERO PUSH2 0x100 MUL SUB AND PUSH1 0x2 SWAP1 DIV DUP1 PUSH1 0x1F ADD PUSH1 0x20 DUP1 SWAP2 DIV MUL PUSH1 0x20 ADD PUSH1 0x40 MLOAD SWAP1 DUP2 ADD PUSH1 0x40 MSTORE DUP1 SWAP3 SWAP2 SWAP1 DUP2 DUP2 MSTORE PUSH1 0x20 ADD DUP3 DUP1 SLOAD PUSH1 0x1 DUP2 PUSH1 0x1 AND ISZERO PUSH2 0x100 MUL SUB AND PUSH1 0x2 SWAP1 DIV DUP1 ISZERO PUSH2 0x3E3 JUMPI DUP1 PUSH1 0x1F LT PUSH2 0x3B8 JUMPI PUSH2 0x100 DUP1 DUP4 SLOAD DIV MUL DUP4 MSTORE SWAP2 PUSH1 0x20 ADD SWAP2 PUSH2 0x3E3 JUMP JUMPDEST DUP3 ADD SWAP2 SWAP1 PUSH1 0x0 MSTORE PUSH1 0x20 PUSH1 0x0 KECCAK256 SWAP1 JUMPDEST DUP2 SLOAD DUP2 MSTORE SWAP1 PUSH1 0x1 ADD SWAP1 PUSH1 0x20 ADD DUP1 DUP4 GT PUSH2 0x3C6 JUMPI DUP3 SWAP1 SUB PUSH1 0x1F AND DUP3 ADD SWAP2 JUMPDEST POP POP POP POP POP SWAP1 POP DUP3 JUMP JUMPDEST PUSH1 0x5 DUP2 DUP2 SLOAD DUP2 LT PUSH2 0x3FA JUMPI INVALID JUMPDEST SWAP1 PUSH1 0x0 MSTORE PUSH1 0x20 PUSH1 0x0 KECCAK256 SWAP1 PUSH1 0x3 MUL ADD PUSH1 0x0 SWAP2 POP SWAP1 POP DUP1 PUSH1 0x0 ADD DUP1 SLOAD PUSH1 0x1 DUP2 PUSH1 0x1 AND ISZERO PUSH2 0x100 MUL SUB AND PUSH1 0x2 SWAP1 DIV DUP1 PUSH1 0x1F ADD PUSH1 0x20 DUP1 SWAP2 DIV MUL PUSH1 0x20 ADD PUSH1 0x40 MLOAD SWAP1 DUP2 ADD PUSH1 0x40 MSTORE DUP1 SWAP3 SWAP2 SWAP1 DUP2 DUP2 MSTORE PUSH1 0x20 ADD DUP3 DUP1 SLOAD PUSH1 0x1 DUP2 PUSH1 0x1 AND ISZERO PUSH2 0x100 MUL SUB AND PUSH1 0x2 SWAP1 DIV DUP1 ISZERO PUSH2 0x4A6 JUMPI DUP1 PUSH1 0x1F LT PUSH2 0x47B JUMPI PUSH2 0x100 DUP1 DUP4 SLOAD DIV MUL DUP4 MSTORE SWAP2 PUSH1 0x20 ADD SWAP2 PUSH2 0x4A6 JUMP JUMPDEST DUP3 ADD SWAP2 SWAP1 PUSH1 0x0 MSTORE PUSH1 0x20 PUSH1 0x0 KECCAK256 SWAP1 JUMPDEST DUP2 SLOAD DUP2 MSTORE SWAP1 PUSH1 0x1 ADD SWAP1 PUSH1 0x20 ADD DUP1 DUP4 GT PUSH2 0x489 JUMPI DUP3 SWAP1 SUB PUSH1 0x1F AND DUP3 ADD SWAP2 JUMPDEST POP POP POP POP POP SWAP1 DUP1 PUSH1 0x1 ADD DUP1 SLOAD PUSH1 0x1 DUP2 PUSH1 0x1 AND ISZERO PUSH2 0x100 MUL SUB AND PUSH1 0x2 SWAP1 DIV DUP1 PUSH1 0x1F ADD PUSH1 0x20 DUP1 SWAP2 DIV MUL PUSH1 0x20 ADD PUSH1 0x40 MLOAD SWAP1 DUP2 ADD PUSH1 0x40 MSTORE DUP1 SWAP3 SWAP2 SWAP1 DUP2 DUP2 MSTORE PUSH1 0x20 ADD DUP3 DUP1 SLOAD PUSH1 0x1 DUP2 PUSH1 0x1 AND ISZERO PUSH2 0x100 MUL SUB AND PUSH1 0x2 SWAP1 DIV DUP1 ISZERO PUSH2 0x544 JUMPI DUP1 PUSH1 0x1F LT PUSH2 0x519 JUMPI PUSH2 0x100 DUP1 DUP4 SLOAD DIV MUL DUP4 MSTORE SWAP2 PUSH1 0x20 ADD SWAP2 PUSH2 0x544 JUMP JUMPDEST DUP3 ADD SWAP2 SWAP1 PUSH1 0x0 MSTORE PUSH1 0x20 PUSH1 0x0 KECCAK256 SWAP1 JUMPDEST DUP2 SLOAD DUP2 MSTORE SWAP1 PUSH1 0x1 ADD SWAP1 PUSH1 0x20 ADD DUP1 DUP4 GT PUSH2 0x527 JUMPI DUP3 SWAP1 SUB PUSH1 0x1F AND DUP3 ADD SWAP2 JUMPDEST POP POP POP POP POP SWAP1 DUP1 PUSH1 0x2 ADD PUSH1 0x0 SWAP1 SLOAD SWAP1 PUSH2 0x100 EXP SWAP1 DIV PUSH1 0xFF AND SWAP1 POP DUP4 JUMP JUMPDEST PUSH1 0x1 PUSH1 0x20 MSTORE DUP1 PUSH1 0x0 MSTORE PUSH1 0x40 PUSH1 0x0 KECCAK256 PUSH1 0x0 SWAP2 POP SWAP1 POP DUP1 PUSH1 0x0 ADD DUP1 SLOAD PUSH1 0x1 DUP2 PUSH1 0x1 AND ISZERO PUSH2 0x100 MUL SUB AND PUSH1 0x2 SWAP1 DIV DUP1 PUSH1 0x1F ADD PUSH1 0x20 DUP1 SWAP2 DIV MUL PUSH1 0x20 ADD PUSH1 0x40 MLOAD SWAP1 DUP2 ADD PUSH1 0x40 MSTORE DUP1 SWAP3 SWAP2 SWAP1 DUP2 DUP2 MSTORE PUSH1 0x20 ADD DUP3 DUP1 SLOAD PUSH1 0x1 DUP2 PUSH1 0x1 AND ISZERO PUSH2 0x100 MUL SUB AND PUSH1 0x2 SWAP1 DIV DUP1 ISZERO PUSH2 0x60D JUMPI DUP1 PUSH1 0x1F LT PUSH2 0x5E2 JUMPI PUSH2 0x100 DUP1 DUP4 SLOAD DIV MUL DUP4 MSTORE SWAP2 PUSH1 0x20 ADD SWAP2 PUSH2 0x60D JUMP JUMPDEST DUP3 ADD SWAP2 SWAP1 PUSH1 0x0 MSTORE PUSH1 0x20 PUSH1 0x0 KECCAK256 SWAP1 JUMPDEST DUP2 SLOAD DUP2 MSTORE SWAP1 PUSH1 0x1 ADD SWAP1 PUSH1 0x20 ADD DUP1 DUP4 GT PUSH2 0x5F0 JUMPI DUP3 SWAP1 SUB PUSH1 0x1F AND DUP3 ADD SWAP2 JUMPDEST POP POP POP POP POP SWAP1 DUP1 PUSH1 0x1 ADD DUP1 SLOAD PUSH1 0x1 DUP2 PUSH1 0x1 AND ISZERO PUSH2 0x100 MUL SUB AND PUSH1 0x2 SWAP1 DIV DUP1 PUSH1 0x1F ADD PUSH1 0x20 DUP1 SWAP2 DIV MUL PUSH1 0x20 ADD PUSH1 0x40 MLOAD SWAP1 DUP2 ADD PUSH1 0x40 MSTORE DUP1 SWAP3 SWAP2 SWAP1 DUP2 DUP2 MSTORE PUSH1 0x20 ADD DUP3 DUP1 SLOAD PUSH1 0x1 DUP2 PUSH1 0x1 AND ISZERO PUSH2 0x100 MUL SUB AND PUSH1 0x2 SWAP1 DIV DUP1 ISZERO PUSH2 0x6AB JUMPI DUP1 PUSH1 0x1F LT PUSH2 0x680 JUMPI PUSH2 0x100 DUP1 DUP4 SLOAD DIV MUL DUP4 MSTORE SWAP2 PUSH1 0x20 ADD SWAP2 PUSH2 0x6AB JUMP JUMPDEST DUP3 ADD SWAP2 SWAP1 PUSH1 0x0 MSTORE PUSH1 0x20 PUSH1 0x0 KECCAK256 SWAP1 JUMPDEST DUP2 SLOAD DUP2 MSTORE SWAP1 PUSH1 0x1 ADD SWAP1 PUSH1 0x20 ADD DUP1 DUP4 GT PUSH2 0x68E JUMPI DUP3 SWAP1 SUB PUSH1 0x1F AND DUP3 ADD SWAP2 JUMPDEST POP POP POP POP POP SWAP1 DUP1 PUSH1 0x2 ADD DUP1 SLOAD PUSH1 0x1 DUP2 PUSH1 0x1 AND ISZERO PUSH2 0x100 MUL SUB AND PUSH1 0x2 SWAP1 DIV DUP1 PUSH1 0x1F ADD PUSH1 0x20 DUP1 SWAP2 DIV MUL PUSH1 0x20 ADD PUSH1 0x40 MLOAD SWAP1 DUP2 ADD PUSH1 0x40 MSTORE DUP1 SWAP3 SWAP2 SWAP1 DUP2 DUP2 MSTORE PUSH1 0x20 ADD DUP3 DUP1 SLOAD PUSH1 0x1 DUP2 PUSH1 0x1 AND ISZERO PUSH2 0x100 MUL SUB AND PUSH1 0x2 SWAP1 DIV DUP1 ISZERO PUSH2 0x749 JUMPI DUP1 PUSH1 0x1F LT PUSH2 0x71E JUMPI PUSH2 0x100 DUP1 DUP4 SLOAD DIV MUL DUP4 MSTORE SWAP2 PUSH1 0x20 ADD SWAP2 PUSH2 0x749 JUMP JUMPDEST DUP3 ADD SWAP2 SWAP1 PUSH1 0x0 MSTORE PUSH1 0x20 PUSH1 0x0 KECCAK256 SWAP1 JUMPDEST DUP2 SLOAD DUP2 MSTORE SWAP1 PUSH1 0x1 ADD SWAP1 PUSH1 0x20 ADD DUP1 DUP4 GT PUSH2 0x72C JUMPI DUP3 SWAP1 SUB PUSH1 0x1F AND DUP3 ADD SWAP2 JUMPDEST POP POP POP POP POP SWAP1 POP DUP4 JUMP JUMPDEST PUSH1 0x4 DUP2 DUP2 SLOAD DUP2 LT PUSH2 0x760 JUMPI INVALID JUMPDEST SWAP1 PUSH1 0x0 MSTORE PUSH1 0x20 PUSH1 0x0 KECCAK256 SWAP1 PUSH1 0x2 MUL ADD PUSH1 0x0 SWAP2 POP SWAP1 POP DUP1 PUSH1 0x0 ADD DUP1 SLOAD PUSH1 0x1 DUP2 PUSH1 0x1 AND ISZERO PUSH2 0x100 MUL SUB AND PUSH1 0x2 SWAP1 DIV DUP1 PUSH1 0x1F ADD PUSH1 0x20 DUP1 SWAP2 DIV MUL PUSH1 0x20 ADD PUSH1 0x40 MLOAD SWAP1 DUP2 ADD PUSH1 0x40 MSTORE DUP1 SWAP3 SWAP2 SWAP1 DUP2 DUP2 MSTORE PUSH1 0x20 ADD DUP3 DUP1 SLOAD PUSH1 0x1 DUP2 PUSH1 0x1 AND ISZERO PUSH2 0x100 MUL SUB AND PUSH1 0x2 SWAP1 DIV DUP1 ISZERO PUSH2 0x80C JUMPI DUP1 PUSH1 0x1F LT PUSH2 0x7E1 JUMPI PUSH2 0x100 DUP1 DUP4 SLOAD DIV MUL DUP4 MSTORE SWAP2 PUSH1 0x20 ADD SWAP2 PUSH2 0x80C JUMP JUMPDEST DUP3 ADD SWAP2 SWAP1 PUSH1 0x0 MSTORE PUSH1 0x20 PUSH1 0x0 KECCAK256 SWAP1 JUMPDEST DUP2 SLOAD DUP2 MSTORE SWAP1 PUSH1 0x1 ADD SWAP1 PUSH1 0x20 ADD DUP1 DUP4 GT PUSH2 0x7EF JUMPI DUP3 SWAP1 SUB PUSH1 0x1F AND DUP3 ADD SWAP2 JUMPDEST POP POP POP POP POP SWAP1 DUP1 PUSH1 0x1 ADD DUP1 SLOAD PUSH1 0x1 DUP2 PUSH1 0x1 AND ISZERO PUSH2 0x100 MUL SUB AND PUSH1 0x2 SWAP1 DIV DUP1 PUSH1 0x1F ADD PUSH1 0x20 DUP1 SWAP2 DIV MUL PUSH1 0x20 ADD PUSH1 0x40 MLOAD SWAP1 DUP2 ADD PUSH1 0x40 MSTORE DUP1 SWAP3 SWAP2 SWAP1 DUP2 DUP2 MSTORE PUSH1 0x20 ADD DUP3 DUP1 SLOAD PUSH1 0x1 DUP2 PUSH1 0x1 AND ISZERO PUSH2 0x100 MUL SUB AND PUSH1 0x2 SWAP1 DIV DUP1 ISZERO PUSH2 0x8AA JUMPI DUP1 PUSH1 0x1F LT PUSH2 0x87F JUMPI PUSH2 0x100 DUP1 DUP4 SLOAD DIV MUL DUP4 MSTORE SWAP2 PUSH1 0x20 ADD SWAP2 PUSH2 0x8AA JUMP JUMPDEST DUP3 ADD SWAP2 SWAP1 PUSH1 0x0 MSTORE PUSH1 0x20 PUSH1 0x0 KECCAK256 SWAP1 JUMPDEST DUP2 SLOAD DUP2 MSTORE SWAP1 PUSH1 0x1 ADD SWAP1 PUSH1 0x20 ADD DUP1 DUP4 GT PUSH2 0x88D JUMPI DUP3 SWAP1 SUB PUSH1 0x1F AND DUP3 ADD SWAP2 JUMPDEST POP POP POP POP POP SWAP1 POP DUP3 JUMP JUMPDEST PUSH1 0x60 PUSH1 0x0 DUP1 SWAP1 POP PUSH1 0x60 PUSH1 0x0 SLOAD PUSH1 0x40 MLOAD SWAP1 DUP1 DUP3 MSTORE DUP1 PUSH1 0x20 MUL PUSH1 0x20 ADD DUP3 ADD PUSH1 0x40 MSTORE DUP1 ISZERO PUSH2 0x8F9 JUMPI DUP2 PUSH1 0x20 ADD JUMPDEST PUSH2 0x8E6 PUSH2 0x2F15 JUMP JUMPDEST DUP2 MSTORE PUSH1 0x20 ADD SWAP1 PUSH1 0x1 SWAP1 SUB SWAP1 DUP2 PUSH2 0x8DE JUMPI SWAP1 POP JUMPDEST POP SWAP1 POP JUMPDEST PUSH1 0x0 SLOAD DUP3 LT ISZERO PUSH2 0x2446 JUMPI PUSH1 0x0 PUSH1 0xA PUSH1 0x0 DUP5 DUP2 MSTORE PUSH1 0x20 ADD SWAP1 DUP2 MSTORE PUSH1 0x20 ADD PUSH1 0x0 KECCAK256 SWAP1 POP DUP1 PUSH1 0x40 MLOAD DUP1 PUSH1 0x80 ADD PUSH1 0x40 MSTORE SWAP1 DUP2 PUSH1 0x0 DUP3 ADD SLOAD DUP2 MSTORE PUSH1 0x20 ADD PUSH1 0x1 DUP3 ADD PUSH1 0x40 MLOAD DUP1 PUSH1 0x40 ADD PUSH1 0x40 MSTORE SWAP1 DUP2 PUSH1 0x0 DUP3 ADD DUP1 SLOAD DUP1 PUSH1 0x20 MUL PUSH1 0x20 ADD PUSH1 0x40 MLOAD SWAP1 DUP2 ADD PUSH1 0x40 MSTORE DUP1 SWAP3 SWAP2 SWAP1 DUP2 DUP2 MSTORE PUSH1 0x20 ADD PUSH1 0x0 SWAP1 JUMPDEST DUP3 DUP3 LT ISZERO PUSH2 0xD3F JUMPI DUP4 DUP3 SWAP1 PUSH1 0x0 MSTORE PUSH1 0x20 PUSH1 0x0 KECCAK256 SWAP1 PUSH1 0x4 MUL ADD PUSH1 0x40 MLOAD DUP1 PUSH1 0x80 ADD PUSH1 0x40 MSTORE SWAP1 DUP2 PUSH1 0x0 DUP3 ADD DUP1 SLOAD PUSH1 0x1 DUP2 PUSH1 0x1 AND ISZERO PUSH2 0x100 MUL SUB AND PUSH1 0x2 SWAP1 DIV DUP1 PUSH1 0x1F ADD PUSH1 0x20 DUP1 SWAP2 DIV MUL PUSH1 0x20 ADD PUSH1 0x40 MLOAD SWAP1 DUP2 ADD PUSH1 0x40 MSTORE DUP1 SWAP3 SWAP2 SWAP1 DUP2 DUP2 MSTORE PUSH1 0x20 ADD DUP3 DUP1 SLOAD PUSH1 0x1 DUP2 PUSH1 0x1 AND ISZERO PUSH2 0x100 MUL SUB AND PUSH1 0x2 SWAP1 DIV DUP1 ISZERO PUSH2 0xA25 JUMPI DUP1 PUSH1 0x1F LT PUSH2 0x9FA JUMPI PUSH2 0x100 DUP1 DUP4 SLOAD DIV MUL DUP4 MSTORE SWAP2 PUSH1 0x20 ADD SWAP2 PUSH2 0xA25 JUMP JUMPDEST DUP3 ADD SWAP2 SWAP1 PUSH1 0x0 MSTORE PUSH1 0x20 PUSH1 0x0 KECCAK256 SWAP1 JUMPDEST DUP2 SLOAD DUP2 MSTORE SWAP1 PUSH1 0x1 ADD SWAP1 PUSH1 0x20 ADD DUP1 DUP4 GT PUSH2 0xA08 JUMPI DUP3 SWAP1 SUB PUSH1 0x1F AND DUP3 ADD SWAP2 JUMPDEST POP POP POP POP POP DUP2 MSTORE PUSH1 0x20 ADD PUSH1 0x1 DUP3 ADD DUP1 SLOAD PUSH1 0x1 DUP2 PUSH1 0x1 AND ISZERO PUSH2 0x100 MUL SUB AND PUSH1 0x2 SWAP1 DIV DUP1 PUSH1 0x1F ADD PUSH1 0x20 DUP1 SWAP2 DIV MUL PUSH1 0x20 ADD PUSH1 0x40 MLOAD SWAP1 DUP2 ADD PUSH1 0x40 MSTORE DUP1 SWAP3 SWAP2 SWAP1 DUP2 DUP2 MSTORE PUSH1 0x20 ADD DUP3 DUP1 SLOAD PUSH1 0x1 DUP2 PUSH1 0x1 AND ISZERO PUSH2 0x100 MUL SUB AND PUSH1 0x2 SWAP1 DIV DUP1 ISZERO PUSH2 0xAC7 JUMPI DUP1 PUSH1 0x1F LT PUSH2 0xA9C JUMPI PUSH2 0x100 DUP1 DUP4 SLOAD DIV MUL DUP4 MSTORE SWAP2 PUSH1 0x20 ADD SWAP2 PUSH2 0xAC7 JUMP JUMPDEST DUP3 ADD SWAP2 SWAP1 PUSH1 0x0 MSTORE PUSH1 0x20 PUSH1 0x0 KECCAK256 SWAP1 JUMPDEST DUP2 SLOAD DUP2 MSTORE SWAP1 PUSH1 0x1 ADD SWAP1 PUSH1 0x20 ADD DUP1 DUP4 GT PUSH2 0xAAA JUMPI DUP3 SWAP1 SUB PUSH1 0x1F AND DUP3 ADD SWAP2 JUMPDEST POP POP POP POP POP DUP2 MSTORE PUSH1 0x20 ADD PUSH1 0x2 DUP3 ADD DUP1 SLOAD PUSH1 0x1 DUP2 PUSH1 0x1 AND ISZERO PUSH2 0x100 MUL SUB AND PUSH1 0x2 SWAP1 DIV DUP1 PUSH1 0x1F ADD PUSH1 0x20 DUP1 SWAP2 DIV MUL PUSH1 0x20 ADD PUSH1 0x40 MLOAD SWAP1 DUP2 ADD PUSH1 0x40 MSTORE DUP1 SWAP3 SWAP2 SWAP1 DUP2 DUP2 MSTORE PUSH1 0x20 ADD DUP3 DUP1 SLOAD PUSH1 0x1 DUP2 PUSH1 0x1 AND ISZERO PUSH2 0x100 MUL SUB AND PUSH1 0x2 SWAP1 DIV DUP1 ISZERO PUSH2 0xB69 JUMPI DUP1 PUSH1 0x1F LT PUSH2 0xB3E JUMPI PUSH2 0x100 DUP1 DUP4 SLOAD DIV MUL DUP4 MSTORE SWAP2 PUSH1 0x20 ADD SWAP2 PUSH2 0xB69 JUMP JUMPDEST DUP3 ADD SWAP2 SWAP1 PUSH1 0x0 MSTORE PUSH1 0x20 PUSH1 0x0 KECCAK256 SWAP1 JUMPDEST DUP2 SLOAD DUP2 MSTORE SWAP1 PUSH1 0x1 ADD SWAP1 PUSH1 0x20 ADD DUP1 DUP4 GT PUSH2 0xB4C JUMPI DUP3 SWAP1 SUB PUSH1 0x1F AND DUP3 ADD SWAP2 JUMPDEST POP POP POP POP POP DUP2 MSTORE PUSH1 0x20 ADD PUSH1 0x3 DUP3 ADD DUP1 SLOAD DUP1 PUSH1 0x20 MUL PUSH1 0x20 ADD PUSH1 0x40 MLOAD SWAP1 DUP2 ADD PUSH1 0x40 MSTORE DUP1 SWAP3 SWAP2 SWAP1 DUP2 DUP2 MSTORE PUSH1 0x20 ADD PUSH1 0x0 SWAP1 JUMPDEST DUP3 DUP3 LT ISZERO PUSH2 0xD28 JUMPI DUP4 DUP3 SWAP1 PUSH1 0x0 MSTORE PUSH1 0x20 PUSH1 0x0 KECCAK256 SWAP1 PUSH1 0x3 MUL ADD PUSH1 0x40 MLOAD DUP1 PUSH1 0x60 ADD PUSH1 0x40 MSTORE SWAP1 DUP2 PUSH1 0x0 DUP3 ADD DUP1 SLOAD PUSH1 0x1 DUP2 PUSH1 0x1 AND ISZERO PUSH2 0x100 MUL SUB AND PUSH1 0x2 SWAP1 DIV DUP1 PUSH1 0x1F ADD PUSH1 0x20 DUP1 SWAP2 DIV MUL PUSH1 0x20 ADD PUSH1 0x40 MLOAD SWAP1 DUP2 ADD PUSH1 0x40 MSTORE DUP1 SWAP3 SWAP2 SWAP1 DUP2 DUP2 MSTORE PUSH1 0x20 ADD DUP3 DUP1 SLOAD PUSH1 0x1 DUP2 PUSH1 0x1 AND ISZERO PUSH2 0x100 MUL SUB AND PUSH1 0x2 SWAP1 DIV DUP1 ISZERO PUSH2 0xC53 JUMPI DUP1 PUSH1 0x1F LT PUSH2 0xC28 JUMPI PUSH2 0x100 DUP1 DUP4 SLOAD DIV MUL DUP4 MSTORE SWAP2 PUSH1 0x20 ADD SWAP2 PUSH2 0xC53 JUMP JUMPDEST DUP3 ADD SWAP2 SWAP1 PUSH1 0x0 MSTORE PUSH1 0x20 PUSH1 0x0 KECCAK256 SWAP1 JUMPDEST DUP2 SLOAD DUP2 MSTORE SWAP1 PUSH1 0x1 ADD SWAP1 PUSH1 0x20 ADD DUP1 DUP4 GT PUSH2 0xC36 JUMPI DUP3 SWAP1 SUB PUSH1 0x1F AND DUP3 ADD SWAP2 JUMPDEST POP POP POP POP POP DUP2 MSTORE PUSH1 0x20 ADD PUSH1 0x1 DUP3 ADD DUP1 SLOAD PUSH1 0x1 DUP2 PUSH1 0x1 AND ISZERO PUSH2 0x100 MUL SUB AND PUSH1 0x2 SWAP1 DIV DUP1 PUSH1 0x1F ADD PUSH1 0x20 DUP1 SWAP2 DIV MUL PUSH1 0x20 ADD PUSH1 0x40 MLOAD SWAP1 DUP2 ADD PUSH1 0x40 MSTORE DUP1 SWAP3 SWAP2 SWAP1 DUP2 DUP2 MSTORE PUSH1 0x20 ADD DUP3 DUP1 SLOAD PUSH1 0x1 DUP2 PUSH1 0x1 AND ISZERO PUSH2 0x100 MUL SUB AND PUSH1 0x2 SWAP1 DIV DUP1 ISZERO PUSH2 0xCF5 JUMPI DUP1 PUSH1 0x1F LT PUSH2 0xCCA JUMPI PUSH2 0x100 DUP1 DUP4 SLOAD DIV MUL DUP4 MSTORE SWAP2 PUSH1 0x20 ADD SWAP2 PUSH2 0xCF5 JUMP JUMPDEST DUP3 ADD SWAP2 SWAP1 PUSH1 0x0 MSTORE PUSH1 0x20 PUSH1 0x0 KECCAK256 SWAP1 JUMPDEST DUP2 SLOAD DUP2 MSTORE SWAP1 PUSH1 0x1 ADD SWAP1 PUSH1 0x20 ADD DUP1 DUP4 GT PUSH2 0xCD8 JUMPI DUP3 SWAP1 SUB PUSH1 0x1F AND DUP3 ADD SWAP2 JUMPDEST POP POP POP POP POP DUP2 MSTORE PUSH1 0x20 ADD PUSH1 0x2 DUP3 ADD PUSH1 0x0 SWAP1 SLOAD SWAP1 PUSH2 0x100 EXP SWAP1 DIV PUSH1 0xFF AND ISZERO ISZERO ISZERO ISZERO DUP2 MSTORE POP POP DUP2 MSTORE PUSH1 0x20 ADD SWAP1 PUSH1 0x1 ADD SWAP1 PUSH2 0xB97 JUMP JUMPDEST POP POP POP POP DUP2 MSTORE POP POP DUP2 MSTORE PUSH1 0x20 ADD SWAP1 PUSH1 0x1 ADD SWAP1 PUSH2 0x969 JUMP JUMPDEST POP POP POP POP DUP2 MSTORE PUSH1 0x20 ADD PUSH1 0x1 DUP3 ADD DUP1 SLOAD DUP1 PUSH1 0x20 MUL PUSH1 0x20 ADD PUSH1 0x40 MLOAD SWAP1 DUP2 ADD PUSH1 0x40 MSTORE DUP1 SWAP3 SWAP2 SWAP1 DUP2 DUP2 MSTORE PUSH1 0x20 ADD PUSH1 0x0 SWAP1 JUMPDEST DUP3 DUP3 LT ISZERO PUSH2 0x11C9 JUMPI DUP4 DUP3 SWAP1 PUSH1 0x0 MSTORE PUSH1 0x20 PUSH1 0x0 KECCAK256 SWAP1 PUSH1 0x5 MUL ADD PUSH1 0x40 MLOAD DUP1 PUSH1 0xA0 ADD PUSH1 0x40 MSTORE SWAP1 DUP2 PUSH1 0x0 DUP3 ADD DUP1 SLOAD PUSH1 0x1 DUP2 PUSH1 0x1 AND ISZERO PUSH2 0x100 MUL SUB AND PUSH1 0x2 SWAP1 DIV DUP1 PUSH1 0x1F ADD PUSH1 0x20 DUP1 SWAP2 DIV MUL PUSH1 0x20 ADD PUSH1 0x40 MLOAD SWAP1 DUP2 ADD PUSH1 0x40 MSTORE DUP1 SWAP3 SWAP2 SWAP1 DUP2 DUP2 MSTORE PUSH1 0x20 ADD DUP3 DUP1 SLOAD PUSH1 0x1 DUP2 PUSH1 0x1 AND ISZERO PUSH2 0x100 MUL SUB AND PUSH1 0x2 SWAP1 DIV DUP1 ISZERO PUSH2 0xE28 JUMPI DUP1 PUSH1 0x1F LT PUSH2 0xDFD JUMPI PUSH2 0x100 DUP1 DUP4 SLOAD DIV MUL DUP4 MSTORE SWAP2 PUSH1 0x20 ADD SWAP2 PUSH2 0xE28 JUMP JUMPDEST DUP3 ADD SWAP2 SWAP1 PUSH1 0x0 MSTORE PUSH1 0x20 PUSH1 0x0 KECCAK256 SWAP1 JUMPDEST DUP2 SLOAD DUP2 MSTORE SWAP1 PUSH1 0x1 ADD SWAP1 PUSH1 0x20 ADD DUP1 DUP4 GT PUSH2 0xE0B JUMPI DUP3 SWAP1 SUB PUSH1 0x1F AND DUP3 ADD SWAP2 JUMPDEST POP POP POP POP POP DUP2 MSTORE PUSH1 0x20 ADD PUSH1 0x1 DUP3 ADD DUP1 SLOAD PUSH1 0x1 DUP2 PUSH1 0x1 AND ISZERO PUSH2 0x100 MUL SUB AND PUSH1 0x2 SWAP1 DIV DUP1 PUSH1 0x1F ADD PUSH1 0x20 DUP1 SWAP2 DIV MUL PUSH1 0x20 ADD PUSH1 0x40 MLOAD SWAP1 DUP2 ADD PUSH1 0x40 MSTORE DUP1 SWAP3 SWAP2 SWAP1 DUP2 DUP2 MSTORE PUSH1 0x20 ADD DUP3 DUP1 SLOAD PUSH1 0x1 DUP2 PUSH1 0x1 AND ISZERO PUSH2 0x100 MUL SUB AND PUSH1 0x2 SWAP1 DIV DUP1 ISZERO PUSH2 0xECA JUMPI DUP1 PUSH1 0x1F LT PUSH2 0xE9F JUMPI PUSH2 0x100 DUP1 DUP4 SLOAD DIV MUL DUP4 MSTORE SWAP2 PUSH1 0x20 ADD SWAP2 PUSH2 0xECA JUMP JUMPDEST DUP3 ADD SWAP2 SWAP1 PUSH1 0x0 MSTORE PUSH1 0x20 PUSH1 0x0 KECCAK256 SWAP1 JUMPDEST DUP2 SLOAD DUP2 MSTORE SWAP1 PUSH1 0x1 ADD SWAP1 PUSH1 0x20 ADD DUP1 DUP4 GT PUSH2 0xEAD JUMPI DUP3 SWAP1 SUB PUSH1 0x1F AND DUP3 ADD SWAP2 JUMPDEST POP POP POP POP POP DUP2 MSTORE PUSH1 0x20 ADD PUSH1 0x2 DUP3 ADD DUP1 SLOAD PUSH1 0x1 DUP2 PUSH1 0x1 AND ISZERO PUSH2 0x100 MUL SUB AND PUSH1 0x2 SWAP1 DIV DUP1 PUSH1 0x1F ADD PUSH1 0x20 DUP1 SWAP2 DIV MUL PUSH1 0x20 ADD PUSH1 0x40 MLOAD SWAP1 DUP2 ADD PUSH1 0x40 MSTORE DUP1 SWAP3 SWAP2 SWAP1 DUP2 DUP2 MSTORE PUSH1 0x20 ADD DUP3 DUP1 SLOAD PUSH1 0x1 DUP2 PUSH1 0x1 AND ISZERO PUSH2 0x100 MUL SUB AND PUSH1 0x2 SWAP1 DIV DUP1 ISZERO PUSH2 0xF6C JUMPI DUP1 PUSH1 0x1F LT PUSH2 0xF41 JUMPI PUSH2 0x100 DUP1 DUP4 SLOAD DIV MUL DUP4 MSTORE SWAP2 PUSH1 0x20 ADD SWAP2 PUSH2 0xF6C JUMP JUMPDEST DUP3 ADD SWAP2 SWAP1 PUSH1 0x0 MSTORE PUSH1 0x20 PUSH1 0x0 KECCAK256 SWAP1 JUMPDEST DUP2 SLOAD DUP2 MSTORE SWAP1 PUSH1 0x1 ADD SWAP1 PUSH1 0x20 ADD DUP1 DUP4 GT PUSH2 0xF4F JUMPI DUP3 SWAP1 SUB PUSH1 0x1F AND DUP3 ADD SWAP2 JUMPDEST POP POP POP POP POP DUP2 MSTORE PUSH1 0x20 ADD PUSH1 0x3 DUP3 ADD DUP1 SLOAD PUSH1 0x1 DUP2 PUSH1 0x1 AND ISZERO PUSH2 0x100 MUL SUB AND PUSH1 0x2 SWAP1 DIV DUP1 PUSH1 0x1F ADD PUSH1 0x20 DUP1 SWAP2 DIV MUL PUSH1 0x20 ADD PUSH1 0x40 MLOAD SWAP1 DUP2 ADD PUSH1 0x40 MSTORE DUP1 SWAP3 SWAP2 SWAP1 DUP2 DUP2 MSTORE PUSH1 0x20 ADD DUP3 DUP1 SLOAD PUSH1 0x1 DUP2 PUSH1 0x1 AND ISZERO PUSH2 0x100 MUL SUB AND PUSH1 0x2 SWAP1 DIV DUP1 ISZERO PUSH2 0x100E JUMPI DUP1 PUSH1 0x1F LT PUSH2 0xFE3 JUMPI PUSH2 0x100 DUP1 DUP4 SLOAD DIV MUL DUP4 MSTORE SWAP2 PUSH1 0x20 ADD SWAP2 PUSH2 0x100E JUMP JUMPDEST DUP3 ADD SWAP2 SWAP1 PUSH1 0x0 MSTORE PUSH1 0x20 PUSH1 0x0 KECCAK256 SWAP1 JUMPDEST DUP2 SLOAD DUP2 MSTORE SWAP1 PUSH1 0x1 ADD SWAP1 PUSH1 0x20 ADD DUP1 DUP4 GT PUSH2 0xFF1 JUMPI DUP3 SWAP1 SUB PUSH1 0x1F AND DUP3 ADD SWAP2 JUMPDEST POP POP POP POP POP DUP2 MSTORE PUSH1 0x20 ADD PUSH1 0x4 DUP3 ADD DUP1 SLOAD DUP1 PUSH1 0x20 MUL PUSH1 0x20 ADD PUSH1 0x40 MLOAD SWAP1 DUP2 ADD PUSH1 0x40 MSTORE DUP1 SWAP3 SWAP2 SWAP1 DUP2 DUP2 MSTORE PUSH1 0x20 ADD PUSH1 0x0 SWAP1 JUMPDEST DUP3 DUP3 LT ISZERO PUSH2 0x11B2 JUMPI DUP4 DUP3 SWAP1 PUSH1 0x0 MSTORE PUSH1 0x20 PUSH1 0x0 KECCAK256 SWAP1 PUSH1 0x2 MUL ADD PUSH1 0x40 MLOAD DUP1 PUSH1 0x40 ADD PUSH1 0x40 MSTORE SWAP1 DUP2 PUSH1 0x0 DUP3 ADD DUP1 SLOAD PUSH1 0x1 DUP2 PUSH1 0x1 AND ISZERO PUSH2 0x100 MUL SUB AND PUSH1 0x2 SWAP1 DIV DUP1 PUSH1 0x1F ADD PUSH1 0x20 DUP1 SWAP2 DIV MUL PUSH1 0x20 ADD PUSH1 0x40 MLOAD SWAP1 DUP2 ADD PUSH1 0x40 MSTORE DUP1 SWAP3 SWAP2 SWAP1 DUP2 DUP2 MSTORE PUSH1 0x20 ADD DUP3 DUP1 SLOAD PUSH1 0x1 DUP2 PUSH1 0x1 AND ISZERO PUSH2 0x100 MUL SUB AND PUSH1 0x2 SWAP1 DIV DUP1 ISZERO PUSH2 0x10F8 JUMPI DUP1 PUSH1 0x1F LT PUSH2 0x10CD JUMPI PUSH2 0x100 DUP1 DUP4 SLOAD DIV MUL DUP4 MSTORE SWAP2 PUSH1 0x20 ADD SWAP2 PUSH2 0x10F8 JUMP JUMPDEST DUP3 ADD SWAP2 SWAP1 PUSH1 0x0 MSTORE PUSH1 0x20 PUSH1 0x0 KECCAK256 SWAP1 JUMPDEST DUP2 SLOAD DUP2 MSTORE SWAP1 PUSH1 0x1 ADD SWAP1 PUSH1 0x20 ADD DUP1 DUP4 GT PUSH2 0x10DB JUMPI DUP3 SWAP1 SUB PUSH1 0x1F AND DUP3 ADD SWAP2 JUMPDEST POP POP POP POP POP DUP2 MSTORE PUSH1 0x20 ADD PUSH1 0x1 DUP3 ADD DUP1 SLOAD PUSH1 0x1 DUP2 PUSH1 0x1 AND ISZERO PUSH2 0x100 MUL SUB AND PUSH1 0x2 SWAP1 DIV DUP1 PUSH1 0x1F ADD PUSH1 0x20 DUP1 SWAP2 DIV MUL PUSH1 0x20 ADD PUSH1 0x40 MLOAD SWAP1 DUP2 ADD PUSH1 0x40 MSTORE DUP1 SWAP3 SWAP2 SWAP1 DUP2 DUP2 MSTORE PUSH1 0x20 ADD DUP3 DUP1 SLOAD PUSH1 0x1 DUP2 PUSH1 0x1 AND ISZERO PUSH2 0x100 MUL SUB AND PUSH1 0x2 SWAP1 DIV DUP1 ISZERO PUSH2 0x119A JUMPI DUP1 PUSH1 0x1F LT PUSH2 0x116F JUMPI PUSH2 0x100 DUP1 DUP4 SLOAD DIV MUL DUP4 MSTORE SWAP2 PUSH1 0x20 ADD SWAP2 PUSH2 0x119A JUMP JUMPDEST DUP3 ADD SWAP2 SWAP1 PUSH1 0x0 MSTORE PUSH1 0x20 PUSH1 0x0 KECCAK256 SWAP1 JUMPDEST DUP2 SLOAD DUP2 MSTORE SWAP1 PUSH1 0x1 ADD SWAP1 PUSH1 0x20 ADD DUP1 DUP4 GT PUSH2 0x117D JUMPI DUP3 SWAP1 SUB PUSH1 0x1F AND DUP3 ADD SWAP2 JUMPDEST POP POP POP POP POP DUP2 MSTORE POP POP DUP2 MSTORE PUSH1 0x20 ADD SWAP1 PUSH1 0x1 ADD SWAP1 PUSH2 0x103C JUMP JUMPDEST POP POP POP POP DUP2 MSTORE POP POP DUP2 MSTORE PUSH1 0x20 ADD SWAP1 PUSH1 0x1 ADD SWAP1 PUSH2 0xD6C JUMP JUMPDEST POP POP POP POP DUP2 MSTORE POP POP DUP2 MSTORE PUSH1 0x20 ADD PUSH1 0x3 DUP3 ADD PUSH1 0x40 MLOAD DUP1 PUSH1 0xC0 ADD PUSH1 0x40 MSTORE SWAP1 DUP2 PUSH1 0x0 DUP3 ADD DUP1 SLOAD PUSH1 0x1 DUP2 PUSH1 0x1 AND ISZERO PUSH2 0x100 MUL SUB AND PUSH1 0x2 SWAP1 DIV DUP1 PUSH1 0x1F ADD PUSH1 0x20 DUP1 SWAP2 DIV MUL PUSH1 0x20 ADD PUSH1 0x40 MLOAD SWAP1 DUP2 ADD PUSH1 0x40 MSTORE DUP1 SWAP3 SWAP2 SWAP1 DUP2 DUP2 MSTORE PUSH1 0x20 ADD DUP3 DUP1 SLOAD PUSH1 0x1 DUP2 PUSH1 0x1 AND ISZERO PUSH2 0x100 MUL SUB AND PUSH1 0x2 SWAP1 DIV DUP1 ISZERO PUSH2 0x127E JUMPI DUP1 PUSH1 0x1F LT PUSH2 0x1253 JUMPI PUSH2 0x100 DUP1 DUP4 SLOAD DIV MUL DUP4 MSTORE SWAP2 PUSH1 0x20 ADD SWAP2 PUSH2 0x127E JUMP JUMPDEST DUP3 ADD SWAP2 SWAP1 PUSH1 0x0 MSTORE PUSH1 0x20 PUSH1 0x0 KECCAK256 SWAP1 JUMPDEST DUP2 SLOAD DUP2 MSTORE SWAP1 PUSH1 0x1 ADD SWAP1 PUSH1 0x20 ADD DUP1 DUP4 GT PUSH2 0x1261 JUMPI DUP3 SWAP1 SUB PUSH1 0x1F AND DUP3 ADD SWAP2 JUMPDEST POP POP POP POP POP DUP2 MSTORE PUSH1 0x20 ADD PUSH1 0x1 DUP3 ADD DUP1 SLOAD PUSH1 0x1 DUP2 PUSH1 0x1 AND ISZERO PUSH2 0x100 MUL SUB AND PUSH1 0x2 SWAP1 DIV DUP1 PUSH1 0x1F ADD PUSH1 0x20 DUP1 SWAP2 DIV MUL PUSH1 0x20 ADD PUSH1 0x40 MLOAD SWAP1 DUP2 ADD PUSH1 0x40 MSTORE DUP1 SWAP3 SWAP2 SWAP1 DUP2 DUP2 MSTORE PUSH1 0x20 ADD DUP3 DUP1 SLOAD PUSH1 0x1 DUP2 PUSH1 0x1 AND ISZERO PUSH2 0x100 MUL SUB AND PUSH1 0x2 SWAP1 DIV DUP1 ISZERO PUSH2 0x1320 JUMPI DUP1 PUSH1 0x1F LT PUSH2 0x12F5 JUMPI PUSH2 0x100 DUP1 DUP4 SLOAD DIV MUL DUP4 MSTORE SWAP2 PUSH1 0x20 ADD SWAP2 PUSH2 0x1320 JUMP JUMPDEST DUP3 ADD SWAP2 SWAP1 PUSH1 0x0 MSTORE PUSH1 0x20 PUSH1 0x0 KECCAK256 SWAP1 JUMPDEST DUP2 SLOAD DUP2 MSTORE SWAP1 PUSH1 0x1 ADD SWAP1 PUSH1 0x20 ADD DUP1 DUP4 GT PUSH2 0x1303 JUMPI DUP3 SWAP1 SUB PUSH1 0x1F AND DUP3 ADD SWAP2 JUMPDEST POP POP POP POP POP DUP2 MSTORE PUSH1 0x20 ADD PUSH1 0x2 DUP3 ADD DUP1 SLOAD PUSH1 0x1 DUP2 PUSH1 0x1 AND ISZERO PUSH2 0x100 MUL SUB AND PUSH1 0x2 SWAP1 DIV DUP1 PUSH1 0x1F ADD PUSH1 0x20 DUP1 SWAP2 DIV MUL PUSH1 0x20 ADD PUSH1 0x40 MLOAD SWAP1 DUP2 ADD PUSH1 0x40 MSTORE DUP1 SWAP3 SWAP2 SWAP1 DUP2 DUP2 MSTORE PUSH1 0x20 ADD DUP3 DUP1 SLOAD PUSH1 0x1 DUP2 PUSH1 0x1 AND ISZERO PUSH2 0x100 MUL SUB AND PUSH1 0x2 SWAP1 DIV DUP1 ISZERO PUSH2 0x13C2 JUMPI DUP1 PUSH1 0x1F LT PUSH2 0x1397 JUMPI PUSH2 0x100 DUP1 DUP4 SLOAD DIV MUL DUP4 MSTORE SWAP2 PUSH1 0x20 ADD SWAP2 PUSH2 0x13C2 JUMP JUMPDEST DUP3 ADD SWAP2 SWAP1 PUSH1 0x0 MSTORE PUSH1 0x20 PUSH1 0x0 KECCAK256 SWAP1 JUMPDEST DUP2 SLOAD DUP2 MSTORE SWAP1 PUSH1 0x1 ADD SWAP1 PUSH1 0x20 ADD DUP1 DUP4 GT PUSH2 0x13A5 JUMPI DUP3 SWAP1 SUB PUSH1 0x1F AND DUP3 ADD SWAP2 JUMPDEST POP POP POP POP POP DUP2 MSTORE PUSH1 0x20 ADD PUSH1 0x3 DUP3 ADD DUP1 SLOAD PUSH1 0x1 DUP2 PUSH1 0x1 AND ISZERO PUSH2 0x100 MUL SUB AND PUSH1 0x2 SWAP1 DIV DUP1 PUSH1 0x1F ADD PUSH1 0x20 DUP1 SWAP2 DIV MUL PUSH1 0x20 ADD PUSH1 0x40 MLOAD SWAP1 DUP2 ADD PUSH1 0x40 MSTORE DUP1 SWAP3 SWAP2 SWAP1 DUP2 DUP2 MSTORE PUSH1 0x20 ADD DUP3 DUP1 SLOAD PUSH1 0x1 DUP2 PUSH1 0x1 AND ISZERO PUSH2 0x100 MUL SUB AND PUSH1 0x2 SWAP1 DIV DUP1 ISZERO PUSH2 0x1464 JUMPI DUP1 PUSH1 0x1F LT PUSH2 0x1439 JUMPI PUSH2 0x100 DUP1 DUP4 SLOAD DIV MUL DUP4 MSTORE SWAP2 PUSH1 0x20 ADD SWAP2 PUSH2 0x1464 JUMP JUMPDEST DUP3 ADD SWAP2 SWAP1 PUSH1 0x0 MSTORE PUSH1 0x20 PUSH1 0x0 KECCAK256 SWAP1 JUMPDEST DUP2 SLOAD DUP2 MSTORE SWAP1 PUSH1 0x1 ADD SWAP1 PUSH1 0x20 ADD DUP1 DUP4 GT PUSH2 0x1447 JUMPI DUP3 SWAP1 SUB PUSH1 0x1F AND DUP3 ADD SWAP2 JUMPDEST POP POP POP POP POP DUP2 MSTORE PUSH1 0x20 ADD PUSH1 0x4 DUP3 ADD DUP1 SLOAD PUSH1 0x1 DUP2 PUSH1 0x1 AND ISZERO PUSH2 0x100 MUL SUB AND PUSH1 0x2 SWAP1 DIV DUP1 PUSH1 0x1F ADD PUSH1 0x20 DUP1 SWAP2 DIV MUL PUSH1 0x20 ADD PUSH1 0x40 MLOAD SWAP1 DUP2 ADD PUSH1 0x40 MSTORE DUP1 SWAP3 SWAP2 SWAP1 DUP2 DUP2 MSTORE PUSH1 0x20 ADD DUP3 DUP1 SLOAD PUSH1 0x1 DUP2 PUSH1 0x1 AND ISZERO PUSH2 0x100 MUL SUB AND PUSH1 0x2 SWAP1 DIV DUP1 ISZERO PUSH2 0x1506 JUMPI DUP1 PUSH1 0x1F LT PUSH2 0x14DB JUMPI PUSH2 0x100 DUP1 DUP4 SLOAD DIV MUL DUP4 MSTORE SWAP2 PUSH1 0x20 ADD SWAP2 PUSH2 0x1506 JUMP JUMPDEST DUP3 ADD SWAP2 SWAP1 PUSH1 0x0 MSTORE PUSH1 0x20 PUSH1 0x0 KECCAK256 SWAP1 JUMPDEST DUP2 SLOAD DUP2 MSTORE SWAP1 PUSH1 0x1 ADD SWAP1 PUSH1 0x20 ADD DUP1 DUP4 GT PUSH2 0x14E9 JUMPI DUP3 SWAP1 SUB PUSH1 0x1F AND DUP3 ADD SWAP2 JUMPDEST POP POP POP POP POP DUP2 MSTORE PUSH1 0x20 ADD PUSH1 0x5 DUP3 ADD PUSH1 0x0 SWAP1 SLOAD SWAP1 PUSH2 0x100 EXP SWAP1 DIV PUSH20 0xFFFFFFFFFFFFFFFFFFFFFFFFFFFFFFFFFFFFFFFF AND PUSH20 0xFFFFFFFFFFFFFFFFFFFFFFFFFFFFFFFFFFFFFFFF AND PUSH20 0xFFFFFFFFFFFFFFFFFFFFFFFFFFFFFFFFFFFFFFFF AND DUP2 MSTORE POP POP DUP2 MSTORE PUSH1 0x20 ADD PUSH1 0x9 DUP3 ADD PUSH1 0x40 MLOAD DUP1 PUSH2 0x1E0 ADD PUSH1 0x40 MSTORE SWAP1 DUP2 PUSH1 0x0 DUP3 ADD DUP1 SLOAD PUSH1 0x1 DUP2 PUSH1 0x1 AND ISZERO PUSH2 0x100 MUL SUB AND PUSH1 0x2 SWAP1 DIV DUP1 PUSH1 0x1F ADD PUSH1 0x20 DUP1 SWAP2 DIV MUL PUSH1 0x20 ADD PUSH1 0x40 MLOAD SWAP1 DUP2 ADD PUSH1 0x40 MSTORE DUP1 SWAP3 SWAP2 SWAP1 DUP2 DUP2 MSTORE PUSH1 0x20 ADD DUP3 DUP1 SLOAD PUSH1 0x1 DUP2 PUSH1 0x1 AND ISZERO PUSH2 0x100 MUL SUB AND PUSH1 0x2 SWAP1 DIV DUP1 ISZERO PUSH2 0x1613 JUMPI DUP1 PUSH1 0x1F LT PUSH2 0x15E8 JUMPI PUSH2 0x100 DUP1 DUP4 SLOAD DIV MUL DUP4 MSTORE SWAP2 PUSH1 0x20 ADD SWAP2 PUSH2 0x1613 JUMP JUMPDEST DUP3 ADD SWAP2 SWAP1 PUSH1 0x0 MSTORE PUSH1 0x20 PUSH1 0x0 KECCAK256 SWAP1 JUMPDEST DUP2 SLOAD DUP2 MSTORE SWAP1 PUSH1 0x1 ADD SWAP1 PUSH1 0x20 ADD DUP1 DUP4 GT PUSH2 0x15F6 JUMPI DUP3 SWAP1 SUB PUSH1 0x1F AND DUP3 ADD SWAP2 JUMPDEST POP POP POP POP POP DUP2 MSTORE PUSH1 0x20 ADD PUSH1 0x1 DUP3 ADD DUP1 SLOAD PUSH1 0x1 DUP2 PUSH1 0x1 AND ISZERO PUSH2 0x100 MUL SUB AND PUSH1 0x2 SWAP1 DIV DUP1 PUSH1 0x1F ADD PUSH1 0x20 DUP1 SWAP2 DIV MUL PUSH1 0x20 ADD PUSH1 0x40 MLOAD SWAP1 DUP2 ADD PUSH1 0x40 MSTORE DUP1 SWAP3 SWAP2 SWAP1 DUP2 DUP2 MSTORE PUSH1 0x20 ADD DUP3 DUP1 SLOAD PUSH1 0x1 DUP2 PUSH1 0x1 AND ISZERO PUSH2 0x100 MUL SUB AND PUSH1 0x2 SWAP1 DIV DUP1 ISZERO PUSH2 0x16B5 JUMPI DUP1 PUSH1 0x1F LT PUSH2 0x168A JUMPI PUSH2 0x100 DUP1 DUP4 SLOAD DIV MUL DUP4 MSTORE SWAP2 PUSH1 0x20 ADD SWAP2 PUSH2 0x16B5 JUMP JUMPDEST DUP3 ADD SWAP2 SWAP1 PUSH1 0x0 MSTORE PUSH1 0x20 PUSH1 0x0 KECCAK256 SWAP1 JUMPDEST DUP2 SLOAD DUP2 MSTORE SWAP1 PUSH1 0x1 ADD SWAP1 PUSH1 0x20 ADD DUP1 DUP4 GT PUSH2 0x1698 JUMPI DUP3 SWAP1 SUB PUSH1 0x1F AND DUP3 ADD SWAP2 JUMPDEST POP POP POP POP POP DUP2 MSTORE PUSH1 0x20 ADD PUSH1 0x2 DUP3 ADD DUP1 SLOAD PUSH1 0x1 DUP2 PUSH1 0x1 AND ISZERO PUSH2 0x100 MUL SUB AND PUSH1 0x2 SWAP1 DIV DUP1 PUSH1 0x1F ADD PUSH1 0x20 DUP1 SWAP2 DIV MUL PUSH1 0x20 ADD PUSH1 0x40 MLOAD SWAP1 DUP2 ADD PUSH1 0x40 MSTORE DUP1 SWAP3 SWAP2 SWAP1 DUP2 DUP2 MSTORE PUSH1 0x20 ADD DUP3 DUP1 SLOAD PUSH1 0x1 DUP2 PUSH1 0x1 AND ISZERO PUSH2 0x100 MUL SUB AND PUSH1 0x2 SWAP1 DIV DUP1 ISZERO PUSH2 0x1757 JUMPI DUP1 PUSH1 0x1F LT PUSH2 0x172C JUMPI PUSH2 0x100 DUP1 DUP4 SLOAD DIV MUL DUP4 MSTORE SWAP2 PUSH1 0x20 ADD SWAP2 PUSH2 0x1757 JUMP JUMPDEST DUP3 ADD SWAP2 SWAP1 PUSH1 0x0 MSTORE PUSH1 0x20 PUSH1 0x0 KECCAK256 SWAP1 JUMPDEST DUP2 SLOAD DUP2 MSTORE SWAP1 PUSH1 0x1 ADD SWAP1 PUSH1 0x20 ADD DUP1 DUP4 GT PUSH2 0x173A JUMPI DUP3 SWAP1 SUB PUSH1 0x1F AND DUP3 ADD SWAP2 JUMPDEST POP POP POP POP POP DUP2 MSTORE PUSH1 0x20 ADD PUSH1 0x3 DUP3 ADD DUP1 SLOAD PUSH1 0x1 DUP2 PUSH1 0x1 AND ISZERO PUSH2 0x100 MUL SUB AND PUSH1 0x2 SWAP1 DIV DUP1 PUSH1 0x1F ADD PUSH1 0x20 DUP1 SWAP2 DIV MUL PUSH1 0x20 ADD PUSH1 0x40 MLOAD SWAP1 DUP2 ADD PUSH1 0x40 MSTORE DUP1 SWAP3 SWAP2 SWAP1 DUP2 DUP2 MSTORE PUSH1 0x20 ADD DUP3 DUP1 SLOAD PUSH1 0x1 DUP2 PUSH1 0x1 AND ISZERO PUSH2 0x100 MUL SUB AND PUSH1 0x2 SWAP1 DIV DUP1 ISZERO PUSH2 0x17F9 JUMPI DUP1 PUSH1 0x1F LT PUSH2 0x17CE JUMPI PUSH2 0x100 DUP1 DUP4 SLOAD DIV MUL DUP4 MSTORE SWAP2 PUSH1 0x20 ADD SWAP2 PUSH2 0x17F9 JUMP JUMPDEST DUP3 ADD SWAP2 SWAP1 PUSH1 0x0 MSTORE PUSH1 0x20 PUSH1 0x0 KECCAK256 SWAP1 JUMPDEST DUP2 SLOAD DUP2 MSTORE SWAP1 PUSH1 0x1 ADD SWAP1 PUSH1 0x20 ADD DUP1 DUP4 GT PUSH2 0x17DC JUMPI DUP3 SWAP1 SUB PUSH1 0x1F AND DUP3 ADD SWAP2 JUMPDEST POP POP POP POP POP DUP2 MSTORE PUSH1 0x20 ADD PUSH1 0x4 DUP3 ADD DUP1 SLOAD PUSH1 0x1 DUP2 PUSH1 0x1 AND ISZERO PUSH2 0x100 MUL SUB AND PUSH1 0x2 SWAP1 DIV DUP1 PUSH1 0x1F ADD PUSH1 0x20 DUP1 SWAP2 DIV MUL PUSH1 0x20 ADD PUSH1 0x40 MLOAD SWAP1 DUP2 ADD PUSH1 0x40 MSTORE DUP1 SWAP3 SWAP2 SWAP1 DUP2 DUP2 MSTORE PUSH1 0x20 ADD DUP3 DUP1 SLOAD PUSH1 0x1 DUP2 PUSH1 0x1 AND ISZERO PUSH2 0x100 MUL SUB AND PUSH1 0x2 SWAP1 DIV DUP1 ISZERO PUSH2 0x189B JUMPI DUP1 PUSH1 0x1F LT PUSH2 0x1870 JUMPI PUSH2 0x100 DUP1 DUP4 SLOAD DIV MUL DUP4 MSTORE SWAP2 PUSH1 0x20 ADD SWAP2 PUSH2 0x189B JUMP JUMPDEST DUP3 ADD SWAP2 SWAP1 PUSH1 0x0 MSTORE PUSH1 0x20 PUSH1 0x0 KECCAK256 SWAP1 JUMPDEST DUP2 SLOAD DUP2 MSTORE SWAP1 PUSH1 0x1 ADD SWAP1 PUSH1 0x20 ADD DUP1 DUP4 GT PUSH2 0x187E JUMPI DUP3 SWAP1 SUB PUSH1 0x1F AND DUP3 ADD SWAP2 JUMPDEST POP POP POP POP POP DUP2 MSTORE PUSH1 0x20 ADD PUSH1 0x5 DUP3 ADD DUP1 SLOAD PUSH1 0x1 DUP2 PUSH1 0x1 AND ISZERO PUSH2 0x100 MUL SUB AND PUSH1 0x2 SWAP1 DIV DUP1 PUSH1 0x1F ADD PUSH1 0x20 DUP1 SWAP2 DIV MUL PUSH1 0x20 ADD PUSH1 0x40 MLOAD SWAP1 DUP2 ADD PUSH1 0x40 MSTORE DUP1 SWAP3 SWAP2 SWAP1 DUP2 DUP2 MSTORE PUSH1 0x20 ADD DUP3 DUP1 SLOAD PUSH1 0x1 DUP2 PUSH1 0x1 AND ISZERO PUSH2 0x100 MUL SUB AND PUSH1 0x2 SWAP1 DIV DUP1 ISZERO PUSH2 0x193D JUMPI DUP1 PUSH1 0x1F LT PUSH2 0x1912 JUMPI PUSH2 0x100 DUP1 DUP4 SLOAD DIV MUL DUP4 MSTORE SWAP2 PUSH1 0x20 ADD SWAP2 PUSH2 0x193D JUMP JUMPDEST DUP3 ADD SWAP2 SWAP1 PUSH1 0x0 MSTORE PUSH1 0x20 PUSH1 0x0 KECCAK256 SWAP1 JUMPDEST DUP2 SLOAD DUP2 MSTORE SWAP1 PUSH1 0x1 ADD SWAP1 PUSH1 0x20 ADD DUP1 DUP4 GT PUSH2 0x1920 JUMPI DUP3 SWAP1 SUB PUSH1 0x1F AND DUP3 ADD SWAP2 JUMPDEST POP POP POP POP POP DUP2 MSTORE PUSH1 0x20 ADD PUSH1 0x6 DUP3 ADD DUP1 SLOAD PUSH1 0x1 DUP2 PUSH1 0x1 AND ISZERO PUSH2 0x100 MUL SUB AND PUSH1 0x2 SWAP1 DIV DUP1 PUSH1 0x1F ADD PUSH1 0x20 DUP1 SWAP2 DIV MUL PUSH1 0x20 ADD PUSH1 0x40 MLOAD SWAP1 DUP2 ADD PUSH1 0x40 MSTORE DUP1 SWAP3 SWAP2 SWAP1 DUP2 DUP2 MSTORE PUSH1 0x20 ADD DUP3 DUP1 SLOAD PUSH1 0x1 DUP2 PUSH1 0x1 AND ISZERO PUSH2 0x100 MUL SUB AND PUSH1 0x2 SWAP1 DIV DUP1 ISZERO PUSH2 0x19DF JUMPI DUP1 PUSH1 0x1F LT PUSH2 0x19B4 JUMPI PUSH2 0x100 DUP1 DUP4 SLOAD DIV MUL DUP4 MSTORE SWAP2 PUSH1 0x20 ADD SWAP2 PUSH2 0x19DF JUMP JUMPDEST DUP3 ADD SWAP2 SWAP1 PUSH1 0x0 MSTORE PUSH1 0x20 PUSH1 0x0 KECCAK256 SWAP1 JUMPDEST DUP2 SLOAD DUP2 MSTORE SWAP1 PUSH1 0x1 ADD SWAP1 PUSH1 0x20 ADD DUP1 DUP4 GT PUSH2 0x19C2 JUMPI DUP3 SWAP1 SUB PUSH1 0x1F AND DUP3 ADD SWAP2 JUMPDEST POP POP POP POP POP DUP2 MSTORE PUSH1 0x20 ADD PUSH1 0x7 DUP3 ADD DUP1 SLOAD PUSH1 0x1 DUP2 PUSH1 0x1 AND ISZERO PUSH2 0x100 MUL SUB AND PUSH1 0x2 SWAP1 DIV DUP1 PUSH1 0x1F ADD PUSH1 0x20 DUP1 SWAP2 DIV MUL PUSH1 0x20 ADD PUSH1 0x40 MLOAD SWAP1 DUP2 ADD PUSH1 0x40 MSTORE DUP1 SWAP3 SWAP2 SWAP1 DUP2 DUP2 MSTORE PUSH1 0x20 ADD DUP3 DUP1 SLOAD PUSH1 0x1 DUP2 PUSH1 0x1 AND ISZERO PUSH2 0x100 MUL SUB AND PUSH1 0x2 SWAP1 DIV DUP1 ISZERO PUSH2 0x1A81 JUMPI DUP1 PUSH1 0x1F LT PUSH2 0x1A56 JUMPI PUSH2 0x100 DUP1 DUP4 SLOAD DIV MUL DUP4 MSTORE SWAP2 PUSH1 0x20 ADD SWAP2 PUSH2 0x1A81 JUMP JUMPDEST DUP3 ADD SWAP2 SWAP1 PUSH1 0x0 MSTORE PUSH1 0x20 PUSH1 0x0 KECCAK256 SWAP1 JUMPDEST DUP2 SLOAD DUP2 MSTORE SWAP1 PUSH1 0x1 ADD SWAP1 PUSH1 0x20 ADD DUP1 DUP4 GT PUSH2 0x1A64 JUMPI DUP3 SWAP1 SUB PUSH1 0x1F AND DUP3 ADD SWAP2 JUMPDEST POP POP POP POP POP DUP2 MSTORE PUSH1 0x20 ADD PUSH1 0x8 DUP3 ADD DUP1 SLOAD PUSH1 0x1 DUP2 PUSH1 0x1 AND ISZERO PUSH2 0x100 MUL SUB AND PUSH1 0x2 SWAP1 DIV DUP1 PUSH1 0x1F ADD PUSH1 0x20 DUP1 SWAP2 DIV MUL PUSH1 0x20 ADD PUSH1 0x40 MLOAD SWAP1 DUP2 ADD PUSH1 0x40 MSTORE DUP1 SWAP3 SWAP2 SWAP1 DUP2 DUP2 MSTORE PUSH1 0x20 ADD DUP3 DUP1 SLOAD PUSH1 0x1 DUP2 PUSH1 0x1 AND ISZERO PUSH2 0x100 MUL SUB AND PUSH1 0x2 SWAP1 DIV DUP1 ISZERO PUSH2 0x1B23 JUMPI DUP1 PUSH1 0x1F LT PUSH2 0x1AF8 JUMPI PUSH2 0x100 DUP1 DUP4 SLOAD DIV MUL DUP4 MSTORE SWAP2 PUSH1 0x20 ADD SWAP2 PUSH2 0x1B23 JUMP JUMPDEST DUP3 ADD SWAP2 SWAP1 PUSH1 0x0 MSTORE PUSH1 0x20 PUSH1 0x0 KECCAK256 SWAP1 JUMPDEST DUP2 SLOAD DUP2 MSTORE SWAP1 PUSH1 0x1 ADD SWAP1 PUSH1 0x20 ADD DUP1 DUP4 GT PUSH2 0x1B06 JUMPI DUP3 SWAP1 SUB PUSH1 0x1F AND DUP3 ADD SWAP2 JUMPDEST POP POP POP POP POP DUP2 MSTORE PUSH1 0x20 ADD PUSH1 0x9 DUP3 ADD DUP1 SLOAD PUSH1 0x1 DUP2 PUSH1 0x1 AND ISZERO PUSH2 0x100 MUL SUB AND PUSH1 0x2 SWAP1 DIV DUP1 PUSH1 0x1F ADD PUSH1 0x20 DUP1 SWAP2 DIV MUL PUSH1 0x20 ADD PUSH1 0x40 MLOAD SWAP1 DUP2 ADD PUSH1 0x40 MSTORE DUP1 SWAP3 SWAP2 SWAP1 DUP2 DUP2 MSTORE PUSH1 0x20 ADD DUP3 DUP1 SLOAD PUSH1 0x1 DUP2 PUSH1 0x1 AND ISZERO PUSH2 0x100 MUL SUB AND PUSH1 0x2 SWAP1 DIV DUP1 ISZERO PUSH2 0x1BC5 JUMPI DUP1 PUSH1 0x1F LT PUSH2 0x1B9A JUMPI PUSH2 0x100 DUP1 DUP4 SLOAD DIV MUL DUP4 MSTORE SWAP2 PUSH1 0x20 ADD SWAP2 PUSH2 0x1BC5 JUMP JUMPDEST DUP3 ADD SWAP2 SWAP1 PUSH1 0x0 MSTORE PUSH1 0x20 PUSH1 0x0 KECCAK256 SWAP1 JUMPDEST DUP2 SLOAD DUP2 MSTORE SWAP1 PUSH1 0x1 ADD SWAP1 PUSH1 0x20 ADD DUP1 DUP4 GT PUSH2 0x1BA8 JUMPI DUP3 SWAP1 SUB PUSH1 0x1F AND DUP3 ADD SWAP2 JUMPDEST POP POP POP POP POP DUP2 MSTORE PUSH1 0x20 ADD PUSH1 0xA DUP3 ADD DUP1 SLOAD PUSH1 0x1 DUP2 PUSH1 0x1 AND ISZERO PUSH2 0x100 MUL SUB AND PUSH1 0x2 SWAP1 DIV DUP1 PUSH1 0x1F ADD PUSH1 0x20 DUP1 SWAP2 DIV MUL PUSH1 0x20 ADD PUSH1 0x40 MLOAD SWAP1 DUP2 ADD PUSH1 0x40 MSTORE DUP1 SWAP3 SWAP2 SWAP1 DUP2 DUP2 MSTORE PUSH1 0x20 ADD DUP3 DUP1 SLOAD PUSH1 0x1 DUP2 PUSH1 0x1 AND ISZERO PUSH2 0x100 MUL SUB AND PUSH1 0x2 SWAP1 DIV DUP1 ISZERO PUSH2 0x1C67 JUMPI DUP1 PUSH1 0x1F LT PUSH2 0x1C3C JUMPI PUSH2 0x100 DUP1 DUP4 SLOAD DIV MUL DUP4 MSTORE SWAP2 PUSH1 0x20 ADD SWAP2 PUSH2 0x1C67 JUMP JUMPDEST DUP3 ADD SWAP2 SWAP1 PUSH1 0x0 MSTORE PUSH1 0x20 PUSH1 0x0 KECCAK256 SWAP1 JUMPDEST DUP2 SLOAD DUP2 MSTORE SWAP1 PUSH1 0x1 ADD SWAP1 PUSH1 0x20 ADD DUP1 DUP4 GT PUSH2 0x1C4A JUMPI DUP3 SWAP1 SUB PUSH1 0x1F AND DUP3 ADD SWAP2 JUMPDEST POP POP POP POP POP DUP2 MSTORE PUSH1 0x20 ADD PUSH1 0xB DUP3 ADD DUP1 SLOAD PUSH1 0x1 DUP2 PUSH1 0x1 AND ISZERO PUSH2 0x100 MUL SUB AND PUSH1 0x2 SWAP1 DIV DUP1 PUSH1 0x1F ADD PUSH1 0x20 DUP1 SWAP2 DIV MUL PUSH1 0x20 ADD PUSH1 0x40 MLOAD SWAP1 DUP2 ADD PUSH1 0x40 MSTORE DUP1 SWAP3 SWAP2 SWAP1 DUP2 DUP2 MSTORE PUSH1 0x20 ADD DUP3 DUP1 SLOAD PUSH1 0x1 DUP2 PUSH1 0x1 AND ISZERO PUSH2 0x100 MUL SUB AND PUSH1 0x2 SWAP1 DIV DUP1 ISZERO PUSH2 0x1D09 JUMPI DUP1 PUSH1 0x1F LT PUSH2 0x1CDE JUMPI PUSH2 0x100 DUP1 DUP4 SLOAD DIV MUL DUP4 MSTORE SWAP2 PUSH1 0x20 ADD SWAP2 PUSH2 0x1D09 JUMP JUMPDEST DUP3 ADD SWAP2 SWAP1 PUSH1 0x0 MSTORE PUSH1 0x20 PUSH1 0x0 KECCAK256 SWAP1 JUMPDEST DUP2 SLOAD DUP2 MSTORE SWAP1 PUSH1 0x1 ADD SWAP1 PUSH1 0x20 ADD DUP1 DUP4 GT PUSH2 0x1CEC JUMPI DUP3 SWAP1 SUB PUSH1 0x1F AND DUP3 ADD SWAP2 JUMPDEST POP POP POP POP POP DUP2 MSTORE PUSH1 0x20 ADD PUSH1 0xC DUP3 ADD DUP1 SLOAD PUSH1 0x1 DUP2 PUSH1 0x1 AND ISZERO PUSH2 0x100 MUL SUB AND PUSH1 0x2 SWAP1 DIV DUP1 PUSH1 0x1F ADD PUSH1 0x20 DUP1 SWAP2 DIV MUL PUSH1 0x20 ADD PUSH1 0x40 MLOAD SWAP1 DUP2 ADD PUSH1 0x40 MSTORE DUP1 SWAP3 SWAP2 SWAP1 DUP2 DUP2 MSTORE PUSH1 0x20 ADD DUP3 DUP1 SLOAD PUSH1 0x1 DUP2 PUSH1 0x1 AND ISZERO PUSH2 0x100 MUL SUB AND PUSH1 0x2 SWAP1 DIV DUP1 ISZERO PUSH2 0x1DAB JUMPI DUP1 PUSH1 0x1F LT PUSH2 0x1D80 JUMPI PUSH2 0x100 DUP1 DUP4 SLOAD DIV MUL DUP4 MSTORE SWAP2 PUSH1 0x20 ADD SWAP2 PUSH2 0x1DAB JUMP JUMPDEST DUP3 ADD SWAP2 SWAP1 PUSH1 0x0 MSTORE PUSH1 0x20 PUSH1 0x0 KECCAK256 SWAP1 JUMPDEST DUP2 SLOAD DUP2 MSTORE SWAP1 PUSH1 0x1 ADD SWAP1 PUSH1 0x20 ADD DUP1 DUP4 GT PUSH2 0x1D8E JUMPI DUP3 SWAP1 SUB PUSH1 0x1F AND DUP3 ADD SWAP2 JUMPDEST POP POP POP POP POP DUP2 MSTORE PUSH1 0x20 ADD PUSH1 0xD DUP3 ADD DUP1 SLOAD PUSH1 0x1 DUP2 PUSH1 0x1 AND ISZERO PUSH2 0x100 MUL SUB AND PUSH1 0x2 SWAP1 DIV DUP1 PUSH1 0x1F ADD PUSH1 0x20 DUP1 SWAP2 DIV MUL PUSH1 0x20 ADD PUSH1 0x40 MLOAD SWAP1 DUP2 ADD PUSH1 0x40 MSTORE DUP1 SWAP3 SWAP2 SWAP1 DUP2 DUP2 MSTORE PUSH1 0x20 ADD DUP3 DUP1 SLOAD PUSH1 0x1 DUP2 PUSH1 0x1 AND ISZERO PUSH2 0x100 MUL SUB AND PUSH1 0x2 SWAP1 DIV DUP1 ISZERO PUSH2 0x1E4D JUMPI DUP1 PUSH1 0x1F LT PUSH2 0x1E22 JUMPI PUSH2 0x100 DUP1 DUP4 SLOAD DIV MUL DUP4 MSTORE SWAP2 PUSH1 0x20 ADD SWAP2 PUSH2 0x1E4D JUMP JUMPDEST DUP3 ADD SWAP2 SWAP1 PUSH1 0x0 MSTORE PUSH1 0x20 PUSH1 0x0 KECCAK256 SWAP1 JUMPDEST DUP2 SLOAD DUP2 MSTORE SWAP1 PUSH1 0x1 ADD SWAP1 PUSH1 0x20 ADD DUP1 DUP4 GT PUSH2 0x1E30 JUMPI DUP3 SWAP1 SUB PUSH1 0x1F AND DUP3 ADD SWAP2 JUMPDEST POP POP POP POP POP DUP2 MSTORE PUSH1 0x20 ADD PUSH1 0xE DUP3 ADD PUSH1 0x40 MLOAD DUP1 PUSH2 0x120 ADD PUSH1 0x40 MSTORE SWAP1 DUP2 PUSH1 0x0 DUP3 ADD DUP1 SLOAD PUSH1 0x1 DUP2 PUSH1 0x1 AND ISZERO PUSH2 0x100 MUL SUB AND PUSH1 0x2 SWAP1 DIV DUP1 PUSH1 0x1F ADD PUSH1 0x20 DUP1 SWAP2 DIV MUL PUSH1 0x20 ADD PUSH1 0x40 MLOAD SWAP1 DUP2 ADD PUSH1 0x40 MSTORE DUP1 SWAP3 SWAP2 SWAP1 DUP2 DUP2 MSTORE PUSH1 0x20 ADD DUP3 DUP1 SLOAD PUSH1 0x1 DUP2 PUSH1 0x1 AND ISZERO PUSH2 0x100 MUL SUB AND PUSH1 0x2 SWAP1 DIV DUP1 ISZERO PUSH2 0x1F00 JUMPI DUP1 PUSH1 0x1F LT PUSH2 0x1ED5 JUMPI PUSH2 0x100 DUP1 DUP4 SLOAD DIV MUL DUP4 MSTORE SWAP2 PUSH1 0x20 ADD SWAP2 PUSH2 0x1F00 JUMP JUMPDEST DUP3 ADD SWAP2 SWAP1 PUSH1 0x0 MSTORE PUSH1 0x20 PUSH1 0x0 KECCAK256 SWAP1 JUMPDEST DUP2 SLOAD DUP2 MSTORE SWAP1 PUSH1 0x1 ADD SWAP1 PUSH1 0x20 ADD DUP1 DUP4 GT PUSH2 0x1EE3 JUMPI DUP3 SWAP1 SUB PUSH1 0x1F AND DUP3 ADD SWAP2 JUMPDEST POP POP POP POP POP DUP2 MSTORE PUSH1 0x20 ADD PUSH1 0x1 DUP3 ADD DUP1 SLOAD PUSH1 0x1 DUP2 PUSH1 0x1 AND ISZERO PUSH2 0x100 MUL SUB AND PUSH1 0x2 SWAP1 DIV DUP1 PUSH1 0x1F ADD PUSH1 0x20 DUP1 SWAP2 DIV MUL PUSH1 0x20 ADD PUSH1 0x40 MLOAD SWAP1 DUP2 ADD PUSH1 0x40 MSTORE DUP1 SWAP3 SWAP2 SWAP1 DUP2 DUP2 MSTORE PUSH1 0x20 ADD DUP3 DUP1 SLOAD PUSH1 0x1 DUP2 PUSH1 0x1 AND ISZERO PUSH2 0x100 MUL SUB AND PUSH1 0x2 SWAP1 DIV DUP1 ISZERO PUSH2 0x1FA2 JUMPI DUP1 PUSH1 0x1F LT PUSH2 0x1F77 JUMPI PUSH2 0x100 DUP1 DUP4 SLOAD DIV MUL DUP4 MSTORE SWAP2 PUSH1 0x20 ADD SWAP2 PUSH2 0x1FA2 JUMP JUMPDEST DUP3 ADD SWAP2 SWAP1 PUSH1 0x0 MSTORE PUSH1 0x20 PUSH1 0x0 KECCAK256 SWAP1 JUMPDEST DUP2 SLOAD DUP2 MSTORE SWAP1 PUSH1 0x1 ADD SWAP1 PUSH1 0x20 ADD DUP1 DUP4 GT PUSH2 0x1F85 JUMPI DUP3 SWAP1 SUB PUSH1 0x1F AND DUP3 ADD SWAP2 JUMPDEST POP POP POP POP POP DUP2 MSTORE PUSH1 0x20 ADD PUSH1 0x2 DUP3 ADD DUP1 SLOAD PUSH1 0x1 DUP2 PUSH1 0x1 AND ISZERO PUSH2 0x100 MUL SUB AND PUSH1 0x2 SWAP1 DIV DUP1 PUSH1 0x1F ADD PUSH1 0x20 DUP1 SWAP2 DIV MUL PUSH1 0x20 ADD PUSH1 0x40 MLOAD SWAP1 DUP2 ADD PUSH1 0x40 MSTORE DUP1 SWAP3 SWAP2 SWAP1 DUP2 DUP2 MSTORE PUSH1 0x20 ADD DUP3 DUP1 SLOAD PUSH1 0x1 DUP2 PUSH1 0x1 AND ISZERO PUSH2 0x100 MUL SUB AND PUSH1 0x2 SWAP1 DIV DUP1 ISZERO PUSH2 0x2044 JUMPI DUP1 PUSH1 0x1F LT PUSH2 0x2019 JUMPI PUSH2 0x100 DUP1 DUP4 SLOAD DIV MUL DUP4 MSTORE SWAP2 PUSH1 0x20 ADD SWAP2 PUSH2 0x2044 JUMP JUMPDEST DUP3 ADD SWAP2 SWAP1 PUSH1 0x0 MSTORE PUSH1 0x20 PUSH1 0x0 KECCAK256 SWAP1 JUMPDEST DUP2 SLOAD DUP2 MSTORE SWAP1 PUSH1 0x1 ADD SWAP1 PUSH1 0x20 ADD DUP1 DUP4 GT PUSH2 0x2027 JUMPI DUP3 SWAP1 SUB PUSH1 0x1F AND DUP3 ADD SWAP2 JUMPDEST POP POP POP POP POP DUP2 MSTORE PUSH1 0x20 ADD PUSH1 0x3 DUP3 ADD DUP1 SLOAD PUSH1 0x1 DUP2 PUSH1 0x1 AND ISZERO PUSH2 0x100 MUL SUB AND PUSH1 0x2 SWAP1 DIV DUP1 PUSH1 0x1F ADD PUSH1 0x20 DUP1 SWAP2 DIV MUL PUSH1 0x20 ADD PUSH1 0x40 MLOAD SWAP1 DUP2 ADD PUSH1 0x40 MSTORE DUP1 SWAP3 SWAP2 SWAP1 DUP2 DUP2 MSTORE PUSH1 0x20 ADD DUP3 DUP1 SLOAD PUSH1 0x1 DUP2 PUSH1 0x1 AND ISZERO PUSH2 0x100 MUL SUB AND PUSH1 0x2 SWAP1 DIV DUP1 ISZERO PUSH2 0x20E6 JUMPI DUP1 PUSH1 0x1F LT PUSH2 0x20BB JUMPI PUSH2 0x100 DUP1 DUP4 SLOAD DIV MUL DUP4 MSTORE SWAP2 PUSH1 0x20 ADD SWAP2 PUSH2 0x20E6 JUMP JUMPDEST DUP3 ADD SWAP2 SWAP1 PUSH1 0x0 MSTORE PUSH1 0x20 PUSH1 0x0 KECCAK256 SWAP1 JUMPDEST DUP2 SLOAD DUP2 MSTORE SWAP1 PUSH1 0x1 ADD SWAP1 PUSH1 0x20 ADD DUP1 DUP4 GT PUSH2 0x20C9 JUMPI DUP3 SWAP1 SUB PUSH1 0x1F AND DUP3 ADD SWAP2 JUMPDEST POP POP POP POP POP DUP2 MSTORE PUSH1 0x20 ADD PUSH1 0x4 DUP3 ADD DUP1 SLOAD PUSH1 0x1 DUP2 PUSH1 0x1 AND ISZERO PUSH2 0x100 MUL SUB AND PUSH1 0x2 SWAP1 DIV DUP1 PUSH1 0x1F ADD PUSH1 0x20 DUP1 SWAP2 DIV MUL PUSH1 0x20 ADD PUSH1 0x40 MLOAD SWAP1 DUP2 ADD PUSH1 0x40 MSTORE DUP1 SWAP3 SWAP2 SWAP1 DUP2 DUP2 MSTORE PUSH1 0x20 ADD DUP3 DUP1 SLOAD PUSH1 0x1 DUP2 PUSH1 0x1 AND ISZERO PUSH2 0x100 MUL SUB AND PUSH1 0x2 SWAP1 DIV DUP1 ISZERO PUSH2 0x2188 JUMPI DUP1 PUSH1 0x1F LT PUSH2 0x215D JUMPI PUSH2 0x100 DUP1 DUP4 SLOAD DIV MUL DUP4 MSTORE SWAP2 PUSH1 0x20 ADD SWAP2 PUSH2 0x2188 JUMP JUMPDEST DUP3 ADD SWAP2 SWAP1 PUSH1 0x0 MSTORE PUSH1 0x20 PUSH1 0x0 KECCAK256 SWAP1 JUMPDEST DUP2 SLOAD DUP2 MSTORE SWAP1 PUSH1 0x1 ADD SWAP1 PUSH1 0x20 ADD DUP1 DUP4 GT PUSH2 0x216B JUMPI DUP3 SWAP1 SUB PUSH1 0x1F AND DUP3 ADD SWAP2 JUMPDEST POP POP POP POP POP DUP2 MSTORE PUSH1 0x20 ADD PUSH1 0x5 DUP3 ADD DUP1 SLOAD PUSH1 0x1 DUP2 PUSH1 0x1 AND ISZERO PUSH2 0x100 MUL SUB AND PUSH1 0x2 SWAP1 DIV DUP1 PUSH1 0x1F ADD PUSH1 0x20 DUP1 SWAP2 DIV MUL PUSH1 0x20 ADD PUSH1 0x40 MLOAD SWAP1 DUP2 ADD PUSH1 0x40 MSTORE DUP1 SWAP3 SWAP2 SWAP1 DUP2 DUP2 MSTORE PUSH1 0x20 ADD DUP3 DUP1 SLOAD PUSH1 0x1 DUP2 PUSH1 0x1 AND ISZERO PUSH2 0x100 MUL SUB AND PUSH1 0x2 SWAP1 DIV DUP1 ISZERO PUSH2 0x222A JUMPI DUP1 PUSH1 0x1F LT PUSH2 0x21FF JUMPI PUSH2 0x100 DUP1 DUP4 SLOAD DIV MUL DUP4 MSTORE SWAP2 PUSH1 0x20 ADD SWAP2 PUSH2 0x222A JUMP JUMPDEST DUP3 ADD SWAP2 SWAP1 PUSH1 0x0 MSTORE PUSH1 0x20 PUSH1 0x0 KECCAK256 SWAP1 JUMPDEST DUP2 SLOAD DUP2 MSTORE SWAP1 PUSH1 0x1 ADD SWAP1 PUSH1 0x20 ADD DUP1 DUP4 GT PUSH2 0x220D JUMPI DUP3 SWAP1 SUB PUSH1 0x1F AND DUP3 ADD SWAP2 JUMPDEST POP POP POP POP POP DUP2 MSTORE PUSH1 0x20 ADD PUSH1 0x6 DUP3 ADD DUP1 SLOAD PUSH1 0x1 DUP2 PUSH1 0x1 AND ISZERO PUSH2 0x100 MUL SUB AND PUSH1 0x2 SWAP1 DIV DUP1 PUSH1 0x1F ADD PUSH1 0x20 DUP1 SWAP2 DIV MUL PUSH1 0x20 ADD PUSH1 0x40 MLOAD SWAP1 DUP2 ADD PUSH1 0x40 MSTORE DUP1 SWAP3 SWAP2 SWAP1 DUP2 DUP2 MSTORE PUSH1 0x20 ADD DUP3 DUP1 SLOAD PUSH1 0x1 DUP2 PUSH1 0x1 AND ISZERO PUSH2 0x100 MUL SUB AND PUSH1 0x2 SWAP1 DIV DUP1 ISZERO PUSH2 0x22CC JUMPI DUP1 PUSH1 0x1F LT PUSH2 0x22A1 JUMPI PUSH2 0x100 DUP1 DUP4 SLOAD DIV MUL DUP4 MSTORE SWAP2 PUSH1 0x20 ADD SWAP2 PUSH2 0x22CC JUMP JUMPDEST DUP3 ADD SWAP2 SWAP1 PUSH1 0x0 MSTORE PUSH1 0x20 PUSH1 0x0 KECCAK256 SWAP1 JUMPDEST DUP2 SLOAD DUP2 MSTORE SWAP1 PUSH1 0x1 ADD SWAP1 PUSH1 0x20 ADD DUP1 DUP4 GT PUSH2 0x22AF JUMPI DUP3 SWAP1 SUB PUSH1 0x1F AND DUP3 ADD SWAP2 JUMPDEST POP POP POP POP POP DUP2 MSTORE PUSH1 0x20 ADD PUSH1 0x7 DUP3 ADD DUP1 SLOAD PUSH1 0x1 DUP2 PUSH1 0x1 AND ISZERO PUSH2 0x100 MUL SUB AND PUSH1 0x2 SWAP1 DIV DUP1 PUSH1 0x1F ADD PUSH1 0x20 DUP1 SWAP2 DIV MUL PUSH1 0x20 ADD PUSH1 0x40 MLOAD SWAP1 DUP2 ADD PUSH1 0x40 MSTORE DUP1 SWAP3 SWAP2 SWAP1 DUP2 DUP2 MSTORE PUSH1 0x20 ADD DUP3 DUP1 SLOAD PUSH1 0x1 DUP2 PUSH1 0x1 AND ISZERO PUSH2 0x100 MUL SUB AND PUSH1 0x2 SWAP1 DIV DUP1 ISZERO PUSH2 0x236E JUMPI DUP1 PUSH1 0x1F LT PUSH2 0x2343 JUMPI PUSH2 0x100 DUP1 DUP4 SLOAD DIV MUL DUP4 MSTORE SWAP2 PUSH1 0x20 ADD SWAP2 PUSH2 0x236E JUMP JUMPDEST DUP3 ADD SWAP2 SWAP1 PUSH1 0x0 MSTORE PUSH1 0x20 PUSH1 0x0 KECCAK256 SWAP1 JUMPDEST DUP2 SLOAD DUP2 MSTORE SWAP1 PUSH1 0x1 ADD SWAP1 PUSH1 0x20 ADD DUP1 DUP4 GT PUSH2 0x2351 JUMPI DUP3 SWAP1 SUB PUSH1 0x1F AND DUP3 ADD SWAP2 JUMPDEST POP POP POP POP POP DUP2 MSTORE PUSH1 0x20 ADD PUSH1 0x8 DUP3 ADD DUP1 SLOAD PUSH1 0x1 DUP2 PUSH1 0x1 AND ISZERO PUSH2 0x100 MUL SUB AND PUSH1 0x2 SWAP1 DIV DUP1 PUSH1 0x1F ADD PUSH1 0x20 DUP1 SWAP2 DIV MUL PUSH1 0x20 ADD PUSH1 0x40 MLOAD SWAP1 DUP2 ADD PUSH1 0x40 MSTORE DUP1 SWAP3 SWAP2 SWAP1 DUP2 DUP2 MSTORE PUSH1 0x20 ADD DUP3 DUP1 SLOAD PUSH1 0x1 DUP2 PUSH1 0x1 AND ISZERO PUSH2 0x100 MUL SUB AND PUSH1 0x2 SWAP1 DIV DUP1 ISZERO PUSH2 0x2410 JUMPI DUP1 PUSH1 0x1F LT PUSH2 0x23E5 JUMPI PUSH2 0x100 DUP1 DUP4 SLOAD DIV MUL DUP4 MSTORE SWAP2 PUSH1 0x20 ADD SWAP2 PUSH2 0x2410 JUMP JUMPDEST DUP3 ADD SWAP2 SWAP1 PUSH1 0x0 MSTORE PUSH1 0x20 PUSH1 0x0 KECCAK256 SWAP1 JUMPDEST DUP2 SLOAD DUP2 MSTORE SWAP1 PUSH1 0x1 ADD SWAP1 PUSH1 0x20 ADD DUP1 DUP4 GT PUSH2 0x23F3 JUMPI DUP3 SWAP1 SUB PUSH1 0x1F AND DUP3 ADD SWAP2 JUMPDEST POP POP POP POP POP DUP2 MSTORE POP POP DUP2 MSTORE POP POP DUP2 MSTORE POP POP DUP3 DUP5 DUP2 MLOAD DUP2 LT PUSH2 0x242D JUMPI INVALID JUMPDEST PUSH1 0x20 MUL PUSH1 0x20 ADD ADD DUP2 SWAP1 MSTORE POP POP DUP2 DUP1 PUSH1 0x1 ADD SWAP3 POP POP PUSH2 0x8FD JUMP JUMPDEST DUP1 SWAP3 POP POP POP SWAP1 JUMP JUMPDEST PUSH1 0x6 DUP2 DUP1 MLOAD PUSH1 0x20 DUP2 ADD DUP3 ADD DUP1 MLOAD DUP5 DUP3 MSTORE PUSH1 0x20 DUP4 ADD PUSH1 0x20 DUP6 ADD KECCAK256 DUP2 DUP4 MSTORE DUP1 SWAP6 POP POP POP POP POP POP PUSH1 0x0 SWAP2 POP SWAP1 POP DUP1 PUSH1 0x0 ADD DUP1 SLOAD PUSH1 0x1 DUP2 PUSH1 0x1 AND ISZERO PUSH2 0x100 MUL SUB AND PUSH1 0x2 SWAP1 DIV DUP1 PUSH1 0x1F ADD PUSH1 0x20 DUP1 SWAP2 DIV MUL PUSH1 0x20 ADD PUSH1 0x40 MLOAD SWAP1 DUP2 ADD PUSH1 0x40 MSTORE DUP1 SWAP3 SWAP2 SWAP1 DUP2 DUP2 MSTORE PUSH1 0x20 ADD DUP3 DUP1 SLOAD PUSH1 0x1 DUP2 PUSH1 0x1 AND ISZERO PUSH2 0x100 MUL SUB AND PUSH1 0x2 SWAP1 DIV DUP1 ISZERO PUSH2 0x2510 JUMPI DUP1 PUSH1 0x1F LT PUSH2 0x24E5 JUMPI PUSH2 0x100 DUP1 DUP4 SLOAD DIV MUL DUP4 MSTORE SWAP2 PUSH1 0x20 ADD SWAP2 PUSH2 0x2510 JUMP JUMPDEST DUP3 ADD SWAP2 SWAP1 PUSH1 0x0 MSTORE PUSH1 0x20 PUSH1 0x0 KECCAK256 SWAP1 JUMPDEST DUP2 SLOAD DUP2 MSTORE SWAP1 PUSH1 0x1 ADD SWAP1 PUSH1 0x20 ADD DUP1 DUP4 GT PUSH2 0x24F3 JUMPI DUP3 SWAP1 SUB PUSH1 0x1F AND DUP3 ADD SWAP2 JUMPDEST POP POP POP POP POP SWAP1 DUP1 PUSH1 0x1 ADD DUP1 SLOAD PUSH1 0x1 DUP2 PUSH1 0x1 AND ISZERO PUSH2 0x100 MUL SUB AND PUSH1 0x2 SWAP1 DIV DUP1 PUSH1 0x1F ADD PUSH1 0x20 DUP1 SWAP2 DIV MUL PUSH1 0x20 ADD PUSH1 0x40 MLOAD SWAP1 DUP2 ADD PUSH1 0x40 MSTORE DUP1 SWAP3 SWAP2 SWAP1 DUP2 DUP2 MSTORE PUSH1 0x20 ADD DUP3 DUP1 SLOAD PUSH1 0x1 DUP2 PUSH1 0x1 AND ISZERO PUSH2 0x100 MUL SUB AND PUSH1 0x2 SWAP1 DIV DUP1 ISZERO PUSH2 0x25AE JUMPI DUP1 PUSH1 0x1F LT PUSH2 0x2583 JUMPI PUSH2 0x100 DUP1 DUP4 SLOAD DIV MUL DUP4 MSTORE SWAP2 PUSH1 0x20 ADD SWAP2 PUSH2 0x25AE JUMP JUMPDEST DUP3 ADD SWAP2 SWAP1 PUSH1 0x0 MSTORE PUSH1 0x20 PUSH1 0x0 KECCAK256 SWAP1 JUMPDEST DUP2 SLOAD DUP2 MSTORE SWAP1 PUSH1 0x1 ADD SWAP1 PUSH1 0x20 ADD DUP1 DUP4 GT PUSH2 0x2591 JUMPI DUP3 SWAP1 SUB PUSH1 0x1F AND DUP3 ADD SWAP2 JUMPDEST POP POP POP POP POP SWAP1 DUP1 PUSH1 0x2 ADD DUP1 SLOAD PUSH1 0x1 DUP2 PUSH1 0x1 AND ISZERO PUSH2 0x100 MUL SUB AND PUSH1 0x2 SWAP1 DIV DUP1 PUSH1 0x1F ADD PUSH1 0x20 DUP1 SWAP2 DIV MUL PUSH1 0x20 ADD PUSH1 0x40 MLOAD SWAP1 DUP2 ADD PUSH1 0x40 MSTORE DUP1 SWAP3 SWAP2 SWAP1 DUP2 DUP2 MSTORE PUSH1 0x20 ADD DUP3 DUP1 SLOAD PUSH1 0x1 DUP2 PUSH1 0x1 AND ISZERO PUSH2 0x100 MUL SUB AND PUSH1 0x2 SWAP1 DIV DUP1 ISZERO PUSH2 0x264C JUMPI DUP1 PUSH1 0x1F LT PUSH2 0x2621 JUMPI PUSH2 0x100 DUP1 DUP4 SLOAD DIV MUL DUP4 MSTORE SWAP2 PUSH1 0x20 ADD SWAP2 PUSH2 0x264C JUMP JUMPDEST DUP3 ADD SWAP2 SWAP1 PUSH1 0x0 MSTORE PUSH1 0x20 PUSH1 0x0 KECCAK256 SWAP1 JUMPDEST DUP2 SLOAD DUP2 MSTORE SWAP1 PUSH1 0x1 ADD SWAP1 PUSH1 0x20 ADD DUP1 DUP4 GT PUSH2 0x262F JUMPI DUP3 SWAP1 SUB PUSH1 0x1F AND DUP3 ADD SWAP2 JUMPDEST POP POP POP POP POP SWAP1 POP DUP4 JUMP JUMPDEST PUSH1 0x2 DUP2 DUP1 MLOAD PUSH1 0x20 DUP2 ADD DUP3 ADD DUP1 MLOAD DUP5 DUP3 MSTORE PUSH1 0x20 DUP4 ADD PUSH1 0x20 DUP6 ADD KECCAK256 DUP2 DUP4 MSTORE DUP1 SWAP6 POP POP POP POP POP POP PUSH1 0x0 SWAP2 POP SWAP1 POP DUP1 PUSH1 0x0 ADD DUP1 SLOAD PUSH1 0x1 DUP2 PUSH1 0x1 AND ISZERO PUSH2 0x100 MUL SUB AND PUSH1 0x2 SWAP1 DIV DUP1 PUSH1 0x1F ADD PUSH1 0x20 DUP1 SWAP2 DIV MUL PUSH1 0x20 ADD PUSH1 0x40 MLOAD SWAP1 DUP2 ADD PUSH1 0x40 MSTORE DUP1 SWAP3 SWAP2 SWAP1 DUP2 DUP2 MSTORE PUSH1 0x20 ADD DUP3 DUP1 SLOAD PUSH1 0x1 DUP2 PUSH1 0x1 AND ISZERO PUSH2 0x100 MUL SUB AND PUSH1 0x2 SWAP1 DIV DUP1 ISZERO PUSH2 0x2718 JUMPI DUP1 PUSH1 0x1F LT PUSH2 0x26ED JUMPI PUSH2 0x100 DUP1 DUP4 SLOAD DIV MUL DUP4 MSTORE SWAP2 PUSH1 0x20 ADD SWAP2 PUSH2 0x2718 JUMP JUMPDEST DUP3 ADD SWAP2 SWAP1 PUSH1 0x0 MSTORE PUSH1 0x20 PUSH1 0x0 KECCAK256 SWAP1 JUMPDEST DUP2 SLOAD DUP2 MSTORE SWAP1 PUSH1 0x1 ADD SWAP1 PUSH1 0x20 ADD DUP1 DUP4 GT PUSH2 0x26FB JUMPI DUP3 SWAP1 SUB PUSH1 0x1F AND DUP3 ADD SWAP2 JUMPDEST POP POP POP POP POP SWAP1 DUP1 PUSH1 0x1 ADD DUP1 SLOAD PUSH1 0x1 DUP2 PUSH1 0x1 AND ISZERO PUSH2 0x100 MUL SUB AND PUSH1 0x2 SWAP1 DIV DUP1 PUSH1 0x1F ADD PUSH1 0x20 DUP1 SWAP2 DIV MUL PUSH1 0x20 ADD PUSH1 0x40 MLOAD SWAP1 DUP2 ADD PUSH1 0x40 MSTORE DUP1 SWAP3 SWAP2 SWAP1 DUP2 DUP2 MSTORE PUSH1 0x20 ADD DUP3 DUP1 SLOAD PUSH1 0x1 DUP2 PUSH1 0x1 AND ISZERO PUSH2 0x100 MUL SUB AND PUSH1 0x2 SWAP1 DIV DUP1 ISZERO PUSH2 0x27B6 JUMPI DUP1 PUSH1 0x1F LT PUSH2 0x278B JUMPI PUSH2 0x100 DUP1 DUP4 SLOAD DIV MUL DUP4 MSTORE SWAP2 PUSH1 0x20 ADD SWAP2 PUSH2 0x27B6 JUMP JUMPDEST DUP3 ADD SWAP2 SWAP1 PUSH1 0x0 MSTORE PUSH1 0x20 PUSH1 0x0 KECCAK256 SWAP1 JUMPDEST DUP2 SLOAD DUP2 MSTORE SWAP1 PUSH1 0x1 ADD SWAP1 PUSH1 0x20 ADD DUP1 DUP4 GT PUSH2 0x2799 JUMPI DUP3 SWAP1 SUB PUSH1 0x1F AND DUP3 ADD SWAP2 JUMPDEST POP POP POP POP POP SWAP1 DUP1 PUSH1 0x2 ADD PUSH1 0x0 SWAP1 SLOAD SWAP1 PUSH2 0x100 EXP SWAP1 DIV PUSH1 0xFF AND SWAP1 POP DUP4 JUMP JUMPDEST PUSH1 0x7 DUP2 DUP1 MLOAD PUSH1 0x20 DUP2 ADD DUP3 ADD DUP1 MLOAD DUP5 DUP3 MSTORE PUSH1 0x20 DUP4 ADD PUSH1 0x20 DUP6 ADD KECCAK256 DUP2 DUP4 MSTORE DUP1 SWAP6 POP POP POP POP POP POP PUSH1 0x0 SWAP2 POP SWAP1 POP DUP1 PUSH1 0x0 ADD DUP1 SLOAD PUSH1 0x1 DUP2 PUSH1 0x1 AND ISZERO PUSH2 0x100 MUL SUB AND PUSH1 0x2 SWAP1 DIV DUP1 PUSH1 0x1F ADD PUSH1 0x20 DUP1 SWAP2 DIV MUL PUSH1 0x20 ADD PUSH1 0x40 MLOAD SWAP1 DUP2 ADD PUSH1 0x40 MSTORE DUP1 SWAP3 SWAP2 SWAP1 DUP2 DUP2 MSTORE PUSH1 0x20 ADD DUP3 DUP1 SLOAD PUSH1 0x1 DUP2 PUSH1 0x1 AND ISZERO PUSH2 0x100 MUL SUB AND PUSH1 0x2 SWAP1 DIV DUP1 ISZERO PUSH2 0x2895 JUMPI DUP1 PUSH1 0x1F LT PUSH2 0x286A JUMPI PUSH2 0x100 DUP1 DUP4 SLOAD DIV MUL DUP4 MSTORE SWAP2 PUSH1 0x20 ADD SWAP2 PUSH2 0x2895 JUMP JUMPDEST DUP3 ADD SWAP2 SWAP1 PUSH1 0x0 MSTORE PUSH1 0x20 PUSH1 0x0 KECCAK256 SWAP1 JUMPDEST DUP2 SLOAD DUP2 MSTORE SWAP1 PUSH1 0x1 ADD SWAP1 PUSH1 0x20 ADD DUP1 DUP4 GT PUSH2 0x2878 JUMPI DUP3 SWAP1 SUB PUSH1 0x1F AND DUP3 ADD SWAP2 JUMPDEST POP POP POP POP POP SWAP1 DUP1 PUSH1 0x1 ADD DUP1 SLOAD PUSH1 0x1 DUP2 PUSH1 0x1 AND ISZERO PUSH2 0x100 MUL SUB AND PUSH1 0x2 SWAP1 DIV DUP1 PUSH1 0x1F ADD PUSH1 0x20 DUP1 SWAP2 DIV MUL PUSH1 0x20 ADD PUSH1 0x40 MLOAD SWAP1 DUP2 ADD PUSH1 0x40 MSTORE DUP1 SWAP3 SWAP2 SWAP1 DUP2 DUP2 MSTORE PUSH1 0x20 ADD DUP3 DUP1 SLOAD PUSH1 0x1 DUP2 PUSH1 0x1 AND ISZERO PUSH2 0x100 MUL SUB AND PUSH1 0x2 SWAP1 DIV DUP1 ISZERO PUSH2 0x2933 JUMPI DUP1 PUSH1 0x1F LT PUSH2 0x2908 JUMPI PUSH2 0x100 DUP1 DUP4 SLOAD DIV MUL DUP4 MSTORE SWAP2 PUSH1 0x20 ADD SWAP2 PUSH2 0x2933 JUMP JUMPDEST DUP3 ADD SWAP2 SWAP1 PUSH1 0x0 MSTORE PUSH1 0x20 PUSH1 0x0 KECCAK256 SWAP1 JUMPDEST DUP2 SLOAD DUP2 MSTORE SWAP1 PUSH1 0x1 ADD SWAP1 PUSH1 0x20 ADD DUP1 DUP4 GT PUSH2 0x2916 JUMPI DUP3 SWAP1 SUB PUSH1 0x1F AND DUP3 ADD SWAP2 JUMPDEST POP POP POP POP POP SWAP1 DUP1 PUSH1 0x2 ADD DUP1 SLOAD PUSH1 0x1 DUP2 PUSH1 0x1 AND ISZERO PUSH2 0x100 MUL SUB AND PUSH1 0x2 SWAP1 DIV DUP1 PUSH1 0x1F ADD PUSH1 0x20 DUP1 SWAP2 DIV MUL PUSH1 0x20 ADD PUSH1 0x40 MLOAD SWAP1 DUP2 ADD PUSH1 0x40 MSTORE DUP1 SWAP3 SWAP2 SWAP1 DUP2 DUP2 MSTORE PUSH1 0x20 ADD DUP3 DUP1 SLOAD PUSH1 0x1 DUP2 PUSH1 0x1 AND ISZERO PUSH2 0x100 MUL SUB AND PUSH1 0x2 SWAP1 DIV DUP1 ISZERO PUSH2 0x29D1 JUMPI DUP1 PUSH1 0x1F LT PUSH2 0x29A6 JUMPI PUSH2 0x100 DUP1 DUP4 SLOAD DIV MUL DUP4 MSTORE SWAP2 PUSH1 0x20 ADD SWAP2 PUSH2 0x29D1 JUMP JUMPDEST DUP3 ADD SWAP2 SWAP1 PUSH1 0x0 MSTORE PUSH1 0x20 PUSH1 0x0 KECCAK256 SWAP1 JUMPDEST DUP2 SLOAD DUP2 MSTORE SWAP1 PUSH1 0x1 ADD SWAP1 PUSH1 0x20 ADD DUP1 DUP4 GT PUSH2 0x29B4 JUMPI DUP3 SWAP1 SUB PUSH1 0x1F AND DUP3 ADD SWAP2 JUMPDEST POP POP POP POP POP SWAP1 DUP1 PUSH1 0x3 ADD DUP1 SLOAD PUSH1 0x1 DUP2 PUSH1 0x1 AND ISZERO PUSH2 0x100 MUL SUB AND PUSH1 0x2 SWAP1 DIV DUP1 PUSH1 0x1F ADD PUSH1 0x20 DUP1 SWAP2 DIV MUL PUSH1 0x20 ADD PUSH1 0x40 MLOAD SWAP1 DUP2 ADD PUSH1 0x40 MSTORE DUP1 SWAP3 SWAP2 SWAP1 DUP2 DUP2 MSTORE PUSH1 0x20 ADD DUP3 DUP1 SLOAD PUSH1 0x1 DUP2 PUSH1 0x1 AND ISZERO PUSH2 0x100 MUL SUB AND PUSH1 0x2 SWAP1 DIV DUP1 ISZERO PUSH2 0x2A6F JUMPI DUP1 PUSH1 0x1F LT PUSH2 0x2A44 JUMPI PUSH2 0x100 DUP1 DUP4 SLOAD DIV MUL DUP4 MSTORE SWAP2 PUSH1 0x20 ADD SWAP2 PUSH2 0x2A6F JUMP JUMPDEST DUP3 ADD SWAP2 SWAP1 PUSH1 0x0 MSTORE PUSH1 0x20 PUSH1 0x0 KECCAK256 SWAP1 JUMPDEST DUP2 SLOAD DUP2 MSTORE SWAP1 PUSH1 0x1 ADD SWAP1 PUSH1 0x20 ADD DUP1 DUP4 GT PUSH2 0x2A52 JUMPI DUP3 SWAP1 SUB PUSH1 0x1F AND DUP3 ADD SWAP2 JUMPDEST POP POP POP POP POP SWAP1 POP DUP5 JUMP JUMPDEST PUSH1 0x9 DUP2 DUP2 SLOAD DUP2 LT PUSH2 0x2A86 JUMPI INVALID JUMPDEST SWAP1 PUSH1 0x0 MSTORE PUSH1 0x20 PUSH1 0x0 KECCAK256 SWAP1 PUSH1 0x5 MUL ADD PUSH1 0x0 SWAP2 POP SWAP1 POP DUP1 PUSH1 0x0 ADD DUP1 SLOAD PUSH1 0x1 DUP2 PUSH1 0x1 AND ISZERO PUSH2 0x100 MUL SUB AND PUSH1 0x2 SWAP1 DIV DUP1 PUSH1 0x1F ADD PUSH1 0x20 DUP1 SWAP2 DIV MUL PUSH1 0x20 ADD PUSH1 0x40 MLOAD SWAP1 DUP2 ADD PUSH1 0x40 MSTORE DUP1 SWAP3 SWAP2 SWAP1 DUP2 DUP2 MSTORE PUSH1 0x20 ADD DUP3 DUP1 SLOAD PUSH1 0x1 DUP2 PUSH1 0x1 AND ISZERO PUSH2 0x100 MUL SUB AND PUSH1 0x2 SWAP1 DIV DUP1 ISZERO PUSH2 0x2B32 JUMPI DUP1 PUSH1 0x1F LT PUSH2 0x2B07 JUMPI PUSH2 0x100 DUP1 DUP4 SLOAD DIV MUL DUP4 MSTORE SWAP2 PUSH1 0x20 ADD SWAP2 PUSH2 0x2B32 JUMP JUMPDEST DUP3 ADD SWAP2 SWAP1 PUSH1 0x0 MSTORE PUSH1 0x20 PUSH1 0x0 KECCAK256 SWAP1 JUMPDEST DUP2 SLOAD DUP2 MSTORE SWAP1 PUSH1 0x1 ADD SWAP1 PUSH1 0x20 ADD DUP1 DUP4 GT PUSH2 0x2B15 JUMPI DUP3 SWAP1 SUB PUSH1 0x1F AND DUP3 ADD SWAP2 JUMPDEST POP POP POP POP POP SWAP1 DUP1 PUSH1 0x1 ADD DUP1 SLOAD PUSH1 0x1 DUP2 PUSH1 0x1 AND ISZERO PUSH2 0x100 MUL SUB AND PUSH1 0x2 SWAP1 DIV DUP1 PUSH1 0x1F ADD PUSH1 0x20 DUP1 SWAP2 DIV MUL PUSH1 0x20 ADD PUSH1 0x40 MLOAD SWAP1 DUP2 ADD PUSH1 0x40 MSTORE DUP1 SWAP3 SWAP2 SWAP1 DUP2 DUP2 MSTORE PUSH1 0x20 ADD DUP3 DUP1 SLOAD PUSH1 0x1 DUP2 PUSH1 0x1 AND ISZERO PUSH2 0x100 MUL SUB AND PUSH1 0x2 SWAP1 DIV DUP1 ISZERO PUSH2 0x2BD0 JUMPI DUP1 PUSH1 0x1F LT PUSH2 0x2BA5 JUMPI PUSH2 0x100 DUP1 DUP4 SLOAD DIV MUL DUP4 MSTORE SWAP2 PUSH1 0x20 ADD SWAP2 PUSH2 0x2BD0 JUMP JUMPDEST DUP3 ADD SWAP2 SWAP1 PUSH1 0x0 MSTORE PUSH1 0x20 PUSH1 0x0 KECCAK256 SWAP1 JUMPDEST DUP2 SLOAD DUP2 MSTORE SWAP1 PUSH1 0x1 ADD SWAP1 PUSH1 0x20 ADD DUP1 DUP4 GT PUSH2 0x2BB3 JUMPI DUP3 SWAP1 SUB PUSH1 0x1F AND DUP3 ADD SWAP2 JUMPDEST POP POP POP POP POP SWAP1 DUP1 PUSH1 0x2 ADD DUP1 SLOAD PUSH1 0x1 DUP2 PUSH1 0x1 AND ISZERO PUSH2 0x100 MUL SUB AND PUSH1 0x2 SWAP1 DIV DUP1 PUSH1 0x1F ADD PUSH1 0x20 DUP1 SWAP2 DIV MUL PUSH1 0x20 ADD PUSH1 0x40 MLOAD SWAP1 DUP2 ADD PUSH1 0x40 MSTORE DUP1 SWAP3 SWAP2 SWAP1 DUP2 DUP2 MSTORE PUSH1 0x20 ADD DUP3 DUP1 SLOAD PUSH1 0x1 DUP2 PUSH1 0x1 AND ISZERO PUSH2 0x100 MUL SUB AND PUSH1 0x2 SWAP1 DIV DUP1 ISZERO PUSH2 0x2C6E JUMPI DUP1 PUSH1 0x1F LT PUSH2 0x2C43 JUMPI PUSH2 0x100 DUP1 DUP4 SLOAD DIV MUL DUP4 MSTORE SWAP2 PUSH1 0x20 ADD SWAP2 PUSH2 0x2C6E JUMP JUMPDEST DUP3 ADD SWAP2 SWAP1 PUSH1 0x0 MSTORE PUSH1 0x20 PUSH1 0x0 KECCAK256 SWAP1 JUMPDEST DUP2 SLOAD DUP2 MSTORE SWAP1 PUSH1 0x1 ADD SWAP1 PUSH1 0x20 ADD DUP1 DUP4 GT PUSH2 0x2C51 JUMPI DUP3 SWAP1 SUB PUSH1 0x1F AND DUP3 ADD SWAP2 JUMPDEST POP POP POP POP POP SWAP1 DUP1 PUSH1 0x3 ADD DUP1 SLOAD PUSH1 0x1 DUP2 PUSH1 0x1 AND ISZERO PUSH2 0x100 MUL SUB AND PUSH1 0x2 SWAP1 DIV DUP1 PUSH1 0x1F ADD PUSH1 0x20 DUP1 SWAP2 DIV MUL PUSH1 0x20 ADD PUSH1 0x40 MLOAD SWAP1 DUP2 ADD PUSH1 0x40 MSTORE DUP1 SWAP3 SWAP2 SWAP1 DUP2 DUP2 MSTORE PUSH1 0x20 ADD DUP3 DUP1 SLOAD PUSH1 0x1 DUP2 PUSH1 0x1 AND ISZERO PUSH2 0x100 MUL SUB AND PUSH1 0x2 SWAP1 DIV DUP1 ISZERO PUSH2 0x2D0C JUMPI DUP1 PUSH1 0x1F LT PUSH2 0x2CE1 JUMPI PUSH2 0x100 DUP1 DUP4 SLOAD DIV MUL DUP4 MSTORE SWAP2 PUSH1 0x20 ADD SWAP2 PUSH2 0x2D0C JUMP JUMPDEST DUP3 ADD SWAP2 SWAP1 PUSH1 0x0 MSTORE PUSH1 0x20 PUSH1 0x0 KECCAK256 SWAP1 JUMPDEST DUP2 SLOAD DUP2 MSTORE SWAP1 PUSH1 0x1 ADD SWAP1 PUSH1 0x20 ADD DUP1 DUP4 GT PUSH2 0x2CEF JUMPI DUP3 SWAP1 SUB PUSH1 0x1F AND DUP3 ADD SWAP2 JUMPDEST POP POP POP POP POP SWAP1 POP DUP5 JUMP JUMPDEST PUSH1 0x8 DUP2 DUP2 SLOAD DUP2 LT PUSH2 0x2D23 JUMPI INVALID JUMPDEST SWAP1 PUSH1 0x0 MSTORE PUSH1 0x20 PUSH1 0x0 KECCAK256 SWAP1 PUSH1 0x4 MUL ADD PUSH1 0x0 SWAP2 POP SWAP1 POP DUP1 PUSH1 0x0 ADD DUP1 SLOAD PUSH1 0x1 DUP2 PUSH1 0x1 AND ISZERO PUSH2 0x100 MUL SUB AND PUSH1 0x2 SWAP1 DIV DUP1 PUSH1 0x1F ADD PUSH1 0x20 DUP1 SWAP2 DIV MUL PUSH1 0x20 ADD PUSH1 0x40 MLOAD SWAP1 DUP2 ADD PUSH1 0x40 MSTORE DUP1 SWAP3 SWAP2 SWAP1 DUP2 DUP2 MSTORE PUSH1 0x20 ADD DUP3 DUP1 SLOAD PUSH1 0x1 DUP2 PUSH1 0x1 AND ISZERO PUSH2 0x100 MUL SUB AND PUSH1 0x2 SWAP1 DIV DUP1 ISZERO PUSH2 0x2DCF JUMPI DUP1 PUSH1 0x1F LT PUSH2 0x2DA4 JUMPI PUSH2 0x100 DUP1 DUP4 SLOAD DIV MUL DUP4 MSTORE SWAP2 PUSH1 0x20 ADD SWAP2 PUSH2 0x2DCF JUMP JUMPDEST DUP3 ADD SWAP2 SWAP1 PUSH1 0x0 MSTORE PUSH1 0x20 PUSH1 0x0 KECCAK256 SWAP1 JUMPDEST DUP2 SLOAD DUP2 MSTORE SWAP1 PUSH1 0x1 ADD SWAP1 PUSH1 0x20 ADD DUP1 DUP4 GT PUSH2 0x2DB2 JUMPI DUP3 SWAP1 SUB PUSH1 0x1F AND DUP3 ADD SWAP2 JUMPDEST POP POP POP POP POP SWAP1 DUP1 PUSH1 0x1 ADD DUP1 SLOAD PUSH1 0x1 DUP2 PUSH1 0x1 AND ISZERO PUSH2 0x100 MUL SUB AND PUSH1 0x2 SWAP1 DIV DUP1 PUSH1 0x1F ADD PUSH1 0x20 DUP1 SWAP2 DIV MUL PUSH1 0x20 ADD PUSH1 0x40 MLOAD SWAP1 DUP2 ADD PUSH1 0x40 MSTORE DUP1 SWAP3 SWAP2 SWAP1 DUP2 DUP2 MSTORE PUSH1 0x20 ADD DUP3 DUP1 SLOAD PUSH1 0x1 DUP2 PUSH1 0x1 AND ISZERO PUSH2 0x100 MUL SUB AND PUSH1 0x2 SWAP1 DIV DUP1 ISZERO PUSH2 0x2E6D JUMPI DUP1 PUSH1 0x1F LT PUSH2 0x2E42 JUMPI PUSH2 0x100 DUP1 DUP4 SLOAD DIV MUL DUP4 MSTORE SWAP2 PUSH1 0x20 ADD SWAP2 PUSH2 0x2E6D JUMP JUMPDEST DUP3 ADD SWAP2 SWAP1 PUSH1 0x0 MSTORE PUSH1 0x20 PUSH1 0x0 KECCAK256 SWAP1 JUMPDEST DUP2 SLOAD DUP2 MSTORE SWAP1 PUSH1 0x1 ADD SWAP1 PUSH1 0x20 ADD DUP1 DUP4 GT PUSH2 0x2E50 JUMPI DUP3 SWAP1 SUB PUSH1 0x1F AND DUP3 ADD SWAP2 JUMPDEST POP POP POP POP POP SWAP1 DUP1 PUSH1 0x2 ADD DUP1 SLOAD PUSH1 0x1 DUP2 PUSH1 0x1 AND ISZERO PUSH2 0x100 MUL SUB AND PUSH1 0x2 SWAP1 DIV DUP1 PUSH1 0x1F ADD PUSH1 0x20 DUP1 SWAP2 DIV MUL PUSH1 0x20 ADD PUSH1 0x40 MLOAD SWAP1 DUP2 ADD PUSH1 0x40 MSTORE DUP1 SWAP3 SWAP2 SWAP1 DUP2 DUP2 MSTORE PUSH1 0x20 ADD DUP3 DUP1 SLOAD PUSH1 0x1 DUP2 PUSH1 0x1 AND ISZERO PUSH2 0x100 MUL SUB AND PUSH1 0x2 SWAP1 DIV DUP1 ISZERO PUSH2 0x2F0B JUMPI DUP1 PUSH1 0x1F LT PUSH2 0x2EE0 JUMPI PUSH2 0x100 DUP1 DUP4 SLOAD DIV MUL DUP4 MSTORE SWAP2 PUSH1 0x20 ADD SWAP2 PUSH2 0x2F0B JUMP JUMPDEST DUP3 ADD SWAP2 SWAP1 PUSH1 0x0 MSTORE PUSH1 0x20 PUSH1 0x0 KECCAK256 SWAP1 JUMPDEST DUP2 SLOAD DUP2 MSTORE SWAP1 PUSH1 0x1 ADD SWAP1 PUSH1 0x20 ADD DUP1 DUP4 GT PUSH2 0x2EEE JUMPI DUP3 SWAP1 SUB PUSH1 0x1F AND DUP3 ADD SWAP2 JUMPDEST POP POP POP POP POP SWAP1 POP DUP4 JUMP JUMPDEST PUSH1 0x40 MLOAD DUP1 PUSH1 0x80 ADD PUSH1 0x40 MSTORE DUP1 PUSH1 0x0 DUP2 MSTORE PUSH1 0x20 ADD PUSH2 0x2F2F PUSH2 0x2F4F JUMP JUMPDEST DUP2 MSTORE PUSH1 0x20 ADD PUSH2 0x2F3C PUSH2 0x2F69 JUMP JUMPDEST DUP2 MSTORE PUSH1 0x20 ADD PUSH2 0x2F49 PUSH2 0x2FB5 JUMP JUMPDEST DUP2 MSTORE POP SWAP1 JUMP JUMPDEST PUSH1 0x40 MLOAD DUP1 PUSH1 0x40 ADD PUSH1 0x40 MSTORE DUP1 PUSH1 0x60 DUP2 MSTORE PUSH1 0x20 ADD PUSH1 0x60 DUP2 MSTORE POP SWAP1 JUMP JUMPDEST PUSH1 0x40 MLOAD DUP1 PUSH1 0xC0 ADD PUSH1 0x40 MSTORE DUP1 PUSH1 0x60 DUP2 MSTORE PUSH1 0x20 ADD PUSH1 0x60 DUP2 MSTORE PUSH1 0x20 ADD PUSH1 0x60 DUP2 MSTORE PUSH1 0x20 ADD PUSH1 0x60 DUP2 MSTORE PUSH1 0x20 ADD PUSH1 0x60 DUP2 MSTORE PUSH1 0x20 ADD PUSH1 0x0 PUSH20 0xFFFFFFFFFFFFFFFFFFFFFFFFFFFFFFFFFFFFFFFF AND DUP2 MSTORE POP SWAP1 JUMP JUMPDEST PUSH1 0x40 MLOAD DUP1 PUSH2 0x1E0 ADD PUSH1 0x40 MSTORE DUP1 PUSH1 0x60 DUP2 MSTORE PUSH1 0x20 ADD PUSH1 0x60 DUP2 MSTORE PUSH1 0x20 ADD PUSH1 0x60 DUP2 MSTORE PUSH1 0x20 ADD PUSH1 0x60 DUP2 MSTORE PUSH1 0x20 ADD PUSH1 0x60 DUP2 MSTORE PUSH1 0x20 ADD PUSH1 0x60 DUP2 MSTORE PUSH1 0x20 ADD PUSH1 0x60 DUP2 MSTORE PUSH1 0x20 ADD PUSH1 0x60 DUP2 MSTORE PUSH1 0x20 ADD PUSH1 0x60 DUP2 MSTORE PUSH1 0x20 ADD PUSH1 0x60 DUP2 MSTORE PUSH1 0x20 ADD PUSH1 0x60 DUP2 MSTORE PUSH1 0x20 ADD PUSH1 0x60 DUP2 MSTORE PUSH1 0x20 ADD PUSH1 0x60 DUP2 MSTORE PUSH1 0x20 ADD PUSH1 0x60 DUP2 MSTORE PUSH1 0x20 ADD PUSH2 0x302B PUSH2 0x3031 JUMP JUMPDEST DUP2 MSTORE POP SWAP1 JUMP JUMPDEST PUSH1 0x40 MLOAD DUP1 PUSH2 0x120 ADD PUSH1 0x40 MSTORE DUP1 PUSH1 0x60 DUP2 MSTORE PUSH1 0x20 ADD PUSH1 0x60 DUP2 MSTORE PUSH1 0x20 ADD PUSH1 0x60 DUP2 MSTORE PUSH1 0x20 ADD PUSH1 0x60 DUP2 MSTORE PUSH1 0x20 ADD PUSH1 0x60 DUP2 MSTORE PUSH1 0x20 ADD PUSH1 0x60 DUP2 MSTORE PUSH1 0x20 ADD PUSH1 0x60 DUP2 MSTORE PUSH1 0x20 ADD PUSH1 0x60 DUP2 MSTORE PUSH1 0x20 ADD PUSH1 0x60 DUP2 MSTORE POP SWAP1 JUMP JUMPDEST PUSH1 0x0 DUP3 PUSH1 0x1F DUP4 ADD SLT PUSH2 0x308E JUMPI PUSH1 0x0 DUP1 REVERT JUMPDEST DUP2 CALLDATALOAD PUSH2 0x30A1 PUSH2 0x309C DUP3 PUSH2 0x3BC4 JUMP JUMPDEST PUSH2 0x3B97 JUMP JUMPDEST SWAP2 POP DUP1 DUP3 MSTORE PUSH1 0x20 DUP4 ADD PUSH1 0x20 DUP4 ADD DUP6 DUP4 DUP4 ADD GT ISZERO PUSH2 0x30BD JUMPI PUSH1 0x0 DUP1 REVERT JUMPDEST PUSH2 0x30C8 DUP4 DUP3 DUP5 PUSH2 0x3D82 JUMP JUMPDEST POP POP POP SWAP3 SWAP2 POP POP JUMP JUMPDEST PUSH1 0x0 DUP2 CALLDATALOAD SWAP1 POP PUSH2 0x30E0 DUP2 PUSH2 0x3DD5 JUMP JUMPDEST SWAP3 SWAP2 POP POP JUMP JUMPDEST PUSH1 0x0 PUSH1 0x20 DUP3 DUP5 SUB SLT ISZERO PUSH2 0x30F8 JUMPI PUSH1 0x0 DUP1 REVERT JUMPDEST PUSH1 0x0 DUP3 ADD CALLDATALOAD PUSH8 0xFFFFFFFFFFFFFFFF DUP2 GT ISZERO PUSH2 0x3112 JUMPI PUSH1 0x0 DUP1 REVERT JUMPDEST PUSH2 0x311E DUP5 DUP3 DUP6 ADD PUSH2 0x307D JUMP JUMPDEST SWAP2 POP POP SWAP3 SWAP2 POP POP JUMP JUMPDEST PUSH1 0x0 PUSH1 0x20 DUP3 DUP5 SUB SLT ISZERO PUSH2 0x3139 JUMPI PUSH1 0x0 DUP1 REVERT JUMPDEST PUSH1 0x0 PUSH2 0x3147 DUP5 DUP3 DUP6 ADD PUSH2 0x30D1 JUMP JUMPDEST SWAP2 POP POP SWAP3 SWAP2 POP POP JUMP JUMPDEST PUSH1 0x0 PUSH2 0x315C DUP4 DUP4 PUSH2 0x3641 JUMP JUMPDEST SWAP1 POP SWAP3 SWAP2 POP POP JUMP JUMPDEST PUSH1 0x0 PUSH2 0x3170 DUP4 DUP4 PUSH2 0x36C9 JUMP JUMPDEST SWAP1 POP SWAP3 SWAP2 POP POP JUMP JUMPDEST PUSH1 0x0 PUSH2 0x3184 DUP4 DUP4 PUSH2 0x37DF JUMP JUMPDEST SWAP1 POP SWAP3 SWAP2 POP POP JUMP JUMPDEST PUSH1 0x0 PUSH2 0x3198 DUP4 DUP4 PUSH2 0x3857 JUMP JUMPDEST SWAP1 POP SWAP3 SWAP2 POP POP JUMP JUMPDEST PUSH1 0x0 PUSH2 0x31AC DUP4 DUP4 PUSH2 0x38AE JUMP JUMPDEST SWAP1 POP SWAP3 SWAP2 POP POP JUMP JUMPDEST PUSH2 0x31BD DUP2 PUSH2 0x3D3A JUMP JUMPDEST DUP3 MSTORE POP POP JUMP JUMPDEST PUSH1 0x0 PUSH2 0x31CE DUP3 PUSH2 0x3C40 JUMP JUMPDEST PUSH2 0x31D8 DUP2 DUP6 PUSH2 0x3CC3 JUMP JUMPDEST SWAP4 POP DUP4 PUSH1 0x20 DUP3 MUL DUP6 ADD PUSH2 0x31EA DUP6 PUSH2 0x3BF0 JUMP JUMPDEST DUP1 PUSH1 0x0 JUMPDEST DUP6 DUP2 LT ISZERO PUSH2 0x3226 JUMPI DUP5 DUP5 SUB DUP10 MSTORE DUP2 MLOAD PUSH2 0x3207 DUP6 DUP3 PUSH2 0x3150 JUMP JUMPDEST SWAP5 POP PUSH2 0x3212 DUP4 PUSH2 0x3C82 JUMP JUMPDEST SWAP3 POP PUSH1 0x20 DUP11 ADD SWAP10 POP POP PUSH1 0x1 DUP2 ADD SWAP1 POP PUSH2 0x31EE JUMP JUMPDEST POP DUP3 SWAP8 POP DUP8 SWAP6 POP POP POP POP POP POP SWAP3 SWAP2 POP POP JUMP JUMPDEST PUSH1 0x0 PUSH2 0x3243 DUP3 PUSH2 0x3C4B JUMP JUMPDEST PUSH2 0x324D DUP2 DUP6 PUSH2 0x3CD4 JUMP JUMPDEST SWAP4 POP DUP4 PUSH1 0x20 DUP3 MUL DUP6 ADD PUSH2 0x325F DUP6 PUSH2 0x3C00 JUMP JUMPDEST DUP1 PUSH1 0x0 JUMPDEST DUP6 DUP2 LT ISZERO PUSH2 0x329B JUMPI DUP5 DUP5 SUB DUP10 MSTORE DUP2 MLOAD PUSH2 0x327C DUP6 DUP3 PUSH2 0x3164 JUMP JUMPDEST SWAP5 POP PUSH2 0x3287 DUP4 PUSH2 0x3C8F JUMP JUMPDEST SWAP3 POP PUSH1 0x20 DUP11 ADD SWAP10 POP POP PUSH1 0x1 DUP2 ADD SWAP1 POP PUSH2 0x3263 JUMP JUMPDEST POP DUP3 SWAP8 POP DUP8 SWAP6 POP POP POP POP POP POP SWAP3 SWAP2 POP POP JUMP JUMPDEST PUSH1 0x0 PUSH2 0x32B8 DUP3 PUSH2 0x3C56 JUMP JUMPDEST PUSH2 0x32C2 DUP2 DUP6 PUSH2 0x3CE5 JUMP JUMPDEST SWAP4 POP DUP4 PUSH1 0x20 DUP3 MUL DUP6 ADD PUSH2 0x32D4 DUP6 PUSH2 0x3C10 JUMP JUMPDEST DUP1 PUSH1 0x0 JUMPDEST DUP6 DUP2 LT ISZERO PUSH2 0x3310 JUMPI DUP5 DUP5 SUB DUP10 MSTORE DUP2 MLOAD PUSH2 0x32F1 DUP6 DUP3 PUSH2 0x3178 JUMP JUMPDEST SWAP5 POP PUSH2 0x32FC DUP4 PUSH2 0x3C9C JUMP JUMPDEST SWAP3 POP PUSH1 0x20 DUP11 ADD SWAP10 POP POP PUSH1 0x1 DUP2 ADD SWAP1 POP PUSH2 0x32D8 JUMP JUMPDEST POP DUP3 SWAP8 POP DUP8 SWAP6 POP POP POP POP POP POP SWAP3 SWAP2 POP POP JUMP JUMPDEST PUSH1 0x0 PUSH2 0x332D DUP3 PUSH2 0x3C61 JUMP JUMPDEST PUSH2 0x3337 DUP2 DUP6 PUSH2 0x3CF6 JUMP JUMPDEST SWAP4 POP DUP4 PUSH1 0x20 DUP3 MUL DUP6 ADD PUSH2 0x3349 DUP6 PUSH2 0x3C20 JUMP JUMPDEST DUP1 PUSH1 0x0 JUMPDEST DUP6 DUP2 LT ISZERO PUSH2 0x3385 JUMPI DUP5 DUP5 SUB DUP10 MSTORE DUP2 MLOAD PUSH2 0x3366 DUP6 DUP3 PUSH2 0x318C JUMP JUMPDEST SWAP5 POP PUSH2 0x3371 DUP4 PUSH2 0x3CA9 JUMP JUMPDEST SWAP3 POP PUSH1 0x20 DUP11 ADD SWAP10 POP POP PUSH1 0x1 DUP2 ADD SWAP1 POP PUSH2 0x334D JUMP JUMPDEST POP DUP3 SWAP8 POP DUP8 SWAP6 POP POP POP POP POP POP SWAP3 SWAP2 POP POP JUMP JUMPDEST PUSH1 0x0 PUSH2 0x33A2 DUP3 PUSH2 0x3C6C JUMP JUMPDEST PUSH2 0x33AC DUP2 DUP6 PUSH2 0x3D07 JUMP JUMPDEST SWAP4 POP DUP4 PUSH1 0x20 DUP3 MUL DUP6 ADD PUSH2 0x33BE DUP6 PUSH2 0x3C30 JUMP JUMPDEST DUP1 PUSH1 0x0 JUMPDEST DUP6 DUP2 LT ISZERO PUSH2 0x33FA JUMPI DUP5 DUP5 SUB DUP10 MSTORE DUP2 MLOAD PUSH2 0x33DB DUP6 DUP3 PUSH2 0x31A0 JUMP JUMPDEST SWAP5 POP PUSH2 0x33E6 DUP4 PUSH2 0x3CB6 JUMP JUMPDEST SWAP3 POP PUSH1 0x20 DUP11 ADD SWAP10 POP POP PUSH1 0x1 DUP2 ADD SWAP1 POP PUSH2 0x33C2 JUMP JUMPDEST POP DUP3 SWAP8 POP DUP8 SWAP6 POP POP POP POP POP POP SWAP3 SWAP2 POP POP JUMP JUMPDEST PUSH2 0x3415 DUP2 PUSH2 0x3D4C JUMP JUMPDEST DUP3 MSTORE POP POP JUMP JUMPDEST PUSH2 0x3424 DUP2 PUSH2 0x3D4C JUMP JUMPDEST DUP3 MSTORE POP POP JUMP JUMPDEST PUSH1 0x0 PUSH2 0x3435 DUP3 PUSH2 0x3C77 JUMP JUMPDEST PUSH2 0x343F DUP2 DUP6 PUSH2 0x3D18 JUMP JUMPDEST SWAP4 POP PUSH2 0x344F DUP2 DUP6 PUSH1 0x20 DUP7 ADD PUSH2 0x3D91 JUMP JUMPDEST PUSH2 0x3458 DUP2 PUSH2 0x3DC4 JUMP JUMPDEST DUP5 ADD SWAP2 POP POP SWAP3 SWAP2 POP POP JUMP JUMPDEST PUSH1 0x0 PUSH2 0x346E DUP3 PUSH2 0x3C77 JUMP JUMPDEST PUSH2 0x3478 DUP2 DUP6 PUSH2 0x3D29 JUMP JUMPDEST SWAP4 POP PUSH2 0x3488 DUP2 DUP6 PUSH1 0x20 DUP7 ADD PUSH2 0x3D91 JUMP JUMPDEST PUSH2 0x3491 DUP2 PUSH2 0x3DC4 JUMP JUMPDEST DUP5 ADD SWAP2 POP POP SWAP3 SWAP2 POP POP JUMP JUMPDEST PUSH1 0x0 PUSH2 0x1E0 DUP4 ADD PUSH1 0x0 DUP4 ADD MLOAD DUP5 DUP3 SUB PUSH1 0x0 DUP7 ADD MSTORE PUSH2 0x34BA DUP3 DUP3 PUSH2 0x342A JUMP JUMPDEST SWAP2 POP POP PUSH1 0x20 DUP4 ADD MLOAD DUP5 DUP3 SUB PUSH1 0x20 DUP7 ADD MSTORE PUSH2 0x34D4 DUP3 DUP3 PUSH2 0x342A JUMP JUMPDEST SWAP2 POP POP PUSH1 0x40 DUP4 ADD MLOAD DUP5 DUP3 SUB PUSH1 0x40 DUP7 ADD MSTORE PUSH2 0x34EE DUP3 DUP3 PUSH2 0x342A JUMP JUMPDEST SWAP2 POP POP PUSH1 0x60 DUP4 ADD MLOAD DUP5 DUP3 SUB PUSH1 0x60 DUP7 ADD MSTORE PUSH2 0x3508 DUP3 DUP3 PUSH2 0x342A JUMP JUMPDEST SWAP2 POP POP PUSH1 0x80 DUP4 ADD MLOAD DUP5 DUP3 SUB PUSH1 0x80 DUP7 ADD MSTORE PUSH2 0x3522 DUP3 DUP3 PUSH2 0x342A JUMP JUMPDEST SWAP2 POP POP PUSH1 0xA0 DUP4 ADD MLOAD DUP5 DUP3 SUB PUSH1 0xA0 DUP7 ADD MSTORE PUSH2 0x353C DUP3 DUP3 PUSH2 0x342A JUMP JUMPDEST SWAP2 POP POP PUSH1 0xC0 DUP4 ADD MLOAD DUP5 DUP3 SUB PUSH1 0xC0 DUP7 ADD MSTORE PUSH2 0x3556 DUP3 DUP3 PUSH2 0x342A JUMP JUMPDEST SWAP2 POP POP PUSH1 0xE0 DUP4 ADD MLOAD DUP5 DUP3 SUB PUSH1 0xE0 DUP7 ADD MSTORE PUSH2 0x3570 DUP3 DUP3 PUSH2 0x342A JUMP JUMPDEST SWAP2 POP POP PUSH2 0x100 DUP4 ADD MLOAD DUP5 DUP3 SUB PUSH2 0x100 DUP7 ADD MSTORE PUSH2 0x358C DUP3 DUP3 PUSH2 0x342A JUMP JUMPDEST SWAP2 POP POP PUSH2 0x120 DUP4 ADD MLOAD DUP5 DUP3 SUB PUSH2 0x120 DUP7 ADD MSTORE PUSH2 0x35A8 DUP3 DUP3 PUSH2 0x342A JUMP JUMPDEST SWAP2 POP POP PUSH2 0x140 DUP4 ADD MLOAD DUP5 DUP3 SUB PUSH2 0x140 DUP7 ADD MSTORE PUSH2 0x35C4 DUP3 DUP3 PUSH2 0x342A JUMP JUMPDEST SWAP2 POP POP PUSH2 0x160 DUP4 ADD MLOAD DUP5 DUP3 SUB PUSH2 0x160 DUP7 ADD MSTORE PUSH2 0x35E0 DUP3 DUP3 PUSH2 0x342A JUMP JUMPDEST SWAP2 POP POP PUSH2 0x180 DUP4 ADD MLOAD DUP5 DUP3 SUB PUSH2 0x180 DUP7 ADD MSTORE PUSH2 0x35FC DUP3 DUP3 PUSH2 0x342A JUMP JUMPDEST SWAP2 POP POP PUSH2 0x1A0 DUP4 ADD MLOAD DUP5 DUP3 SUB PUSH2 0x1A0 DUP7 ADD MSTORE PUSH2 0x3618 DUP3 DUP3 PUSH2 0x342A JUMP JUMPDEST SWAP2 POP POP PUSH2 0x1C0 DUP4 ADD MLOAD DUP5 DUP3 SUB PUSH2 0x1C0 DUP7 ADD MSTORE PUSH2 0x3634 DUP3 DUP3 PUSH2 0x3940 JUMP JUMPDEST SWAP2 POP POP DUP1 SWAP2 POP POP SWAP3 SWAP2 POP POP JUMP JUMPDEST PUSH1 0x0 PUSH1 0x40 DUP4 ADD PUSH1 0x0 DUP4 ADD MLOAD DUP5 DUP3 SUB PUSH1 0x0 DUP7 ADD MSTORE PUSH2 0x365E DUP3 DUP3 PUSH2 0x342A JUMP JUMPDEST SWAP2 POP POP PUSH1 0x20 DUP4 ADD MLOAD DUP5 DUP3 SUB PUSH1 0x20 DUP7 ADD MSTORE PUSH2 0x3678 DUP3 DUP3 PUSH2 0x342A JUMP JUMPDEST SWAP2 POP POP DUP1 SWAP2 POP POP SWAP3 SWAP2 POP POP JUMP JUMPDEST PUSH1 0x0 PUSH1 0x40 DUP4 ADD PUSH1 0x0 DUP4 ADD MLOAD DUP5 DUP3 SUB PUSH1 0x0 DUP7 ADD MSTORE PUSH2 0x36A2 DUP3 DUP3 PUSH2 0x32AD JUMP JUMPDEST SWAP2 POP POP PUSH1 0x20 DUP4 ADD MLOAD DUP5 DUP3 SUB PUSH1 0x20 DUP7 ADD MSTORE PUSH2 0x36BC DUP3 DUP3 PUSH2 0x3397 JUMP JUMPDEST SWAP2 POP POP DUP1 SWAP2 POP POP SWAP3 SWAP2 POP POP JUMP JUMPDEST PUSH1 0x0 PUSH1 0x80 DUP4 ADD PUSH1 0x0 DUP4 ADD MLOAD PUSH2 0x36E1 PUSH1 0x0 DUP7 ADD DUP3 PUSH2 0x3A3D JUMP JUMPDEST POP PUSH1 0x20 DUP4 ADD MLOAD DUP5 DUP3 SUB PUSH1 0x20 DUP7 ADD MSTORE PUSH2 0x36F9 DUP3 DUP3 PUSH2 0x3685 JUMP JUMPDEST SWAP2 POP POP PUSH1 0x40 DUP4 ADD MLOAD DUP5 DUP3 SUB PUSH1 0x40 DUP7 ADD MSTORE PUSH2 0x3713 DUP3 DUP3 PUSH2 0x373A JUMP JUMPDEST SWAP2 POP POP PUSH1 0x60 DUP4 ADD MLOAD DUP5 DUP3 SUB PUSH1 0x60 DUP7 ADD MSTORE PUSH2 0x372D DUP3 DUP3 PUSH2 0x349C JUMP JUMPDEST SWAP2 POP POP DUP1 SWAP2 POP POP SWAP3 SWAP2 POP POP JUMP JUMPDEST PUSH1 0x0 PUSH1 0xC0 DUP4 ADD PUSH1 0x0 DUP4 ADD MLOAD DUP5 DUP3 SUB PUSH1 0x0 DUP7 ADD MSTORE PUSH2 0x3757 DUP3 DUP3 PUSH2 0x342A JUMP JUMPDEST SWAP2 POP POP PUSH1 0x20 DUP4 ADD MLOAD DUP5 DUP3 SUB PUSH1 0x20 DUP7 ADD MSTORE PUSH2 0x3771 DUP3 DUP3 PUSH2 0x342A JUMP JUMPDEST SWAP2 POP POP PUSH1 0x40 DUP4 ADD MLOAD DUP5 DUP3 SUB PUSH1 0x40 DUP7 ADD MSTORE PUSH2 0x378B DUP3 DUP3 PUSH2 0x342A JUMP JUMPDEST SWAP2 POP POP PUSH1 0x60 DUP4 ADD MLOAD DUP5 DUP3 SUB PUSH1 0x60 DUP7 ADD MSTORE PUSH2 0x37A5 DUP3 DUP3 PUSH2 0x342A JUMP JUMPDEST SWAP2 POP POP PUSH1 0x80 DUP4 ADD MLOAD DUP5 DUP3 SUB PUSH1 0x80 DUP7 ADD MSTORE PUSH2 0x37BF DUP3 DUP3 PUSH2 0x342A JUMP JUMPDEST SWAP2 POP POP PUSH1 0xA0 DUP4 ADD MLOAD PUSH2 0x37D4 PUSH1 0xA0 DUP7 ADD DUP3 PUSH2 0x31B4 JUMP JUMPDEST POP DUP1 SWAP2 POP POP SWAP3 SWAP2 POP POP JUMP JUMPDEST PUSH1 0x0 PUSH1 0x80 DUP4 ADD PUSH1 0x0 DUP4 ADD MLOAD DUP5 DUP3 SUB PUSH1 0x0 DUP7 ADD MSTORE PUSH2 0x37FC DUP3 DUP3 PUSH2 0x342A JUMP JUMPDEST SWAP2 POP POP PUSH1 0x20 DUP4 ADD MLOAD DUP5 DUP3 SUB PUSH1 0x20 DUP7 ADD MSTORE PUSH2 0x3816 DUP3 DUP3 PUSH2 0x342A JUMP JUMPDEST SWAP2 POP POP PUSH1 0x40 DUP4 ADD MLOAD DUP5 DUP3 SUB PUSH1 0x40 DUP7 ADD MSTORE PUSH2 0x3830 DUP3 DUP3 PUSH2 0x342A JUMP JUMPDEST SWAP2 POP POP PUSH1 0x60 DUP4 ADD MLOAD DUP5 DUP3 SUB PUSH1 0x60 DUP7 ADD MSTORE PUSH2 0x384A DUP3 DUP3 PUSH2 0x3322 JUMP JUMPDEST SWAP2 POP POP DUP1 SWAP2 POP POP SWAP3 SWAP2 POP POP JUMP JUMPDEST PUSH1 0x0 PUSH1 0x60 DUP4 ADD PUSH1 0x0 DUP4 ADD MLOAD DUP5 DUP3 SUB PUSH1 0x0 DUP7 ADD MSTORE PUSH2 0x3874 DUP3 DUP3 PUSH2 0x342A JUMP JUMPDEST SWAP2 POP POP PUSH1 0x20 DUP4 ADD MLOAD DUP5 DUP3 SUB PUSH1 0x20 DUP7 ADD MSTORE PUSH2 0x388E DUP3 DUP3 PUSH2 0x342A JUMP JUMPDEST SWAP2 POP POP PUSH1 0x40 DUP4 ADD MLOAD PUSH2 0x38A3 PUSH1 0x40 DUP7 ADD DUP3 PUSH2 0x340C JUMP JUMPDEST POP DUP1 SWAP2 POP POP SWAP3 SWAP2 POP POP JUMP JUMPDEST PUSH1 0x0 PUSH1 0xA0 DUP4 ADD PUSH1 0x0 DUP4 ADD MLOAD DUP5 DUP3 SUB PUSH1 0x0 DUP7 ADD MSTORE PUSH2 0x38CB DUP3 DUP3 PUSH2 0x342A JUMP JUMPDEST SWAP2 POP POP PUSH1 0x20 DUP4 ADD MLOAD DUP5 DUP3 SUB PUSH1 0x20 DUP7 ADD MSTORE PUSH2 0x38E5 DUP3 DUP3 PUSH2 0x342A JUMP JUMPDEST SWAP2 POP POP PUSH1 0x40 DUP4 ADD MLOAD DUP5 DUP3 SUB PUSH1 0x40 DUP7 ADD MSTORE PUSH2 0x38FF DUP3 DUP3 PUSH2 0x342A JUMP JUMPDEST SWAP2 POP POP PUSH1 0x60 DUP4 ADD MLOAD DUP5 DUP3 SUB PUSH1 0x60 DUP7 ADD MSTORE PUSH2 0x3919 DUP3 DUP3 PUSH2 0x342A JUMP JUMPDEST SWAP2 POP POP PUSH1 0x80 DUP4 ADD MLOAD DUP5 DUP3 SUB PUSH1 0x80 DUP7 ADD MSTORE PUSH2 0x3933 DUP3 DUP3 PUSH2 0x31C3 JUMP JUMPDEST SWAP2 POP POP DUP1 SWAP2 POP POP SWAP3 SWAP2 POP POP JUMP JUMPDEST PUSH1 0x0 PUSH2 0x120 DUP4 ADD PUSH1 0x0 DUP4 ADD MLOAD DUP5 DUP3 SUB PUSH1 0x0 DUP7 ADD MSTORE PUSH2 0x395E DUP3 DUP3 PUSH2 0x342A JUMP JUMPDEST SWAP2 POP POP PUSH1 0x20 DUP4 ADD MLOAD DUP5 DUP3 SUB PUSH1 0x20 DUP7 ADD MSTORE PUSH2 0x3978 DUP3 DUP3 PUSH2 0x342A JUMP JUMPDEST SWAP2 POP POP PUSH1 0x40 DUP4 ADD MLOAD DUP5 DUP3 SUB PUSH1 0x40 DUP7 ADD MSTORE PUSH2 0x3992 DUP3 DUP3 PUSH2 0x342A JUMP JUMPDEST SWAP2 POP POP PUSH1 0x60 DUP4 ADD MLOAD DUP5 DUP3 SUB PUSH1 0x60 DUP7 ADD MSTORE PUSH2 0x39AC DUP3 DUP3 PUSH2 0x342A JUMP JUMPDEST SWAP2 POP POP PUSH1 0x80 DUP4 ADD MLOAD DUP5 DUP3 SUB PUSH1 0x80 DUP7 ADD MSTORE PUSH2 0x39C6 DUP3 DUP3 PUSH2 0x342A JUMP JUMPDEST SWAP2 POP POP PUSH1 0xA0 DUP4 ADD MLOAD DUP5 DUP3 SUB PUSH1 0xA0 DUP7 ADD MSTORE PUSH2 0x39E0 DUP3 DUP3 PUSH2 0x342A JUMP JUMPDEST SWAP2 POP POP PUSH1 0xC0 DUP4 ADD MLOAD DUP5 DUP3 SUB PUSH1 0xC0 DUP7 ADD MSTORE PUSH2 0x39FA DUP3 DUP3 PUSH2 0x342A JUMP JUMPDEST SWAP2 POP POP PUSH1 0xE0 DUP4 ADD MLOAD DUP5 DUP3 SUB PUSH1 0xE0 DUP7 ADD MSTORE PUSH2 0x3A14 DUP3 DUP3 PUSH2 0x342A JUMP JUMPDEST SWAP2 POP POP PUSH2 0x100 DUP4 ADD MLOAD DUP5 DUP3 SUB PUSH2 0x100 DUP7 ADD MSTORE PUSH2 0x3A30 DUP3 DUP3 PUSH2 0x342A JUMP JUMPDEST SWAP2 POP POP DUP1 SWAP2 POP POP SWAP3 SWAP2 POP POP JUMP JUMPDEST PUSH2 0x3A46 DUP2 PUSH2 0x3D78 JUMP JUMPDEST DUP3 MSTORE POP POP JUMP JUMPDEST PUSH1 0x0 PUSH1 0x20 DUP3 ADD SWAP1 POP DUP2 DUP2 SUB PUSH1 0x0 DUP4 ADD MSTORE PUSH2 0x3A66 DUP2 DUP5 PUSH2 0x3238 JUMP JUMPDEST SWAP1 POP SWAP3 SWAP2 POP POP JUMP JUMPDEST PUSH1 0x0 PUSH1 0x40 DUP3 ADD SWAP1 POP DUP2 DUP2 SUB PUSH1 0x0 DUP4 ADD MSTORE PUSH2 0x3A88 DUP2 DUP6 PUSH2 0x3463 JUMP JUMPDEST SWAP1 POP DUP2 DUP2 SUB PUSH1 0x20 DUP4 ADD MSTORE PUSH2 0x3A9C DUP2 DUP5 PUSH2 0x3463 JUMP JUMPDEST SWAP1 POP SWAP4 SWAP3 POP POP POP JUMP JUMPDEST PUSH1 0x0 PUSH1 0x60 DUP3 ADD SWAP1 POP DUP2 DUP2 SUB PUSH1 0x0 DUP4 ADD MSTORE PUSH2 0x3ABF DUP2 DUP7 PUSH2 0x3463 JUMP JUMPDEST SWAP1 POP DUP2 DUP2 SUB PUSH1 0x20 DUP4 ADD MSTORE PUSH2 0x3AD3 DUP2 DUP6 PUSH2 0x3463 JUMP JUMPDEST SWAP1 POP PUSH2 0x3AE2 PUSH1 0x40 DUP4 ADD DUP5 PUSH2 0x341B JUMP JUMPDEST SWAP5 SWAP4 POP POP POP POP JUMP JUMPDEST PUSH1 0x0 PUSH1 0x60 DUP3 ADD SWAP1 POP DUP2 DUP2 SUB PUSH1 0x0 DUP4 ADD MSTORE PUSH2 0x3B04 DUP2 DUP7 PUSH2 0x3463 JUMP JUMPDEST SWAP1 POP DUP2 DUP2 SUB PUSH1 0x20 DUP4 ADD MSTORE PUSH2 0x3B18 DUP2 DUP6 PUSH2 0x3463 JUMP JUMPDEST SWAP1 POP DUP2 DUP2 SUB PUSH1 0x40 DUP4 ADD MSTORE PUSH2 0x3B2C DUP2 DUP5 PUSH2 0x3463 JUMP JUMPDEST SWAP1 POP SWAP5 SWAP4 POP POP POP POP JUMP JUMPDEST PUSH1 0x0 PUSH1 0x80 DUP3 ADD SWAP1 POP DUP2 DUP2 SUB PUSH1 0x0 DUP4 ADD MSTORE PUSH2 0x3B50 DUP2 DUP8 PUSH2 0x3463 JUMP JUMPDEST SWAP1 POP DUP2 DUP2 SUB PUSH1 0x20 DUP4 ADD MSTORE PUSH2 0x3B64 DUP2 DUP7 PUSH2 0x3463 JUMP JUMPDEST SWAP1 POP DUP2 DUP2 SUB PUSH1 0x40 DUP4 ADD MSTORE PUSH2 0x3B78 DUP2 DUP6 PUSH2 0x3463 JUMP JUMPDEST SWAP1 POP DUP2 DUP2 SUB PUSH1 0x60 DUP4 ADD MSTORE PUSH2 0x3B8C DUP2 DUP5 PUSH2 0x3463 JUMP JUMPDEST SWAP1 POP SWAP6 SWAP5 POP POP POP POP POP JUMP JUMPDEST PUSH1 0x0 PUSH1 0x40 MLOAD SWAP1 POP DUP2 DUP2 ADD DUP2 DUP2 LT PUSH8 0xFFFFFFFFFFFFFFFF DUP3 GT OR ISZERO PUSH2 0x3BBA JUMPI PUSH1 0x0 DUP1 REVERT JUMPDEST DUP1 PUSH1 0x40 MSTORE POP SWAP2 SWAP1 POP JUMP JUMPDEST PUSH1 0x0 PUSH8 0xFFFFFFFFFFFFFFFF DUP3 GT ISZERO PUSH2 0x3BDB JUMPI PUSH1 0x0 DUP1 REVERT JUMPDEST PUSH1 0x1F NOT PUSH1 0x1F DUP4 ADD AND SWAP1 POP PUSH1 0x20 DUP2 ADD SWAP1 POP SWAP2 SWAP1 POP JUMP JUMPDEST PUSH1 0x0 DUP2 SWAP1 POP PUSH1 0x20 DUP3 ADD SWAP1 POP SWAP2 SWAP1 POP JUMP JUMPDEST PUSH1 0x0 DUP2 SWAP1 POP PUSH1 0x20 DUP3 ADD SWAP1 POP SWAP2 SWAP1 POP JUMP JUMPDEST PUSH1 0x0 DUP2 SWAP1 POP PUSH1 0x20 DUP3 ADD SWAP1 POP SWAP2 SWAP1 POP JUMP JUMPDEST PUSH1 0x0 DUP2 SWAP1 POP PUSH1 0x20 DUP3 ADD SWAP1 POP SWAP2 SWAP1 POP JUMP JUMPDEST PUSH1 0x0 DUP2 SWAP1 POP PUSH1 0x20 DUP3 ADD SWAP1 POP SWAP2 SWAP1 POP JUMP JUMPDEST PUSH1 0x0 DUP2 MLOAD SWAP1 POP SWAP2 SWAP1 POP JUMP JUMPDEST PUSH1 0x0 DUP2 MLOAD SWAP1 POP SWAP2 SWAP1 POP JUMP JUMPDEST PUSH1 0x0 DUP2 MLOAD SWAP1 POP SWAP2 SWAP1 POP JUMP JUMPDEST PUSH1 0x0 DUP2 MLOAD SWAP1 POP SWAP2 SWAP1 POP JUMP JUMPDEST PUSH1 0x0 DUP2 MLOAD SWAP1 POP SWAP2 SWAP1 POP JUMP JUMPDEST PUSH1 0x0 DUP2 MLOAD SWAP1 POP SWAP2 SWAP1 POP JUMP JUMPDEST PUSH1 0x0 PUSH1 0x20 DUP3 ADD SWAP1 POP SWAP2 SWAP1 POP JUMP JUMPDEST PUSH1 0x0 PUSH1 0x20 DUP3 ADD SWAP1 POP SWAP2 SWAP1 POP JUMP JUMPDEST PUSH1 0x0 PUSH1 0x20 DUP3 ADD SWAP1 POP SWAP2 SWAP1 POP JUMP JUMPDEST PUSH1 0x0 PUSH1 0x20 DUP3 ADD SWAP1 POP SWAP2 SWAP1 POP JUMP JUMPDEST PUSH1 0x0 PUSH1 0x20 DUP3 ADD SWAP1 POP SWAP2 SWAP1 POP JUMP JUMPDEST PUSH1 0x0 DUP3 DUP3 MSTORE PUSH1 0x20 DUP3 ADD SWAP1 POP SWAP3 SWAP2 POP POP JUMP JUMPDEST PUSH1 0x0 DUP3 DUP3 MSTORE PUSH1 0x20 DUP3 ADD SWAP1 POP SWAP3 SWAP2 POP POP JUMP JUMPDEST PUSH1 0x0 DUP3 DUP3 MSTORE PUSH1 0x20 DUP3 ADD SWAP1 POP SWAP3 SWAP2 POP POP JUMP JUMPDEST PUSH1 0x0 DUP3 DUP3 MSTORE PUSH1 0x20 DUP3 ADD SWAP1 POP SWAP3 SWAP2 POP POP JUMP JUMPDEST PUSH1 0x0 DUP3 DUP3 MSTORE PUSH1 0x20 DUP3 ADD SWAP1 POP SWAP3 SWAP2 POP POP JUMP JUMPDEST PUSH1 0x0 DUP3 DUP3 MSTORE PUSH1 0x20 DUP3 ADD SWAP1 POP SWAP3 SWAP2 POP POP JUMP JUMPDEST PUSH1 0x0 DUP3 DUP3 MSTORE PUSH1 0x20 DUP3 ADD SWAP1 POP SWAP3 SWAP2 POP POP JUMP JUMPDEST PUSH1 0x0 PUSH2 0x3D45 DUP3 PUSH2 0x3D58 JUMP JUMPDEST SWAP1 POP SWAP2 SWAP1 POP JUMP JUMPDEST PUSH1 0x0 DUP2 ISZERO ISZERO SWAP1 POP SWAP2 SWAP1 POP JUMP JUMPDEST PUSH1 0x0 PUSH20 0xFFFFFFFFFFFFFFFFFFFFFFFFFFFFFFFFFFFFFFFF DUP3 AND SWAP1 POP SWAP2 SWAP1 POP JUMP JUMPDEST PUSH1 0x0 DUP2 SWAP1 POP SWAP2 SWAP1 POP JUMP JUMPDEST DUP3 DUP2 DUP4 CALLDATACOPY PUSH1 0x0 DUP4 DUP4 ADD MSTORE POP POP POP JUMP JUMPDEST PUSH1 0x0 JUMPDEST DUP4 DUP2 LT ISZERO PUSH2 0x3DAF JUMPI DUP1 DUP3 ADD MLOAD DUP2 DUP5 ADD MSTORE PUSH1 0x20 DUP2 ADD SWAP1 POP PUSH2 0x3D94 JUMP JUMPDEST DUP4 DUP2 GT ISZERO PUSH2 0x3DBE JUMPI PUSH1 0x0 DUP5 DUP5 ADD MSTORE JUMPDEST POP POP POP POP JUMP JUMPDEST PUSH1 0x0 PUSH1 0x1F NOT PUSH1 0x1F DUP4 ADD AND SWAP1 POP SWAP2 SWAP1 POP JUMP JUMPDEST PUSH2 0x3DDE DUP2 PUSH2 0x3D78 JUMP JUMPDEST DUP2 EQ PUSH2 0x3DE9 JUMPI PUSH1 0x0 DUP1 REVERT JUMPDEST POP JUMP INVALID LOG3 PUSH6 0x627A7A723158 KECCAK256 PUSH14 0x2ADEF8FCE60CA010FC875F8730B9 CODESIZE SAR SWAP8 0xEB 0x26 0x2E 0x28 ISZERO SHR 0xD9 0xDD 0x2B ISZERO 0xF 0xEC 0xCC CHAINID PUSH13 0x6578706572696D656E74616CF5 PUSH5 0x736F6C6343 STOP SDIV LT STOP BLOCKHASH PUSH1 0x80 PUSH1 0x40 MSTORE CALLVALUE DUP1 ISZERO PUSH1 0xF JUMPI PUSH1 0x0 DUP1 REVERT JUMPDEST POP PUSH1 0x3E DUP1 PUSH1 0x1D PUSH1 0x0 CODECOPY PUSH1 0x0 RETURN INVALID PUSH1 0x80 PUSH1 0x40 MSTORE PUSH1 0x0 DUP1 REVERT INVALID LOG2 PUSH6 0x627A7A723158 KECCAK256 0xD9 0xC2 0xAA DUP7 0x4E PUSH2 0x28C1 PUSH14 0x7BD4C0BAD9936E99DCE67B3C08AD PUSH27 0x4EACBF90E8D10A3664736F6C634300051000320000000000000000 "
				},
				"gasEstimates": {
					"creation": {
						"codeDepositCost": "3183800",
						"executionCost": "infinite",
						"totalCost": "infinite"
					},
					"external": {
						"FunctinputOutputlist(uint256)": "infinite",
						"FunctinputOutputs(string)": "infinite",
						"eventOutputList(uint256)": "infinite",
						"eventOutputs(string)": "infinite",
						"events(string)": "infinite",
						"eventsList(uint256)": "infinite",
						"functions(string)": "infinite",
						"functionsList(uint256)": "infinite",
						"getsrd()": "infinite",
						"providers(uint256)": "infinite"
					}
				},
				"methodIdentifiers": {
					"FunctinputOutputlist(uint256)": "60f5b692",
					"FunctinputOutputs(string)": "2e0cf740",
					"eventOutputList(uint256)": "332bc3da",
					"eventOutputs(string)": "b536cbfa",
					"events(string)": "9673d6a3",
					"eventsList(uint256)": "f087c8eb",
					"functions(string)": "c17e7295",
					"functionsList(uint256)": "caa6cfc1",
					"getsrd()": "6614aa8e",
					"providers(uint256)": "50f3fc81"
				}
			},
			"storageLayout": {
				"storage": [
					{
						"astId": 31,
						"contract": "contracts/DSD/SmartRegistryData.sol:SmartRegistryData",
						"label": "descriptionNumber",
						"offset": 0,
						"slot": "0",
						"type": "t_uint256"
					},
					{
						"astId": 42,
						"contract": "contracts/DSD/SmartRegistryData.sol:SmartRegistryData",
						"label": "providers",
						"offset": 0,
						"slot": "1",
						"type": "t_mapping(t_uint256,t_struct(provider)38_storage)"
					},
					{
						"astId": 121,
						"contract": "contracts/DSD/SmartRegistryData.sol:SmartRegistryData",
						"label": "eventOutputs",
						"offset": 0,
						"slot": "2",
						"type": "t_mapping(t_string_memory,t_struct(eventOutput)117_storage)"
					},
					{
						"astId": 125,
						"contract": "contracts/DSD/SmartRegistryData.sol:SmartRegistryData",
						"label": "FunctinputOutputs",
						"offset": 0,
						"slot": "3",
						"type": "t_mapping(t_string_memory,t_struct(FunctinputOutput)110_storage)"
					},
					{
						"astId": 128,
						"contract": "contracts/DSD/SmartRegistryData.sol:SmartRegistryData",
						"label": "FunctinputOutputlist",
						"offset": 0,
						"slot": "4",
						"type": "t_array(t_struct(FunctinputOutput)110_storage)dyn_storage"
					},
					{
						"astId": 131,
						"contract": "contracts/DSD/SmartRegistryData.sol:SmartRegistryData",
						"label": "eventOutputList",
						"offset": 0,
						"slot": "5",
						"type": "t_array(t_struct(eventOutput)117_storage)dyn_storage"
					},
					{
						"astId": 157,
						"contract": "contracts/DSD/SmartRegistryData.sol:SmartRegistryData",
						"label": "events",
						"offset": 0,
						"slot": "6",
						"type": "t_mapping(t_string_memory,t_struct(eventContract)141_storage)"
					},
					{
						"astId": 161,
						"contract": "contracts/DSD/SmartRegistryData.sol:SmartRegistryData",
						"label": "functions",
						"offset": 0,
						"slot": "7",
						"type": "t_mapping(t_string_memory,t_struct(funtionContract)153_storage)"
					},
					{
						"astId": 164,
						"contract": "contracts/DSD/SmartRegistryData.sol:SmartRegistryData",
						"label": "eventsList",
						"offset": 0,
						"slot": "8",
						"type": "t_array(t_struct(eventContract)141_storage)dyn_storage"
					},
					{
						"astId": 167,
						"contract": "contracts/DSD/SmartRegistryData.sol:SmartRegistryData",
						"label": "functionsList",
						"offset": 0,
						"slot": "9",
						"type": "t_array(t_struct(funtionContract)153_storage)dyn_storage"
					},
					{
						"astId": 187,
						"contract": "contracts/DSD/SmartRegistryData.sol:SmartRegistryData",
						"label": "SCDdATAS",
						"offset": 0,
						"slot": "10",
						"type": "t_mapping(t_uint256,t_struct(SCDATA)183_storage)"
					}
				],
				"types": {
					"t_address": {
						"encoding": "inplace",
						"label": "address",
						"numberOfBytes": "20"
					},
					"t_array(t_struct(FunctinputOutput)110_storage)dyn_storage": {
						"base": "t_struct(FunctinputOutput)110_storage",
						"encoding": "dynamic_array",
						"label": "struct SmartRegistryData.FunctinputOutput[]",
						"numberOfBytes": "32"
					},
					"t_array(t_struct(eventContract)141_storage)dyn_storage": {
						"base": "t_struct(eventContract)141_storage",
						"encoding": "dynamic_array",
						"label": "struct SmartRegistryData.eventContract[]",
						"numberOfBytes": "32"
					},
					"t_array(t_struct(eventOutput)117_storage)dyn_storage": {
						"base": "t_struct(eventOutput)117_storage",
						"encoding": "dynamic_array",
						"label": "struct SmartRegistryData.eventOutput[]",
						"numberOfBytes": "32"
					},
					"t_array(t_struct(funtionContract)153_storage)dyn_storage": {
						"base": "t_struct(funtionContract)153_storage",
						"encoding": "dynamic_array",
						"label": "struct SmartRegistryData.funtionContract[]",
						"numberOfBytes": "32"
					},
					"t_bool": {
						"encoding": "inplace",
						"label": "bool",
						"numberOfBytes": "1"
					},
					"t_mapping(t_string_memory,t_struct(FunctinputOutput)110_storage)": {
						"encoding": "mapping",
						"key": "t_string_memory",
						"label": "mapping(string => struct SmartRegistryData.FunctinputOutput)",
						"numberOfBytes": "32",
						"value": "t_struct(FunctinputOutput)110_storage"
					},
					"t_mapping(t_string_memory,t_struct(eventContract)141_storage)": {
						"encoding": "mapping",
						"key": "t_string_memory",
						"label": "mapping(string => struct SmartRegistryData.eventContract)",
						"numberOfBytes": "32",
						"value": "t_struct(eventContract)141_storage"
					},
					"t_mapping(t_string_memory,t_struct(eventOutput)117_storage)": {
						"encoding": "mapping",
						"key": "t_string_memory",
						"label": "mapping(string => struct SmartRegistryData.eventOutput)",
						"numberOfBytes": "32",
						"value": "t_struct(eventOutput)117_storage"
					},
					"t_mapping(t_string_memory,t_struct(funtionContract)153_storage)": {
						"encoding": "mapping",
						"key": "t_string_memory",
						"label": "mapping(string => struct SmartRegistryData.funtionContract)",
						"numberOfBytes": "32",
						"value": "t_struct(funtionContract)153_storage"
					},
					"t_mapping(t_uint256,t_struct(SCDATA)183_storage)": {
						"encoding": "mapping",
						"key": "t_uint256",
						"label": "mapping(uint256 => struct SmartRegistryData.SCDATA)",
						"numberOfBytes": "32",
						"value": "t_struct(SCDATA)183_storage"
					},
					"t_mapping(t_uint256,t_struct(provider)38_storage)": {
						"encoding": "mapping",
						"key": "t_uint256",
						"label": "mapping(uint256 => struct SmartRegistryData.provider)",
						"numberOfBytes": "32",
						"value": "t_struct(provider)38_storage"
					},
					"t_string_memory": {
						"encoding": "bytes",
						"label": "string",
						"numberOfBytes": "32"
					},
					"t_string_storage": {
						"encoding": "bytes",
						"label": "string",
						"numberOfBytes": "32"
					},
					"t_struct(BusnissPerspective)73_storage": {
						"encoding": "inplace",
						"label": "struct SmartRegistryData.BusnissPerspective",
						"members": [
							{
								"astId": 44,
								"contract": "contracts/DSD/SmartRegistryData.sol:SmartRegistryData",
								"label": "adress",
								"offset": 0,
								"slot": "0",
								"type": "t_string_storage"
							},
							{
								"astId": 46,
								"contract": "contracts/DSD/SmartRegistryData.sol:SmartRegistryData",
								"label": "creationDate",
								"offset": 0,
								"slot": "1",
								"type": "t_string_storage"
							},
							{
								"astId": 48,
								"contract": "contracts/DSD/SmartRegistryData.sol:SmartRegistryData",
								"label": "UpdateDate",
								"offset": 0,
								"slot": "2",
								"type": "t_string_storage"
							},
							{
								"astId": 50,
								"contract": "contracts/DSD/SmartRegistryData.sol:SmartRegistryData",
								"label": "typeB",
								"offset": 0,
								"slot": "3",
								"type": "t_string_storage"
							},
							{
								"astId": 52,
								"contract": "contracts/DSD/SmartRegistryData.sol:SmartRegistryData",
								"label": "category",
								"offset": 0,
								"slot": "4",
								"type": "t_string_storage"
							},
							{
								"astId": 54,
								"contract": "contracts/DSD/SmartRegistryData.sol:SmartRegistryData",
								"label": "abiB",
								"offset": 0,
								"slot": "5",
								"type": "t_string_storage"
							},
							{
								"astId": 56,
								"contract": "contracts/DSD/SmartRegistryData.sol:SmartRegistryData",
								"label": "bin",
								"offset": 0,
								"slot": "6",
								"type": "t_string_storage"
							},
							{
								"astId": 58,
								"contract": "contracts/DSD/SmartRegistryData.sol:SmartRegistryData",
								"label": "discription",
								"offset": 0,
								"slot": "7",
								"type": "t_string_storage"
							},
							{
								"astId": 60,
								"contract": "contracts/DSD/SmartRegistryData.sol:SmartRegistryData",
								"label": "usedCompiler",
								"offset": 0,
								"slot": "8",
								"type": "t_string_storage"
							},
							{
								"astId": 62,
								"contract": "contracts/DSD/SmartRegistryData.sol:SmartRegistryData",
								"label": "usedRessources",
								"offset": 0,
								"slot": "9",
								"type": "t_string_storage"
							},
							{
								"astId": 64,
								"contract": "contracts/DSD/SmartRegistryData.sol:SmartRegistryData",
								"label": "userInterface",
								"offset": 0,
								"slot": "10",
								"type": "t_string_storage"
							},
							{
								"astId": 66,
								"contract": "contracts/DSD/SmartRegistryData.sol:SmartRegistryData",
								"label": "FutureUserTupe",
								"offset": 0,
								"slot": "11",
								"type": "t_string_storage"
							},
							{
								"astId": 68,
								"contract": "contracts/DSD/SmartRegistryData.sol:SmartRegistryData",
								"label": "provideradress",
								"offset": 0,
								"slot": "12",
								"type": "t_string_storage"
							},
							{
								"astId": 70,
								"contract": "contracts/DSD/SmartRegistryData.sol:SmartRegistryData",
								"label": "consumerProfileadress",
								"offset": 0,
								"slot": "13",
								"type": "t_string_storage"
							},
							{
								"astId": 72,
								"contract": "contracts/DSD/SmartRegistryData.sol:SmartRegistryData",
								"label": "qoschara",
								"offset": 0,
								"slot": "14",
								"type": "t_struct(qosCharacteristics)92_storage"
							}
						],
						"numberOfBytes": "736"
					},
					"t_struct(FunctinputOutput)110_storage": {
						"encoding": "inplace",
						"label": "struct SmartRegistryData.FunctinputOutput",
						"members": [
							{
								"astId": 107,
								"contract": "contracts/DSD/SmartRegistryData.sol:SmartRegistryData",
								"label": "name",
								"offset": 0,
								"slot": "0",
								"type": "t_string_storage"
							},
							{
								"astId": 109,
								"contract": "contracts/DSD/SmartRegistryData.sol:SmartRegistryData",
								"label": "t",
								"offset": 0,
								"slot": "1",
								"type": "t_string_storage"
							}
						],
						"numberOfBytes": "64"
					},
					"t_struct(OperationalPerspective)174_storage": {
						"encoding": "inplace",
						"label": "struct SmartRegistryData.OperationalPerspective",
						"members": [
							{
								"astId": 170,
								"contract": "contracts/DSD/SmartRegistryData.sol:SmartRegistryData",
								"label": "eventsList",
								"offset": 0,
								"slot": "0",
								"type": "t_array(t_struct(eventContract)141_storage)dyn_storage"
							},
							{
								"astId": 173,
								"contract": "contracts/DSD/SmartRegistryData.sol:SmartRegistryData",
								"label": "functionsList",
								"offset": 0,
								"slot": "1",
								"type": "t_array(t_struct(funtionContract)153_storage)dyn_storage"
							}
						],
						"numberOfBytes": "64"
					},
					"t_struct(SCDATA)183_storage": {
						"encoding": "inplace",
						"label": "struct SmartRegistryData.SCDATA",
						"members": [
							{
								"astId": 176,
								"contract": "contracts/DSD/SmartRegistryData.sol:SmartRegistryData",
								"label": "id",
								"offset": 0,
								"slot": "0",
								"type": "t_uint256"
							},
							{
								"astId": 178,
								"contract": "contracts/DSD/SmartRegistryData.sol:SmartRegistryData",
								"label": "op",
								"offset": 0,
								"slot": "1",
								"type": "t_struct(OperationalPerspective)174_storage"
							},
							{
								"astId": 180,
								"contract": "contracts/DSD/SmartRegistryData.sol:SmartRegistryData",
								"label": "tp",
								"offset": 0,
								"slot": "3",
								"type": "t_struct(TechnicalPerspective)105_storage"
							},
							{
								"astId": 182,
								"contract": "contracts/DSD/SmartRegistryData.sol:SmartRegistryData",
								"label": "bp",
								"offset": 0,
								"slot": "9",
								"type": "t_struct(BusnissPerspective)73_storage"
							}
						],
						"numberOfBytes": "1024"
					},
					"t_struct(TechnicalPerspective)105_storage": {
						"encoding": "inplace",
						"label": "struct SmartRegistryData.TechnicalPerspective",
						"members": [
							{
								"astId": 94,
								"contract": "contracts/DSD/SmartRegistryData.sol:SmartRegistryData",
								"label": "typeP",
								"offset": 0,
								"slot": "0",
								"type": "t_string_storage"
							},
							{
								"astId": 96,
								"contract": "contracts/DSD/SmartRegistryData.sol:SmartRegistryData",
								"label": "name",
								"offset": 0,
								"slot": "1",
								"type": "t_string_storage"
							},
							{
								"astId": 98,
								"contract": "contracts/DSD/SmartRegistryData.sol:SmartRegistryData",
								"label": "currency",
								"offset": 0,
								"slot": "2",
								"type": "t_string_storage"
							},
							{
								"astId": 100,
								"contract": "contracts/DSD/SmartRegistryData.sol:SmartRegistryData",
								"label": "consenssus",
								"offset": 0,
								"slot": "3",
								"type": "t_string_storage"
							},
							{
								"astId": 102,
								"contract": "contracts/DSD/SmartRegistryData.sol:SmartRegistryData",
								"label": "metadaExchangeProtocl",
								"offset": 0,
								"slot": "4",
								"type": "t_string_storage"
							},
							{
								"astId": 104,
								"contract": "contracts/DSD/SmartRegistryData.sol:SmartRegistryData",
								"label": "Contractadd",
								"offset": 0,
								"slot": "5",
								"type": "t_address"
							}
						],
						"numberOfBytes": "192"
					},
					"t_struct(eventContract)141_storage": {
						"encoding": "inplace",
						"label": "struct SmartRegistryData.eventContract",
						"members": [
							{
								"astId": 133,
								"contract": "contracts/DSD/SmartRegistryData.sol:SmartRegistryData",
								"label": "name",
								"offset": 0,
								"slot": "0",
								"type": "t_string_storage"
							},
							{
								"astId": 135,
								"contract": "contracts/DSD/SmartRegistryData.sol:SmartRegistryData",
								"label": "description",
								"offset": 0,
								"slot": "1",
								"type": "t_string_storage"
							},
							{
								"astId": 137,
								"contract": "contracts/DSD/SmartRegistryData.sol:SmartRegistryData",
								"label": "evnttype",
								"offset": 0,
								"slot": "2",
								"type": "t_string_storage"
							},
							{
								"astId": 140,
								"contract": "contracts/DSD/SmartRegistryData.sol:SmartRegistryData",
								"label": "eventOutputList",
								"offset": 0,
								"slot": "3",
								"type": "t_array(t_struct(eventOutput)117_storage)dyn_storage"
							}
						],
						"numberOfBytes": "128"
					},
					"t_struct(eventOutput)117_storage": {
						"encoding": "inplace",
						"label": "struct SmartRegistryData.eventOutput",
						"members": [
							{
								"astId": 112,
								"contract": "contracts/DSD/SmartRegistryData.sol:SmartRegistryData",
								"label": "name",
								"offset": 0,
								"slot": "0",
								"type": "t_string_storage"
							},
							{
								"astId": 114,
								"contract": "contracts/DSD/SmartRegistryData.sol:SmartRegistryData",
								"label": "t",
								"offset": 0,
								"slot": "1",
								"type": "t_string_storage"
							},
							{
								"astId": 116,
								"contract": "contracts/DSD/SmartRegistryData.sol:SmartRegistryData",
								"label": "is_indexed",
								"offset": 0,
								"slot": "2",
								"type": "t_bool"
							}
						],
						"numberOfBytes": "96"
					},
					"t_struct(funtionContract)153_storage": {
						"encoding": "inplace",
						"label": "struct SmartRegistryData.funtionContract",
						"members": [
							{
								"astId": 143,
								"contract": "contracts/DSD/SmartRegistryData.sol:SmartRegistryData",
								"label": "name",
								"offset": 0,
								"slot": "0",
								"type": "t_string_storage"
							},
							{
								"astId": 145,
								"contract": "contracts/DSD/SmartRegistryData.sol:SmartRegistryData",
								"label": "description",
								"offset": 0,
								"slot": "1",
								"type": "t_string_storage"
							},
							{
								"astId": 147,
								"contract": "contracts/DSD/SmartRegistryData.sol:SmartRegistryData",
								"label": "Functype",
								"offset": 0,
								"slot": "2",
								"type": "t_string_storage"
							},
							{
								"astId": 149,
								"contract": "contracts/DSD/SmartRegistryData.sol:SmartRegistryData",
								"label": "scope",
								"offset": 0,
								"slot": "3",
								"type": "t_string_storage"
							},
							{
								"astId": 152,
								"contract": "contracts/DSD/SmartRegistryData.sol:SmartRegistryData",
								"label": "FunctinputOutputList",
								"offset": 0,
								"slot": "4",
								"type": "t_array(t_struct(FunctinputOutput)110_storage)dyn_storage"
							}
						],
						"numberOfBytes": "160"
					},
					"t_struct(provider)38_storage": {
						"encoding": "inplace",
						"label": "struct SmartRegistryData.provider",
						"members": [
							{
								"astId": 33,
								"contract": "contracts/DSD/SmartRegistryData.sol:SmartRegistryData",
								"label": "id",
								"offset": 0,
								"slot": "0",
								"type": "t_string_storage"
							},
							{
								"astId": 35,
								"contract": "contracts/DSD/SmartRegistryData.sol:SmartRegistryData",
								"label": "role",
								"offset": 0,
								"slot": "1",
								"type": "t_string_storage"
							},
							{
								"astId": 37,
								"contract": "contracts/DSD/SmartRegistryData.sol:SmartRegistryData",
								"label": "publicKey",
								"offset": 0,
								"slot": "2",
								"type": "t_string_storage"
							}
						],
						"numberOfBytes": "96"
					},
					"t_struct(qosCharacteristics)92_storage": {
						"encoding": "inplace",
						"label": "struct SmartRegistryData.qosCharacteristics",
						"members": [
							{
								"astId": 75,
								"contract": "contracts/DSD/SmartRegistryData.sol:SmartRegistryData",
								"label": "latency",
								"offset": 0,
								"slot": "0",
								"type": "t_string_storage"
							},
							{
								"astId": 77,
								"contract": "contracts/DSD/SmartRegistryData.sol:SmartRegistryData",
								"label": "gazConsumation",
								"offset": 0,
								"slot": "1",
								"type": "t_string_storage"
							},
							{
								"astId": 79,
								"contract": "contracts/DSD/SmartRegistryData.sol:SmartRegistryData",
								"label": "token",
								"offset": 0,
								"slot": "2",
								"type": "t_string_storage"
							},
							{
								"astId": 81,
								"contract": "contracts/DSD/SmartRegistryData.sol:SmartRegistryData",
								"label": "price",
								"offset": 0,
								"slot": "3",
								"type": "t_string_storage"
							},
							{
								"astId": 83,
								"contract": "contracts/DSD/SmartRegistryData.sol:SmartRegistryData",
								"label": "signed",
								"offset": 0,
								"slot": "4",
								"type": "t_string_storage"
							},
							{
								"astId": 85,
								"contract": "contracts/DSD/SmartRegistryData.sol:SmartRegistryData",
								"label": "tested",
								"offset": 0,
								"slot": "5",
								"type": "t_string_storage"
							},
							{
								"astId": 87,
								"contract": "contracts/DSD/SmartRegistryData.sol:SmartRegistryData",
								"label": "deployed",
								"offset": 0,
								"slot": "6",
								"type": "t_string_storage"
							},
							{
								"astId": 89,
								"contract": "contracts/DSD/SmartRegistryData.sol:SmartRegistryData",
								"label": "legalname",
								"offset": 0,
								"slot": "7",
								"type": "t_string_storage"
							},
							{
								"astId": 91,
								"contract": "contracts/DSD/SmartRegistryData.sol:SmartRegistryData",
								"label": "legaltype",
								"offset": 0,
								"slot": "8",
								"type": "t_string_storage"
							}
						],
						"numberOfBytes": "288"
					},
					"t_uint256": {
						"encoding": "inplace",
						"label": "uint256",
						"numberOfBytes": "32"
					}
				}
			},
			"userdoc": {
				"methods": {}
			}
		}
	}
}