{
  "contractName": "DSD",
  "abi": [
    {
      "anonymous": false,
      "inputs": [
        {
          "indexed": false,
          "internalType": "string",
          "name": "message",
          "type": "string"
        }
      ],
      "name": "Log",
      "type": "event"
    },
    {
      "inputs": [
        {
          "internalType": "uint256",
          "name": "",
          "type": "uint256"
        }
      ],
      "name": "Descriptions",
      "outputs": [
        {
          "internalType": "address",
          "name": "provider",
          "type": "address"
        },
        {
          "internalType": "string",
          "name": "name",
          "type": "string"
        },
        {
          "internalType": "string",
          "name": "description",
          "type": "string"
        },
        {
          "internalType": "string",
          "name": "category",
          "type": "string"
        },
        {
          "internalType": "string",
          "name": "security",
          "type": "string"
        },
        {
          "internalType": "string",
          "name": "legal",
          "type": "string"
        },
        {
          "internalType": "uint256",
          "name": "gasConsumption",
          "type": "uint256"
        }
      ],
      "stateMutability": "view",
      "type": "function",
      "constant": true
    },
    {
      "inputs": [
        {
          "internalType": "address",
          "name": "",
          "type": "address"
        }
      ],
      "name": "consumers",
      "outputs": [
        {
          "internalType": "bool",
          "name": "",
          "type": "bool"
        }
      ],
      "stateMutability": "view",
      "type": "function",
      "constant": true
    },
    {
      "inputs": [],
      "name": "descriptionCount",
      "outputs": [
        {
          "internalType": "uint256",
          "name": "",
          "type": "uint256"
        }
      ],
      "stateMutability": "view",
      "type": "function",
      "constant": true
    },
    {
      "inputs": [
        {
          "internalType": "address",
          "name": "",
          "type": "address"
        }
      ],
      "name": "providers",
      "outputs": [
        {
          "internalType": "string",
          "name": "username",
          "type": "string"
        },
        {
          "internalType": "string",
          "name": "password",
          "type": "string"
        },
        {
          "internalType": "bool",
          "name": "loggedIn",
          "type": "bool"
        }
      ],
      "stateMutability": "view",
      "type": "function",
      "constant": true
    },
    {
      "inputs": [
        {
          "internalType": "string",
          "name": "username",
          "type": "string"
        },
        {
          "internalType": "string",
          "name": "password",
          "type": "string"
        }
      ],
      "name": "authenticate",
      "outputs": [
        {
          "internalType": "bool",
          "name": "",
          "type": "bool"
        }
      ],
      "stateMutability": "view",
      "type": "function",
      "constant": true
    },
    {
      "inputs": [
        {
          "internalType": "string",
          "name": "username",
          "type": "string"
        },
        {
          "internalType": "string",
          "name": "password",
          "type": "string"
        }
      ],
      "name": "registerProvider",
      "outputs": [],
      "stateMutability": "nonpayable",
      "type": "function"
    },
    {
      "inputs": [
        {
          "internalType": "string",
          "name": "password",
          "type": "string"
        },
        {
          "internalType": "address",
          "name": "key",
          "type": "address"
        }
      ],
      "name": "signIn",
      "outputs": [],
      "stateMutability": "nonpayable",
      "type": "function"
    },
    {
      "inputs": [
        {
          "internalType": "address",
          "name": "publicKey",
          "type": "address"
        },
        {
          "internalType": "string",
          "name": "password",
          "type": "string"
        }
      ],
      "name": "logIn",
      "outputs": [],
      "stateMutability": "view",
      "type": "function",
      "constant": true
    },
    {
      "inputs": [],
      "name": "logOut",
      "outputs": [],
      "stateMutability": "nonpayable",
      "type": "function"
    },
    {
      "inputs": [
        {
          "internalType": "string",
          "name": "_name",
          "type": "string"
        },
        {
          "internalType": "string",
          "name": "_description",
          "type": "string"
        },
        {
          "internalType": "string",
          "name": "_category",
          "type": "string"
        },
        {
          "internalType": "string",
          "name": "_security",
          "type": "string"
        },
        {
          "internalType": "string",
          "name": "_legal",
          "type": "string"
        },
        {
          "internalType": "uint256",
          "name": "_gasConsumption",
          "type": "uint256"
        }
      ],
      "name": "PublishDesc",
      "outputs": [],
      "stateMutability": "payable",
      "type": "function",
      "payable": true
    },
    {
      "inputs": [
        {
          "internalType": "uint256",
          "name": "_descriptionId",
          "type": "uint256"
        }
      ],
      "name": "getDescription",
      "outputs": [
        {
          "internalType": "address",
          "name": "provider",
          "type": "address"
        },
        {
          "internalType": "string",
          "name": "name",
          "type": "string"
        },
        {
          "internalType": "string",
          "name": "description",
          "type": "string"
        },
        {
          "internalType": "string",
          "name": "category",
          "type": "string"
        },
        {
          "internalType": "string",
          "name": "security",
          "type": "string"
        },
        {
          "internalType": "string",
          "name": "legal",
          "type": "string"
        },
        {
          "internalType": "uint256",
          "name": "gasConsumption",
          "type": "uint256"
        }
      ],
      "stateMutability": "view",
      "type": "function",
      "constant": true
    },
    {
      "inputs": [
        {
          "internalType": "string",
          "name": "_category",
          "type": "string"
        },
        {
          "internalType": "string",
          "name": "_security",
          "type": "string"
        },
        {
          "internalType": "string",
          "name": "_legal",
          "type": "string"
        },
        {
          "internalType": "uint256",
          "name": "_gasConsumption",
          "type": "uint256"
        }
      ],
      "name": "SearchForAllDescription",
      "outputs": [
        {
          "components": [
            {
              "internalType": "address",
              "name": "provider",
              "type": "address"
            },
            {
              "internalType": "string",
              "name": "name",
              "type": "string"
            },
            {
              "internalType": "string",
              "name": "description",
              "type": "string"
            },
            {
              "internalType": "string",
              "name": "category",
              "type": "string"
            },
            {
              "internalType": "string",
              "name": "security",
              "type": "string"
            },
            {
              "internalType": "string",
              "name": "legal",
              "type": "string"
            },
            {
              "internalType": "uint256",
              "name": "gasConsumption",
              "type": "uint256"
            }
          ],
          "internalType": "struct DSD.Description[]",
          "name": "",
          "type": "tuple[]"
        }
      ],
      "stateMutability": "view",
      "type": "function",
      "constant": true
    },
    {
      "inputs": [
        {
          "internalType": "address",
          "name": "_providerAddress",
          "type": "address"
        }
      ],
      "name": "searchByProvider",
      "outputs": [
        {
          "components": [
            {
              "internalType": "address",
              "name": "provider",
              "type": "address"
            },
            {
              "internalType": "string",
              "name": "name",
              "type": "string"
            },
            {
              "internalType": "string",
              "name": "description",
              "type": "string"
            },
            {
              "internalType": "string",
              "name": "category",
              "type": "string"
            },
            {
              "internalType": "string",
              "name": "security",
              "type": "string"
            },
            {
              "internalType": "string",
              "name": "legal",
              "type": "string"
            },
            {
              "internalType": "uint256",
              "name": "gasConsumption",
              "type": "uint256"
            }
          ],
          "internalType": "struct DSD.Description[]",
          "name": "",
          "type": "tuple[]"
        }
      ],
      "stateMutability": "view",
      "type": "function",
      "constant": true
    }
  ],
  "bytecode": "0x608060405234801561001057600080fd5b50613227806100206000396000f3fe6080604052600436106100c15760003560e01c8063544541b31161007f578063c6d2679a11610059578063c6d2679a1461028a578063cd367351146102c7578063e1242cb714610304578063e28afdfc1461032d576100c1565b8063544541b3146101e157806374ca89711461021e5780637ccc7a1814610247576100c1565b8062c40d96146100c65780630787bc27146100e25780630bf536681461012157806323a96a4c1461015e5780634925ec55146101875780634be422ae146101ca575b600080fd5b6100e060048036038101906100db9190612732565b610358565b005b3480156100ee57600080fd5b50610109600480360381019061010491906128a9565b610748565b60405161011893929190612979565b60405180910390f35b34801561012d57600080fd5b50610148600480360381019061014391906128a9565b61088f565b60405161015591906129be565b60405180910390f35b34801561016a57600080fd5b50610185600480360381019061018091906129d9565b6108af565b005b34801561019357600080fd5b506101ae60048036038101906101a99190612a35565b610a1d565b6040516101c19796959493929190612a80565b60405180910390f35b3480156101d657600080fd5b506101df610dc0565b005b3480156101ed57600080fd5b5061020860048036038101906102039190612b12565b610e1d565b60405161021591906129be565b60405180910390f35b34801561022a57600080fd5b5061024560048036038101906102409190612b12565b610fe6565b005b34801561025357600080fd5b5061026e60048036038101906102699190612a35565b611135565b6040516102819796959493929190612a80565b60405180910390f35b34801561029657600080fd5b506102b160048036038101906102ac91906128a9565b61143f565b6040516102be9190612d6c565b60405180910390f35b3480156102d357600080fd5b506102ee60048036038101906102e99190612d8e565b611953565b6040516102fb9190612d6c565b60405180910390f35b34801561031057600080fd5b5061032b60048036038101906103269190612e49565b612334565b005b34801561033957600080fd5b506103426124a6565b60405161034f9190612ea5565b60405180910390f35b6000600260003373ffffffffffffffffffffffffffffffffffffffff1673ffffffffffffffffffffffffffffffffffffffff16815260200190815260200160002060000180546103a790612eef565b905014156103ea576040517f08c379a00000000000000000000000000000000000000000000000000000000081526004016103e190612f93565b60405180910390fd5b60003390506000600260008373ffffffffffffffffffffffffffffffffffffffff1673ffffffffffffffffffffffffffffffffffffffff16815260200190815260200160002090506001600081548092919061044590612fe2565b91905055506040518060e001604052808373ffffffffffffffffffffffffffffffffffffffff16815260200189815260200188815260200187815260200186815260200185815260200184815250600080600154815260200190815260200160002060008201518160000160006101000a81548173ffffffffffffffffffffffffffffffffffffffff021916908373ffffffffffffffffffffffffffffffffffffffff160217905550602082015181600101908051906020019061050a9291906124ac565b5060408201518160020190805190602001906105279291906124ac565b5060608201518160030190805190602001906105449291906124ac565b5060808201518160040190805190602001906105619291906124ac565b5060a082015181600501908051906020019061057e9291906124ac565b5060c082015181600601559050508060020160009054906101000a900460ff166105dd576040517f08c379a00000000000000000000000000000000000000000000000000000000081526004016105d490613077565b60405180910390fd5b6106ff8160000180546105ef90612eef565b80601f016020809104026020016040519081016040528092919081815260200182805461061b90612eef565b80156106685780601f1061063d57610100808354040283529160200191610668565b820191906000526020600020905b81548152906001019060200180831161064b57829003601f168201915b505050505082600101805461067c90612eef565b80601f01602080910402602001604051908101604052809291908181526020018280546106a890612eef565b80156106f55780601f106106ca576101008083540402835291602001916106f5565b820191906000526020600020905b8154815290600101906020018083116106d857829003601f168201915b5050505050610e1d565b61073e576040517f08c379a0000000000000000000000000000000000000000000000000000000008152600401610735906130e3565b60405180910390fd5b5050505050505050565b600260205280600052604060002060009150905080600001805461076b90612eef565b80601f016020809104026020016040519081016040528092919081815260200182805461079790612eef565b80156107e45780601f106107b9576101008083540402835291602001916107e4565b820191906000526020600020905b8154815290600101906020018083116107c757829003601f168201915b5050505050908060010180546107f990612eef565b80601f016020809104026020016040519081016040528092919081815260200182805461082590612eef565b80156108725780601f1061084757610100808354040283529160200191610872565b820191906000526020600020905b81548152906001019060200180831161085557829003601f168201915b5050505050908060020160009054906101000a900460ff16905083565b60036020528060005260406000206000915054906101000a900460ff1681565b6000600260008473ffffffffffffffffffffffffffffffffffffffff1673ffffffffffffffffffffffffffffffffffffffff16815260200190815260200160002090508060020160009054906101000a900460ff16610943576040517f08c379a000000000000000000000000000000000000000000000000000000000815260040161093a90613077565b60405180910390fd5b6109d981600001805461095590612eef565b80601f016020809104026020016040519081016040528092919081815260200182805461098190612eef565b80156109ce5780601f106109a3576101008083540402835291602001916109ce565b820191906000526020600020905b8154815290600101906020018083116109b157829003601f168201915b505050505083610e1d565b610a18576040517f08c379a0000000000000000000000000000000000000000000000000000000008152600401610a0f906130e3565b60405180910390fd5b505050565b600060608060608060606000806000808a81526020019081526020016000206040518060e00160405290816000820160009054906101000a900473ffffffffffffffffffffffffffffffffffffffff1673ffffffffffffffffffffffffffffffffffffffff1673ffffffffffffffffffffffffffffffffffffffff168152602001600182018054610aad90612eef565b80601f0160208091040260200160405190810160405280929190818152602001828054610ad990612eef565b8015610b265780601f10610afb57610100808354040283529160200191610b26565b820191906000526020600020905b815481529060010190602001808311610b0957829003601f168201915b50505050508152602001600282018054610b3f90612eef565b80601f0160208091040260200160405190810160405280929190818152602001828054610b6b90612eef565b8015610bb85780601f10610b8d57610100808354040283529160200191610bb8565b820191906000526020600020905b815481529060010190602001808311610b9b57829003601f168201915b50505050508152602001600382018054610bd190612eef565b80601f0160208091040260200160405190810160405280929190818152602001828054610bfd90612eef565b8015610c4a5780601f10610c1f57610100808354040283529160200191610c4a565b820191906000526020600020905b815481529060010190602001808311610c2d57829003601f168201915b50505050508152602001600482018054610c6390612eef565b80601f0160208091040260200160405190810160405280929190818152602001828054610c8f90612eef565b8015610cdc5780601f10610cb157610100808354040283529160200191610cdc565b820191906000526020600020905b815481529060010190602001808311610cbf57829003601f168201915b50505050508152602001600582018054610cf590612eef565b80601f0160208091040260200160405190810160405280929190818152602001828054610d2190612eef565b8015610d6e5780601f10610d4357610100808354040283529160200191610d6e565b820191906000526020600020905b815481529060010190602001808311610d5157829003601f168201915b505050505081526020016006820154815250509050806000015181602001518260400151836060015184608001518560a001518660c00151975097509750975097509750975050919395979092949650565b6000600260003373ffffffffffffffffffffffffffffffffffffffff1673ffffffffffffffffffffffffffffffffffffffff16815260200190815260200160002060020160006101000a81548160ff021916908315150217905550565b600080600260003373ffffffffffffffffffffffffffffffffffffffff1673ffffffffffffffffffffffffffffffffffffffff168152602001908152602001600020604051806060016040529081600082018054610e7a90612eef565b80601f0160208091040260200160405190810160405280929190818152602001828054610ea690612eef565b8015610ef35780601f10610ec857610100808354040283529160200191610ef3565b820191906000526020600020905b815481529060010190602001808311610ed657829003601f168201915b50505050508152602001600182018054610f0c90612eef565b80601f0160208091040260200160405190810160405280929190818152602001828054610f3890612eef565b8015610f855780601f10610f5a57610100808354040283529160200191610f85565b820191906000526020600020905b815481529060010190602001808311610f6857829003601f168201915b505050505081526020016002820160009054906101000a900460ff16151515158152505090508280519060200120816020015180519060200120148015610fdd57508380519060200120816000015180519060200120145b91505092915050565b6000600260003373ffffffffffffffffffffffffffffffffffffffff1673ffffffffffffffffffffffffffffffffffffffff168152602001908152602001600020600001805461103590612eef565b905014611077576040517f08c379a000000000000000000000000000000000000000000000000000000000815260040161106e9061314f565b60405180910390fd5b604051806060016040528083815260200182815260200160001515815250600260003373ffffffffffffffffffffffffffffffffffffffff1673ffffffffffffffffffffffffffffffffffffffff16815260200190815260200160002060008201518160000190805190602001906110f09291906124ac565b50602082015181600101908051906020019061110d9291906124ac565b5060408201518160020160006101000a81548160ff0219169083151502179055509050505050565b60006020528060005260406000206000915090508060000160009054906101000a900473ffffffffffffffffffffffffffffffffffffffff169080600101805461117e90612eef565b80601f01602080910402602001604051908101604052809291908181526020018280546111aa90612eef565b80156111f75780601f106111cc576101008083540402835291602001916111f7565b820191906000526020600020905b8154815290600101906020018083116111da57829003601f168201915b50505050509080600201805461120c90612eef565b80601f016020809104026020016040519081016040528092919081815260200182805461123890612eef565b80156112855780601f1061125a57610100808354040283529160200191611285565b820191906000526020600020905b81548152906001019060200180831161126857829003601f168201915b50505050509080600301805461129a90612eef565b80601f01602080910402602001604051908101604052809291908181526020018280546112c690612eef565b80156113135780601f106112e857610100808354040283529160200191611313565b820191906000526020600020905b8154815290600101906020018083116112f657829003601f168201915b50505050509080600401805461132890612eef565b80601f016020809104026020016040519081016040528092919081815260200182805461135490612eef565b80156113a15780601f10611376576101008083540402835291602001916113a1565b820191906000526020600020905b81548152906001019060200180831161138457829003601f168201915b5050505050908060050180546113b690612eef565b80601f01602080910402602001604051908101604052809291908181526020018280546113e290612eef565b801561142f5780601f106114045761010080835404028352916020019161142f565b820191906000526020600020905b81548152906001019060200180831161141257829003601f168201915b5050505050908060060154905087565b6060600080600190505b60015481116114dd578373ffffffffffffffffffffffffffffffffffffffff1660008083815260200190815260200160002060000160009054906101000a900473ffffffffffffffffffffffffffffffffffffffff1673ffffffffffffffffffffffffffffffffffffffff1614156114ca5781806114c690612fe2565b9250505b80806114d590612fe2565b915050611449565b5060008167ffffffffffffffff8111156114fa576114f96125d1565b5b60405190808252806020026020018201604052801561153357816020015b611520612532565b8152602001906001900390816115185790505b509050600080600190505b6001548111611947578573ffffffffffffffffffffffffffffffffffffffff1660008083815260200190815260200160002060000160009054906101000a900473ffffffffffffffffffffffffffffffffffffffff1673ffffffffffffffffffffffffffffffffffffffff161415611934576000808281526020019081526020016000206040518060e00160405290816000820160009054906101000a900473ffffffffffffffffffffffffffffffffffffffff1673ffffffffffffffffffffffffffffffffffffffff1673ffffffffffffffffffffffffffffffffffffffff16815260200160018201805461163390612eef565b80601f016020809104026020016040519081016040528092919081815260200182805461165f90612eef565b80156116ac5780601f10611681576101008083540402835291602001916116ac565b820191906000526020600020905b81548152906001019060200180831161168f57829003601f168201915b505050505081526020016002820180546116c590612eef565b80601f01602080910402602001604051908101604052809291908181526020018280546116f190612eef565b801561173e5780601f106117135761010080835404028352916020019161173e565b820191906000526020600020905b81548152906001019060200180831161172157829003601f168201915b5050505050815260200160038201805461175790612eef565b80601f016020809104026020016040519081016040528092919081815260200182805461178390612eef565b80156117d05780601f106117a5576101008083540402835291602001916117d0565b820191906000526020600020905b8154815290600101906020018083116117b357829003601f168201915b505050505081526020016004820180546117e990612eef565b80601f016020809104026020016040519081016040528092919081815260200182805461181590612eef565b80156118625780601f1061183757610100808354040283529160200191611862565b820191906000526020600020905b81548152906001019060200180831161184557829003601f168201915b5050505050815260200160058201805461187b90612eef565b80601f01602080910402602001604051908101604052809291908181526020018280546118a790612eef565b80156118f45780601f106118c9576101008083540402835291602001916118f4565b820191906000526020600020905b8154815290600101906020018083116118d757829003601f168201915b5050505050815260200160068201548152505083838151811061191a5761191961316f565b5b6020026020010181905250818061193090612fe2565b9250505b808061193f90612fe2565b91505061153e565b50819350505050919050565b6060600080600190505b6001548111611e015760008060008381526020019081526020016000206040518060e00160405290816000820160009054906101000a900473ffffffffffffffffffffffffffffffffffffffff1673ffffffffffffffffffffffffffffffffffffffff1673ffffffffffffffffffffffffffffffffffffffff1681526020016001820180546119eb90612eef565b80601f0160208091040260200160405190810160405280929190818152602001828054611a1790612eef565b8015611a645780601f10611a3957610100808354040283529160200191611a64565b820191906000526020600020905b815481529060010190602001808311611a4757829003601f168201915b50505050508152602001600282018054611a7d90612eef565b80601f0160208091040260200160405190810160405280929190818152602001828054611aa990612eef565b8015611af65780601f10611acb57610100808354040283529160200191611af6565b820191906000526020600020905b815481529060010190602001808311611ad957829003601f168201915b50505050508152602001600382018054611b0f90612eef565b80601f0160208091040260200160405190810160405280929190818152602001828054611b3b90612eef565b8015611b885780601f10611b5d57610100808354040283529160200191611b88565b820191906000526020600020905b815481529060010190602001808311611b6b57829003601f168201915b50505050508152602001600482018054611ba190612eef565b80601f0160208091040260200160405190810160405280929190818152602001828054611bcd90612eef565b8015611c1a5780601f10611bef57610100808354040283529160200191611c1a565b820191906000526020600020905b815481529060010190602001808311611bfd57829003601f168201915b50505050508152602001600582018054611c3390612eef565b80601f0160208091040260200160405190810160405280929190818152602001828054611c5f90612eef565b8015611cac5780601f10611c8157610100808354040283529160200191611cac565b820191906000526020600020905b815481529060010190602001808311611c8f57829003601f168201915b50505050508152602001600682015481525050905087604051602001611cd291906131da565b604051602081830303815290604052805190602001208160600151604051602001611cfd91906131da565b60405160208183030381529060405280519060200120148015611d6f575086604051602001611d2c91906131da565b604051602081830303815290604052805190602001208160800151604051602001611d5791906131da565b60405160208183030381529060405280519060200120145b8015611dca575085604051602001611d8791906131da565b604051602081830303815290604052805190602001208160a00151604051602001611db291906131da565b60405160208183030381529060405280519060200120145b8015611dd95750848160c00151145b15611ded578280611de990612fe2565b9350505b508080611df990612fe2565b91505061195d565b5060008167ffffffffffffffff811115611e1e57611e1d6125d1565b5b604051908082528060200260200182016040528015611e5757816020015b611e44612532565b815260200190600190039081611e3c5790505b509050600080600190505b60015481116123255760008060008381526020019081526020016000206040518060e00160405290816000820160009054906101000a900473ffffffffffffffffffffffffffffffffffffffff1673ffffffffffffffffffffffffffffffffffffffff1673ffffffffffffffffffffffffffffffffffffffff168152602001600182018054611ef090612eef565b80601f0160208091040260200160405190810160405280929190818152602001828054611f1c90612eef565b8015611f695780601f10611f3e57610100808354040283529160200191611f69565b820191906000526020600020905b815481529060010190602001808311611f4c57829003601f168201915b50505050508152602001600282018054611f8290612eef565b80601f0160208091040260200160405190810160405280929190818152602001828054611fae90612eef565b8015611ffb5780601f10611fd057610100808354040283529160200191611ffb565b820191906000526020600020905b815481529060010190602001808311611fde57829003601f168201915b5050505050815260200160038201805461201490612eef565b80601f016020809104026020016040519081016040528092919081815260200182805461204090612eef565b801561208d5780601f106120625761010080835404028352916020019161208d565b820191906000526020600020905b81548152906001019060200180831161207057829003601f168201915b505050505081526020016004820180546120a690612eef565b80601f01602080910402602001604051908101604052809291908181526020018280546120d290612eef565b801561211f5780601f106120f45761010080835404028352916020019161211f565b820191906000526020600020905b81548152906001019060200180831161210257829003601f168201915b5050505050815260200160058201805461213890612eef565b80601f016020809104026020016040519081016040528092919081815260200182805461216490612eef565b80156121b15780601f10612186576101008083540402835291602001916121b1565b820191906000526020600020905b81548152906001019060200180831161219457829003601f168201915b505050505081526020016006820154815250509050896040516020016121d791906131da565b60405160208183030381529060405280519060200120816060015160405160200161220291906131da565b6040516020818303038152906040528051906020012014801561227457508860405160200161223191906131da565b60405160208183030381529060405280519060200120816080015160405160200161225c91906131da565b60405160208183030381529060405280519060200120145b80156122cf57508760405160200161228c91906131da565b604051602081830303815290604052805190602001208160a001516040516020016122b791906131da565b60405160208183030381529060405280519060200120145b80156122de5750868160c00151145b1561231157808484815181106122f7576122f661316f565b5b6020026020010181905250828061230d90612fe2565b9350505b50808061231d90612fe2565b915050611e62565b50819350505050949350505050565b612408600260008373ffffffffffffffffffffffffffffffffffffffff1673ffffffffffffffffffffffffffffffffffffffff168152602001908152602001600020600001805461238490612eef565b80601f01602080910402602001604051908101604052809291908181526020018280546123b090612eef565b80156123fd5780601f106123d2576101008083540402835291602001916123fd565b820191906000526020600020905b8154815290600101906020018083116123e057829003601f168201915b505050505083610e1d565b612447576040517f08c379a000000000000000000000000000000000000000000000000000000000815260040161243e906130e3565b60405180910390fd5b6001600260008373ffffffffffffffffffffffffffffffffffffffff1673ffffffffffffffffffffffffffffffffffffffff16815260200190815260200160002060020160006101000a81548160ff0219169083151502179055505050565b60015481565b8280546124b890612eef565b90600052602060002090601f0160209004810192826124da5760008555612521565b82601f106124f357805160ff1916838001178555612521565b82800160010185558215612521579182015b82811115612520578251825591602001919060010190612505565b5b50905061252e9190612585565b5090565b6040518060e00160405280600073ffffffffffffffffffffffffffffffffffffffff1681526020016060815260200160608152602001606081526020016060815260200160608152602001600081525090565b5b8082111561259e576000816000905550600101612586565b5090565b6000604051905090565b600080fd5b600080fd5b600080fd5b600080fd5b6000601f19601f8301169050919050565b7f4e487b7100000000000000000000000000000000000000000000000000000000600052604160045260246000fd5b612609826125c0565b810181811067ffffffffffffffff82111715612628576126276125d1565b5b80604052505050565b600061263b6125a2565b90506126478282612600565b919050565b600067ffffffffffffffff821115612667576126666125d1565b5b612670826125c0565b9050602081019050919050565b82818337600083830152505050565b600061269f61269a8461264c565b612631565b9050828152602081018484840111156126bb576126ba6125bb565b5b6126c684828561267d565b509392505050565b600082601f8301126126e3576126e26125b6565b5b81356126f384826020860161268c565b91505092915050565b6000819050919050565b61270f816126fc565b811461271a57600080fd5b50565b60008135905061272c81612706565b92915050565b60008060008060008060c0878903121561274f5761274e6125ac565b5b600087013567ffffffffffffffff81111561276d5761276c6125b1565b5b61277989828a016126ce565b965050602087013567ffffffffffffffff81111561279a576127996125b1565b5b6127a689828a016126ce565b955050604087013567ffffffffffffffff8111156127c7576127c66125b1565b5b6127d389828a016126ce565b945050606087013567ffffffffffffffff8111156127f4576127f36125b1565b5b61280089828a016126ce565b935050608087013567ffffffffffffffff811115612821576128206125b1565b5b61282d89828a016126ce565b92505060a061283e89828a0161271d565b9150509295509295509295565b600073ffffffffffffffffffffffffffffffffffffffff82169050919050565b60006128768261284b565b9050919050565b6128868161286b565b811461289157600080fd5b50565b6000813590506128a38161287d565b92915050565b6000602082840312156128bf576128be6125ac565b5b60006128cd84828501612894565b91505092915050565b600081519050919050565b600082825260208201905092915050565b60005b838110156129105780820151818401526020810190506128f5565b8381111561291f576000848401525b50505050565b6000612930826128d6565b61293a81856128e1565b935061294a8185602086016128f2565b612953816125c0565b840191505092915050565b60008115159050919050565b6129738161295e565b82525050565b600060608201905081810360008301526129938186612925565b905081810360208301526129a78185612925565b90506129b6604083018461296a565b949350505050565b60006020820190506129d3600083018461296a565b92915050565b600080604083850312156129f0576129ef6125ac565b5b60006129fe85828601612894565b925050602083013567ffffffffffffffff811115612a1f57612a1e6125b1565b5b612a2b858286016126ce565b9150509250929050565b600060208284031215612a4b57612a4a6125ac565b5b6000612a598482850161271d565b91505092915050565b612a6b8161286b565b82525050565b612a7a816126fc565b82525050565b600060e082019050612a95600083018a612a62565b8181036020830152612aa78189612925565b90508181036040830152612abb8188612925565b90508181036060830152612acf8187612925565b90508181036080830152612ae38186612925565b905081810360a0830152612af78185612925565b9050612b0660c0830184612a71565b98975050505050505050565b60008060408385031215612b2957612b286125ac565b5b600083013567ffffffffffffffff811115612b4757612b466125b1565b5b612b53858286016126ce565b925050602083013567ffffffffffffffff811115612b7457612b736125b1565b5b612b80858286016126ce565b9150509250929050565b600081519050919050565b600082825260208201905092915050565b6000819050602082019050919050565b612bbf8161286b565b82525050565b600082825260208201905092915050565b6000612be1826128d6565b612beb8185612bc5565b9350612bfb8185602086016128f2565b612c04816125c0565b840191505092915050565b612c18816126fc565b82525050565b600060e083016000830151612c366000860182612bb6565b5060208301518482036020860152612c4e8282612bd6565b91505060408301518482036040860152612c688282612bd6565b91505060608301518482036060860152612c828282612bd6565b91505060808301518482036080860152612c9c8282612bd6565b91505060a083015184820360a0860152612cb68282612bd6565b91505060c0830151612ccb60c0860182612c0f565b508091505092915050565b6000612ce28383612c1e565b905092915050565b6000602082019050919050565b6000612d0282612b8a565b612d0c8185612b95565b935083602082028501612d1e85612ba6565b8060005b85811015612d5a5784840389528151612d3b8582612cd6565b9450612d4683612cea565b925060208a01995050600181019050612d22565b50829750879550505050505092915050565b60006020820190508181036000830152612d868184612cf7565b905092915050565b60008060008060808587031215612da857612da76125ac565b5b600085013567ffffffffffffffff811115612dc657612dc56125b1565b5b612dd2878288016126ce565b945050602085013567ffffffffffffffff811115612df357612df26125b1565b5b612dff878288016126ce565b935050604085013567ffffffffffffffff811115612e2057612e1f6125b1565b5b612e2c878288016126ce565b9250506060612e3d8782880161271d565b91505092959194509250565b60008060408385031215612e6057612e5f6125ac565b5b600083013567ffffffffffffffff811115612e7e57612e7d6125b1565b5b612e8a858286016126ce565b9250506020612e9b85828601612894565b9150509250929050565b6000602082019050612eba6000830184612a71565b92915050565b7f4e487b7100000000000000000000000000000000000000000000000000000000600052602260045260246000fd5b60006002820490506001821680612f0757607f821691505b60208210811415612f1b57612f1a612ec0565b5b50919050565b7f4f6e6c792070726f7669646572732063616e206163636573732074686973206660008201527f756e6374696f6e2e000000000000000000000000000000000000000000000000602082015250565b6000612f7d6028836128e1565b9150612f8882612f21565b604082019050919050565b60006020820190508181036000830152612fac81612f70565b9050919050565b7f4e487b7100000000000000000000000000000000000000000000000000000000600052601160045260246000fd5b6000612fed826126fc565b91507fffffffffffffffffffffffffffffffffffffffffffffffffffffffffffffffff8214156130205761301f612fb3565b5b600182019050919050565b7f50726f7669646572206973206e6f74207369676e656420696e2e000000000000600082015250565b6000613061601a836128e1565b915061306c8261302b565b602082019050919050565b6000602082019050818103600083015261309081613054565b9050919050565b7f496e636f72726563742070617373776f72642e00000000000000000000000000600082015250565b60006130cd6013836128e1565b91506130d882613097565b602082019050919050565b600060208201905081810360008301526130fc816130c0565b9050919050565b7f50726f766964657220697320616c726561647920726567697374657265642e00600082015250565b6000613139601f836128e1565b915061314482613103565b602082019050919050565b600060208201905081810360008301526131688161312c565b9050919050565b7f4e487b7100000000000000000000000000000000000000000000000000000000600052603260045260246000fd5b600081905092915050565b60006131b4826128d6565b6131be818561319e565b93506131ce8185602086016128f2565b80840191505092915050565b60006131e682846131a9565b91508190509291505056fea2646970667358221220481eb9ae648e361785020379d0ce3486e8241cade33f72b2508aabefdcbb677f64736f6c63430008090033",
  "immutableReferences": {},
  "source": "// SPDX-License-Identifier: MIT\r\npragma solidity ^0.8.0;\r\n\r\ncontract DSD {\r\n    struct Description {\r\n        address provider;\r\n        string name;\r\n        string description;\r\n        string category;\r\n        string security;\r\n        string legal;\r\n        uint gasConsumption;\r\n    }\r\n\r\n    event Log(string message);\r\n\r\n    mapping(uint => Description) public Descriptions;\r\n    uint public descriptionCount;\r\n\r\n    struct Provider {\r\n        string username;\r\n        string password;\r\n        bool loggedIn;\r\n    }\r\n\r\n    mapping(address => Provider) public providers;\r\n    mapping(address => bool) public consumers;\r\n\r\n    modifier onlyProvider() {\r\n        require(bytes(providers[msg.sender].username).length != 0, \"Only providers can access this function.\");\r\n        _;\r\n    }\r\n\r\n    function authenticate(string memory username, string memory password) public view returns(bool) {\r\n        Provider memory provider = providers[msg.sender];\r\n        return (keccak256(bytes(provider.password)) == keccak256(bytes(password))&& keccak256(bytes(provider.username)) == keccak256(bytes(username)));\r\n    }\r\n\r\n    function registerProvider(string memory username, string memory password) public {\r\n        require(bytes(providers[msg.sender].username).length == 0, \"Provider is already registered.\");\r\n        providers[msg.sender] = Provider(username, password, false);\r\n    }\r\n\r\n    function signIn(string memory password, address key) public {\r\n        require(authenticate(providers[key].username, password), \"Incorrect password.\");\r\n        providers[key].loggedIn = true;\r\n    }\r\n\r\n    function logIn(address publicKey, string memory password)  public view{\r\n        //address providerAddress = msg.sender;\r\n        Provider storage provider = providers[publicKey];\r\n        require(provider.loggedIn, \"Provider is not signed in.\");\r\n        require(authenticate(provider.username, password), \"Incorrect password.\");\r\n    }\r\n       function logOut() public {\r\n        providers[msg.sender].loggedIn = false;\r\n    }\r\n\r\n    function PublishDesc(\r\n        string memory _name,\r\n        string memory _description,\r\n        string memory _category,\r\n        string memory _security,\r\n        string memory _legal,\r\n        uint _gasConsumption\r\n    ) public onlyProvider payable {\r\n        address providerAddress = msg.sender;\r\n        Provider storage provider = providers[providerAddress];\r\n        descriptionCount++;\r\n        Descriptions[descriptionCount] = Description(\r\n            providerAddress,\r\n            _name,\r\n            _description,\r\n            _category,\r\n            _security,\r\n            _legal,\r\n            _gasConsumption\r\n        );\r\n        require(provider.loggedIn, \"Provider is not signed in.\");\r\n        require(authenticate(provider.username, provider.password), \"Incorrect password.\");\r\n    }\r\n\r\n    function getDescription(uint _descriptionId) public view returns (\r\n        address provider,\r\n        string memory name,\r\n        string memory description,\r\n        string memory category,\r\n        string memory security,\r\n        string memory legal,\r\n        uint gasConsumption\r\n    ) {\r\n        Description memory desc = Descriptions[_descriptionId];\r\n        return (\r\n            desc.provider,\r\n            desc.name,\r\n            desc.description,\r\n            desc.category,\r\n            desc.security,\r\n            desc.legal,\r\n            desc.gasConsumption\r\n        );\r\n    }\r\n\r\n     function SearchForAllDescription(\r\n        string memory _category,\r\n        string memory _security,\r\n        string memory _legal,\r\n        uint _gasConsumption\r\n    ) public view returns (Description[] memory) {\r\n        uint count = 0;\r\n\r\n        // Count the number of matching descriptions\r\n        for (uint i = 1; i <= descriptionCount; i++) {\r\n            Description memory desc = Descriptions[i];\r\n            if (\r\n                keccak256(abi.encodePacked(desc.category)) == keccak256(abi.encodePacked(_category)) &&\r\n                keccak256(abi.encodePacked(desc.security)) == keccak256(abi.encodePacked(_security)) &&\r\n                keccak256(abi.encodePacked(desc.legal)) == keccak256(abi.encodePacked(_legal)) &&\r\n                desc.gasConsumption == _gasConsumption\r\n            ) {\r\n                count++;\r\n            }\r\n        }\r\n\r\n        // Create an array to store the matching descriptions\r\n        Description[] memory descriptionList = new Description[](count);\r\n\r\n        // Populate the array with the matching descriptions\r\n        uint index = 0;\r\n        for (uint i = 1; i <= descriptionCount; i++) {\r\n            Description memory desc = Descriptions[i];\r\n            if (\r\n                //keccak256(abi.encodePacked(desc.name)) == keccak256(abi.encodePacked(_name)) &&\r\n               //keccak256(abi.encodePacked(desc.description)) == keccak256(abi.encodePacked(_description)) &&\r\n                keccak256(abi.encodePacked(desc.category)) == keccak256(abi.encodePacked(_category)) &&\r\n                keccak256(abi.encodePacked(desc.security)) == keccak256(abi.encodePacked(_security)) &&\r\n                keccak256(abi.encodePacked(desc.legal)) == keccak256(abi.encodePacked(_legal)) &&\r\n                desc.gasConsumption == _gasConsumption\r\n            ) {\r\n                descriptionList[index] = desc;\r\n                index++;\r\n            }\r\n        }\r\n\r\n        return descriptionList;\r\n    }\r\n      function searchByProvider(address _providerAddress) public view returns (Description[] memory) {\r\n        uint count = 0;\r\n\r\n        // Count the number of descriptions by the provider address\r\n        for (uint i = 1; i <= descriptionCount; i++) {\r\n            if (Descriptions[i].provider == _providerAddress) {\r\n                count++;\r\n            }\r\n        }\r\n\r\n        // Create an array to store the descriptions\r\n        Description[] memory descriptionList = new Description[](count);\r\n\r\n        // Populate the array with the descriptions by the provider address\r\n        uint index = 0;\r\n        for (uint i = 1; i <= descriptionCount; i++) {\r\n            if (Descriptions[i].provider == _providerAddress) {\r\n                descriptionList[index] = Descriptions[i];\r\n                index++;\r\n            }\r\n        }\r\n\r\n        return descriptionList;\r\n    }\r\n}\r\n",
  "sourcePath": "C:\\Users\\wfabe\\Documents\\DSD project\\contracts\\DSD.sol",
  "compiler": {
    "name": "solc",
    "version": "0.8.9+commit.e5eed63a.Emscripten.clang"
  },
  "schemaVersion": "3.4.14",
  "updatedAt": "2023-06-14T21:07:51.159Z",
  "networkType": "ethereum",
  "devdoc": {
    "kind": "dev",
    "methods": {},
    "version": 1
  },
  "userdoc": {
    "kind": "user",
    "methods": {},
    "version": 1
  }
}